{
  "contractName": "Meme",
  "abi": [
    {
      "inputs": [
        {
          "internalType": "address payable",
          "name": "_ethReceiver",
          "type": "address"
        },
        {
          "internalType": "contract IERC20",
          "name": "dankToken_",
          "type": "address"
        }
      ],
      "stateMutability": "nonpayable",
      "type": "constructor"
    },
    {
      "anonymous": false,
      "inputs": [
        {
          "indexed": true,
          "internalType": "address",
          "name": "account",
          "type": "address"
        },
        {
          "indexed": true,
          "internalType": "address",
          "name": "operator",
          "type": "address"
        },
        {
          "indexed": false,
          "internalType": "bool",
          "name": "approved",
          "type": "bool"
        }
      ],
      "name": "ApprovalForAll",
      "type": "event"
    },
    {
      "anonymous": false,
      "inputs": [
        {
          "indexed": true,
          "internalType": "address",
          "name": "previousOwner",
          "type": "address"
        },
        {
          "indexed": true,
          "internalType": "address",
          "name": "newOwner",
          "type": "address"
        }
      ],
      "name": "OwnershipTransferred",
      "type": "event"
    },
    {
      "anonymous": false,
      "inputs": [
        {
          "indexed": true,
          "internalType": "address",
          "name": "operator",
          "type": "address"
        },
        {
          "indexed": true,
          "internalType": "address",
          "name": "from",
          "type": "address"
        },
        {
          "indexed": true,
          "internalType": "address",
          "name": "to",
          "type": "address"
        },
        {
          "indexed": false,
          "internalType": "uint256[]",
          "name": "ids",
          "type": "uint256[]"
        },
        {
          "indexed": false,
          "internalType": "uint256[]",
          "name": "values",
          "type": "uint256[]"
        }
      ],
      "name": "TransferBatch",
      "type": "event"
    },
    {
      "anonymous": false,
      "inputs": [
        {
          "indexed": true,
          "internalType": "address",
          "name": "operator",
          "type": "address"
        },
        {
          "indexed": true,
          "internalType": "address",
          "name": "from",
          "type": "address"
        },
        {
          "indexed": true,
          "internalType": "address",
          "name": "to",
          "type": "address"
        },
        {
          "indexed": false,
          "internalType": "uint256",
          "name": "id",
          "type": "uint256"
        },
        {
          "indexed": false,
          "internalType": "uint256",
          "name": "value",
          "type": "uint256"
        }
      ],
      "name": "TransferSingle",
      "type": "event"
    },
    {
      "anonymous": false,
      "inputs": [
        {
          "indexed": false,
          "internalType": "string",
          "name": "value",
          "type": "string"
        },
        {
          "indexed": true,
          "internalType": "uint256",
          "name": "id",
          "type": "uint256"
        }
      ],
      "name": "URI",
      "type": "event"
    },
    {
      "inputs": [
        {
          "internalType": "address",
          "name": "account",
          "type": "address"
        },
        {
          "internalType": "uint256",
          "name": "id",
          "type": "uint256"
        }
      ],
      "name": "balanceOf",
      "outputs": [
        {
          "internalType": "uint256",
          "name": "",
          "type": "uint256"
        }
      ],
      "stateMutability": "view",
      "type": "function"
    },
    {
      "inputs": [
        {
          "internalType": "address[]",
          "name": "accounts",
          "type": "address[]"
        },
        {
          "internalType": "uint256[]",
          "name": "ids",
          "type": "uint256[]"
        }
      ],
      "name": "balanceOfBatch",
      "outputs": [
        {
          "internalType": "uint256[]",
          "name": "",
          "type": "uint256[]"
        }
      ],
      "stateMutability": "view",
      "type": "function"
    },
    {
      "inputs": [],
      "name": "dankToken",
      "outputs": [
        {
          "internalType": "contract IERC20",
          "name": "",
          "type": "address"
        }
      ],
      "stateMutability": "view",
      "type": "function"
    },
    {
      "inputs": [
        {
          "internalType": "address",
          "name": "account",
          "type": "address"
        },
        {
          "internalType": "address",
          "name": "operator",
          "type": "address"
        }
      ],
      "name": "isApprovedForAll",
      "outputs": [
        {
          "internalType": "bool",
          "name": "",
          "type": "bool"
        }
      ],
      "stateMutability": "view",
      "type": "function"
    },
    {
      "inputs": [],
      "name": "owner",
      "outputs": [
        {
          "internalType": "address",
          "name": "",
          "type": "address"
        }
      ],
      "stateMutability": "view",
      "type": "function"
    },
    {
      "inputs": [],
      "name": "renounceOwnership",
      "outputs": [],
      "stateMutability": "nonpayable",
      "type": "function"
    },
    {
      "inputs": [
        {
          "internalType": "address",
          "name": "from",
          "type": "address"
        },
        {
          "internalType": "address",
          "name": "to",
          "type": "address"
        },
        {
          "internalType": "uint256[]",
          "name": "ids",
          "type": "uint256[]"
        },
        {
          "internalType": "uint256[]",
          "name": "amounts",
          "type": "uint256[]"
        },
        {
          "internalType": "bytes",
          "name": "data",
          "type": "bytes"
        }
      ],
      "name": "safeBatchTransferFrom",
      "outputs": [],
      "stateMutability": "nonpayable",
      "type": "function"
    },
    {
      "inputs": [
        {
          "internalType": "address",
          "name": "from",
          "type": "address"
        },
        {
          "internalType": "address",
          "name": "to",
          "type": "address"
        },
        {
          "internalType": "uint256",
          "name": "id",
          "type": "uint256"
        },
        {
          "internalType": "uint256",
          "name": "amount",
          "type": "uint256"
        },
        {
          "internalType": "bytes",
          "name": "data",
          "type": "bytes"
        }
      ],
      "name": "safeTransferFrom",
      "outputs": [],
      "stateMutability": "nonpayable",
      "type": "function"
    },
    {
      "inputs": [
        {
          "internalType": "address",
          "name": "operator",
          "type": "address"
        },
        {
          "internalType": "bool",
          "name": "approved",
          "type": "bool"
        }
      ],
      "name": "setApprovalForAll",
      "outputs": [],
      "stateMutability": "nonpayable",
      "type": "function"
    },
    {
      "inputs": [
        {
          "internalType": "bytes4",
          "name": "interfaceId",
          "type": "bytes4"
        }
      ],
      "name": "supportsInterface",
      "outputs": [
        {
          "internalType": "bool",
          "name": "",
          "type": "bool"
        }
      ],
      "stateMutability": "view",
      "type": "function"
    },
    {
      "inputs": [
        {
          "internalType": "address",
          "name": "newOwner",
          "type": "address"
        }
      ],
      "name": "transferOwnership",
      "outputs": [],
      "stateMutability": "nonpayable",
      "type": "function"
    },
    {
      "inputs": [
        {
          "internalType": "uint256",
          "name": "",
          "type": "uint256"
        }
      ],
      "name": "uri",
      "outputs": [
        {
          "internalType": "string",
          "name": "",
          "type": "string"
        }
      ],
      "stateMutability": "view",
      "type": "function"
    },
    {
      "inputs": [
        {
          "internalType": "string",
          "name": "hash_",
          "type": "string"
        },
        {
          "internalType": "uint256",
          "name": "amount_",
          "type": "uint256"
        },
        {
          "internalType": "uint256",
          "name": "e_price_",
          "type": "uint256"
        },
        {
          "internalType": "uint256",
          "name": "d_price_",
          "type": "uint256"
        }
      ],
      "name": "Set_nft",
      "outputs": [],
      "stateMutability": "nonpayable",
      "type": "function"
    },
    {
      "inputs": [
        {
          "internalType": "string[]",
          "name": "hashes_",
          "type": "string[]"
        },
        {
          "internalType": "uint256[]",
          "name": "amounts_",
          "type": "uint256[]"
        },
        {
          "internalType": "uint256[]",
          "name": "e_prices_",
          "type": "uint256[]"
        },
        {
          "internalType": "uint256[]",
          "name": "d_prices_",
          "type": "uint256[]"
        }
      ],
      "name": "Batch_set_nft",
      "outputs": [],
      "stateMutability": "nonpayable",
      "type": "function"
    },
    {
      "inputs": [
        {
          "internalType": "string",
          "name": "hash_",
          "type": "string"
        }
      ],
      "name": "Set_collection",
      "outputs": [],
      "stateMutability": "nonpayable",
      "type": "function"
    },
    {
      "inputs": [
        {
          "internalType": "uint256",
          "name": "id_",
          "type": "uint256"
        }
      ],
      "name": "Get_collection",
      "outputs": [
        {
          "internalType": "string",
          "name": "",
          "type": "string"
        },
        {
          "internalType": "address",
          "name": "",
          "type": "address"
        }
      ],
      "stateMutability": "nonpayable",
      "type": "function"
    },
    {
      "inputs": [
        {
          "internalType": "uint256",
          "name": "id_",
          "type": "uint256"
        }
      ],
      "name": "Remove_collection",
      "outputs": [
        {
          "internalType": "bool",
          "name": "",
          "type": "bool"
        }
      ],
      "stateMutability": "nonpayable",
      "type": "function"
    },
    {
      "inputs": [
        {
          "internalType": "uint256",
          "name": "id_",
          "type": "uint256"
        }
      ],
      "name": "Get_nft",
      "outputs": [
        {
          "internalType": "string",
          "name": "",
          "type": "string"
        },
        {
          "internalType": "uint256",
          "name": "",
          "type": "uint256"
        },
        {
          "internalType": "uint256",
          "name": "",
          "type": "uint256"
        }
      ],
      "stateMutability": "view",
      "type": "function"
    },
    {
      "inputs": [],
      "name": "Get_nft_amount",
      "outputs": [
        {
          "internalType": "uint256",
          "name": "",
          "type": "uint256"
        }
      ],
      "stateMutability": "view",
      "type": "function"
    },
    {
      "inputs": [
        {
          "internalType": "uint256",
          "name": "price_",
          "type": "uint256"
        }
      ],
      "name": "Get_list_fee",
      "outputs": [
        {
          "internalType": "uint256",
          "name": "",
          "type": "uint256"
        }
      ],
      "stateMutability": "view",
      "type": "function"
    },
    {
      "inputs": [
        {
          "internalType": "uint256",
          "name": "id_",
          "type": "uint256"
        },
        {
          "internalType": "uint256",
          "name": "e_price_",
          "type": "uint256"
        },
        {
          "internalType": "uint256",
          "name": "d_price_",
          "type": "uint256"
        },
        {
          "internalType": "uint256",
          "name": "amount_",
          "type": "uint256"
        }
      ],
      "name": "Set_sell",
      "outputs": [
        {
          "internalType": "uint256",
          "name": "",
          "type": "uint256"
        }
      ],
      "stateMutability": "payable",
      "type": "function"
    },
    {
      "inputs": [
        {
          "internalType": "uint256",
          "name": "sell_id_",
          "type": "uint256"
        },
        {
          "internalType": "uint256",
          "name": "e_price_",
          "type": "uint256"
        },
        {
          "internalType": "uint256",
          "name": "d_price_",
          "type": "uint256"
        },
        {
          "internalType": "uint256",
          "name": "amount_",
          "type": "uint256"
        }
      ],
      "name": "Update_sell",
      "outputs": [],
      "stateMutability": "nonpayable",
      "type": "function"
    },
    {
      "inputs": [
        {
          "internalType": "uint256",
          "name": "id_",
          "type": "uint256"
        }
      ],
      "name": "Remove_selling",
      "outputs": [],
      "stateMutability": "nonpayable",
      "type": "function"
    },
    {
      "inputs": [
        {
          "internalType": "uint256",
          "name": "id_",
          "type": "uint256"
        }
      ],
      "name": "Get_sell",
      "outputs": [
        {
          "internalType": "uint256",
          "name": "",
          "type": "uint256"
        },
        {
          "internalType": "uint256",
          "name": "",
          "type": "uint256"
        },
        {
          "internalType": "address",
          "name": "",
          "type": "address"
        },
        {
          "internalType": "uint256",
          "name": "",
          "type": "uint256"
        }
      ],
      "stateMutability": "view",
      "type": "function"
    },
    {
      "inputs": [
        {
          "internalType": "uint256",
          "name": "price_",
          "type": "uint256"
        }
      ],
      "name": "Get_sell_fee",
      "outputs": [
        {
          "internalType": "uint256",
          "name": "",
          "type": "uint256"
        }
      ],
      "stateMutability": "view",
      "type": "function"
    },
    {
      "inputs": [
        {
          "internalType": "uint256",
          "name": "price_",
          "type": "uint256"
        }
      ],
      "name": "Get_real_price",
      "outputs": [
        {
          "internalType": "uint256",
          "name": "",
          "type": "uint256"
        }
      ],
      "stateMutability": "view",
      "type": "function"
    },
    {
      "inputs": [
        {
          "internalType": "uint256",
          "name": "sell_id_",
          "type": "uint256"
        },
        {
          "internalType": "uint256",
          "name": "amount_",
          "type": "uint256"
        },
        {
          "internalType": "uint256",
          "name": "token_kind_",
          "type": "uint256"
        }
      ],
      "name": "Buying",
      "outputs": [],
      "stateMutability": "payable",
      "type": "function"
    },
    {
      "inputs": [
        {
          "internalType": "uint256",
          "name": "id_",
          "type": "uint256"
        }
      ],
      "name": "Set_blacklist",
      "outputs": [],
      "stateMutability": "nonpayable",
      "type": "function"
    },
    {
      "inputs": [
        {
          "internalType": "uint256",
          "name": "id_",
          "type": "uint256"
        }
      ],
      "name": "check_blacklist",
      "outputs": [
        {
          "internalType": "bool",
          "name": "",
          "type": "bool"
        }
      ],
      "stateMutability": "view",
      "type": "function"
    }
  ],
  "bytecode": "0x60806040523480156200001157600080fd5b506040516200627438038062006274833981810160405281019062000037919062000344565b6040518060200160405280600081525062000058816200024260201b60201c565b5060006200006b6200025e60201b60201c565b905080600360006101000a81548173ffffffffffffffffffffffffffffffffffffffff021916908373ffffffffffffffffffffffffffffffffffffffff1602179055508073ffffffffffffffffffffffffffffffffffffffff16600073ffffffffffffffffffffffffffffffffffffffff167f8be0079c531659141344cd1fd0a4f28419497f9722a3daafe3b4186f6b6457e060405160405180910390a350600073ffffffffffffffffffffffffffffffffffffffff168273ffffffffffffffffffffffffffffffffffffffff1614156200014557600080fd5b600073ffffffffffffffffffffffffffffffffffffffff168173ffffffffffffffffffffffffffffffffffffffff161415620001b8576040517f08c379a0000000000000000000000000000000000000000000000000000000008152600401620001af90620003ac565b60405180910390fd5b81600960006101000a81548173ffffffffffffffffffffffffffffffffffffffff021916908373ffffffffffffffffffffffffffffffffffffffff16021790555080600a60006101000a81548173ffffffffffffffffffffffffffffffffffffffff021916908373ffffffffffffffffffffffffffffffffffffffff1602179055505050620004fd565b80600290805190602001906200025a92919062000266565b5050565b600033905090565b82805462000274906200043b565b90600052602060002090601f016020900481019282620002985760008555620002e4565b82601f10620002b357805160ff1916838001178555620002e4565b82800160010185558215620002e4579182015b82811115620002e3578251825591602001919060010190620002c6565b5b509050620002f39190620002f7565b5090565b5b8082111562000312576000816000905550600101620002f8565b5090565b6000815190506200032781620004c9565b92915050565b6000815190506200033e81620004e3565b92915050565b600080604083850312156200035857600080fd5b6000620003688582860162000316565b92505060206200037b858286016200032d565b9150509250929050565b600062000394600d83620003ce565b9150620003a182620004a0565b602082019050919050565b60006020820190508181036000830152620003c78162000385565b9050919050565b600082825260208201905092915050565b6000620003ec826200041b565b9050919050565b600062000400826200041b565b9050919050565b60006200041482620003df565b9050919050565b600073ffffffffffffffffffffffffffffffffffffffff82169050919050565b600060028204905060018216806200045457607f821691505b602082108114156200046b576200046a62000471565b5b50919050565b7f4e487b7100000000000000000000000000000000000000000000000000000000600052602260045260246000fd5b7f496e76616c696420746f6b656e00000000000000000000000000000000000000600082015250565b620004d481620003f3565b8114620004e057600080fd5b50565b620004ee8162000407565b8114620004fa57600080fd5b50565b615d67806200050d6000396000f3fe6080604052600436106101c15760003560e01c80638da5cb5b116100f7578063d6e903f411610095578063f2fde38b11610064578063f2fde38b146106cc578063f41f3c67146106f5578063f42d88b41461071e578063fd2b351614610747576101c1565b8063d6e903f4146105fb578063d816bcf814610626578063e985e9c514610666578063f242432a146106a3576101c1565b8063a22cb465116100d1578063a22cb4651461051b578063b94de42b14610544578063beb3d65414610581578063cf58f0a5146105be576101c1565b80638da5cb5b14610489578063912e6d6d146104b457806396b0eb0f146104dd576101c1565b80634645ffcd11610164578063715018a61161013e578063715018a6146103e157806375feae25146103f8578063842dbcde14610423578063886cd0cf1461044c576101c1565b80634645ffcd1461033e5780634e1273f4146103675780635b8746d3146103a4576101c1565b806319258533116101a0578063192585331461027d57806325061dae146102a65780632eb2c2d6146102e557806335f08d0c1461030e576101c1565b8062fdd58e146101c657806301ffc9a7146102035780630e89341c14610240575b600080fd5b3480156101d257600080fd5b506101ed60048036038101906101e8919061406d565b610763565b6040516101fa9190614eeb565b60405180910390f35b34801561020f57600080fd5b5061022a60048036038101906102259190614201565b61082c565b6040516102379190614aa5565b60405180910390f35b34801561024c57600080fd5b506102676004803603810190610262919061430f565b61090e565b6040516102749190614adb565b60405180910390f35b34801561028957600080fd5b506102a4600480360381019061029f919061430f565b6109a2565b005b3480156102b257600080fd5b506102cd60048036038101906102c8919061430f565b610b24565b6040516102dc93929190614b2d565b60405180910390f35b3480156102f157600080fd5b5061030c60048036038101906103079190613ee3565b610ca5565b005b61032860048036038101906103239190614387565b61109b565b6040516103359190614eeb565b60405180910390f35b34801561034a57600080fd5b5061036560048036038101906103609190614294565b611537565b005b34801561037357600080fd5b5061038e600480360381019061038991906140a9565b611663565b60405161039b9190614a4c565b60405180910390f35b3480156103b057600080fd5b506103cb60048036038101906103c6919061430f565b611814565b6040516103d89190614eeb565b60405180910390f35b3480156103ed57600080fd5b506103f6611879565b005b34801561040457600080fd5b5061040d6119b6565b60405161041a9190614eeb565b60405180910390f35b34801561042f57600080fd5b5061044a60048036038101906104459190614115565b6119c3565b005b34801561045857600080fd5b50610473600480360381019061046e919061430f565b611bc1565b6040516104809190614aa5565b60405180910390f35b34801561049557600080fd5b5061049e611c32565b6040516104ab9190614938565b60405180910390f35b3480156104c057600080fd5b506104db60048036038101906104d69190614253565b611c5c565b005b3480156104e957600080fd5b5061050460048036038101906104ff919061430f565b611d65565b604051610512929190614afd565b60405180910390f35b34801561052757600080fd5b50610542600480360381019061053d9190614031565b611efc565b005b34801561055057600080fd5b5061056b6004803603810190610566919061430f565b61207d565b6040516105789190614eeb565b60405180910390f35b34801561058d57600080fd5b506105a860048036038101906105a3919061430f565b6120e3565b6040516105b59190614aa5565b60405180910390f35b3480156105ca57600080fd5b506105e560048036038101906105e0919061430f565b6121b7565b6040516105f29190614eeb565b60405180910390f35b34801561060757600080fd5b506106106121cd565b60405161061d9190614ac0565b60405180910390f35b34801561063257600080fd5b5061064d6004803603810190610648919061430f565b6121f3565b60405161065d9493929190614f2f565b60405180910390f35b34801561067257600080fd5b5061068d60048036038101906106889190613ea7565b61239f565b60405161069a9190614aa5565b60405180910390f35b3480156106af57600080fd5b506106ca60048036038101906106c59190613fa2565b612433565b005b3480156106d857600080fd5b506106f360048036038101906106ee9190613e7e565b61274b565b005b34801561070157600080fd5b5061071c6004803603810190610717919061430f565b6128f7565b005b34801561072a57600080fd5b5061074560048036038101906107409190614387565b612a4f565b005b610761600480360381019061075c9190614338565b612c7d565b005b60008073ffffffffffffffffffffffffffffffffffffffff168373ffffffffffffffffffffffffffffffffffffffff1614156107d4576040517f08c379a00000000000000000000000000000000000000000000000000000000081526004016107cb90614bab565b60405180910390fd5b60008083815260200190815260200160002060008473ffffffffffffffffffffffffffffffffffffffff1673ffffffffffffffffffffffffffffffffffffffff16815260200190815260200160002054905092915050565b60007fd9b67a26000000000000000000000000000000000000000000000000000000007bffffffffffffffffffffffffffffffffffffffffffffffffffffffff1916827bffffffffffffffffffffffffffffffffffffffffffffffffffffffff191614806108f757507f0e89341c000000000000000000000000000000000000000000000000000000007bffffffffffffffffffffffffffffffffffffffffffffffffffffffff1916827bffffffffffffffffffffffffffffffffffffffffffffffffffffffff1916145b806109075750610906826133ba565b5b9050919050565b60606002805461091d90615320565b80601f016020809104026020016040519081016040528092919081815260200182805461094990615320565b80156109965780601f1061096b57610100808354040283529160200191610996565b820191906000526020600020905b81548152906001019060200180831161097957829003601f168201915b50505050509050919050565b6109aa613424565b73ffffffffffffffffffffffffffffffffffffffff166109c8611c32565b73ffffffffffffffffffffffffffffffffffffffff1614610a1e576040517f08c379a0000000000000000000000000000000000000000000000000000000008152600401610a1590614d0b565b60405180910390fd5b6004805490508110610a65576040517f08c379a0000000000000000000000000000000000000000000000000000000008152600401610a5c90614d4b565b60405180910390fd5b600015156008600083815260200190815260200160002060009054906101000a900460ff16151514610acc576040517f08c379a0000000000000000000000000000000000000000000000000000000008152600401610ac390614bcb565b60405180910390fd5b600781908060018154018082558091505060019003906000526020600020016000909190919091505560016008600083815260200190815260200160002060006101000a81548160ff02191690831515021790555050565b606060008060048481548110610b63577f4e487b7100000000000000000000000000000000000000000000000000000000600052603260045260246000fd5b906000526020600020906003020160000160048581548110610bae577f4e487b7100000000000000000000000000000000000000000000000000000000600052603260045260246000fd5b90600052602060002090600302016001015460048681548110610bfa577f4e487b7100000000000000000000000000000000000000000000000000000000600052603260045260246000fd5b906000526020600020906003020160020154828054610c1890615320565b80601f0160208091040260200160405190810160405280929190818152602001828054610c4490615320565b8015610c915780601f10610c6657610100808354040283529160200191610c91565b820191906000526020600020905b815481529060010190602001808311610c7457829003601f168201915b505050505092509250925092509193909250565b8151835114610ce9576040517f08c379a0000000000000000000000000000000000000000000000000000000008152600401610ce090614e8b565b60405180910390fd5b600073ffffffffffffffffffffffffffffffffffffffff168473ffffffffffffffffffffffffffffffffffffffff161415610d59576040517f08c379a0000000000000000000000000000000000000000000000000000000008152600401610d5090614c6b565b60405180910390fd5b610d61613424565b73ffffffffffffffffffffffffffffffffffffffff168573ffffffffffffffffffffffffffffffffffffffff161480610da75750610da685610da1613424565b61239f565b5b610de6576040517f08c379a0000000000000000000000000000000000000000000000000000000008152600401610ddd90614c8b565b60405180910390fd5b6000610df0613424565b9050610e0081878787878761342c565b60005b8451811015611006576000858281518110610e47577f4e487b7100000000000000000000000000000000000000000000000000000000600052603260045260246000fd5b602002602001015190506000858381518110610e8c577f4e487b7100000000000000000000000000000000000000000000000000000000600052603260045260246000fd5b60200260200101519050600080600084815260200190815260200160002060008b73ffffffffffffffffffffffffffffffffffffffff1673ffffffffffffffffffffffffffffffffffffffff16815260200190815260200160002054905081811015610f2d576040517f08c379a0000000000000000000000000000000000000000000000000000000008152600401610f2490614ceb565b60405180910390fd5b8181610f3991906151dc565b60008085815260200190815260200160002060008c73ffffffffffffffffffffffffffffffffffffffff1673ffffffffffffffffffffffffffffffffffffffff168152602001908152602001600020819055508160008085815260200190815260200160002060008b73ffffffffffffffffffffffffffffffffffffffff1673ffffffffffffffffffffffffffffffffffffffff1681526020019081526020016000206000828254610feb91906150fb565b9250508190555050505080610fff90615383565b9050610e03565b508473ffffffffffffffffffffffffffffffffffffffff168673ffffffffffffffffffffffffffffffffffffffff168273ffffffffffffffffffffffffffffffffffffffff167f4a39dc06d4c0dbc64b70af90fd698a233a518aa5d07e595d983b8c0526c8f7fb878760405161107d929190614a6e565b60405180910390a4611093818787878787613434565b505050505050565b600060048054905085106110e4576040517f08c379a00000000000000000000000000000000000000000000000000000000081526004016110db90614ccb565b60405180910390fd5b60008411806110f35750600083115b611132576040517f08c379a000000000000000000000000000000000000000000000000000000000815260040161112990614d6b565b60405180910390fd5b6000841480156111425750600083115b1561127d573482611152856121b7565b61115c9190615182565b1461119c576040517f08c379a000000000000000000000000000000000000000000000000000000000815260040161119390614c4b565b60405180910390fd5b600a60009054906101000a900473ffffffffffffffffffffffffffffffffffffffff1673ffffffffffffffffffffffffffffffffffffffff166323b872dd33600960009054906101000a900473ffffffffffffffffffffffffffffffffffffffff16611207876121b7565b6040518463ffffffff1660e01b815260040161122593929190614953565b602060405180830381600087803b15801561123f57600080fd5b505af1158015611253573d6000803e3d6000fd5b505050506040513d601f19601f8201168201806040525081019061127791906141d8565b5061137c565b60008411801561128d5750600083145b1561137b57348261129d866121b7565b6112a79190615182565b146112e7576040517f08c379a00000000000000000000000000000000000000000000000000000000081526004016112de90614c4b565b60405180910390fd5b600960009054906101000a900473ffffffffffffffffffffffffffffffffffffffff1673ffffffffffffffffffffffffffffffffffffffff16611329856121b7565b60405161133590614923565b60006040518083038185875af1925050503d8060008114611372576040519150601f19603f3d011682016040523d82523d6000602084013e611377565b606091505b5050505b5b6000821180156113955750816113923387610763565b10155b6113d4576040517f08c379a00000000000000000000000000000000000000000000000000000000081526004016113cb90614e0b565b60405180910390fd5b600115156008600087815260200190815260200160002060009054906101000a900460ff161515141561143c576040517f08c379a000000000000000000000000000000000000000000000000000000000815260040161143390614dcb565b60405180910390fd5b60006040518060a001604052808781526020018681526020018581526020013373ffffffffffffffffffffffffffffffffffffffff168152602001848152509050600681908060018154018082558091505060019003906000526020600020906005020160009091909190915060008201518160000155602082015181600101556040820151816002015560608201518160030160006101000a81548173ffffffffffffffffffffffffffffffffffffffff021916908373ffffffffffffffffffffffffffffffffffffffff160217905550608082015181600401555050600160068054905061152c91906151dc565b915050949350505050565b600084511161157b576040517f08c379a000000000000000000000000000000000000000000000000000000000815260040161157290614d2b565b60405180910390fd5b600083116115be576040517f08c379a00000000000000000000000000000000000000000000000000000000081526004016115b590614cab565b60405180910390fd5b6115de33600480549050856040518060200160405280600081525061361b565b6000604051806060016040528086815260200184815260200183815250905060048190806001815401808255809150506001900390600052602060002090600302016000909190919091506000820151816000019080519060200190611645929190613a71565b50602082015181600101556040820151816002015550505050505050565b606081518351146116a9576040517f08c379a00000000000000000000000000000000000000000000000000000000081526004016116a090614e6b565b60405180910390fd5b6000835167ffffffffffffffff8111156116ec577f4e487b7100000000000000000000000000000000000000000000000000000000600052604160045260246000fd5b60405190808252806020026020018201604052801561171a5781602001602082028036833780820191505090505b50905060005b8451811015611809576117b3858281518110611765577f4e487b7100000000000000000000000000000000000000000000000000000000600052603260045260246000fd5b60200260200101518583815181106117a6577f4e487b7100000000000000000000000000000000000000000000000000000000600052603260045260246000fd5b6020026020010151610763565b8282815181106117ec577f4e487b7100000000000000000000000000000000000000000000000000000000600052603260045260246000fd5b6020026020010181815250508061180290615383565b9050611720565b508091505092915050565b6000808211611858576040517f08c379a000000000000000000000000000000000000000000000000000000000815260040161184f90614d8b565b60405180910390fd5b6103e86019836118689190615182565b6118729190615151565b9050919050565b611881613424565b73ffffffffffffffffffffffffffffffffffffffff1661189f611c32565b73ffffffffffffffffffffffffffffffffffffffff16146118f5576040517f08c379a00000000000000000000000000000000000000000000000000000000081526004016118ec90614d0b565b60405180910390fd5b600073ffffffffffffffffffffffffffffffffffffffff16600360009054906101000a900473ffffffffffffffffffffffffffffffffffffffff1673ffffffffffffffffffffffffffffffffffffffff167f8be0079c531659141344cd1fd0a4f28419497f9722a3daafe3b4186f6b6457e060405160405180910390a36000600360006101000a81548173ffffffffffffffffffffffffffffffffffffffff021916908373ffffffffffffffffffffffffffffffffffffffff160217905550565b6000600480549050905090565b8251845114611a07576040517f08c379a00000000000000000000000000000000000000000000000000000000081526004016119fe90614c2b565b60405180910390fd5b8151845114611a4b576040517f08c379a0000000000000000000000000000000000000000000000000000000008152600401611a4290614c2b565b60405180910390fd5b8051845114611a8f576040517f08c379a0000000000000000000000000000000000000000000000000000000008152600401611a8690614c2b565b60405180910390fd5b60005b8451811015611bba57611ba7858281518110611ad7577f4e487b7100000000000000000000000000000000000000000000000000000000600052603260045260246000fd5b6020026020010151858381518110611b18577f4e487b7100000000000000000000000000000000000000000000000000000000600052603260045260246000fd5b6020026020010151858481518110611b59577f4e487b7100000000000000000000000000000000000000000000000000000000600052603260045260246000fd5b6020026020010151858581518110611b9a577f4e487b7100000000000000000000000000000000000000000000000000000000600052603260045260246000fd5b6020026020010151611537565b8080611bb290615383565b915050611a92565b5050505050565b60006004805490508210611c0a576040517f08c379a0000000000000000000000000000000000000000000000000000000008152600401611c0190614d4b565b60405180910390fd5b6008600083815260200190815260200160002060009054906101000a900460ff169050919050565b6000600360009054906101000a900473ffffffffffffffffffffffffffffffffffffffff16905090565b6000815111611ca0576040517f08c379a0000000000000000000000000000000000000000000000000000000008152600401611c9790614d2b565b60405180910390fd5b600060405180604001604052808381526020013373ffffffffffffffffffffffffffffffffffffffff16815250905060058190806001815401808255809150506001900390600052602060002090600202016000909190919091506000820151816000019080519060200190611d17929190613a71565b5060208201518160010160006101000a81548173ffffffffffffffffffffffffffffffffffffffff021916908373ffffffffffffffffffffffffffffffffffffffff16021790555050505050565b606060006005805490508310611db0576040517f08c379a0000000000000000000000000000000000000000000000000000000008152600401611da790614dab565b60405180910390fd5b60058381548110611dea577f4e487b7100000000000000000000000000000000000000000000000000000000600052603260045260246000fd5b906000526020600020906002020160000160058481548110611e35577f4e487b7100000000000000000000000000000000000000000000000000000000600052603260045260246000fd5b906000526020600020906002020160010160009054906101000a900473ffffffffffffffffffffffffffffffffffffffff16818054611e7390615320565b80601f0160208091040260200160405190810160405280929190818152602001828054611e9f90615320565b8015611eec5780601f10611ec157610100808354040283529160200191611eec565b820191906000526020600020905b815481529060010190602001808311611ecf57829003601f168201915b5050505050915091509150915091565b8173ffffffffffffffffffffffffffffffffffffffff16611f1b613424565b73ffffffffffffffffffffffffffffffffffffffff161415611f72576040517f08c379a0000000000000000000000000000000000000000000000000000000008152600401611f6990614e4b565b60405180910390fd5b8060016000611f7f613424565b73ffffffffffffffffffffffffffffffffffffffff1673ffffffffffffffffffffffffffffffffffffffff16815260200190815260200160002060008473ffffffffffffffffffffffffffffffffffffffff1673ffffffffffffffffffffffffffffffffffffffff16815260200190815260200160002060006101000a81548160ff0219169083151502179055508173ffffffffffffffffffffffffffffffffffffffff1661202c613424565b73ffffffffffffffffffffffffffffffffffffffff167f17307eab39ab6107e8899845ad3d59bd9653f200f220920489ca2b5937696c31836040516120719190614aa5565b60405180910390a35050565b60008082116120c1576040517f08c379a00000000000000000000000000000000000000000000000000000000081526004016120b890614d8b565b60405180910390fd5b6103e86103cf836120d29190615182565b6120dc9190615151565b9050919050565b6000600580549050821061212c576040517f08c379a000000000000000000000000000000000000000000000000000000000815260040161212390614dab565b60405180910390fd5b60058281548110612166577f4e487b7100000000000000000000000000000000000000000000000000000000600052603260045260246000fd5b9060005260206000209060020201600080820160006121859190613af7565b6001820160006101000a81549073ffffffffffffffffffffffffffffffffffffffff0219169055505060019050919050565b60006064826121c69190615151565b9050919050565b600a60009054906101000a900473ffffffffffffffffffffffffffffffffffffffff1681565b6000806000806006805490508510612240576040517f08c379a000000000000000000000000000000000000000000000000000000000815260040161223790614e2b565b60405180910390fd5b6006858154811061227a577f4e487b7100000000000000000000000000000000000000000000000000000000600052603260045260246000fd5b906000526020600020906005020160010154600686815481106122c6577f4e487b7100000000000000000000000000000000000000000000000000000000600052603260045260246000fd5b90600052602060002090600502016002015460068781548110612312577f4e487b7100000000000000000000000000000000000000000000000000000000600052603260045260246000fd5b906000526020600020906005020160030160009054906101000a900473ffffffffffffffffffffffffffffffffffffffff166006888154811061237e577f4e487b7100000000000000000000000000000000000000000000000000000000600052603260045260246000fd5b90600052602060002090600502016004015493509350935093509193509193565b6000600160008473ffffffffffffffffffffffffffffffffffffffff1673ffffffffffffffffffffffffffffffffffffffff16815260200190815260200160002060008373ffffffffffffffffffffffffffffffffffffffff1673ffffffffffffffffffffffffffffffffffffffff16815260200190815260200160002060009054906101000a900460ff16905092915050565b600073ffffffffffffffffffffffffffffffffffffffff168473ffffffffffffffffffffffffffffffffffffffff1614156124a3576040517f08c379a000000000000000000000000000000000000000000000000000000000815260040161249a90614c6b565b60405180910390fd5b6124ab613424565b73ffffffffffffffffffffffffffffffffffffffff168573ffffffffffffffffffffffffffffffffffffffff1614806124f157506124f0856124eb613424565b61239f565b5b612530576040517f08c379a000000000000000000000000000000000000000000000000000000000815260040161252790614c0b565b60405180910390fd5b600061253a613424565b905061255a81878761254b886137b1565b612554886137b1565b8761342c565b600080600086815260200190815260200160002060008873ffffffffffffffffffffffffffffffffffffffff1673ffffffffffffffffffffffffffffffffffffffff168152602001908152602001600020549050838110156125f1576040517f08c379a00000000000000000000000000000000000000000000000000000000081526004016125e890614ceb565b60405180910390fd5b83816125fd91906151dc565b60008087815260200190815260200160002060008973ffffffffffffffffffffffffffffffffffffffff1673ffffffffffffffffffffffffffffffffffffffff168152602001908152602001600020819055508360008087815260200190815260200160002060008873ffffffffffffffffffffffffffffffffffffffff1673ffffffffffffffffffffffffffffffffffffffff16815260200190815260200160002060008282546126af91906150fb565b925050819055508573ffffffffffffffffffffffffffffffffffffffff168773ffffffffffffffffffffffffffffffffffffffff168373ffffffffffffffffffffffffffffffffffffffff167fc3d58168c5ae7397731d063d5bbf3d657854427343f4c083240f7aacaa2d0f62888860405161272c929190614f06565b60405180910390a4612742828888888888613877565b50505050505050565b612753613424565b73ffffffffffffffffffffffffffffffffffffffff16612771611c32565b73ffffffffffffffffffffffffffffffffffffffff16146127c7576040517f08c379a00000000000000000000000000000000000000000000000000000000081526004016127be90614d0b565b60405180910390fd5b600073ffffffffffffffffffffffffffffffffffffffff168173ffffffffffffffffffffffffffffffffffffffff161415612837576040517f08c379a000000000000000000000000000000000000000000000000000000000815260040161282e90614beb565b60405180910390fd5b8073ffffffffffffffffffffffffffffffffffffffff16600360009054906101000a900473ffffffffffffffffffffffffffffffffffffffff1673ffffffffffffffffffffffffffffffffffffffff167f8be0079c531659141344cd1fd0a4f28419497f9722a3daafe3b4186f6b6457e060405160405180910390a380600360006101000a81548173ffffffffffffffffffffffffffffffffffffffff021916908373ffffffffffffffffffffffffffffffffffffffff16021790555050565b6128ff613424565b73ffffffffffffffffffffffffffffffffffffffff1661291d611c32565b73ffffffffffffffffffffffffffffffffffffffff1614612973576040517f08c379a000000000000000000000000000000000000000000000000000000000815260040161296a90614d0b565b60405180910390fd5b60068054905081106129ba576040517f08c379a00000000000000000000000000000000000000000000000000000000081526004016129b190614e2b565b60405180910390fd5b600681815481106129f4577f4e487b7100000000000000000000000000000000000000000000000000000000600052603260045260246000fd5b9060005260206000209060050201600080820160009055600182016000905560028201600090556003820160006101000a81549073ffffffffffffffffffffffffffffffffffffffff02191690556004820160009055505050565b6006805490508410612a96576040517f08c379a0000000000000000000000000000000000000000000000000000000008152600401612a8d90614e2b565b60405180910390fd5b6000831180612aa55750600082115b612ae4576040517f08c379a0000000000000000000000000000000000000000000000000000000008152600401612adb90614d6b565b60405180910390fd5b600081118015612b48575080612b453360068781548110612b2e577f4e487b7100000000000000000000000000000000000000000000000000000000600052603260045260246000fd5b906000526020600020906005020160000154610763565b10155b612b87576040517f08c379a0000000000000000000000000000000000000000000000000000000008152600401612b7e90614e0b565b60405180910390fd5b8260068581548110612bc2577f4e487b7100000000000000000000000000000000000000000000000000000000600052603260045260246000fd5b9060005260206000209060050201600101819055508160068581548110612c12577f4e487b7100000000000000000000000000000000000000000000000000000000600052603260045260246000fd5b9060005260206000209060050201600201819055508060068581548110612c62577f4e487b7100000000000000000000000000000000000000000000000000000000600052603260045260246000fd5b90600052602060002090600502016004018190555050505050565b6006805490508310612cc4576040517f08c379a0000000000000000000000000000000000000000000000000000000008152600401612cbb90614eab565b60405180910390fd5b60068381548110612cfe577f4e487b7100000000000000000000000000000000000000000000000000000000600052603260045260246000fd5b906000526020600020906005020160040154821115612d52576040517f08c379a0000000000000000000000000000000000000000000000000000000008152600401612d4990614deb565b60405180910390fd5b612e243360068581548110612d90577f4e487b7100000000000000000000000000000000000000000000000000000000600052603260045260246000fd5b906000526020600020906005020160030160009054906101000a900473ffffffffffffffffffffffffffffffffffffffff1660068681548110612dfc577f4e487b7100000000000000000000000000000000000000000000000000000000600052603260045260246000fd5b9060005260206000209060050201600001548560405180602001604052806000815250612433565b60068381548110612e5e577f4e487b7100000000000000000000000000000000000000000000000000000000600052603260045260246000fd5b906000526020600020906005020160040154821415612e8557612e80836128f7565b612f2c565b8160068481548110612ec0577f4e487b7100000000000000000000000000000000000000000000000000000000600052603260045260246000fd5b906000526020600020906005020160040154612edc91906151dc565b60068481548110612f16577f4e487b7100000000000000000000000000000000000000000000000000000000600052603260045260246000fd5b9060005260206000209060050201600401819055505b600081141561311d5760068381548110612f6f577f4e487b7100000000000000000000000000000000000000000000000000000000600052603260045260246000fd5b906000526020600020906005020160030160009054906101000a900473ffffffffffffffffffffffffffffffffffffffff1673ffffffffffffffffffffffffffffffffffffffff166108fc61300e60068681548110612ff7577f4e487b7100000000000000000000000000000000000000000000000000000000600052603260045260246000fd5b90600052602060002090600502016001015461207d565b9081150290604051600060405180830381858888f19350505050158015613039573d6000803e3d6000fd5b50600960009054906101000a900473ffffffffffffffffffffffffffffffffffffffff1673ffffffffffffffffffffffffffffffffffffffff166130c7600685815481106130b0577f4e487b7100000000000000000000000000000000000000000000000000000000600052603260045260246000fd5b906000526020600020906005020160010154611814565b6040516130d390614923565b60006040518083038185875af1925050503d8060008114613110576040519150601f19603f3d011682016040523d82523d6000602084013e613115565b606091505b5050506133b5565b600a60009054906101000a900473ffffffffffffffffffffffffffffffffffffffff1673ffffffffffffffffffffffffffffffffffffffff166323b872dd33600960009054906101000a900473ffffffffffffffffffffffffffffffffffffffff166131d3600688815481106131bc577f4e487b7100000000000000000000000000000000000000000000000000000000600052603260045260246000fd5b906000526020600020906005020160020154611814565b6040518463ffffffff1660e01b81526004016131f193929190614953565b602060405180830381600087803b15801561320b57600080fd5b505af115801561321f573d6000803e3d6000fd5b505050506040513d601f19601f8201168201806040525081019061324391906141d8565b50600a60009054906101000a900473ffffffffffffffffffffffffffffffffffffffff1673ffffffffffffffffffffffffffffffffffffffff166323b872dd33600686815481106132bd577f4e487b7100000000000000000000000000000000000000000000000000000000600052603260045260246000fd5b906000526020600020906005020160030160009054906101000a900473ffffffffffffffffffffffffffffffffffffffff166133436006888154811061332c577f4e487b7100000000000000000000000000000000000000000000000000000000600052603260045260246000fd5b90600052602060002090600502016002015461207d565b6040518463ffffffff1660e01b815260040161336193929190614953565b602060405180830381600087803b15801561337b57600080fd5b505af115801561338f573d6000803e3d6000fd5b505050506040513d601f19601f820116820180604052508101906133b391906141d8565b505b505050565b60007f01ffc9a7000000000000000000000000000000000000000000000000000000007bffffffffffffffffffffffffffffffffffffffffffffffffffffffff1916827bffffffffffffffffffffffffffffffffffffffffffffffffffffffff1916149050919050565b600033905090565b505050505050565b6134538473ffffffffffffffffffffffffffffffffffffffff16613a5e565b15613613578373ffffffffffffffffffffffffffffffffffffffff1663bc197c8187878686866040518663ffffffff1660e01b815260040161349995949392919061498a565b602060405180830381600087803b1580156134b357600080fd5b505af19250505080156134e457506040513d601f19601f820116820180604052508101906134e1919061422a565b60015b61358a576134f0615488565b806308c379a0141561354d5750613505615c3f565b80613510575061354f565b806040517f08c379a00000000000000000000000000000000000000000000000000000000081526004016135449190614adb565b60405180910390fd5b505b6040517f08c379a000000000000000000000000000000000000000000000000000000000815260040161358190614b6b565b60405180910390fd5b63bc197c8160e01b7bffffffffffffffffffffffffffffffffffffffffffffffffffffffff1916817bffffffffffffffffffffffffffffffffffffffffffffffffffffffff191614613611576040517f08c379a000000000000000000000000000000000000000000000000000000000815260040161360890614b8b565b60405180910390fd5b505b505050505050565b600073ffffffffffffffffffffffffffffffffffffffff168473ffffffffffffffffffffffffffffffffffffffff16141561368b576040517f08c379a000000000000000000000000000000000000000000000000000000000815260040161368290614ecb565b60405180910390fd5b6000613695613424565b90506136b6816000876136a7886137b1565b6136b0886137b1565b8761342c565b8260008086815260200190815260200160002060008773ffffffffffffffffffffffffffffffffffffffff1673ffffffffffffffffffffffffffffffffffffffff168152602001908152602001600020600082825461371591906150fb565b925050819055508473ffffffffffffffffffffffffffffffffffffffff16600073ffffffffffffffffffffffffffffffffffffffff168273ffffffffffffffffffffffffffffffffffffffff167fc3d58168c5ae7397731d063d5bbf3d657854427343f4c083240f7aacaa2d0f628787604051613793929190614f06565b60405180910390a46137aa81600087878787613877565b5050505050565b60606000600167ffffffffffffffff8111156137f6577f4e487b7100000000000000000000000000000000000000000000000000000000600052604160045260246000fd5b6040519080825280602002602001820160405280156138245781602001602082028036833780820191505090505b5090508281600081518110613862577f4e487b7100000000000000000000000000000000000000000000000000000000600052603260045260246000fd5b60200260200101818152505080915050919050565b6138968473ffffffffffffffffffffffffffffffffffffffff16613a5e565b15613a56578373ffffffffffffffffffffffffffffffffffffffff1663f23a6e6187878686866040518663ffffffff1660e01b81526004016138dc9594939291906149f2565b602060405180830381600087803b1580156138f657600080fd5b505af192505050801561392757506040513d601f19601f82011682018060405250810190613924919061422a565b60015b6139cd57613933615488565b806308c379a014156139905750613948615c3f565b806139535750613992565b806040517f08c379a00000000000000000000000000000000000000000000000000000000081526004016139879190614adb565b60405180910390fd5b505b6040517f08c379a00000000000000000000000000000000000000000000000000000000081526004016139c490614b6b565b60405180910390fd5b63f23a6e6160e01b7bffffffffffffffffffffffffffffffffffffffffffffffffffffffff1916817bffffffffffffffffffffffffffffffffffffffffffffffffffffffff191614613a54576040517f08c379a0000000000000000000000000000000000000000000000000000000008152600401613a4b90614b8b565b60405180910390fd5b505b505050505050565b600080823b905060008111915050919050565b828054613a7d90615320565b90600052602060002090601f016020900481019282613a9f5760008555613ae6565b82601f10613ab857805160ff1916838001178555613ae6565b82800160010185558215613ae6579182015b82811115613ae5578251825591602001919060010190613aca565b5b509050613af39190613b37565b5090565b508054613b0390615320565b6000825580601f10613b155750613b34565b601f016020900490600052602060002090810190613b339190613b37565b5b50565b5b80821115613b50576000816000905550600101613b38565b5090565b6000613b67613b6284614f99565b614f74565b90508083825260208201905082856020860282011115613b8657600080fd5b60005b85811015613bb65781613b9c8882613d2e565b845260208401935060208301925050600181019050613b89565b5050509392505050565b6000613bd3613bce84614fc5565b614f74565b90508083825260208201905082856020860282011115613bf257600080fd5b60005b85811015613c3c57813567ffffffffffffffff811115613c1457600080fd5b808601613c218982613e3f565b85526020850194506020840193505050600181019050613bf5565b5050509392505050565b6000613c59613c5484614ff1565b614f74565b90508083825260208201905082856020860282011115613c7857600080fd5b60005b85811015613ca85781613c8e8882613e69565b845260208401935060208301925050600181019050613c7b565b5050509392505050565b6000613cc5613cc08461501d565b614f74565b905082815260208101848484011115613cdd57600080fd5b613ce88482856152de565b509392505050565b6000613d03613cfe8461504e565b614f74565b905082815260208101848484011115613d1b57600080fd5b613d268482856152de565b509392505050565b600081359050613d3d81615cd5565b92915050565b600082601f830112613d5457600080fd5b8135613d64848260208601613b54565b91505092915050565b600082601f830112613d7e57600080fd5b8135613d8e848260208601613bc0565b91505092915050565b600082601f830112613da857600080fd5b8135613db8848260208601613c46565b91505092915050565b600081359050613dd081615cec565b92915050565b600081519050613de581615cec565b92915050565b600081359050613dfa81615d03565b92915050565b600081519050613e0f81615d03565b92915050565b600082601f830112613e2657600080fd5b8135613e36848260208601613cb2565b91505092915050565b600082601f830112613e5057600080fd5b8135613e60848260208601613cf0565b91505092915050565b600081359050613e7881615d1a565b92915050565b600060208284031215613e9057600080fd5b6000613e9e84828501613d2e565b91505092915050565b60008060408385031215613eba57600080fd5b6000613ec885828601613d2e565b9250506020613ed985828601613d2e565b9150509250929050565b600080600080600060a08688031215613efb57600080fd5b6000613f0988828901613d2e565b9550506020613f1a88828901613d2e565b945050604086013567ffffffffffffffff811115613f3757600080fd5b613f4388828901613d97565b935050606086013567ffffffffffffffff811115613f6057600080fd5b613f6c88828901613d97565b925050608086013567ffffffffffffffff811115613f8957600080fd5b613f9588828901613e15565b9150509295509295909350565b600080600080600060a08688031215613fba57600080fd5b6000613fc888828901613d2e565b9550506020613fd988828901613d2e565b9450506040613fea88828901613e69565b9350506060613ffb88828901613e69565b925050608086013567ffffffffffffffff81111561401857600080fd5b61402488828901613e15565b9150509295509295909350565b6000806040838503121561404457600080fd5b600061405285828601613d2e565b925050602061406385828601613dc1565b9150509250929050565b6000806040838503121561408057600080fd5b600061408e85828601613d2e565b925050602061409f85828601613e69565b9150509250929050565b600080604083850312156140bc57600080fd5b600083013567ffffffffffffffff8111156140d657600080fd5b6140e285828601613d43565b925050602083013567ffffffffffffffff8111156140ff57600080fd5b61410b85828601613d97565b9150509250929050565b6000806000806080858703121561412b57600080fd5b600085013567ffffffffffffffff81111561414557600080fd5b61415187828801613d6d565b945050602085013567ffffffffffffffff81111561416e57600080fd5b61417a87828801613d97565b935050604085013567ffffffffffffffff81111561419757600080fd5b6141a387828801613d97565b925050606085013567ffffffffffffffff8111156141c057600080fd5b6141cc87828801613d97565b91505092959194509250565b6000602082840312156141ea57600080fd5b60006141f884828501613dd6565b91505092915050565b60006020828403121561421357600080fd5b600061422184828501613deb565b91505092915050565b60006020828403121561423c57600080fd5b600061424a84828501613e00565b91505092915050565b60006020828403121561426557600080fd5b600082013567ffffffffffffffff81111561427f57600080fd5b61428b84828501613e3f565b91505092915050565b600080600080608085870312156142aa57600080fd5b600085013567ffffffffffffffff8111156142c457600080fd5b6142d087828801613e3f565b94505060206142e187828801613e69565b93505060406142f287828801613e69565b925050606061430387828801613e69565b91505092959194509250565b60006020828403121561432157600080fd5b600061432f84828501613e69565b91505092915050565b60008060006060848603121561434d57600080fd5b600061435b86828701613e69565b935050602061436c86828701613e69565b925050604061437d86828701613e69565b9150509250925092565b6000806000806080858703121561439d57600080fd5b60006143ab87828801613e69565b94505060206143bc87828801613e69565b93505060406143cd87828801613e69565b92505060606143de87828801613e69565b91505092959194509250565b60006143f68383614905565b60208301905092915050565b61440b81615284565b82525050565b61441a81615210565b82525050565b600061442b8261508f565b61443581856150bd565b93506144408361507f565b8060005b8381101561447157815161445888826143ea565b9750614463836150b0565b925050600181019050614444565b5085935050505092915050565b61448781615222565b82525050565b60006144988261509a565b6144a281856150ce565b93506144b28185602086016152ed565b6144bb816154aa565b840191505092915050565b6144cf81615296565b82525050565b60006144e0826150a5565b6144ea81856150ea565b93506144fa8185602086016152ed565b614503816154aa565b840191505092915050565b600061451b6034836150ea565b9150614526826154c8565b604082019050919050565b600061453e6028836150ea565b915061454982615517565b604082019050919050565b6000614561602b836150ea565b915061456c82615566565b604082019050919050565b60006145846029836150ea565b915061458f826155b5565b604082019050919050565b60006145a76026836150ea565b91506145b282615604565b604082019050919050565b60006145ca6029836150ea565b91506145d582615653565b604082019050919050565b60006145ed6010836150ea565b91506145f8826156a2565b602082019050919050565b60006146106006836150ea565b915061461b826156cb565b602082019050919050565b60006146336025836150ea565b915061463e826156f4565b604082019050919050565b60006146566032836150ea565b915061466182615743565b604082019050919050565b60006146796028836150ea565b915061468482615792565b604082019050919050565b600061469c6026836150ea565b91506146a7826157e1565b604082019050919050565b60006146bf602a836150ea565b91506146ca82615830565b604082019050919050565b60006146e26020836150ea565b91506146ed8261587f565b602082019050919050565b6000614705601d836150ea565b9150614710826158a8565b602082019050919050565b60006147286022836150ea565b9150614733826158d1565b604082019050919050565b600061474b601d836150ea565b915061475682615920565b602082019050919050565b600061476e601a836150ea565b915061477982615949565b602082019050919050565b60006147916000836150df565b915061479c82615972565b600082019050919050565b60006147b4602c836150ea565b91506147bf82615975565b604082019050919050565b60006147d76024836150ea565b91506147e2826159c4565b604082019050919050565b60006147fa6020836150ea565b915061480582615a13565b602082019050919050565b600061481d601b836150ea565b915061482882615a3c565b602082019050919050565b60006148406027836150ea565b915061484b82615a65565b604082019050919050565b60006148636029836150ea565b915061486e82615ab4565b604082019050919050565b60006148866029836150ea565b915061489182615b03565b604082019050919050565b60006148a96028836150ea565b91506148b482615b52565b604082019050919050565b60006148cc602d836150ea565b91506148d782615ba1565b604082019050919050565b60006148ef6021836150ea565b91506148fa82615bf0565b604082019050919050565b61490e8161527a565b82525050565b61491d8161527a565b82525050565b600061492e82614784565b9150819050919050565b600060208201905061494d6000830184614411565b92915050565b60006060820190506149686000830186614411565b6149756020830185614402565b6149826040830184614914565b949350505050565b600060a08201905061499f6000830188614411565b6149ac6020830187614411565b81810360408301526149be8186614420565b905081810360608301526149d28185614420565b905081810360808301526149e6818461448d565b90509695505050505050565b600060a082019050614a076000830188614411565b614a146020830187614411565b614a216040830186614914565b614a2e6060830185614914565b8181036080830152614a40818461448d565b90509695505050505050565b60006020820190508181036000830152614a668184614420565b905092915050565b60006040820190508181036000830152614a888185614420565b90508181036020830152614a9c8184614420565b90509392505050565b6000602082019050614aba600083018461447e565b92915050565b6000602082019050614ad560008301846144c6565b92915050565b60006020820190508181036000830152614af581846144d5565b905092915050565b60006040820190508181036000830152614b1781856144d5565b9050614b266020830184614411565b9392505050565b60006060820190508181036000830152614b4781866144d5565b9050614b566020830185614914565b614b636040830184614914565b949350505050565b60006020820190508181036000830152614b848161450e565b9050919050565b60006020820190508181036000830152614ba481614531565b9050919050565b60006020820190508181036000830152614bc481614554565b9050919050565b60006020820190508181036000830152614be481614577565b9050919050565b60006020820190508181036000830152614c048161459a565b9050919050565b60006020820190508181036000830152614c24816145bd565b9050919050565b60006020820190508181036000830152614c44816145e0565b9050919050565b60006020820190508181036000830152614c6481614603565b9050919050565b60006020820190508181036000830152614c8481614626565b9050919050565b60006020820190508181036000830152614ca481614649565b9050919050565b60006020820190508181036000830152614cc48161466c565b9050919050565b60006020820190508181036000830152614ce48161468f565b9050919050565b60006020820190508181036000830152614d04816146b2565b9050919050565b60006020820190508181036000830152614d24816146d5565b9050919050565b60006020820190508181036000830152614d44816146f8565b9050919050565b60006020820190508181036000830152614d648161471b565b9050919050565b60006020820190508181036000830152614d848161473e565b9050919050565b60006020820190508181036000830152614da481614761565b9050919050565b60006020820190508181036000830152614dc4816147a7565b9050919050565b60006020820190508181036000830152614de4816147ca565b9050919050565b60006020820190508181036000830152614e04816147ed565b9050919050565b60006020820190508181036000830152614e2481614810565b9050919050565b60006020820190508181036000830152614e4481614833565b9050919050565b60006020820190508181036000830152614e6481614856565b9050919050565b60006020820190508181036000830152614e8481614879565b9050919050565b60006020820190508181036000830152614ea48161489c565b9050919050565b60006020820190508181036000830152614ec4816148bf565b9050919050565b60006020820190508181036000830152614ee4816148e2565b9050919050565b6000602082019050614f006000830184614914565b92915050565b6000604082019050614f1b6000830185614914565b614f286020830184614914565b9392505050565b6000608082019050614f446000830187614914565b614f516020830186614914565b614f5e6040830185614411565b614f6b6060830184614914565b95945050505050565b6000614f7e614f8f565b9050614f8a8282615352565b919050565b6000604051905090565b600067ffffffffffffffff821115614fb457614fb3615459565b5b602082029050602081019050919050565b600067ffffffffffffffff821115614fe057614fdf615459565b5b602082029050602081019050919050565b600067ffffffffffffffff82111561500c5761500b615459565b5b602082029050602081019050919050565b600067ffffffffffffffff82111561503857615037615459565b5b615041826154aa565b9050602081019050919050565b600067ffffffffffffffff82111561506957615068615459565b5b615072826154aa565b9050602081019050919050565b6000819050602082019050919050565b600081519050919050565b600081519050919050565b600081519050919050565b6000602082019050919050565b600082825260208201905092915050565b600082825260208201905092915050565b600081905092915050565b600082825260208201905092915050565b60006151068261527a565b91506151118361527a565b9250827fffffffffffffffffffffffffffffffffffffffffffffffffffffffffffffffff03821115615146576151456153cc565b5b828201905092915050565b600061515c8261527a565b91506151678361527a565b925082615177576151766153fb565b5b828204905092915050565b600061518d8261527a565b91506151988361527a565b9250817fffffffffffffffffffffffffffffffffffffffffffffffffffffffffffffffff04831182151516156151d1576151d06153cc565b5b828202905092915050565b60006151e78261527a565b91506151f28361527a565b925082821015615205576152046153cc565b5b828203905092915050565b600061521b8261525a565b9050919050565b60008115159050919050565b60007fffffffff0000000000000000000000000000000000000000000000000000000082169050919050565b600073ffffffffffffffffffffffffffffffffffffffff82169050919050565b6000819050919050565b600061528f826152ba565b9050919050565b60006152a1826152a8565b9050919050565b60006152b38261525a565b9050919050565b60006152c5826152cc565b9050919050565b60006152d78261525a565b9050919050565b82818337600083830152505050565b60005b8381101561530b5780820151818401526020810190506152f0565b8381111561531a576000848401525b50505050565b6000600282049050600182168061533857607f821691505b6020821081141561534c5761534b61542a565b5b50919050565b61535b826154aa565b810181811067ffffffffffffffff8211171561537a57615379615459565b5b80604052505050565b600061538e8261527a565b91507fffffffffffffffffffffffffffffffffffffffffffffffffffffffffffffffff8214156153c1576153c06153cc565b5b600182019050919050565b7f4e487b7100000000000000000000000000000000000000000000000000000000600052601160045260246000fd5b7f4e487b7100000000000000000000000000000000000000000000000000000000600052601260045260246000fd5b7f4e487b7100000000000000000000000000000000000000000000000000000000600052602260045260246000fd5b7f4e487b7100000000000000000000000000000000000000000000000000000000600052604160045260246000fd5b600060033d11156154a75760046000803e6154a46000516154bb565b90505b90565b6000601f19601f8301169050919050565b60008160e01c9050919050565b7f455243313135353a207472616e7366657220746f206e6f6e204552433131353560008201527f526563656976657220696d706c656d656e746572000000000000000000000000602082015250565b7f455243313135353a204552433131353552656365697665722072656a6563746560008201527f6420746f6b656e73000000000000000000000000000000000000000000000000602082015250565b7f455243313135353a2062616c616e636520717565727920666f7220746865207a60008201527f65726f2061646472657373000000000000000000000000000000000000000000602082015250565b7f69645f20686173206e6f7420616c72656164792073657420696e20746865206260008201527f6c61636b206c6973740000000000000000000000000000000000000000000000602082015250565b7f4f776e61626c653a206e6577206f776e657220697320746865207a65726f206160008201527f6464726573730000000000000000000000000000000000000000000000000000602082015250565b7f455243313135353a2063616c6c6572206973206e6f74206f776e6572206e6f7260008201527f20617070726f7665640000000000000000000000000000000000000000000000602082015250565b7f686176652073616d6520616d6f756e7400000000000000000000000000000000600082015250565b7f3125206665650000000000000000000000000000000000000000000000000000600082015250565b7f455243313135353a207472616e7366657220746f20746865207a65726f20616460008201527f6472657373000000000000000000000000000000000000000000000000000000602082015250565b7f455243313135353a207472616e736665722063616c6c6572206973206e6f742060008201527f6f776e6572206e6f7220617070726f7665640000000000000000000000000000602082015250565b7f616d6f756e742063616e206e6f74206265207a65726f206f72206c657373207460008201527f68616e207a65726f000000000000000000000000000000000000000000000000602082015250565b7f49442068617320746f206265206c657373207468616e206e6674206c6973742060008201527f6c656e6774680000000000000000000000000000000000000000000000000000602082015250565b7f455243313135353a20696e73756666696369656e742062616c616e636520666f60008201527f72207472616e7366657200000000000000000000000000000000000000000000602082015250565b7f4f776e61626c653a2063616c6c6572206973206e6f7420746865206f776e6572600082015250565b7f686173685f2063616e206e6f7420626520656d70747920737472696e67000000600082015250565b7f69645f2068617320746f206265206c657373207468616e206e6674206c656e6760008201527f7468000000000000000000000000000000000000000000000000000000000000602082015250565b7f736574206174206c65617374206f6e65206f662074776f20636f696e73000000600082015250565b7f70726963655f2068617320746f20626520617661696c61626c65000000000000600082015250565b50565b7f69642068617320746f206265206c657373207468616e2074686520636f6c6c6560008201527f6374696f6e20616d6f756e740000000000000000000000000000000000000000602082015250565b7f546f6b656e206f6620626c61636b206c6973742063616e206e6f74206265207360008201527f6f6c642e00000000000000000000000000000000000000000000000000000000602082015250565b7f616d6f756e742068617320746f206c657373207468616e206361706163697479600082015250565b7f616d6f756e745f2068617320746f20626520617661696c61626c650000000000600082015250565b7f49442068617320746f206265206c657373207468616e2073656c6c206c69737460008201527f206c656e67746800000000000000000000000000000000000000000000000000602082015250565b7f455243313135353a2073657474696e6720617070726f76616c2073746174757360008201527f20666f722073656c660000000000000000000000000000000000000000000000602082015250565b7f455243313135353a206163636f756e747320616e6420696473206c656e67746860008201527f206d69736d617463680000000000000000000000000000000000000000000000602082015250565b7f455243313135353a2069647320616e6420616d6f756e7473206c656e6774682060008201527f6d69736d61746368000000000000000000000000000000000000000000000000602082015250565b7f73656c6c5f69645f2068617320746f206265206c657373207468616e2073656c60008201527f6c206c697374206c656e67746800000000000000000000000000000000000000602082015250565b7f455243313135353a206d696e7420746f20746865207a65726f2061646472657360008201527f7300000000000000000000000000000000000000000000000000000000000000602082015250565b600060443d1015615c4f57615cd2565b615c57614f8f565b60043d036004823e80513d602482011167ffffffffffffffff82111715615c7f575050615cd2565b808201805167ffffffffffffffff811115615c9d5750505050615cd2565b80602083010160043d038501811115615cba575050505050615cd2565b615cc982602001850186615352565b82955050505050505b90565b615cde81615210565b8114615ce957600080fd5b50565b615cf581615222565b8114615d0057600080fd5b50565b615d0c8161522e565b8114615d1757600080fd5b50565b615d238161527a565b8114615d2e57600080fd5b5056fea26469706673582212201ba5b65fc8a3e93378c970ba912b7d3b04980c136c2b24d8dbebab9c3f72b42264736f6c63430008040033",
  "immutableReferences": {},
  "source": "pragma solidity ^0.8.0;\n\nimport \"@openzeppelin/contracts/token/ERC1155/ERC1155.sol\";\nimport \"@openzeppelin/contracts/access/Ownable.sol\";\nimport \"@openzeppelin/contracts/token/ERC20/IERC20.sol\";\n\ncontract Meme is ERC1155, Ownable{\n    \n    struct NFT {\n        string hash_;\n        uint e_price_;\n        uint d_price_;\n    }\n    NFT[] nft_list;\n    struct Collection {\n        string hash_;\n        address creator_;\n    }\n    Collection[] collection_list;\n    struct Sell {\n        uint nft_id_;\n        uint e_price_;\n        uint d_price_;\n        address payable owner_;\n        uint amount_;\n    }\n    Sell[] sell_list;\n\n    uint[] black_list;\n    mapping (uint => bool) isBlacklist;\n\n    address payable eth_receiver;\n\n    IERC20 public dankToken;\n\n    constructor(\n        address payable _ethReceiver,\n        IERC20 dankToken_\n    ) ERC1155(\"\") Ownable() {\n        require(_ethReceiver != address(0));\n        require(address(dankToken_) != address(0), \"Invalid token\");\n        eth_receiver = _ethReceiver;\n        dankToken = dankToken_;\n    }\n    function Set_nft (string memory hash_, uint amount_, uint e_price_, uint d_price_) public {\n        // require : hash_ can not be empty string\n        require(bytes(hash_).length > 0, \"hash_ can not be empty string\");\n        // require : amount can not be zero or less than zero\n        require(amount_ > 0, \"amount can not be zero or less than zero\");\n        _mint(msg.sender, nft_list.length, amount_, \"\");\n\n        NFT memory temp = NFT(hash_, e_price_, d_price_);\n        nft_list.push(temp);\n    }\n    //(bool platformTransferSuccess,) = platformFeeRecipient.call{value : platformFeeInETH}(\"\");\n    //require(platformTransferSuccess, \"NFTAuction.resultAuction: Failed to send platform fee\");\n    function Batch_set_nft (string[] memory hashes_, uint[] memory amounts_, uint[] memory e_prices_, uint[] memory d_prices_) public {\n        require(hashes_.length == amounts_.length, \"have same amount\");\n        require(hashes_.length == e_prices_.length, \"have same amount\");\n        require(hashes_.length == d_prices_.length, \"have same amount\");\n\n        for (uint i = 0 ; i < hashes_.length ; i++) {\n            Set_nft(hashes_[i], amounts_[i], e_prices_[i], d_prices_[i]);\n        }\n    }\n\n    function Set_collection(string memory hash_) public {\n        // require : hash_ can not be empty string\n        require(bytes(hash_).length > 0, \"hash_ can not be empty string\");\n\n        Collection memory temp = Collection(hash_, msg.sender);\n        collection_list.push(temp);\n    }\n\n    function Get_collection(uint id_) public returns (string memory, address) {\n        // require : id has to be less than the collection amount\n        require( id_ < collection_list.length, \"id has to be less than the collection amount\");\n\n        return (\n            collection_list[id_].hash_,\n            collection_list[id_].creator_\n        );\n    }\n\n    function Remove_collection(uint id_) public returns (bool) {\n        // require : id has to be less than the collection amount\n        require( id_ < collection_list.length, \"id has to be less than the collection amount\");\n\n        delete collection_list[id_];\n\n        return true;\n    }\n\n    function Get_nft (uint id_) public view returns (string memory, uint, uint) {\n        return (\n            nft_list[id_].hash_,\n            nft_list[id_].e_price_,\n            nft_list[id_].d_price_\n        );\n    }\n\n    function Get_nft_amount () public view returns (uint) {\n        return nft_list.length;\n    }\n\n    function Get_list_fee (uint price_) public view returns (uint) {\n        return (price_/100);\n    }\n    function Set_sell (uint id_, uint e_price_, uint d_price_, uint amount_) public payable returns(uint){\n        // require : id_ is avaliable \n        require( id_ < nft_list.length, \"ID has to be less than nft list length\");\n        // require : set at least one of two coins\n        require ( (e_price_ > 0) || (d_price_ > 0), \"set at least one of two coins\");\n        // require : 1% fee\n        if ( e_price_ == 0 && d_price_ > 0) {\n            require(Get_list_fee(d_price_) * amount_ == msg.value, \"1% fee\");\n            dankToken.transferFrom(msg.sender, eth_receiver, Get_list_fee(d_price_));\n        } else if ( e_price_ > 0 && d_price_ == 0) {\n            require(Get_list_fee(e_price_) * amount_ == msg.value, \"1% fee\");\n            eth_receiver.call{value: Get_list_fee(e_price_)}(\"\");\n        } \n\n        // if ( e_price_ == 0 && d_price_ > 0) {\n        //     require(Get_list_fee(d_price_) * amount_ == msg.value, \"1% fee\");\n        //     dankToken.transferFrom(msg.sender, eth_receiver, Get_list_fee(d_price_));\n        // } else if ( e_price_ > 0 && d_price_ == 0) {\n        //     require(Get_list_fee(e_price_) * amount_ == msg.value, \"1% fee\");\n        //     eth_receiver.call{value: Get_list_fee(e_price_)}(\"\");\n        // } else if ( e_price_ > 0 && d_price_ > 0) {\n        //     require((Get_list_fee(e_price_) + Get_list_fee(d_price_)) * amount_ == msg.value, \"1% fee\");\n        //     dankToken.transferFrom(msg.sender, eth_receiver, Get_list_fee(d_price_));\n        //     eth_receiver.call{value: Get_list_fee(e_price_)}(\"\");\n        // }\n        // require : amount_ has to be available\n        require((amount_>0) && ( balanceOf(msg.sender, id_) >= amount_ ), \"amount_ has to be available\");\n        // require :  token is not in the black list\n        require(isBlacklist[id_] != true, \"Token of black list can not be sold.\");\n        \n        Sell memory sell_temp = Sell(id_, e_price_, d_price_, payable(msg.sender), amount_);\n        sell_list.push(sell_temp);\n\n        // if ( e_price_ == 0 && d_price_ > 0) {\n        //     dankToken.transferFrom(msg.sender, eth_receiver, Get_list_fee(d_price_));\n        // } else if ( e_price_ > 0 && d_price_ == 0) {\n        //     eth_receiver.call{value: Get_list_fee(e_price_)}(\"\");\n        // } else if ( e_price_ > 0 && d_price_ > 0) {\n        //     dankToken.transferFrom(msg.sender, eth_receiver, Get_list_fee(d_price_));\n        //     eth_receiver.call{value: Get_list_fee(e_price_)}(\"\");\n        // }\n\n        return (sell_list.length - 1);\n    }\n\n    function Update_sell (uint sell_id_, uint e_price_, uint d_price_, uint amount_) public {\n        // require : id_ is avaliable \n        require( sell_id_ < sell_list.length, \"ID has to be less than sell list length\");\n        // require : set at least one of two coins\n        require ( (e_price_ > 0) || (d_price_ > 0), \"set at least one of two coins\");\n        // require : amount_ has to be available\n        require((amount_>0) && ( balanceOf(msg.sender, sell_list[sell_id_].nft_id_) >= amount_ ), \"amount_ has to be available\");\n        sell_list[sell_id_].e_price_ = e_price_;\n        sell_list[sell_id_].d_price_ = d_price_;\n        sell_list[sell_id_].amount_ = amount_;\n    }\n\n    function Remove_selling (uint id_) public onlyOwner {\n        // require : id_ is avaliable \n        require( id_ < sell_list.length, \"ID has to be less than sell list length\");\n        delete sell_list[id_];\n    }\n\n    function Get_sell (uint id_) public view returns (uint, uint, address, uint) {\n        // require : id_ is avaliable \n        require( id_ < sell_list.length, \"ID has to be less than sell list length\");\n        return (\n            sell_list[id_].e_price_,\n            sell_list[id_].d_price_,\n            sell_list[id_].owner_,\n            sell_list[id_].amount_\n        );\n    }\n\n    function Get_sell_fee (uint price_) public view returns(uint) {\n        // require : price_ has to be available\n        require( price_ > 0, \"price_ has to be available\");\n        return price_ * 25 / 1000;\n    }\n    function Get_real_price (uint price_) public view returns (uint) {\n        // require : price_ has to be available\n        require( price_ > 0, \"price_ has to be available\");\n        return price_ * 975 / 1000;\n    }\n    function Buying (uint sell_id_, uint amount_, uint token_kind_) public payable {\n        // require : sell_id_ has to be less than sell list length\n        require( sell_id_ < sell_list.length,  \"sell_id_ has to be less than sell list length\");\n        // require : buying amount has to be avaliable\n        require( amount_ <= sell_list[sell_id_].amount_, \"amount has to less than capacity\" );\n        \n        safeTransferFrom( msg.sender, sell_list[sell_id_].owner_, sell_list[sell_id_].nft_id_, amount_, \"\" );\n        if (amount_ == sell_list[sell_id_].amount_) {\n            Remove_selling(sell_id_);\n        } else {\n            sell_list[sell_id_].amount_ = sell_list[sell_id_].amount_ - amount_;\n        }\n        \n        if( token_kind_ == 0 ){\n            sell_list[sell_id_].owner_.transfer(Get_real_price(sell_list[sell_id_].e_price_));\n            eth_receiver.call{value: Get_sell_fee(sell_list[sell_id_].e_price_)}(\"\");\n        } else {\n            dankToken.transferFrom(msg.sender, eth_receiver, Get_sell_fee(sell_list[sell_id_].d_price_));\n            dankToken.transferFrom(msg.sender, sell_list[sell_id_].owner_, Get_real_price(sell_list[sell_id_].d_price_));\n            // sell_list[sell_id_].owner_.transfer(Get_real_price(sell_list[sell_id_].d_price_));\n            // eth_receiver.call{value: Get_sell_fee(sell_list[sell_id_].d_price_)}(\"\");\n        }\n\n    }\n    \n    function Set_blacklist (uint id_) public onlyOwner {\n        // require : id_ has to be less than nft length\n        require(id_ < nft_list.length, \"id_ has to be less than nft length\");\n        // require : id_ has not already set in the black list\n        require(isBlacklist[id_] == false, \"id_ has not already set in the black list\");\n        black_list.push(id_);\n        isBlacklist[id_] = true;\n    }\n\n    function check_blacklist (uint id_) public view returns (bool) {\n        // require : id_ has to be less than nft length\n        require(id_ < nft_list.length, \"id_ has to be less than nft length\");\n        return isBlacklist[id_];\n    }\n    // receive() payable external {}\n    // function getETH() external onlyOwner {\n    //     payable(msg.sender).transfer(address(this).balance);\n    // }\n}",
  "sourcePath": "/home/oncemore/Blockchain Work/NFT_marketplace_smartcontract(MEME_20210511)/contracts/Meme.sol",
  "compiler": {
    "name": "solc",
    "version": "0.8.4+commit.c7e474f2.Emscripten.clang"
  },
  "schemaVersion": "3.3.4",
  "updatedAt": "2021-05-15T14:45:34.025Z",
  "devdoc": {
    "kind": "dev",
    "methods": {
      "balanceOf(address,uint256)": {
        "details": "See {IERC1155-balanceOf}. Requirements: - `account` cannot be the zero address."
      },
      "balanceOfBatch(address[],uint256[])": {
        "details": "See {IERC1155-balanceOfBatch}. Requirements: - `accounts` and `ids` must have the same length."
      },
      "isApprovedForAll(address,address)": {
        "details": "See {IERC1155-isApprovedForAll}."
      },
      "owner()": {
        "details": "Returns the address of the current owner."
      },
      "renounceOwnership()": {
        "details": "Leaves the contract without owner. It will not be possible to call `onlyOwner` functions anymore. Can only be called by the current owner. NOTE: Renouncing ownership will leave the contract without an owner, thereby removing any functionality that is only available to the owner."
      },
      "safeBatchTransferFrom(address,address,uint256[],uint256[],bytes)": {
        "details": "See {IERC1155-safeBatchTransferFrom}."
      },
      "safeTransferFrom(address,address,uint256,uint256,bytes)": {
        "details": "See {IERC1155-safeTransferFrom}."
      },
      "setApprovalForAll(address,bool)": {
        "details": "See {IERC1155-setApprovalForAll}."
      },
      "supportsInterface(bytes4)": {
        "details": "See {IERC165-supportsInterface}."
      },
      "transferOwnership(address)": {
        "details": "Transfers ownership of the contract to a new account (`newOwner`). Can only be called by the current owner."
      },
      "uri(uint256)": {
        "details": "See {IERC1155MetadataURI-uri}. This implementation returns the same URI for *all* token types. It relies on the token type ID substitution mechanism https://eips.ethereum.org/EIPS/eip-1155#metadata[defined in the EIP]. Clients calling this function must replace the `\\{id\\}` substring with the actual token type ID."
      }
    },
    "version": 1
  },
  "userdoc": {
    "kind": "user",
    "methods": {},
    "version": 1
  }
}