{
  "contractName": "Meme",
  "abi": [
    {
      "inputs": [],
      "stateMutability": "nonpayable",
      "type": "constructor"
    },
    {
      "anonymous": false,
      "inputs": [
        {
          "indexed": true,
          "internalType": "address",
          "name": "account",
          "type": "address"
        },
        {
          "indexed": true,
          "internalType": "address",
          "name": "operator",
          "type": "address"
        },
        {
          "indexed": false,
          "internalType": "bool",
          "name": "approved",
          "type": "bool"
        }
      ],
      "name": "ApprovalForAll",
      "type": "event"
    },
    {
      "anonymous": false,
      "inputs": [
        {
          "indexed": true,
          "internalType": "address",
          "name": "previousOwner",
          "type": "address"
        },
        {
          "indexed": true,
          "internalType": "address",
          "name": "newOwner",
          "type": "address"
        }
      ],
      "name": "OwnershipTransferred",
      "type": "event"
    },
    {
      "anonymous": false,
      "inputs": [
        {
          "indexed": true,
          "internalType": "address",
          "name": "operator",
          "type": "address"
        },
        {
          "indexed": true,
          "internalType": "address",
          "name": "from",
          "type": "address"
        },
        {
          "indexed": true,
          "internalType": "address",
          "name": "to",
          "type": "address"
        },
        {
          "indexed": false,
          "internalType": "uint256[]",
          "name": "ids",
          "type": "uint256[]"
        },
        {
          "indexed": false,
          "internalType": "uint256[]",
          "name": "values",
          "type": "uint256[]"
        }
      ],
      "name": "TransferBatch",
      "type": "event"
    },
    {
      "anonymous": false,
      "inputs": [
        {
          "indexed": true,
          "internalType": "address",
          "name": "operator",
          "type": "address"
        },
        {
          "indexed": true,
          "internalType": "address",
          "name": "from",
          "type": "address"
        },
        {
          "indexed": true,
          "internalType": "address",
          "name": "to",
          "type": "address"
        },
        {
          "indexed": false,
          "internalType": "uint256",
          "name": "id",
          "type": "uint256"
        },
        {
          "indexed": false,
          "internalType": "uint256",
          "name": "value",
          "type": "uint256"
        }
      ],
      "name": "TransferSingle",
      "type": "event"
    },
    {
      "anonymous": false,
      "inputs": [
        {
          "indexed": false,
          "internalType": "string",
          "name": "value",
          "type": "string"
        },
        {
          "indexed": true,
          "internalType": "uint256",
          "name": "id",
          "type": "uint256"
        }
      ],
      "name": "URI",
      "type": "event"
    },
    {
      "inputs": [
        {
          "internalType": "address",
          "name": "account",
          "type": "address"
        },
        {
          "internalType": "uint256",
          "name": "id",
          "type": "uint256"
        }
      ],
      "name": "balanceOf",
      "outputs": [
        {
          "internalType": "uint256",
          "name": "",
          "type": "uint256"
        }
      ],
      "stateMutability": "view",
      "type": "function"
    },
    {
      "inputs": [
        {
          "internalType": "address[]",
          "name": "accounts",
          "type": "address[]"
        },
        {
          "internalType": "uint256[]",
          "name": "ids",
          "type": "uint256[]"
        }
      ],
      "name": "balanceOfBatch",
      "outputs": [
        {
          "internalType": "uint256[]",
          "name": "",
          "type": "uint256[]"
        }
      ],
      "stateMutability": "view",
      "type": "function"
    },
    {
      "inputs": [
        {
          "internalType": "address",
          "name": "account",
          "type": "address"
        },
        {
          "internalType": "address",
          "name": "operator",
          "type": "address"
        }
      ],
      "name": "isApprovedForAll",
      "outputs": [
        {
          "internalType": "bool",
          "name": "",
          "type": "bool"
        }
      ],
      "stateMutability": "view",
      "type": "function"
    },
    {
      "inputs": [],
      "name": "owner",
      "outputs": [
        {
          "internalType": "address",
          "name": "",
          "type": "address"
        }
      ],
      "stateMutability": "view",
      "type": "function"
    },
    {
      "inputs": [],
      "name": "renounceOwnership",
      "outputs": [],
      "stateMutability": "nonpayable",
      "type": "function"
    },
    {
      "inputs": [
        {
          "internalType": "address",
          "name": "from",
          "type": "address"
        },
        {
          "internalType": "address",
          "name": "to",
          "type": "address"
        },
        {
          "internalType": "uint256[]",
          "name": "ids",
          "type": "uint256[]"
        },
        {
          "internalType": "uint256[]",
          "name": "amounts",
          "type": "uint256[]"
        },
        {
          "internalType": "bytes",
          "name": "data",
          "type": "bytes"
        }
      ],
      "name": "safeBatchTransferFrom",
      "outputs": [],
      "stateMutability": "nonpayable",
      "type": "function"
    },
    {
      "inputs": [
        {
          "internalType": "address",
          "name": "from",
          "type": "address"
        },
        {
          "internalType": "address",
          "name": "to",
          "type": "address"
        },
        {
          "internalType": "uint256",
          "name": "id",
          "type": "uint256"
        },
        {
          "internalType": "uint256",
          "name": "amount",
          "type": "uint256"
        },
        {
          "internalType": "bytes",
          "name": "data",
          "type": "bytes"
        }
      ],
      "name": "safeTransferFrom",
      "outputs": [],
      "stateMutability": "nonpayable",
      "type": "function"
    },
    {
      "inputs": [
        {
          "internalType": "address",
          "name": "operator",
          "type": "address"
        },
        {
          "internalType": "bool",
          "name": "approved",
          "type": "bool"
        }
      ],
      "name": "setApprovalForAll",
      "outputs": [],
      "stateMutability": "nonpayable",
      "type": "function"
    },
    {
      "inputs": [
        {
          "internalType": "bytes4",
          "name": "interfaceId",
          "type": "bytes4"
        }
      ],
      "name": "supportsInterface",
      "outputs": [
        {
          "internalType": "bool",
          "name": "",
          "type": "bool"
        }
      ],
      "stateMutability": "view",
      "type": "function"
    },
    {
      "inputs": [
        {
          "internalType": "address",
          "name": "newOwner",
          "type": "address"
        }
      ],
      "name": "transferOwnership",
      "outputs": [],
      "stateMutability": "nonpayable",
      "type": "function"
    },
    {
      "inputs": [
        {
          "internalType": "uint256",
          "name": "",
          "type": "uint256"
        }
      ],
      "name": "uri",
      "outputs": [
        {
          "internalType": "string",
          "name": "",
          "type": "string"
        }
      ],
      "stateMutability": "view",
      "type": "function"
    },
    {
      "stateMutability": "payable",
      "type": "receive"
    },
    {
      "inputs": [
        {
          "internalType": "string",
          "name": "hash_",
          "type": "string"
        },
        {
          "internalType": "uint256",
          "name": "amount_",
          "type": "uint256"
        },
        {
          "internalType": "uint256",
          "name": "e_price_",
          "type": "uint256"
        },
        {
          "internalType": "uint256",
          "name": "d_price_",
          "type": "uint256"
        }
      ],
      "name": "Set_nft",
      "outputs": [],
      "stateMutability": "nonpayable",
      "type": "function"
    },
    {
      "inputs": [
        {
          "internalType": "uint256",
          "name": "id_",
          "type": "uint256"
        }
      ],
      "name": "Get_nft",
      "outputs": [
        {
          "internalType": "string",
          "name": "",
          "type": "string"
        },
        {
          "internalType": "uint256",
          "name": "",
          "type": "uint256"
        },
        {
          "internalType": "uint256",
          "name": "",
          "type": "uint256"
        }
      ],
      "stateMutability": "view",
      "type": "function"
    },
    {
      "inputs": [],
      "name": "Get_nft_amount",
      "outputs": [
        {
          "internalType": "uint256",
          "name": "",
          "type": "uint256"
        }
      ],
      "stateMutability": "view",
      "type": "function"
    },
    {
      "inputs": [
        {
          "internalType": "uint256",
          "name": "price_",
          "type": "uint256"
        }
      ],
      "name": "Get_list_fee",
      "outputs": [
        {
          "internalType": "uint256",
          "name": "",
          "type": "uint256"
        }
      ],
      "stateMutability": "view",
      "type": "function"
    },
    {
      "inputs": [
        {
          "internalType": "uint256",
          "name": "id_",
          "type": "uint256"
        },
        {
          "internalType": "uint256",
          "name": "e_price_",
          "type": "uint256"
        },
        {
          "internalType": "uint256",
          "name": "d_price_",
          "type": "uint256"
        },
        {
          "internalType": "uint256",
          "name": "amount_",
          "type": "uint256"
        }
      ],
      "name": "Set_sell",
      "outputs": [
        {
          "internalType": "uint256",
          "name": "",
          "type": "uint256"
        }
      ],
      "stateMutability": "payable",
      "type": "function"
    },
    {
      "inputs": [
        {
          "internalType": "uint256",
          "name": "sell_id_",
          "type": "uint256"
        },
        {
          "internalType": "uint256",
          "name": "e_price_",
          "type": "uint256"
        },
        {
          "internalType": "uint256",
          "name": "d_price_",
          "type": "uint256"
        },
        {
          "internalType": "uint256",
          "name": "amount_",
          "type": "uint256"
        }
      ],
      "name": "Update_sell",
      "outputs": [],
      "stateMutability": "nonpayable",
      "type": "function"
    },
    {
      "inputs": [
        {
          "internalType": "uint256",
          "name": "id_",
          "type": "uint256"
        }
      ],
      "name": "Remove_selling",
      "outputs": [],
      "stateMutability": "nonpayable",
      "type": "function"
    },
    {
      "inputs": [
        {
          "internalType": "uint256",
          "name": "id_",
          "type": "uint256"
        }
      ],
      "name": "Get_sell",
      "outputs": [
        {
          "internalType": "uint256",
          "name": "",
          "type": "uint256"
        },
        {
          "internalType": "uint256",
          "name": "",
          "type": "uint256"
        },
        {
          "internalType": "address",
          "name": "",
          "type": "address"
        },
        {
          "internalType": "uint256",
          "name": "",
          "type": "uint256"
        }
      ],
      "stateMutability": "view",
      "type": "function"
    },
    {
      "inputs": [
        {
          "internalType": "uint256",
          "name": "price_",
          "type": "uint256"
        }
      ],
      "name": "sell_fee",
      "outputs": [
        {
          "internalType": "uint256",
          "name": "",
          "type": "uint256"
        }
      ],
      "stateMutability": "view",
      "type": "function"
    },
    {
      "inputs": [
        {
          "internalType": "uint256",
          "name": "sell_id_",
          "type": "uint256"
        },
        {
          "internalType": "uint256",
          "name": "amount_",
          "type": "uint256"
        },
        {
          "internalType": "uint256",
          "name": "token_kind_",
          "type": "uint256"
        }
      ],
      "name": "Buying",
      "outputs": [],
      "stateMutability": "payable",
      "type": "function"
    },
    {
      "inputs": [
        {
          "internalType": "uint256",
          "name": "id_",
          "type": "uint256"
        }
      ],
      "name": "Set_blacklist",
      "outputs": [],
      "stateMutability": "nonpayable",
      "type": "function"
    },
    {
      "inputs": [
        {
          "internalType": "uint256",
          "name": "id_",
          "type": "uint256"
        }
      ],
      "name": "check_blacklist",
      "outputs": [
        {
          "internalType": "bool",
          "name": "",
          "type": "bool"
        }
      ],
      "stateMutability": "view",
      "type": "function"
    },
    {
      "inputs": [],
      "name": "getETH",
      "outputs": [],
      "stateMutability": "nonpayable",
      "type": "function"
    }
  ],
  "bytecode": "0x60806040523480156200001157600080fd5b50604051806020016040528060008152506200003381620000eb60201b60201c565b506000620000466200010760201b60201c565b905080600360006101000a81548173ffffffffffffffffffffffffffffffffffffffff021916908373ffffffffffffffffffffffffffffffffffffffff1602179055508073ffffffffffffffffffffffffffffffffffffffff16600073ffffffffffffffffffffffffffffffffffffffff167f8be0079c531659141344cd1fd0a4f28419497f9722a3daafe3b4186f6b6457e060405160405180910390a35062000224565b8060029080519060200190620001039291906200010f565b5050565b600033905090565b8280546200011d90620001bf565b90600052602060002090601f0160209004810192826200014157600085556200018d565b82601f106200015c57805160ff19168380011785556200018d565b828001600101855582156200018d579182015b828111156200018c5782518255916020019190600101906200016f565b5b5090506200019c9190620001a0565b5090565b5b80821115620001bb576000816000905550600101620001a1565b5090565b60006002820490506001821680620001d857607f821691505b60208210811415620001ef57620001ee620001f5565b5b50919050565b7f4e487b7100000000000000000000000000000000000000000000000000000000600052602260045260246000fd5b614c2e80620002346000396000f3fe60806040526004361061014e5760003560e01c8063886cd0cf116100b6578063e985e9c51161006f578063e985e9c5146104dc578063f242432a14610519578063f2fde38b14610542578063f41f3c671461056b578063f42d88b414610594578063fd2b3516146105bd57610155565b8063886cd0cf146103915780638da5cb5b146103ce5780639b1865be146103f9578063a22cb46514610436578063cf58f0a51461045f578063d816bcf81461049c57610155565b80632eb2c2d6116101085780632eb2c2d61461029057806335f08d0c146102b95780634645ffcd146102e95780634e1273f414610312578063715018a61461034f57806375feae251461036657610155565b8062fdd58e1461015a57806301ffc9a7146101975780630e89341c146101d457806314f6c3be14610211578063192585331461022857806325061dae1461025157610155565b3661015557005b600080fd5b34801561016657600080fd5b50610181600480360381019061017c919061345b565b6105d9565b60405161018e9190613f85565b60405180910390f35b3480156101a357600080fd5b506101be60048036038101906101b99190613503565b6106a2565b6040516101cb9190613c2a565b60405180910390f35b3480156101e057600080fd5b506101fb60048036038101906101f691906135d0565b610784565b6040516102089190613c45565b60405180910390f35b34801561021d57600080fd5b50610226610818565b005b34801561023457600080fd5b5061024f600480360381019061024a91906135d0565b6108dd565b005b34801561025d57600080fd5b50610278600480360381019061027391906135d0565b610a5f565b60405161028793929190613c67565b60405180910390f35b34801561029c57600080fd5b506102b760048036038101906102b291906132d1565b610be0565b005b6102d360048036038101906102ce9190613648565b610fd6565b6040516102e09190613f85565b60405180910390f35b3480156102f557600080fd5b50610310600480360381019061030b9190613555565b61131e565b005b34801561031e57600080fd5b5061033960048036038101906103349190613497565b6113c3565b6040516103469190613bd1565b60405180910390f35b34801561035b57600080fd5b50610364611574565b005b34801561037257600080fd5b5061037b6116b1565b6040516103889190613f85565b60405180910390f35b34801561039d57600080fd5b506103b860048036038101906103b391906135d0565b6116be565b6040516103c59190613c2a565b60405180910390f35b3480156103da57600080fd5b506103e361172f565b6040516103f09190613af4565b60405180910390f35b34801561040557600080fd5b50610420600480360381019061041b91906135d0565b611759565b60405161042d9190613f85565b60405180910390f35b34801561044257600080fd5b5061045d6004803603810190610458919061341f565b6117bf565b005b34801561046b57600080fd5b50610486600480360381019061048191906135d0565b611940565b6040516104939190613f85565b60405180910390f35b3480156104a857600080fd5b506104c360048036038101906104be91906135d0565b611956565b6040516104d39493929190613fc9565b60405180910390f35b3480156104e857600080fd5b5061050360048036038101906104fe9190613295565b611b02565b6040516105109190613c2a565b60405180910390f35b34801561052557600080fd5b50610540600480360381019061053b9190613390565b611b96565b005b34801561054e57600080fd5b506105696004803603810190610564919061326c565b611eae565b005b34801561057757600080fd5b50610592600480360381019061058d91906135d0565b61205a565b005b3480156105a057600080fd5b506105bb60048036038101906105b69190613648565b6121b2565b005b6105d760048036038101906105d291906135f9565b6123e0565b005b60008073ffffffffffffffffffffffffffffffffffffffff168373ffffffffffffffffffffffffffffffffffffffff16141561064a576040517f08c379a000000000000000000000000000000000000000000000000000000000815260040161064190613ce5565b60405180910390fd5b60008083815260200190815260200160002060008473ffffffffffffffffffffffffffffffffffffffff1673ffffffffffffffffffffffffffffffffffffffff16815260200190815260200160002054905092915050565b60007fd9b67a26000000000000000000000000000000000000000000000000000000007bffffffffffffffffffffffffffffffffffffffffffffffffffffffff1916827bffffffffffffffffffffffffffffffffffffffffffffffffffffffff1916148061076d57507f0e89341c000000000000000000000000000000000000000000000000000000007bffffffffffffffffffffffffffffffffffffffffffffffffffffffff1916827bffffffffffffffffffffffffffffffffffffffffffffffffffffffff1916145b8061077d575061077c826128ad565b5b9050919050565b60606002805461079390614329565b80601f01602080910402602001604051908101604052809291908181526020018280546107bf90614329565b801561080c5780601f106107e15761010080835404028352916020019161080c565b820191906000526020600020905b8154815290600101906020018083116107ef57829003601f168201915b50505050509050919050565b610820612917565b73ffffffffffffffffffffffffffffffffffffffff1661083e61172f565b73ffffffffffffffffffffffffffffffffffffffff1614610894576040517f08c379a000000000000000000000000000000000000000000000000000000000815260040161088b90613e05565b60405180910390fd5b3373ffffffffffffffffffffffffffffffffffffffff166108fc479081150290604051600060405180830381858888f193505050501580156108da573d6000803e3d6000fd5b50565b6108e5612917565b73ffffffffffffffffffffffffffffffffffffffff1661090361172f565b73ffffffffffffffffffffffffffffffffffffffff1614610959576040517f08c379a000000000000000000000000000000000000000000000000000000000815260040161095090613e05565b60405180910390fd5b60048054905081106109a0576040517f08c379a000000000000000000000000000000000000000000000000000000000815260040161099790613e25565b60405180910390fd5b600015156007600083815260200190815260200160002060009054906101000a900460ff16151514610a07576040517f08c379a00000000000000000000000000000000000000000000000000000000081526004016109fe90613d05565b60405180910390fd5b600681908060018154018082558091505060019003906000526020600020016000909190919091505560016007600083815260200190815260200160002060006101000a81548160ff02191690831515021790555050565b606060008060048481548110610a9e577f4e487b7100000000000000000000000000000000000000000000000000000000600052603260045260246000fd5b906000526020600020906003020160000160048581548110610ae9577f4e487b7100000000000000000000000000000000000000000000000000000000600052603260045260246000fd5b90600052602060002090600302016001015460048681548110610b35577f4e487b7100000000000000000000000000000000000000000000000000000000600052603260045260246000fd5b906000526020600020906003020160020154828054610b5390614329565b80601f0160208091040260200160405190810160405280929190818152602001828054610b7f90614329565b8015610bcc5780601f10610ba157610100808354040283529160200191610bcc565b820191906000526020600020905b815481529060010190602001808311610baf57829003601f168201915b505050505092509250925092509193909250565b8151835114610c24576040517f08c379a0000000000000000000000000000000000000000000000000000000008152600401610c1b90613f25565b60405180910390fd5b600073ffffffffffffffffffffffffffffffffffffffff168473ffffffffffffffffffffffffffffffffffffffff161415610c94576040517f08c379a0000000000000000000000000000000000000000000000000000000008152600401610c8b90613d85565b60405180910390fd5b610c9c612917565b73ffffffffffffffffffffffffffffffffffffffff168573ffffffffffffffffffffffffffffffffffffffff161480610ce25750610ce185610cdc612917565b611b02565b5b610d21576040517f08c379a0000000000000000000000000000000000000000000000000000000008152600401610d1890613da5565b60405180910390fd5b6000610d2b612917565b9050610d3b81878787878761291f565b60005b8451811015610f41576000858281518110610d82577f4e487b7100000000000000000000000000000000000000000000000000000000600052603260045260246000fd5b602002602001015190506000858381518110610dc7577f4e487b7100000000000000000000000000000000000000000000000000000000600052603260045260246000fd5b60200260200101519050600080600084815260200190815260200160002060008b73ffffffffffffffffffffffffffffffffffffffff1673ffffffffffffffffffffffffffffffffffffffff16815260200190815260200160002054905081811015610e68576040517f08c379a0000000000000000000000000000000000000000000000000000000008152600401610e5f90613de5565b60405180910390fd5b8181610e74919061423f565b60008085815260200190815260200160002060008c73ffffffffffffffffffffffffffffffffffffffff1673ffffffffffffffffffffffffffffffffffffffff168152602001908152602001600020819055508160008085815260200190815260200160002060008b73ffffffffffffffffffffffffffffffffffffffff1673ffffffffffffffffffffffffffffffffffffffff1681526020019081526020016000206000828254610f26919061415e565b9250508190555050505080610f3a9061438c565b9050610d3e565b508473ffffffffffffffffffffffffffffffffffffffff168673ffffffffffffffffffffffffffffffffffffffff168273ffffffffffffffffffffffffffffffffffffffff167f4a39dc06d4c0dbc64b70af90fd698a233a518aa5d07e595d983b8c0526c8f7fb8787604051610fb8929190613bf3565b60405180910390a4610fce818787878787612927565b505050505050565b6000600480549050851061101f576040517f08c379a000000000000000000000000000000000000000000000000000000000815260040161101690613dc5565b60405180910390fd5b600084118061102e5750600083115b61106d576040517f08c379a000000000000000000000000000000000000000000000000000000000815260040161106490613e45565b60405180910390fd5b60008414801561107d5750600083115b156110dc57348261108d85611940565b61109791906141e5565b146110d7576040517f08c379a00000000000000000000000000000000000000000000000000000000081526004016110ce90613d65565b60405180910390fd5b6111cb565b6000841180156110ec5750600083145b1561114b5734826110fc86611940565b61110691906141e5565b14611146576040517f08c379a000000000000000000000000000000000000000000000000000000000815260040161113d90613d65565b60405180910390fd5b6111ca565b60008411801561115b5750600083115b156111c957348261116b85611940565b61117487611940565b61117e919061415e565b61118891906141e5565b146111c8576040517f08c379a00000000000000000000000000000000000000000000000000000000081526004016111bf90613d65565b60405180910390fd5b5b5b5b6000821180156111e45750816111e133876105d9565b10155b611223576040517f08c379a000000000000000000000000000000000000000000000000000000000815260040161121a90613ea5565b60405180910390fd5b60006040518060a001604052808781526020018681526020018581526020013373ffffffffffffffffffffffffffffffffffffffff168152602001848152509050600581908060018154018082558091505060019003906000526020600020906005020160009091909190915060008201518160000155602082015181600101556040820151816002015560608201518160030160006101000a81548173ffffffffffffffffffffffffffffffffffffffff021916908373ffffffffffffffffffffffffffffffffffffffff1602179055506080820151816004015550506001600580549050611313919061423f565b915050949350505050565b61133e336004805490508560405180602001604052806000815250612b0e565b60006040518060600160405280868152602001848152602001838152509050600481908060018154018082558091505060019003906000526020600020906003020160009091909190915060008201518160000190805190602001906113a5929190612f64565b50602082015181600101556040820151816002015550505050505050565b60608151835114611409576040517f08c379a000000000000000000000000000000000000000000000000000000000815260040161140090613f05565b60405180910390fd5b6000835167ffffffffffffffff81111561144c577f4e487b7100000000000000000000000000000000000000000000000000000000600052604160045260246000fd5b60405190808252806020026020018201604052801561147a5781602001602082028036833780820191505090505b50905060005b8451811015611569576115138582815181106114c5577f4e487b7100000000000000000000000000000000000000000000000000000000600052603260045260246000fd5b6020026020010151858381518110611506577f4e487b7100000000000000000000000000000000000000000000000000000000600052603260045260246000fd5b60200260200101516105d9565b82828151811061154c577f4e487b7100000000000000000000000000000000000000000000000000000000600052603260045260246000fd5b602002602001018181525050806115629061438c565b9050611480565b508091505092915050565b61157c612917565b73ffffffffffffffffffffffffffffffffffffffff1661159a61172f565b73ffffffffffffffffffffffffffffffffffffffff16146115f0576040517f08c379a00000000000000000000000000000000000000000000000000000000081526004016115e790613e05565b60405180910390fd5b600073ffffffffffffffffffffffffffffffffffffffff16600360009054906101000a900473ffffffffffffffffffffffffffffffffffffffff1673ffffffffffffffffffffffffffffffffffffffff167f8be0079c531659141344cd1fd0a4f28419497f9722a3daafe3b4186f6b6457e060405160405180910390a36000600360006101000a81548173ffffffffffffffffffffffffffffffffffffffff021916908373ffffffffffffffffffffffffffffffffffffffff160217905550565b6000600480549050905090565b60006004805490508210611707576040517f08c379a00000000000000000000000000000000000000000000000000000000081526004016116fe90613e25565b60405180910390fd5b6007600083815260200190815260200160002060009054906101000a900460ff169050919050565b6000600360009054906101000a900473ffffffffffffffffffffffffffffffffffffffff16905090565b600080821161179d576040517f08c379a000000000000000000000000000000000000000000000000000000000815260040161179490613e65565b60405180910390fd5b6103e86103cf836117ae91906141e5565b6117b891906141b4565b9050919050565b8173ffffffffffffffffffffffffffffffffffffffff166117de612917565b73ffffffffffffffffffffffffffffffffffffffff161415611835576040517f08c379a000000000000000000000000000000000000000000000000000000000815260040161182c90613ee5565b60405180910390fd5b8060016000611842612917565b73ffffffffffffffffffffffffffffffffffffffff1673ffffffffffffffffffffffffffffffffffffffff16815260200190815260200160002060008473ffffffffffffffffffffffffffffffffffffffff1673ffffffffffffffffffffffffffffffffffffffff16815260200190815260200160002060006101000a81548160ff0219169083151502179055508173ffffffffffffffffffffffffffffffffffffffff166118ef612917565b73ffffffffffffffffffffffffffffffffffffffff167f17307eab39ab6107e8899845ad3d59bd9653f200f220920489ca2b5937696c31836040516119349190613c2a565b60405180910390a35050565b600060648261194f91906141b4565b9050919050565b60008060008060058054905085106119a3576040517f08c379a000000000000000000000000000000000000000000000000000000000815260040161199a90613ec5565b60405180910390fd5b600585815481106119dd577f4e487b7100000000000000000000000000000000000000000000000000000000600052603260045260246000fd5b90600052602060002090600502016001015460058681548110611a29577f4e487b7100000000000000000000000000000000000000000000000000000000600052603260045260246000fd5b90600052602060002090600502016002015460058781548110611a75577f4e487b7100000000000000000000000000000000000000000000000000000000600052603260045260246000fd5b906000526020600020906005020160030160009054906101000a900473ffffffffffffffffffffffffffffffffffffffff1660058881548110611ae1577f4e487b7100000000000000000000000000000000000000000000000000000000600052603260045260246000fd5b90600052602060002090600502016004015493509350935093509193509193565b6000600160008473ffffffffffffffffffffffffffffffffffffffff1673ffffffffffffffffffffffffffffffffffffffff16815260200190815260200160002060008373ffffffffffffffffffffffffffffffffffffffff1673ffffffffffffffffffffffffffffffffffffffff16815260200190815260200160002060009054906101000a900460ff16905092915050565b600073ffffffffffffffffffffffffffffffffffffffff168473ffffffffffffffffffffffffffffffffffffffff161415611c06576040517f08c379a0000000000000000000000000000000000000000000000000000000008152600401611bfd90613d85565b60405180910390fd5b611c0e612917565b73ffffffffffffffffffffffffffffffffffffffff168573ffffffffffffffffffffffffffffffffffffffff161480611c545750611c5385611c4e612917565b611b02565b5b611c93576040517f08c379a0000000000000000000000000000000000000000000000000000000008152600401611c8a90613d45565b60405180910390fd5b6000611c9d612917565b9050611cbd818787611cae88612ca4565b611cb788612ca4565b8761291f565b600080600086815260200190815260200160002060008873ffffffffffffffffffffffffffffffffffffffff1673ffffffffffffffffffffffffffffffffffffffff16815260200190815260200160002054905083811015611d54576040517f08c379a0000000000000000000000000000000000000000000000000000000008152600401611d4b90613de5565b60405180910390fd5b8381611d60919061423f565b60008087815260200190815260200160002060008973ffffffffffffffffffffffffffffffffffffffff1673ffffffffffffffffffffffffffffffffffffffff168152602001908152602001600020819055508360008087815260200190815260200160002060008873ffffffffffffffffffffffffffffffffffffffff1673ffffffffffffffffffffffffffffffffffffffff1681526020019081526020016000206000828254611e12919061415e565b925050819055508573ffffffffffffffffffffffffffffffffffffffff168773ffffffffffffffffffffffffffffffffffffffff168373ffffffffffffffffffffffffffffffffffffffff167fc3d58168c5ae7397731d063d5bbf3d657854427343f4c083240f7aacaa2d0f628888604051611e8f929190613fa0565b60405180910390a4611ea5828888888888612d6a565b50505050505050565b611eb6612917565b73ffffffffffffffffffffffffffffffffffffffff16611ed461172f565b73ffffffffffffffffffffffffffffffffffffffff1614611f2a576040517f08c379a0000000000000000000000000000000000000000000000000000000008152600401611f2190613e05565b60405180910390fd5b600073ffffffffffffffffffffffffffffffffffffffff168173ffffffffffffffffffffffffffffffffffffffff161415611f9a576040517f08c379a0000000000000000000000000000000000000000000000000000000008152600401611f9190613d25565b60405180910390fd5b8073ffffffffffffffffffffffffffffffffffffffff16600360009054906101000a900473ffffffffffffffffffffffffffffffffffffffff1673ffffffffffffffffffffffffffffffffffffffff167f8be0079c531659141344cd1fd0a4f28419497f9722a3daafe3b4186f6b6457e060405160405180910390a380600360006101000a81548173ffffffffffffffffffffffffffffffffffffffff021916908373ffffffffffffffffffffffffffffffffffffffff16021790555050565b612062612917565b73ffffffffffffffffffffffffffffffffffffffff1661208061172f565b73ffffffffffffffffffffffffffffffffffffffff16146120d6576040517f08c379a00000000000000000000000000000000000000000000000000000000081526004016120cd90613e05565b60405180910390fd5b600580549050811061211d576040517f08c379a000000000000000000000000000000000000000000000000000000000815260040161211490613ec5565b60405180910390fd5b60058181548110612157577f4e487b7100000000000000000000000000000000000000000000000000000000600052603260045260246000fd5b9060005260206000209060050201600080820160009055600182016000905560028201600090556003820160006101000a81549073ffffffffffffffffffffffffffffffffffffffff02191690556004820160009055505050565b60058054905084106121f9576040517f08c379a00000000000000000000000000000000000000000000000000000000081526004016121f090613ec5565b60405180910390fd5b60008311806122085750600082115b612247576040517f08c379a000000000000000000000000000000000000000000000000000000000815260040161223e90613e45565b60405180910390fd5b6000811180156122ab5750806122a83360058781548110612291577f4e487b7100000000000000000000000000000000000000000000000000000000600052603260045260246000fd5b9060005260206000209060050201600001546105d9565b10155b6122ea576040517f08c379a00000000000000000000000000000000000000000000000000000000081526004016122e190613ea5565b60405180910390fd5b8260058581548110612325577f4e487b7100000000000000000000000000000000000000000000000000000000600052603260045260246000fd5b9060005260206000209060050201600101819055508160058581548110612375577f4e487b7100000000000000000000000000000000000000000000000000000000600052603260045260246000fd5b90600052602060002090600502016002018190555080600585815481106123c5577f4e487b7100000000000000000000000000000000000000000000000000000000600052603260045260246000fd5b90600052602060002090600502016004018190555050505050565b6005805490508310612427576040517f08c379a000000000000000000000000000000000000000000000000000000000815260040161241e90613f45565b60405180910390fd5b60058381548110612461577f4e487b7100000000000000000000000000000000000000000000000000000000600052603260045260246000fd5b9060005260206000209060050201600401548211156124b5576040517f08c379a00000000000000000000000000000000000000000000000000000000081526004016124ac90613e85565b60405180910390fd5b61258733600585815481106124f3577f4e487b7100000000000000000000000000000000000000000000000000000000600052603260045260246000fd5b906000526020600020906005020160030160009054906101000a900473ffffffffffffffffffffffffffffffffffffffff166005868154811061255f577f4e487b7100000000000000000000000000000000000000000000000000000000600052603260045260246000fd5b9060005260206000209060050201600001548560405180602001604052806000815250611b96565b600583815481106125c1577f4e487b7100000000000000000000000000000000000000000000000000000000600052603260045260246000fd5b9060005260206000209060050201600401548214156125e8576125e38361205a565b61268f565b8160058481548110612623577f4e487b7100000000000000000000000000000000000000000000000000000000600052603260045260246000fd5b90600052602060002090600502016004015461263f919061423f565b60058481548110612679577f4e487b7100000000000000000000000000000000000000000000000000000000600052603260045260246000fd5b9060005260206000209060050201600401819055505b60008114156127a257600583815481106126d2577f4e487b7100000000000000000000000000000000000000000000000000000000600052603260045260246000fd5b906000526020600020906005020160030160009054906101000a900473ffffffffffffffffffffffffffffffffffffffff1673ffffffffffffffffffffffffffffffffffffffff166108fc6127716005868154811061275a577f4e487b7100000000000000000000000000000000000000000000000000000000600052603260045260246000fd5b906000526020600020906005020160010154611759565b9081150290604051600060405180830381858888f1935050505015801561279c573d6000803e3d6000fd5b506128a8565b600583815481106127dc577f4e487b7100000000000000000000000000000000000000000000000000000000600052603260045260246000fd5b906000526020600020906005020160030160009054906101000a900473ffffffffffffffffffffffffffffffffffffffff1673ffffffffffffffffffffffffffffffffffffffff166108fc61287b60058681548110612864577f4e487b7100000000000000000000000000000000000000000000000000000000600052603260045260246000fd5b906000526020600020906005020160020154611759565b9081150290604051600060405180830381858888f193505050501580156128a6573d6000803e3d6000fd5b505b505050565b60007f01ffc9a7000000000000000000000000000000000000000000000000000000007bffffffffffffffffffffffffffffffffffffffffffffffffffffffff1916827bffffffffffffffffffffffffffffffffffffffffffffffffffffffff1916149050919050565b600033905090565b505050505050565b6129468473ffffffffffffffffffffffffffffffffffffffff16612f51565b15612b06578373ffffffffffffffffffffffffffffffffffffffff1663bc197c8187878686866040518663ffffffff1660e01b815260040161298c959493929190613b0f565b602060405180830381600087803b1580156129a657600080fd5b505af19250505080156129d757506040513d601f19601f820116820180604052508101906129d4919061352c565b60015b612a7d576129e3614491565b806308c379a01415612a4057506129f8614b06565b80612a035750612a42565b806040517f08c379a0000000000000000000000000000000000000000000000000000000008152600401612a379190613c45565b60405180910390fd5b505b6040517f08c379a0000000000000000000000000000000000000000000000000000000008152600401612a7490613ca5565b60405180910390fd5b63bc197c8160e01b7bffffffffffffffffffffffffffffffffffffffffffffffffffffffff1916817bffffffffffffffffffffffffffffffffffffffffffffffffffffffff191614612b04576040517f08c379a0000000000000000000000000000000000000000000000000000000008152600401612afb90613cc5565b60405180910390fd5b505b505050505050565b600073ffffffffffffffffffffffffffffffffffffffff168473ffffffffffffffffffffffffffffffffffffffff161415612b7e576040517f08c379a0000000000000000000000000000000000000000000000000000000008152600401612b7590613f65565b60405180910390fd5b6000612b88612917565b9050612ba981600087612b9a88612ca4565b612ba388612ca4565b8761291f565b8260008086815260200190815260200160002060008773ffffffffffffffffffffffffffffffffffffffff1673ffffffffffffffffffffffffffffffffffffffff1681526020019081526020016000206000828254612c08919061415e565b925050819055508473ffffffffffffffffffffffffffffffffffffffff16600073ffffffffffffffffffffffffffffffffffffffff168273ffffffffffffffffffffffffffffffffffffffff167fc3d58168c5ae7397731d063d5bbf3d657854427343f4c083240f7aacaa2d0f628787604051612c86929190613fa0565b60405180910390a4612c9d81600087878787612d6a565b5050505050565b60606000600167ffffffffffffffff811115612ce9577f4e487b7100000000000000000000000000000000000000000000000000000000600052604160045260246000fd5b604051908082528060200260200182016040528015612d175781602001602082028036833780820191505090505b5090508281600081518110612d55577f4e487b7100000000000000000000000000000000000000000000000000000000600052603260045260246000fd5b60200260200101818152505080915050919050565b612d898473ffffffffffffffffffffffffffffffffffffffff16612f51565b15612f49578373ffffffffffffffffffffffffffffffffffffffff1663f23a6e6187878686866040518663ffffffff1660e01b8152600401612dcf959493929190613b77565b602060405180830381600087803b158015612de957600080fd5b505af1925050508015612e1a57506040513d601f19601f82011682018060405250810190612e17919061352c565b60015b612ec057612e26614491565b806308c379a01415612e835750612e3b614b06565b80612e465750612e85565b806040517f08c379a0000000000000000000000000000000000000000000000000000000008152600401612e7a9190613c45565b60405180910390fd5b505b6040517f08c379a0000000000000000000000000000000000000000000000000000000008152600401612eb790613ca5565b60405180910390fd5b63f23a6e6160e01b7bffffffffffffffffffffffffffffffffffffffffffffffffffffffff1916817bffffffffffffffffffffffffffffffffffffffffffffffffffffffff191614612f47576040517f08c379a0000000000000000000000000000000000000000000000000000000008152600401612f3e90613cc5565b60405180910390fd5b505b505050505050565b600080823b905060008111915050919050565b828054612f7090614329565b90600052602060002090601f016020900481019282612f925760008555612fd9565b82601f10612fab57805160ff1916838001178555612fd9565b82800160010185558215612fd9579182015b82811115612fd8578251825591602001919060010190612fbd565b5b509050612fe69190612fea565b5090565b5b80821115613003576000816000905550600101612feb565b5090565b600061301a61301584614033565b61400e565b9050808382526020820190508285602086028201111561303957600080fd5b60005b85811015613069578161304f888261315b565b84526020840193506020830192505060018101905061303c565b5050509392505050565b60006130866130818461405f565b61400e565b905080838252602082019050828560208602820111156130a557600080fd5b60005b858110156130d557816130bb8882613257565b8452602084019350602083019250506001810190506130a8565b5050509392505050565b60006130f26130ed8461408b565b61400e565b90508281526020810184848401111561310a57600080fd5b6131158482856142e7565b509392505050565b600061313061312b846140bc565b61400e565b90508281526020810184848401111561314857600080fd5b6131538482856142e7565b509392505050565b60008135905061316a81614b9c565b92915050565b600082601f83011261318157600080fd5b8135613191848260208601613007565b91505092915050565b600082601f8301126131ab57600080fd5b81356131bb848260208601613073565b91505092915050565b6000813590506131d381614bb3565b92915050565b6000813590506131e881614bca565b92915050565b6000815190506131fd81614bca565b92915050565b600082601f83011261321457600080fd5b81356132248482602086016130df565b91505092915050565b600082601f83011261323e57600080fd5b813561324e84826020860161311d565b91505092915050565b60008135905061326681614be1565b92915050565b60006020828403121561327e57600080fd5b600061328c8482850161315b565b91505092915050565b600080604083850312156132a857600080fd5b60006132b68582860161315b565b92505060206132c78582860161315b565b9150509250929050565b600080600080600060a086880312156132e957600080fd5b60006132f78882890161315b565b95505060206133088882890161315b565b945050604086013567ffffffffffffffff81111561332557600080fd5b6133318882890161319a565b935050606086013567ffffffffffffffff81111561334e57600080fd5b61335a8882890161319a565b925050608086013567ffffffffffffffff81111561337757600080fd5b61338388828901613203565b9150509295509295909350565b600080600080600060a086880312156133a857600080fd5b60006133b68882890161315b565b95505060206133c78882890161315b565b94505060406133d888828901613257565b93505060606133e988828901613257565b925050608086013567ffffffffffffffff81111561340657600080fd5b61341288828901613203565b9150509295509295909350565b6000806040838503121561343257600080fd5b60006134408582860161315b565b9250506020613451858286016131c4565b9150509250929050565b6000806040838503121561346e57600080fd5b600061347c8582860161315b565b925050602061348d85828601613257565b9150509250929050565b600080604083850312156134aa57600080fd5b600083013567ffffffffffffffff8111156134c457600080fd5b6134d085828601613170565b925050602083013567ffffffffffffffff8111156134ed57600080fd5b6134f98582860161319a565b9150509250929050565b60006020828403121561351557600080fd5b6000613523848285016131d9565b91505092915050565b60006020828403121561353e57600080fd5b600061354c848285016131ee565b91505092915050565b6000806000806080858703121561356b57600080fd5b600085013567ffffffffffffffff81111561358557600080fd5b6135918782880161322d565b94505060206135a287828801613257565b93505060406135b387828801613257565b92505060606135c487828801613257565b91505092959194509250565b6000602082840312156135e257600080fd5b60006135f084828501613257565b91505092915050565b60008060006060848603121561360e57600080fd5b600061361c86828701613257565b935050602061362d86828701613257565b925050604061363e86828701613257565b9150509250925092565b6000806000806080858703121561365e57600080fd5b600061366c87828801613257565b945050602061367d87828801613257565b935050604061368e87828801613257565b925050606061369f87828801613257565b91505092959194509250565b60006136b78383613ad6565b60208301905092915050565b6136cc81614273565b82525050565b60006136dd826140fd565b6136e7818561412b565b93506136f2836140ed565b8060005b8381101561372357815161370a88826136ab565b97506137158361411e565b9250506001810190506136f6565b5085935050505092915050565b61373981614285565b82525050565b600061374a82614108565b613754818561413c565b93506137648185602086016142f6565b61376d816144b3565b840191505092915050565b600061378382614113565b61378d818561414d565b935061379d8185602086016142f6565b6137a6816144b3565b840191505092915050565b60006137be60348361414d565b91506137c9826144d1565b604082019050919050565b60006137e160288361414d565b91506137ec82614520565b604082019050919050565b6000613804602b8361414d565b915061380f8261456f565b604082019050919050565b600061382760298361414d565b9150613832826145be565b604082019050919050565b600061384a60268361414d565b91506138558261460d565b604082019050919050565b600061386d60298361414d565b91506138788261465c565b604082019050919050565b600061389060068361414d565b915061389b826146ab565b602082019050919050565b60006138b360258361414d565b91506138be826146d4565b604082019050919050565b60006138d660328361414d565b91506138e182614723565b604082019050919050565b60006138f960268361414d565b915061390482614772565b604082019050919050565b600061391c602a8361414d565b9150613927826147c1565b604082019050919050565b600061393f60208361414d565b915061394a82614810565b602082019050919050565b600061396260228361414d565b915061396d82614839565b604082019050919050565b6000613985601d8361414d565b915061399082614888565b602082019050919050565b60006139a8601a8361414d565b91506139b3826148b1565b602082019050919050565b60006139cb60208361414d565b91506139d6826148da565b602082019050919050565b60006139ee601b8361414d565b91506139f982614903565b602082019050919050565b6000613a1160278361414d565b9150613a1c8261492c565b604082019050919050565b6000613a3460298361414d565b9150613a3f8261497b565b604082019050919050565b6000613a5760298361414d565b9150613a62826149ca565b604082019050919050565b6000613a7a60288361414d565b9150613a8582614a19565b604082019050919050565b6000613a9d602d8361414d565b9150613aa882614a68565b604082019050919050565b6000613ac060218361414d565b9150613acb82614ab7565b604082019050919050565b613adf816142dd565b82525050565b613aee816142dd565b82525050565b6000602082019050613b0960008301846136c3565b92915050565b600060a082019050613b2460008301886136c3565b613b3160208301876136c3565b8181036040830152613b4381866136d2565b90508181036060830152613b5781856136d2565b90508181036080830152613b6b818461373f565b90509695505050505050565b600060a082019050613b8c60008301886136c3565b613b9960208301876136c3565b613ba66040830186613ae5565b613bb36060830185613ae5565b8181036080830152613bc5818461373f565b90509695505050505050565b60006020820190508181036000830152613beb81846136d2565b905092915050565b60006040820190508181036000830152613c0d81856136d2565b90508181036020830152613c2181846136d2565b90509392505050565b6000602082019050613c3f6000830184613730565b92915050565b60006020820190508181036000830152613c5f8184613778565b905092915050565b60006060820190508181036000830152613c818186613778565b9050613c906020830185613ae5565b613c9d6040830184613ae5565b949350505050565b60006020820190508181036000830152613cbe816137b1565b9050919050565b60006020820190508181036000830152613cde816137d4565b9050919050565b60006020820190508181036000830152613cfe816137f7565b9050919050565b60006020820190508181036000830152613d1e8161381a565b9050919050565b60006020820190508181036000830152613d3e8161383d565b9050919050565b60006020820190508181036000830152613d5e81613860565b9050919050565b60006020820190508181036000830152613d7e81613883565b9050919050565b60006020820190508181036000830152613d9e816138a6565b9050919050565b60006020820190508181036000830152613dbe816138c9565b9050919050565b60006020820190508181036000830152613dde816138ec565b9050919050565b60006020820190508181036000830152613dfe8161390f565b9050919050565b60006020820190508181036000830152613e1e81613932565b9050919050565b60006020820190508181036000830152613e3e81613955565b9050919050565b60006020820190508181036000830152613e5e81613978565b9050919050565b60006020820190508181036000830152613e7e8161399b565b9050919050565b60006020820190508181036000830152613e9e816139be565b9050919050565b60006020820190508181036000830152613ebe816139e1565b9050919050565b60006020820190508181036000830152613ede81613a04565b9050919050565b60006020820190508181036000830152613efe81613a27565b9050919050565b60006020820190508181036000830152613f1e81613a4a565b9050919050565b60006020820190508181036000830152613f3e81613a6d565b9050919050565b60006020820190508181036000830152613f5e81613a90565b9050919050565b60006020820190508181036000830152613f7e81613ab3565b9050919050565b6000602082019050613f9a6000830184613ae5565b92915050565b6000604082019050613fb56000830185613ae5565b613fc26020830184613ae5565b9392505050565b6000608082019050613fde6000830187613ae5565b613feb6020830186613ae5565b613ff860408301856136c3565b6140056060830184613ae5565b95945050505050565b6000614018614029565b9050614024828261435b565b919050565b6000604051905090565b600067ffffffffffffffff82111561404e5761404d614462565b5b602082029050602081019050919050565b600067ffffffffffffffff82111561407a57614079614462565b5b602082029050602081019050919050565b600067ffffffffffffffff8211156140a6576140a5614462565b5b6140af826144b3565b9050602081019050919050565b600067ffffffffffffffff8211156140d7576140d6614462565b5b6140e0826144b3565b9050602081019050919050565b6000819050602082019050919050565b600081519050919050565b600081519050919050565b600081519050919050565b6000602082019050919050565b600082825260208201905092915050565b600082825260208201905092915050565b600082825260208201905092915050565b6000614169826142dd565b9150614174836142dd565b9250827fffffffffffffffffffffffffffffffffffffffffffffffffffffffffffffffff038211156141a9576141a86143d5565b5b828201905092915050565b60006141bf826142dd565b91506141ca836142dd565b9250826141da576141d9614404565b5b828204905092915050565b60006141f0826142dd565b91506141fb836142dd565b9250817fffffffffffffffffffffffffffffffffffffffffffffffffffffffffffffffff0483118215151615614234576142336143d5565b5b828202905092915050565b600061424a826142dd565b9150614255836142dd565b925082821015614268576142676143d5565b5b828203905092915050565b600061427e826142bd565b9050919050565b60008115159050919050565b60007fffffffff0000000000000000000000000000000000000000000000000000000082169050919050565b600073ffffffffffffffffffffffffffffffffffffffff82169050919050565b6000819050919050565b82818337600083830152505050565b60005b838110156143145780820151818401526020810190506142f9565b83811115614323576000848401525b50505050565b6000600282049050600182168061434157607f821691505b6020821081141561435557614354614433565b5b50919050565b614364826144b3565b810181811067ffffffffffffffff8211171561438357614382614462565b5b80604052505050565b6000614397826142dd565b91507fffffffffffffffffffffffffffffffffffffffffffffffffffffffffffffffff8214156143ca576143c96143d5565b5b600182019050919050565b7f4e487b7100000000000000000000000000000000000000000000000000000000600052601160045260246000fd5b7f4e487b7100000000000000000000000000000000000000000000000000000000600052601260045260246000fd5b7f4e487b7100000000000000000000000000000000000000000000000000000000600052602260045260246000fd5b7f4e487b7100000000000000000000000000000000000000000000000000000000600052604160045260246000fd5b600060033d11156144b05760046000803e6144ad6000516144c4565b90505b90565b6000601f19601f8301169050919050565b60008160e01c9050919050565b7f455243313135353a207472616e7366657220746f206e6f6e204552433131353560008201527f526563656976657220696d706c656d656e746572000000000000000000000000602082015250565b7f455243313135353a204552433131353552656365697665722072656a6563746560008201527f6420746f6b656e73000000000000000000000000000000000000000000000000602082015250565b7f455243313135353a2062616c616e636520717565727920666f7220746865207a60008201527f65726f2061646472657373000000000000000000000000000000000000000000602082015250565b7f69645f20686173206e6f7420616c72656164792073657420696e20746865206260008201527f6c61636b206c6973740000000000000000000000000000000000000000000000602082015250565b7f4f776e61626c653a206e6577206f776e657220697320746865207a65726f206160008201527f6464726573730000000000000000000000000000000000000000000000000000602082015250565b7f455243313135353a2063616c6c6572206973206e6f74206f776e6572206e6f7260008201527f20617070726f7665640000000000000000000000000000000000000000000000602082015250565b7f3125206665650000000000000000000000000000000000000000000000000000600082015250565b7f455243313135353a207472616e7366657220746f20746865207a65726f20616460008201527f6472657373000000000000000000000000000000000000000000000000000000602082015250565b7f455243313135353a207472616e736665722063616c6c6572206973206e6f742060008201527f6f776e6572206e6f7220617070726f7665640000000000000000000000000000602082015250565b7f49442068617320746f206265206c657373207468616e206e6674206c6973742060008201527f6c656e6774680000000000000000000000000000000000000000000000000000602082015250565b7f455243313135353a20696e73756666696369656e742062616c616e636520666f60008201527f72207472616e7366657200000000000000000000000000000000000000000000602082015250565b7f4f776e61626c653a2063616c6c6572206973206e6f7420746865206f776e6572600082015250565b7f69645f2068617320746f206265206c657373207468616e206e6674206c656e6760008201527f7468000000000000000000000000000000000000000000000000000000000000602082015250565b7f736574206174206c65617374206f6e65206f662074776f20636f696e73000000600082015250565b7f70726963655f2068617320746f20626520617661696c61626c65000000000000600082015250565b7f616d6f756e742068617320746f206c657373207468616e206361706163697479600082015250565b7f616d6f756e745f2068617320746f20626520617661696c61626c650000000000600082015250565b7f49442068617320746f206265206c657373207468616e2073656c6c206c69737460008201527f206c656e67746800000000000000000000000000000000000000000000000000602082015250565b7f455243313135353a2073657474696e6720617070726f76616c2073746174757360008201527f20666f722073656c660000000000000000000000000000000000000000000000602082015250565b7f455243313135353a206163636f756e747320616e6420696473206c656e67746860008201527f206d69736d617463680000000000000000000000000000000000000000000000602082015250565b7f455243313135353a2069647320616e6420616d6f756e7473206c656e6774682060008201527f6d69736d61746368000000000000000000000000000000000000000000000000602082015250565b7f73656c6c5f69645f2068617320746f206265206c657373207468616e2073656c60008201527f6c206c697374206c656e67746800000000000000000000000000000000000000602082015250565b7f455243313135353a206d696e7420746f20746865207a65726f2061646472657360008201527f7300000000000000000000000000000000000000000000000000000000000000602082015250565b600060443d1015614b1657614b99565b614b1e614029565b60043d036004823e80513d602482011167ffffffffffffffff82111715614b46575050614b99565b808201805167ffffffffffffffff811115614b645750505050614b99565b80602083010160043d038501811115614b81575050505050614b99565b614b908260200185018661435b565b82955050505050505b90565b614ba581614273565b8114614bb057600080fd5b50565b614bbc81614285565b8114614bc757600080fd5b50565b614bd381614291565b8114614bde57600080fd5b50565b614bea816142dd565b8114614bf557600080fd5b5056fea26469706673582212206157c7c62ea334b150654ff9b88a727d83aaecfeb22813639f3f7af8caf486ec64736f6c63430008040033",
  "immutableReferences": {},
  "source": "pragma solidity ^0.8.0;\n\nimport \"@openzeppelin/contracts/token/ERC1155/ERC1155.sol\";\nimport \"@openzeppelin/contracts/access/Ownable.sol\";\n\ncontract Meme is ERC1155, Ownable{\n    \n    struct NFT {\n        string hash_;\n        uint e_price_;\n        uint d_price_;\n    }\n    NFT[] nft_list;\n\n    struct Sell {\n        uint nft_id_;\n        uint e_price_;\n        uint d_price_;\n        address payable owner_;\n        uint amount_;\n    }\n    Sell[] sell_list;\n\n    uint[] black_list;\n    mapping (uint => bool) isBlacklist;\n\n    constructor() ERC1155(\"\") Ownable() {}\n    function Set_nft (string memory hash_, uint amount_, uint e_price_, uint d_price_) public {\n        _mint(msg.sender, nft_list.length, amount_, \"\");\n\n        NFT memory temp = NFT(hash_, e_price_, d_price_);\n        nft_list.push(temp);\n    }\n\n    function Get_nft (uint id_) public view returns (string memory, uint, uint) {\n        return (\n            nft_list[id_].hash_,\n            nft_list[id_].e_price_,\n            nft_list[id_].d_price_\n        );\n    }\n\n    function Get_nft_amount () public view returns (uint) {\n        return nft_list.length;\n    }\n\n    function Get_list_fee (uint price_) public view returns (uint) {\n        return (price_/100);\n    }\n    function Set_sell (uint id_, uint e_price_, uint d_price_, uint amount_) public payable returns(uint){\n        // require : id_ is avaliable \n        require( id_ < nft_list.length, \"ID has to be less than nft list length\");\n        // require : set at least one of two coins\n        require ( (e_price_ > 0) || (d_price_ > 0), \"set at least one of two coins\");\n        // require : 1% fee\n        if ( e_price_ == 0 && d_price_ > 0) {\n            require(Get_list_fee(d_price_) * amount_ == msg.value, \"1% fee\");\n        } else if ( e_price_ > 0 && d_price_ == 0) {\n            require(Get_list_fee(e_price_) * amount_ == msg.value, \"1% fee\");\n        } else if ( e_price_ > 0 && d_price_ > 0) {\n            require((Get_list_fee(e_price_) + Get_list_fee(d_price_)) * amount_ == msg.value, \"1% fee\");\n        }\n        // require : amount_ has to be available\n        require((amount_>0) && ( balanceOf(msg.sender, id_) >= amount_ ), \"amount_ has to be available\");\n        \n        Sell memory sell_temp = Sell(id_, e_price_, d_price_, payable(msg.sender), amount_);\n        sell_list.push(sell_temp);\n        return (sell_list.length - 1);\n    }\n\n    function Update_sell (uint sell_id_, uint e_price_, uint d_price_, uint amount_) public {\n        // require : id_ is avaliable \n        require( sell_id_ < sell_list.length, \"ID has to be less than sell list length\");\n        // require : set at least one of two coins\n        require ( (e_price_ > 0) || (d_price_ > 0), \"set at least one of two coins\");\n        // require : amount_ has to be available\n        require((amount_>0) && ( balanceOf(msg.sender, sell_list[sell_id_].nft_id_) >= amount_ ), \"amount_ has to be available\");\n        sell_list[sell_id_].e_price_ = e_price_;\n        sell_list[sell_id_].d_price_ = d_price_;\n        sell_list[sell_id_].amount_ = amount_;\n    }\n\n    function Remove_selling (uint id_) public onlyOwner {\n        // require : id_ is avaliable \n        require( id_ < sell_list.length, \"ID has to be less than sell list length\");\n        delete sell_list[id_];\n    }\n\n    function Get_sell (uint id_) public view returns (uint, uint, address, uint) {\n        // require : id_ is avaliable \n        require( id_ < sell_list.length, \"ID has to be less than sell list length\");\n        return (\n            sell_list[id_].e_price_,\n            sell_list[id_].d_price_,\n            sell_list[id_].owner_,\n            sell_list[id_].amount_\n        );\n    }\n\n    function sell_fee (uint price_) public view returns(uint) {\n        // require : price_ has to be available\n        require( price_ > 0, \"price_ has to be available\");\n        return price_ * 975 / 1000;\n    }\n    \n    function Buying (uint sell_id_, uint amount_, uint token_kind_) public payable {\n        // require : sell_id_ has to be less than sell list length\n        require( sell_id_ < sell_list.length,  \"sell_id_ has to be less than sell list length\");\n        // require : buying amount has to be avaliable\n        require( amount_ <= sell_list[sell_id_].amount_, \"amount has to less than capacity\" );\n        \n        safeTransferFrom( msg.sender, sell_list[sell_id_].owner_, sell_list[sell_id_].nft_id_, amount_, \"\" );\n        if (amount_ == sell_list[sell_id_].amount_) {\n            Remove_selling(sell_id_);\n        } else {\n            sell_list[sell_id_].amount_ = sell_list[sell_id_].amount_ - amount_;\n        }\n        \n        if( token_kind_ == 0 ){\n            sell_list[sell_id_].owner_.transfer(sell_fee(sell_list[sell_id_].e_price_));\n        } else {\n            sell_list[sell_id_].owner_.transfer(sell_fee(sell_list[sell_id_].d_price_));\n        }\n\n    }\n    \n    function Set_blacklist (uint id_) public onlyOwner {\n        // require : id_ has to be less than nft length\n        require(id_ < nft_list.length, \"id_ has to be less than nft length\");\n        // require : id_ has not already set in the black list\n        require(isBlacklist[id_] == false, \"id_ has not already set in the black list\");\n        black_list.push(id_);\n        isBlacklist[id_] = true;\n    }\n\n    function check_blacklist (uint id_) public view returns (bool) {\n        // require : id_ has to be less than nft length\n        require(id_ < nft_list.length, \"id_ has to be less than nft length\");\n        return isBlacklist[id_];\n    }\n    receive() payable external {}\n    function getETH() external onlyOwner {\n        payable(msg.sender).transfer(address(this).balance);\n    }\n}",
  "sourcePath": "/home/oncemore/Blockchain Work/NFT_marketplace_smartcontract(MEME_20210511)/contracts/Meme.sol",
  "compiler": {
    "name": "solc",
    "version": "0.8.4+commit.c7e474f2.Emscripten.clang"
  },
  "schemaVersion": "3.3.4",
  "updatedAt": "2021-05-13T05:41:10.832Z",
  "devdoc": {
    "kind": "dev",
    "methods": {
      "balanceOf(address,uint256)": {
        "details": "See {IERC1155-balanceOf}. Requirements: - `account` cannot be the zero address."
      },
      "balanceOfBatch(address[],uint256[])": {
        "details": "See {IERC1155-balanceOfBatch}. Requirements: - `accounts` and `ids` must have the same length."
      },
      "isApprovedForAll(address,address)": {
        "details": "See {IERC1155-isApprovedForAll}."
      },
      "owner()": {
        "details": "Returns the address of the current owner."
      },
      "renounceOwnership()": {
        "details": "Leaves the contract without owner. It will not be possible to call `onlyOwner` functions anymore. Can only be called by the current owner. NOTE: Renouncing ownership will leave the contract without an owner, thereby removing any functionality that is only available to the owner."
      },
      "safeBatchTransferFrom(address,address,uint256[],uint256[],bytes)": {
        "details": "See {IERC1155-safeBatchTransferFrom}."
      },
      "safeTransferFrom(address,address,uint256,uint256,bytes)": {
        "details": "See {IERC1155-safeTransferFrom}."
      },
      "setApprovalForAll(address,bool)": {
        "details": "See {IERC1155-setApprovalForAll}."
      },
      "supportsInterface(bytes4)": {
        "details": "See {IERC165-supportsInterface}."
      },
      "transferOwnership(address)": {
        "details": "Transfers ownership of the contract to a new account (`newOwner`). Can only be called by the current owner."
      },
      "uri(uint256)": {
        "details": "See {IERC1155MetadataURI-uri}. This implementation returns the same URI for *all* token types. It relies on the token type ID substitution mechanism https://eips.ethereum.org/EIPS/eip-1155#metadata[defined in the EIP]. Clients calling this function must replace the `\\{id\\}` substring with the actual token type ID."
      }
    },
    "version": 1
  },
  "userdoc": {
    "kind": "user",
    "methods": {},
    "version": 1
  }
}