{
  "contractName": "Meme",
  "abi": [
    {
      "inputs": [
        {
          "internalType": "address payable",
          "name": "_ethReceiver",
          "type": "address"
        },
        {
          "internalType": "contract IERC20",
          "name": "dankToken_",
          "type": "address"
        }
      ],
      "stateMutability": "nonpayable",
      "type": "constructor"
    },
    {
      "anonymous": false,
      "inputs": [
        {
          "indexed": true,
          "internalType": "address",
          "name": "account",
          "type": "address"
        },
        {
          "indexed": true,
          "internalType": "address",
          "name": "operator",
          "type": "address"
        },
        {
          "indexed": false,
          "internalType": "bool",
          "name": "approved",
          "type": "bool"
        }
      ],
      "name": "ApprovalForAll",
      "type": "event"
    },
    {
      "anonymous": false,
      "inputs": [
        {
          "indexed": true,
          "internalType": "address",
          "name": "previousOwner",
          "type": "address"
        },
        {
          "indexed": true,
          "internalType": "address",
          "name": "newOwner",
          "type": "address"
        }
      ],
      "name": "OwnershipTransferred",
      "type": "event"
    },
    {
      "anonymous": false,
      "inputs": [
        {
          "indexed": true,
          "internalType": "address",
          "name": "operator",
          "type": "address"
        },
        {
          "indexed": true,
          "internalType": "address",
          "name": "from",
          "type": "address"
        },
        {
          "indexed": true,
          "internalType": "address",
          "name": "to",
          "type": "address"
        },
        {
          "indexed": false,
          "internalType": "uint256[]",
          "name": "ids",
          "type": "uint256[]"
        },
        {
          "indexed": false,
          "internalType": "uint256[]",
          "name": "values",
          "type": "uint256[]"
        }
      ],
      "name": "TransferBatch",
      "type": "event"
    },
    {
      "anonymous": false,
      "inputs": [
        {
          "indexed": true,
          "internalType": "address",
          "name": "operator",
          "type": "address"
        },
        {
          "indexed": true,
          "internalType": "address",
          "name": "from",
          "type": "address"
        },
        {
          "indexed": true,
          "internalType": "address",
          "name": "to",
          "type": "address"
        },
        {
          "indexed": false,
          "internalType": "uint256",
          "name": "id",
          "type": "uint256"
        },
        {
          "indexed": false,
          "internalType": "uint256",
          "name": "value",
          "type": "uint256"
        }
      ],
      "name": "TransferSingle",
      "type": "event"
    },
    {
      "anonymous": false,
      "inputs": [
        {
          "indexed": false,
          "internalType": "string",
          "name": "value",
          "type": "string"
        },
        {
          "indexed": true,
          "internalType": "uint256",
          "name": "id",
          "type": "uint256"
        }
      ],
      "name": "URI",
      "type": "event"
    },
    {
      "inputs": [
        {
          "internalType": "uint256",
          "name": "",
          "type": "uint256"
        }
      ],
      "name": "admin_list",
      "outputs": [
        {
          "internalType": "address",
          "name": "",
          "type": "address"
        }
      ],
      "stateMutability": "view",
      "type": "function"
    },
    {
      "inputs": [
        {
          "internalType": "address",
          "name": "account",
          "type": "address"
        },
        {
          "internalType": "uint256",
          "name": "id",
          "type": "uint256"
        }
      ],
      "name": "balanceOf",
      "outputs": [
        {
          "internalType": "uint256",
          "name": "",
          "type": "uint256"
        }
      ],
      "stateMutability": "view",
      "type": "function"
    },
    {
      "inputs": [
        {
          "internalType": "address[]",
          "name": "accounts",
          "type": "address[]"
        },
        {
          "internalType": "uint256[]",
          "name": "ids",
          "type": "uint256[]"
        }
      ],
      "name": "balanceOfBatch",
      "outputs": [
        {
          "internalType": "uint256[]",
          "name": "",
          "type": "uint256[]"
        }
      ],
      "stateMutability": "view",
      "type": "function"
    },
    {
      "inputs": [],
      "name": "dankToken",
      "outputs": [
        {
          "internalType": "contract IERC20",
          "name": "",
          "type": "address"
        }
      ],
      "stateMutability": "view",
      "type": "function"
    },
    {
      "inputs": [
        {
          "internalType": "address",
          "name": "account",
          "type": "address"
        },
        {
          "internalType": "address",
          "name": "operator",
          "type": "address"
        }
      ],
      "name": "isApprovedForAll",
      "outputs": [
        {
          "internalType": "bool",
          "name": "",
          "type": "bool"
        }
      ],
      "stateMutability": "view",
      "type": "function"
    },
    {
      "inputs": [],
      "name": "owner",
      "outputs": [
        {
          "internalType": "address",
          "name": "",
          "type": "address"
        }
      ],
      "stateMutability": "view",
      "type": "function"
    },
    {
      "inputs": [],
      "name": "renounceOwnership",
      "outputs": [],
      "stateMutability": "nonpayable",
      "type": "function"
    },
    {
      "inputs": [
        {
          "internalType": "address",
          "name": "from",
          "type": "address"
        },
        {
          "internalType": "address",
          "name": "to",
          "type": "address"
        },
        {
          "internalType": "uint256[]",
          "name": "ids",
          "type": "uint256[]"
        },
        {
          "internalType": "uint256[]",
          "name": "amounts",
          "type": "uint256[]"
        },
        {
          "internalType": "bytes",
          "name": "data",
          "type": "bytes"
        }
      ],
      "name": "safeBatchTransferFrom",
      "outputs": [],
      "stateMutability": "nonpayable",
      "type": "function"
    },
    {
      "inputs": [
        {
          "internalType": "address",
          "name": "from",
          "type": "address"
        },
        {
          "internalType": "address",
          "name": "to",
          "type": "address"
        },
        {
          "internalType": "uint256",
          "name": "id",
          "type": "uint256"
        },
        {
          "internalType": "uint256",
          "name": "amount",
          "type": "uint256"
        },
        {
          "internalType": "bytes",
          "name": "data",
          "type": "bytes"
        }
      ],
      "name": "safeTransferFrom",
      "outputs": [],
      "stateMutability": "nonpayable",
      "type": "function"
    },
    {
      "inputs": [
        {
          "internalType": "address",
          "name": "operator",
          "type": "address"
        },
        {
          "internalType": "bool",
          "name": "approved",
          "type": "bool"
        }
      ],
      "name": "setApprovalForAll",
      "outputs": [],
      "stateMutability": "nonpayable",
      "type": "function"
    },
    {
      "inputs": [
        {
          "internalType": "bytes4",
          "name": "interfaceId",
          "type": "bytes4"
        }
      ],
      "name": "supportsInterface",
      "outputs": [
        {
          "internalType": "bool",
          "name": "",
          "type": "bool"
        }
      ],
      "stateMutability": "view",
      "type": "function"
    },
    {
      "inputs": [
        {
          "internalType": "address",
          "name": "newOwner",
          "type": "address"
        }
      ],
      "name": "transferOwnership",
      "outputs": [],
      "stateMutability": "nonpayable",
      "type": "function"
    },
    {
      "inputs": [
        {
          "internalType": "uint256",
          "name": "",
          "type": "uint256"
        }
      ],
      "name": "uri",
      "outputs": [
        {
          "internalType": "string",
          "name": "",
          "type": "string"
        }
      ],
      "stateMutability": "view",
      "type": "function"
    },
    {
      "inputs": [
        {
          "internalType": "address",
          "name": "new_admin_",
          "type": "address"
        }
      ],
      "name": "Set_admin",
      "outputs": [
        {
          "internalType": "bool",
          "name": "",
          "type": "bool"
        }
      ],
      "stateMutability": "nonpayable",
      "type": "function"
    },
    {
      "inputs": [],
      "name": "Get_admin",
      "outputs": [
        {
          "internalType": "address[]",
          "name": "",
          "type": "address[]"
        }
      ],
      "stateMutability": "view",
      "type": "function"
    },
    {
      "inputs": [
        {
          "internalType": "uint256",
          "name": "id_",
          "type": "uint256"
        }
      ],
      "name": "Remove_admin",
      "outputs": [
        {
          "internalType": "bool",
          "name": "",
          "type": "bool"
        }
      ],
      "stateMutability": "nonpayable",
      "type": "function"
    },
    {
      "inputs": [
        {
          "internalType": "address",
          "name": "user_",
          "type": "address"
        }
      ],
      "name": "is_admin",
      "outputs": [
        {
          "internalType": "bool",
          "name": "",
          "type": "bool"
        }
      ],
      "stateMutability": "view",
      "type": "function"
    },
    {
      "inputs": [
        {
          "internalType": "string",
          "name": "hash_",
          "type": "string"
        },
        {
          "internalType": "uint256",
          "name": "collection_id_",
          "type": "uint256"
        },
        {
          "internalType": "uint256",
          "name": "amount_",
          "type": "uint256"
        },
        {
          "internalType": "uint256",
          "name": "e_price_",
          "type": "uint256"
        },
        {
          "internalType": "uint256",
          "name": "d_price_",
          "type": "uint256"
        }
      ],
      "name": "Set_nft",
      "outputs": [],
      "stateMutability": "nonpayable",
      "type": "function"
    },
    {
      "inputs": [
        {
          "internalType": "string[]",
          "name": "hashes_",
          "type": "string[]"
        },
        {
          "internalType": "uint256[]",
          "name": "collection_ids_",
          "type": "uint256[]"
        },
        {
          "internalType": "uint256[]",
          "name": "amounts_",
          "type": "uint256[]"
        },
        {
          "internalType": "uint256[]",
          "name": "e_prices_",
          "type": "uint256[]"
        },
        {
          "internalType": "uint256[]",
          "name": "d_prices_",
          "type": "uint256[]"
        }
      ],
      "name": "Batch_set_nft",
      "outputs": [],
      "stateMutability": "nonpayable",
      "type": "function"
    },
    {
      "inputs": [
        {
          "internalType": "string",
          "name": "hash_",
          "type": "string"
        }
      ],
      "name": "Set_collection",
      "outputs": [],
      "stateMutability": "nonpayable",
      "type": "function"
    },
    {
      "inputs": [
        {
          "internalType": "uint256",
          "name": "id_",
          "type": "uint256"
        }
      ],
      "name": "Get_collection",
      "outputs": [
        {
          "internalType": "string",
          "name": "",
          "type": "string"
        },
        {
          "internalType": "address",
          "name": "",
          "type": "address"
        }
      ],
      "stateMutability": "view",
      "type": "function"
    },
    {
      "inputs": [
        {
          "internalType": "uint256",
          "name": "id_",
          "type": "uint256"
        }
      ],
      "name": "Remove_collection",
      "outputs": [
        {
          "internalType": "bool",
          "name": "",
          "type": "bool"
        }
      ],
      "stateMutability": "nonpayable",
      "type": "function"
    },
    {
      "inputs": [
        {
          "internalType": "uint256",
          "name": "id_",
          "type": "uint256"
        }
      ],
      "name": "Get_nft",
      "outputs": [
        {
          "internalType": "string",
          "name": "",
          "type": "string"
        },
        {
          "internalType": "uint256",
          "name": "",
          "type": "uint256"
        },
        {
          "internalType": "uint256",
          "name": "",
          "type": "uint256"
        }
      ],
      "stateMutability": "view",
      "type": "function"
    },
    {
      "inputs": [],
      "name": "Get_nft_amount",
      "outputs": [
        {
          "internalType": "uint256",
          "name": "",
          "type": "uint256"
        }
      ],
      "stateMutability": "view",
      "type": "function"
    },
    {
      "inputs": [
        {
          "internalType": "uint256",
          "name": "price_",
          "type": "uint256"
        }
      ],
      "name": "Get_list_fee",
      "outputs": [
        {
          "internalType": "uint256",
          "name": "",
          "type": "uint256"
        }
      ],
      "stateMutability": "view",
      "type": "function"
    },
    {
      "inputs": [
        {
          "internalType": "uint256",
          "name": "id_",
          "type": "uint256"
        },
        {
          "internalType": "uint256",
          "name": "e_price_",
          "type": "uint256"
        },
        {
          "internalType": "uint256",
          "name": "d_price_",
          "type": "uint256"
        },
        {
          "internalType": "uint256",
          "name": "amount_",
          "type": "uint256"
        }
      ],
      "name": "Set_sell",
      "outputs": [
        {
          "internalType": "uint256",
          "name": "",
          "type": "uint256"
        }
      ],
      "stateMutability": "payable",
      "type": "function"
    },
    {
      "inputs": [
        {
          "internalType": "uint256",
          "name": "sell_id_",
          "type": "uint256"
        },
        {
          "internalType": "uint256",
          "name": "e_price_",
          "type": "uint256"
        },
        {
          "internalType": "uint256",
          "name": "d_price_",
          "type": "uint256"
        },
        {
          "internalType": "uint256",
          "name": "amount_",
          "type": "uint256"
        }
      ],
      "name": "Update_sell",
      "outputs": [],
      "stateMutability": "nonpayable",
      "type": "function"
    },
    {
      "inputs": [
        {
          "internalType": "uint256",
          "name": "id_",
          "type": "uint256"
        }
      ],
      "name": "Remove_selling",
      "outputs": [],
      "stateMutability": "nonpayable",
      "type": "function"
    },
    {
      "inputs": [
        {
          "internalType": "uint256",
          "name": "id_",
          "type": "uint256"
        }
      ],
      "name": "Get_sell",
      "outputs": [
        {
          "internalType": "uint256",
          "name": "",
          "type": "uint256"
        },
        {
          "internalType": "uint256",
          "name": "",
          "type": "uint256"
        },
        {
          "internalType": "address",
          "name": "",
          "type": "address"
        },
        {
          "internalType": "uint256",
          "name": "",
          "type": "uint256"
        }
      ],
      "stateMutability": "view",
      "type": "function"
    },
    {
      "inputs": [
        {
          "internalType": "uint256",
          "name": "price_",
          "type": "uint256"
        }
      ],
      "name": "Get_sell_fee",
      "outputs": [
        {
          "internalType": "uint256",
          "name": "",
          "type": "uint256"
        }
      ],
      "stateMutability": "view",
      "type": "function"
    },
    {
      "inputs": [
        {
          "internalType": "uint256",
          "name": "price_",
          "type": "uint256"
        }
      ],
      "name": "Get_real_price",
      "outputs": [
        {
          "internalType": "uint256",
          "name": "",
          "type": "uint256"
        }
      ],
      "stateMutability": "view",
      "type": "function"
    },
    {
      "inputs": [
        {
          "internalType": "uint256",
          "name": "sell_id_",
          "type": "uint256"
        },
        {
          "internalType": "uint256",
          "name": "amount_",
          "type": "uint256"
        },
        {
          "internalType": "uint256",
          "name": "token_kind_",
          "type": "uint256"
        }
      ],
      "name": "Buying",
      "outputs": [],
      "stateMutability": "payable",
      "type": "function"
    },
    {
      "inputs": [
        {
          "internalType": "uint256",
          "name": "id_",
          "type": "uint256"
        }
      ],
      "name": "Set_blacklist",
      "outputs": [],
      "stateMutability": "nonpayable",
      "type": "function"
    },
    {
      "inputs": [
        {
          "internalType": "uint256",
          "name": "id_",
          "type": "uint256"
        }
      ],
      "name": "check_blacklist",
      "outputs": [
        {
          "internalType": "bool",
          "name": "",
          "type": "bool"
        }
      ],
      "stateMutability": "view",
      "type": "function"
    }
  ],
  "bytecode": "0x60806040523480156200001157600080fd5b5060405162006bed38038062006bed8339818101604052810190620000379190620003c9565b604051806020016040528060008152506200005881620002c760201b60201c565b5060006200006b620002e360201b60201c565b905080600360006101000a81548173ffffffffffffffffffffffffffffffffffffffff021916908373ffffffffffffffffffffffffffffffffffffffff1602179055508073ffffffffffffffffffffffffffffffffffffffff16600073ffffffffffffffffffffffffffffffffffffffff167f8be0079c531659141344cd1fd0a4f28419497f9722a3daafe3b4186f6b6457e060405160405180910390a350600073ffffffffffffffffffffffffffffffffffffffff168273ffffffffffffffffffffffffffffffffffffffff1614156200014557600080fd5b600073ffffffffffffffffffffffffffffffffffffffff168173ffffffffffffffffffffffffffffffffffffffff161415620001b8576040517f08c379a0000000000000000000000000000000000000000000000000000000008152600401620001af9062000431565b60405180910390fd5b81600960006101000a81548173ffffffffffffffffffffffffffffffffffffffff021916908373ffffffffffffffffffffffffffffffffffffffff16021790555080600a60006101000a81548173ffffffffffffffffffffffffffffffffffffffff021916908373ffffffffffffffffffffffffffffffffffffffff160217905550600b600960009054906101000a900473ffffffffffffffffffffffffffffffffffffffff169080600181540180825580915050600190039060005260206000200160009091909190916101000a81548173ffffffffffffffffffffffffffffffffffffffff021916908373ffffffffffffffffffffffffffffffffffffffff160217905550505062000582565b8060029080519060200190620002df929190620002eb565b5050565b600033905090565b828054620002f990620004c0565b90600052602060002090601f0160209004810192826200031d576000855562000369565b82601f106200033857805160ff191683800117855562000369565b8280016001018555821562000369579182015b82811115620003685782518255916020019190600101906200034b565b5b5090506200037891906200037c565b5090565b5b80821115620003975760008160009055506001016200037d565b5090565b600081519050620003ac816200054e565b92915050565b600081519050620003c38162000568565b92915050565b60008060408385031215620003dd57600080fd5b6000620003ed858286016200039b565b92505060206200040085828601620003b2565b9150509250929050565b600062000419600d8362000453565b9150620004268262000525565b602082019050919050565b600060208201905081810360008301526200044c816200040a565b9050919050565b600082825260208201905092915050565b60006200047182620004a0565b9050919050565b60006200048582620004a0565b9050919050565b6000620004998262000464565b9050919050565b600073ffffffffffffffffffffffffffffffffffffffff82169050919050565b60006002820490506001821680620004d957607f821691505b60208210811415620004f057620004ef620004f6565b5b50919050565b7f4e487b7100000000000000000000000000000000000000000000000000000000600052602260045260246000fd5b7f496e76616c696420746f6b656e00000000000000000000000000000000000000600082015250565b620005598162000478565b81146200056557600080fd5b50565b62000573816200048c565b81146200057f57600080fd5b50565b61665b80620005926000396000f3fe6080604052600436106101f85760003560e01c806396b0eb0f1161010d578063d6e903f4116100a0578063f2fde38b1161006f578063f2fde38b146107f9578063f41f3c6714610822578063f42d88b41461084b578063fd2b351614610874578063ff8e9feb14610890576101f8565b8063d6e903f414610728578063d816bcf814610753578063e985e9c514610793578063f242432a146107d0576101f8565b8063beb3d654116100dc578063beb3d65414610648578063cc75c4fb14610685578063cf58f0a5146106c2578063d2c0e290146106ff576101f8565b806396b0eb0f14610567578063a22cb465146105a5578063aac132de146105ce578063b94de42b1461060b576101f8565b80634e1273f411610190578063715018a61161015f578063715018a61461049457806375feae25146104ab578063886cd0cf146104d65780638da5cb5b14610513578063912e6d6d1461053e576101f8565b80634e1273f4146103a05780634e7e9085146103dd57806351f21a781461041a5780635b8746d314610457576101f8565b806325061dae116101cc57806325061dae146102dd5780632eb2c2d61461031c57806335f08d0c146103455780633734530e14610375576101f8565b8062fdd58e146101fd57806301ffc9a71461023a5780630e89341c1461027757806319258533146102b4575b600080fd5b34801561020957600080fd5b50610224600480360381019061021f91906146d7565b6108b9565b6040516102319190615705565b60405180910390f35b34801561024657600080fd5b50610261600480360381019061025c9190614897565b610982565b60405161026e919061525f565b60405180910390f35b34801561028357600080fd5b5061029e600480360381019061029991906149b9565b610a64565b6040516102ab9190615295565b60405180910390f35b3480156102c057600080fd5b506102db60048036038101906102d691906149b9565b610af8565b005b3480156102e957600080fd5b5061030460048036038101906102ff91906149b9565b610c7a565b604051610313939291906152e7565b60405180910390f35b34801561032857600080fd5b50610343600480360381019061033e919061454d565b610dfb565b005b61035f600480360381019061035a9190614a31565b6111f1565b60405161036c9190615705565b60405180910390f35b34801561038157600080fd5b5061038a61168d565b60405161039791906151e4565b60405180910390f35b3480156103ac57600080fd5b506103c760048036038101906103c29190614713565b61171b565b6040516103d49190615206565b60405180910390f35b3480156103e957600080fd5b5061040460048036038101906103ff91906149b9565b6118cc565b60405161041191906150d0565b60405180910390f35b34801561042657600080fd5b50610441600480360381019061043c91906149b9565b61190b565b60405161044e919061525f565b60405180910390f35b34801561046357600080fd5b5061047e600480360381019061047991906149b9565b611a40565b60405161048b9190615705565b60405180910390f35b3480156104a057600080fd5b506104a9611aa5565b005b3480156104b757600080fd5b506104c0611be2565b6040516104cd9190615705565b60405180910390f35b3480156104e257600080fd5b506104fd60048036038101906104f891906149b9565b611bef565b60405161050a919061525f565b60405180910390f35b34801561051f57600080fd5b50610528611c60565b60405161053591906150d0565b60405180910390f35b34801561054a57600080fd5b50610565600480360381019061056091906148e9565b611c8a565b005b34801561057357600080fd5b5061058e600480360381019061058991906149b9565b611ddb565b60405161059c9291906152b7565b60405180910390f35b3480156105b157600080fd5b506105cc60048036038101906105c7919061469b565b611f72565b005b3480156105da57600080fd5b506105f560048036038101906105f091906144e8565b6120f3565b604051610602919061525f565b60405180910390f35b34801561061757600080fd5b50610632600480360381019061062d91906149b9565b6121c8565b60405161063f9190615705565b60405180910390f35b34801561065457600080fd5b5061066f600480360381019061066a91906149b9565b61222e565b60405161067c919061525f565b60405180910390f35b34801561069157600080fd5b506106ac60048036038101906106a791906144e8565b61234a565b6040516106b9919061525f565b60405180910390f35b3480156106ce57600080fd5b506106e960048036038101906106e491906149b9565b6124a4565b6040516106f69190615705565b60405180910390f35b34801561070b57600080fd5b506107266004803603810190610721919061477f565b6124ba565b005b34801561073457600080fd5b5061073d6126fa565b60405161074a919061527a565b60405180910390f35b34801561075f57600080fd5b5061077a600480360381019061077591906149b9565b612720565b60405161078a9493929190615749565b60405180910390f35b34801561079f57600080fd5b506107ba60048036038101906107b59190614511565b6128cc565b6040516107c7919061525f565b60405180910390f35b3480156107dc57600080fd5b506107f760048036038101906107f2919061460c565b612960565b005b34801561080557600080fd5b50610820600480360381019061081b91906144e8565b612c78565b005b34801561082e57600080fd5b50610849600480360381019061084491906149b9565b612e24565b005b34801561085757600080fd5b50610872600480360381019061086d9190614a31565b612f7c565b005b61088e600480360381019061088991906149e2565b6131aa565b005b34801561089c57600080fd5b506108b760048036038101906108b2919061492a565b6138e7565b005b60008073ffffffffffffffffffffffffffffffffffffffff168373ffffffffffffffffffffffffffffffffffffffff16141561092a576040517f08c379a000000000000000000000000000000000000000000000000000000000815260040161092190615365565b60405180910390fd5b60008083815260200190815260200160002060008473ffffffffffffffffffffffffffffffffffffffff1673ffffffffffffffffffffffffffffffffffffffff16815260200190815260200160002054905092915050565b60007fd9b67a26000000000000000000000000000000000000000000000000000000007bffffffffffffffffffffffffffffffffffffffffffffffffffffffff1916827bffffffffffffffffffffffffffffffffffffffffffffffffffffffff19161480610a4d57507f0e89341c000000000000000000000000000000000000000000000000000000007bffffffffffffffffffffffffffffffffffffffffffffffffffffffff1916827bffffffffffffffffffffffffffffffffffffffffffffffffffffffff1916145b80610a5d5750610a5c82613a24565b5b9050919050565b606060028054610a7390615b73565b80601f0160208091040260200160405190810160405280929190818152602001828054610a9f90615b73565b8015610aec5780601f10610ac157610100808354040283529160200191610aec565b820191906000526020600020905b815481529060010190602001808311610acf57829003601f168201915b50505050509050919050565b610b00613a8e565b73ffffffffffffffffffffffffffffffffffffffff16610b1e611c60565b73ffffffffffffffffffffffffffffffffffffffff1614610b74576040517f08c379a0000000000000000000000000000000000000000000000000000000008152600401610b6b90615505565b60405180910390fd5b6004805490508110610bbb576040517f08c379a0000000000000000000000000000000000000000000000000000000008152600401610bb290615565565b60405180910390fd5b600015156008600083815260200190815260200160002060009054906101000a900460ff16151514610c22576040517f08c379a0000000000000000000000000000000000000000000000000000000008152600401610c1990615385565b60405180910390fd5b600781908060018154018082558091505060019003906000526020600020016000909190919091505560016008600083815260200190815260200160002060006101000a81548160ff02191690831515021790555050565b606060008060048481548110610cb9577f4e487b7100000000000000000000000000000000000000000000000000000000600052603260045260246000fd5b906000526020600020906004020160000160048581548110610d04577f4e487b7100000000000000000000000000000000000000000000000000000000600052603260045260246000fd5b90600052602060002090600402016002015460048681548110610d50577f4e487b7100000000000000000000000000000000000000000000000000000000600052603260045260246000fd5b906000526020600020906004020160030154828054610d6e90615b73565b80601f0160208091040260200160405190810160405280929190818152602001828054610d9a90615b73565b8015610de75780601f10610dbc57610100808354040283529160200191610de7565b820191906000526020600020905b815481529060010190602001808311610dca57829003601f168201915b505050505092509250925092509193909250565b8151835114610e3f576040517f08c379a0000000000000000000000000000000000000000000000000000000008152600401610e36906156a5565b60405180910390fd5b600073ffffffffffffffffffffffffffffffffffffffff168473ffffffffffffffffffffffffffffffffffffffff161415610eaf576040517f08c379a0000000000000000000000000000000000000000000000000000000008152600401610ea690615445565b60405180910390fd5b610eb7613a8e565b73ffffffffffffffffffffffffffffffffffffffff168573ffffffffffffffffffffffffffffffffffffffff161480610efd5750610efc85610ef7613a8e565b6128cc565b5b610f3c576040517f08c379a0000000000000000000000000000000000000000000000000000000008152600401610f3390615465565b60405180910390fd5b6000610f46613a8e565b9050610f56818787878787613a96565b60005b845181101561115c576000858281518110610f9d577f4e487b7100000000000000000000000000000000000000000000000000000000600052603260045260246000fd5b602002602001015190506000858381518110610fe2577f4e487b7100000000000000000000000000000000000000000000000000000000600052603260045260246000fd5b60200260200101519050600080600084815260200190815260200160002060008b73ffffffffffffffffffffffffffffffffffffffff1673ffffffffffffffffffffffffffffffffffffffff16815260200190815260200160002054905081811015611083576040517f08c379a000000000000000000000000000000000000000000000000000000000815260040161107a906154e5565b60405180910390fd5b818161108f9190615a2f565b60008085815260200190815260200160002060008c73ffffffffffffffffffffffffffffffffffffffff1673ffffffffffffffffffffffffffffffffffffffff168152602001908152602001600020819055508160008085815260200190815260200160002060008b73ffffffffffffffffffffffffffffffffffffffff1673ffffffffffffffffffffffffffffffffffffffff1681526020019081526020016000206000828254611141919061594e565b925050819055505050508061115590615bd6565b9050610f59565b508473ffffffffffffffffffffffffffffffffffffffff168673ffffffffffffffffffffffffffffffffffffffff168273ffffffffffffffffffffffffffffffffffffffff167f4a39dc06d4c0dbc64b70af90fd698a233a518aa5d07e595d983b8c0526c8f7fb87876040516111d3929190615228565b60405180910390a46111e9818787878787613a9e565b505050505050565b6000600480549050851061123a576040517f08c379a0000000000000000000000000000000000000000000000000000000008152600401611231906154c5565b60405180910390fd5b60008411806112495750600083115b611288576040517f08c379a000000000000000000000000000000000000000000000000000000000815260040161127f90615585565b60405180910390fd5b6000841480156112985750600083115b156113d35734826112a8856124a4565b6112b291906159d5565b146112f2576040517f08c379a00000000000000000000000000000000000000000000000000000000081526004016112e990615425565b60405180910390fd5b600a60009054906101000a900473ffffffffffffffffffffffffffffffffffffffff1673ffffffffffffffffffffffffffffffffffffffff166323b872dd33600960009054906101000a900473ffffffffffffffffffffffffffffffffffffffff1661135d876124a4565b6040518463ffffffff1660e01b815260040161137b939291906150eb565b602060405180830381600087803b15801561139557600080fd5b505af11580156113a9573d6000803e3d6000fd5b505050506040513d601f19601f820116820180604052508101906113cd919061486e565b506114d2565b6000841180156113e35750600083145b156114d15734826113f3866124a4565b6113fd91906159d5565b1461143d576040517f08c379a000000000000000000000000000000000000000000000000000000000815260040161143490615425565b60405180910390fd5b600960009054906101000a900473ffffffffffffffffffffffffffffffffffffffff1673ffffffffffffffffffffffffffffffffffffffff1661147f856124a4565b60405161148b906150bb565b60006040518083038185875af1925050503d80600081146114c8576040519150601f19603f3d011682016040523d82523d6000602084013e6114cd565b606091505b5050505b5b6000821180156114eb5750816114e833876108b9565b10155b61152a576040517f08c379a000000000000000000000000000000000000000000000000000000000815260040161152190615625565b60405180910390fd5b600115156008600087815260200190815260200160002060009054906101000a900460ff1615151415611592576040517f08c379a0000000000000000000000000000000000000000000000000000000008152600401611589906155e5565b60405180910390fd5b60006040518060a001604052808781526020018681526020018581526020013373ffffffffffffffffffffffffffffffffffffffff168152602001848152509050600681908060018154018082558091505060019003906000526020600020906005020160009091909190915060008201518160000155602082015181600101556040820151816002015560608201518160030160006101000a81548173ffffffffffffffffffffffffffffffffffffffff021916908373ffffffffffffffffffffffffffffffffffffffff16021790555060808201518160040155505060016006805490506116829190615a2f565b915050949350505050565b6060600b80548060200260200160405190810160405280929190818152602001828054801561171157602002820191906000526020600020905b8160009054906101000a900473ffffffffffffffffffffffffffffffffffffffff1673ffffffffffffffffffffffffffffffffffffffff16815260200190600101908083116116c7575b5050505050905090565b60608151835114611761576040517f08c379a000000000000000000000000000000000000000000000000000000000815260040161175890615685565b60405180910390fd5b6000835167ffffffffffffffff8111156117a4577f4e487b7100000000000000000000000000000000000000000000000000000000600052604160045260246000fd5b6040519080825280602002602001820160405280156117d25781602001602082028036833780820191505090505b50905060005b84518110156118c15761186b85828151811061181d577f4e487b7100000000000000000000000000000000000000000000000000000000600052603260045260246000fd5b602002602001015185838151811061185e577f4e487b7100000000000000000000000000000000000000000000000000000000600052603260045260246000fd5b60200260200101516108b9565b8282815181106118a4577f4e487b7100000000000000000000000000000000000000000000000000000000600052603260045260246000fd5b602002602001018181525050806118ba90615bd6565b90506117d8565b508091505092915050565b600b81815481106118dc57600080fd5b906000526020600020016000915054906101000a900473ffffffffffffffffffffffffffffffffffffffff1681565b6000611915613a8e565b73ffffffffffffffffffffffffffffffffffffffff16611933611c60565b73ffffffffffffffffffffffffffffffffffffffff1614611989576040517f08c379a000000000000000000000000000000000000000000000000000000000815260040161198090615505565b60405180910390fd5b600b8054905082106119d0576040517f08c379a00000000000000000000000000000000000000000000000000000000081526004016119c790615545565b60405180910390fd5b600b8281548110611a0a577f4e487b7100000000000000000000000000000000000000000000000000000000600052603260045260246000fd5b9060005260206000200160006101000a81549073ffffffffffffffffffffffffffffffffffffffff021916905560019050919050565b6000808211611a84576040517f08c379a0000000000000000000000000000000000000000000000000000000008152600401611a7b906155a5565b60405180910390fd5b6103e8601983611a9491906159d5565b611a9e91906159a4565b9050919050565b611aad613a8e565b73ffffffffffffffffffffffffffffffffffffffff16611acb611c60565b73ffffffffffffffffffffffffffffffffffffffff1614611b21576040517f08c379a0000000000000000000000000000000000000000000000000000000008152600401611b1890615505565b60405180910390fd5b600073ffffffffffffffffffffffffffffffffffffffff16600360009054906101000a900473ffffffffffffffffffffffffffffffffffffffff1673ffffffffffffffffffffffffffffffffffffffff167f8be0079c531659141344cd1fd0a4f28419497f9722a3daafe3b4186f6b6457e060405160405180910390a36000600360006101000a81548173ffffffffffffffffffffffffffffffffffffffff021916908373ffffffffffffffffffffffffffffffffffffffff160217905550565b6000600480549050905090565b60006004805490508210611c38576040517f08c379a0000000000000000000000000000000000000000000000000000000008152600401611c2f90615565565b60405180910390fd5b6008600083815260200190815260200160002060009054906101000a900460ff169050919050565b6000600360009054906101000a900473ffffffffffffffffffffffffffffffffffffffff16905090565b6000815111611cce576040517f08c379a0000000000000000000000000000000000000000000000000000000008152600401611cc590615525565b60405180910390fd5b611cd7336120f3565b611d16576040517f08c379a0000000000000000000000000000000000000000000000000000000008152600401611d0d906153e5565b60405180910390fd5b600060405180604001604052808381526020013373ffffffffffffffffffffffffffffffffffffffff16815250905060058190806001815401808255809150506001900390600052602060002090600202016000909190919091506000820151816000019080519060200190611d8d9291906140db565b5060208201518160010160006101000a81548173ffffffffffffffffffffffffffffffffffffffff021916908373ffffffffffffffffffffffffffffffffffffffff16021790555050505050565b606060006005805490508310611e26576040517f08c379a0000000000000000000000000000000000000000000000000000000008152600401611e1d906155c5565b60405180910390fd5b60058381548110611e60577f4e487b7100000000000000000000000000000000000000000000000000000000600052603260045260246000fd5b906000526020600020906002020160000160058481548110611eab577f4e487b7100000000000000000000000000000000000000000000000000000000600052603260045260246000fd5b906000526020600020906002020160010160009054906101000a900473ffffffffffffffffffffffffffffffffffffffff16818054611ee990615b73565b80601f0160208091040260200160405190810160405280929190818152602001828054611f1590615b73565b8015611f625780601f10611f3757610100808354040283529160200191611f62565b820191906000526020600020905b815481529060010190602001808311611f4557829003601f168201915b5050505050915091509150915091565b8173ffffffffffffffffffffffffffffffffffffffff16611f91613a8e565b73ffffffffffffffffffffffffffffffffffffffff161415611fe8576040517f08c379a0000000000000000000000000000000000000000000000000000000008152600401611fdf90615665565b60405180910390fd5b8060016000611ff5613a8e565b73ffffffffffffffffffffffffffffffffffffffff1673ffffffffffffffffffffffffffffffffffffffff16815260200190815260200160002060008473ffffffffffffffffffffffffffffffffffffffff1673ffffffffffffffffffffffffffffffffffffffff16815260200190815260200160002060006101000a81548160ff0219169083151502179055508173ffffffffffffffffffffffffffffffffffffffff166120a2613a8e565b73ffffffffffffffffffffffffffffffffffffffff167f17307eab39ab6107e8899845ad3d59bd9653f200f220920489ca2b5937696c31836040516120e7919061525f565b60405180910390a35050565b600080600090505b600b805490508110156121bd578273ffffffffffffffffffffffffffffffffffffffff16600b8281548110612159577f4e487b7100000000000000000000000000000000000000000000000000000000600052603260045260246000fd5b9060005260206000200160009054906101000a900473ffffffffffffffffffffffffffffffffffffffff1673ffffffffffffffffffffffffffffffffffffffff1614156121aa5760019150506121c3565b80806121b590615bd6565b9150506120fb565b50600090505b919050565b600080821161220c576040517f08c379a0000000000000000000000000000000000000000000000000000000008152600401612203906155a5565b60405180910390fd5b6103e86103cf8361221d91906159d5565b61222791906159a4565b9050919050565b60006005805490508210612277576040517f08c379a000000000000000000000000000000000000000000000000000000000815260040161226e906155c5565b60405180910390fd5b612280336120f3565b6122bf576040517f08c379a00000000000000000000000000000000000000000000000000000000081526004016122b6906153e5565b60405180910390fd5b600582815481106122f9577f4e487b7100000000000000000000000000000000000000000000000000000000600052603260045260246000fd5b9060005260206000209060020201600080820160006123189190614161565b6001820160006101000a81549073ffffffffffffffffffffffffffffffffffffffff0219169055505060019050919050565b6000612354613a8e565b73ffffffffffffffffffffffffffffffffffffffff16612372611c60565b73ffffffffffffffffffffffffffffffffffffffff16146123c8576040517f08c379a00000000000000000000000000000000000000000000000000000000081526004016123bf90615505565b60405180910390fd5b600073ffffffffffffffffffffffffffffffffffffffff168273ffffffffffffffffffffffffffffffffffffffff161415612438576040517f08c379a000000000000000000000000000000000000000000000000000000000815260040161242f906154a5565b60405180910390fd5b600b829080600181540180825580915050600190039060005260206000200160009091909190916101000a81548173ffffffffffffffffffffffffffffffffffffffff021916908373ffffffffffffffffffffffffffffffffffffffff16021790555060019050919050565b60006064826124b391906159a4565b9050919050565b82518551146124fe576040517f08c379a00000000000000000000000000000000000000000000000000000000081526004016124f590615405565b60405180910390fd5b8151855114612542576040517f08c379a000000000000000000000000000000000000000000000000000000000815260040161253990615405565b60405180910390fd5b8051855114612586576040517f08c379a000000000000000000000000000000000000000000000000000000000815260040161257d90615405565b60405180910390fd5b60005b85518110156126f2576126df8682815181106125ce577f4e487b7100000000000000000000000000000000000000000000000000000000600052603260045260246000fd5b602002602001015186838151811061260f577f4e487b7100000000000000000000000000000000000000000000000000000000600052603260045260246000fd5b6020026020010151868481518110612650577f4e487b7100000000000000000000000000000000000000000000000000000000600052603260045260246000fd5b6020026020010151868581518110612691577f4e487b7100000000000000000000000000000000000000000000000000000000600052603260045260246000fd5b60200260200101518686815181106126d2577f4e487b7100000000000000000000000000000000000000000000000000000000600052603260045260246000fd5b60200260200101516138e7565b80806126ea90615bd6565b915050612589565b505050505050565b600a60009054906101000a900473ffffffffffffffffffffffffffffffffffffffff1681565b600080600080600680549050851061276d576040517f08c379a000000000000000000000000000000000000000000000000000000000815260040161276490615645565b60405180910390fd5b600685815481106127a7577f4e487b7100000000000000000000000000000000000000000000000000000000600052603260045260246000fd5b906000526020600020906005020160010154600686815481106127f3577f4e487b7100000000000000000000000000000000000000000000000000000000600052603260045260246000fd5b9060005260206000209060050201600201546006878154811061283f577f4e487b7100000000000000000000000000000000000000000000000000000000600052603260045260246000fd5b906000526020600020906005020160030160009054906101000a900473ffffffffffffffffffffffffffffffffffffffff16600688815481106128ab577f4e487b7100000000000000000000000000000000000000000000000000000000600052603260045260246000fd5b90600052602060002090600502016004015493509350935093509193509193565b6000600160008473ffffffffffffffffffffffffffffffffffffffff1673ffffffffffffffffffffffffffffffffffffffff16815260200190815260200160002060008373ffffffffffffffffffffffffffffffffffffffff1673ffffffffffffffffffffffffffffffffffffffff16815260200190815260200160002060009054906101000a900460ff16905092915050565b600073ffffffffffffffffffffffffffffffffffffffff168473ffffffffffffffffffffffffffffffffffffffff1614156129d0576040517f08c379a00000000000000000000000000000000000000000000000000000000081526004016129c790615445565b60405180910390fd5b6129d8613a8e565b73ffffffffffffffffffffffffffffffffffffffff168573ffffffffffffffffffffffffffffffffffffffff161480612a1e5750612a1d85612a18613a8e565b6128cc565b5b612a5d576040517f08c379a0000000000000000000000000000000000000000000000000000000008152600401612a54906153c5565b60405180910390fd5b6000612a67613a8e565b9050612a87818787612a7888613c85565b612a8188613c85565b87613a96565b600080600086815260200190815260200160002060008873ffffffffffffffffffffffffffffffffffffffff1673ffffffffffffffffffffffffffffffffffffffff16815260200190815260200160002054905083811015612b1e576040517f08c379a0000000000000000000000000000000000000000000000000000000008152600401612b15906154e5565b60405180910390fd5b8381612b2a9190615a2f565b60008087815260200190815260200160002060008973ffffffffffffffffffffffffffffffffffffffff1673ffffffffffffffffffffffffffffffffffffffff168152602001908152602001600020819055508360008087815260200190815260200160002060008873ffffffffffffffffffffffffffffffffffffffff1673ffffffffffffffffffffffffffffffffffffffff1681526020019081526020016000206000828254612bdc919061594e565b925050819055508573ffffffffffffffffffffffffffffffffffffffff168773ffffffffffffffffffffffffffffffffffffffff168373ffffffffffffffffffffffffffffffffffffffff167fc3d58168c5ae7397731d063d5bbf3d657854427343f4c083240f7aacaa2d0f628888604051612c59929190615720565b60405180910390a4612c6f828888888888613d4b565b50505050505050565b612c80613a8e565b73ffffffffffffffffffffffffffffffffffffffff16612c9e611c60565b73ffffffffffffffffffffffffffffffffffffffff1614612cf4576040517f08c379a0000000000000000000000000000000000000000000000000000000008152600401612ceb90615505565b60405180910390fd5b600073ffffffffffffffffffffffffffffffffffffffff168173ffffffffffffffffffffffffffffffffffffffff161415612d64576040517f08c379a0000000000000000000000000000000000000000000000000000000008152600401612d5b906153a5565b60405180910390fd5b8073ffffffffffffffffffffffffffffffffffffffff16600360009054906101000a900473ffffffffffffffffffffffffffffffffffffffff1673ffffffffffffffffffffffffffffffffffffffff167f8be0079c531659141344cd1fd0a4f28419497f9722a3daafe3b4186f6b6457e060405160405180910390a380600360006101000a81548173ffffffffffffffffffffffffffffffffffffffff021916908373ffffffffffffffffffffffffffffffffffffffff16021790555050565b612e2c613a8e565b73ffffffffffffffffffffffffffffffffffffffff16612e4a611c60565b73ffffffffffffffffffffffffffffffffffffffff1614612ea0576040517f08c379a0000000000000000000000000000000000000000000000000000000008152600401612e9790615505565b60405180910390fd5b6006805490508110612ee7576040517f08c379a0000000000000000000000000000000000000000000000000000000008152600401612ede90615645565b60405180910390fd5b60068181548110612f21577f4e487b7100000000000000000000000000000000000000000000000000000000600052603260045260246000fd5b9060005260206000209060050201600080820160009055600182016000905560028201600090556003820160006101000a81549073ffffffffffffffffffffffffffffffffffffffff02191690556004820160009055505050565b6006805490508410612fc3576040517f08c379a0000000000000000000000000000000000000000000000000000000008152600401612fba90615645565b60405180910390fd5b6000831180612fd25750600082115b613011576040517f08c379a000000000000000000000000000000000000000000000000000000000815260040161300890615585565b60405180910390fd5b600081118015613075575080613072336006878154811061305b577f4e487b7100000000000000000000000000000000000000000000000000000000600052603260045260246000fd5b9060005260206000209060050201600001546108b9565b10155b6130b4576040517f08c379a00000000000000000000000000000000000000000000000000000000081526004016130ab90615625565b60405180910390fd5b82600685815481106130ef577f4e487b7100000000000000000000000000000000000000000000000000000000600052603260045260246000fd5b906000526020600020906005020160010181905550816006858154811061313f577f4e487b7100000000000000000000000000000000000000000000000000000000600052603260045260246000fd5b906000526020600020906005020160020181905550806006858154811061318f577f4e487b7100000000000000000000000000000000000000000000000000000000600052603260045260246000fd5b90600052602060002090600502016004018190555050505050565b60068054905083106131f1576040517f08c379a00000000000000000000000000000000000000000000000000000000081526004016131e8906156c5565b60405180910390fd5b6006838154811061322b577f4e487b7100000000000000000000000000000000000000000000000000000000600052603260045260246000fd5b90600052602060002090600502016004015482111561327f576040517f08c379a000000000000000000000000000000000000000000000000000000000815260040161327690615605565b60405180910390fd5b61335133600685815481106132bd577f4e487b7100000000000000000000000000000000000000000000000000000000600052603260045260246000fd5b906000526020600020906005020160030160009054906101000a900473ffffffffffffffffffffffffffffffffffffffff1660068681548110613329577f4e487b7100000000000000000000000000000000000000000000000000000000600052603260045260246000fd5b9060005260206000209060050201600001548560405180602001604052806000815250612960565b6006838154811061338b577f4e487b7100000000000000000000000000000000000000000000000000000000600052603260045260246000fd5b9060005260206000209060050201600401548214156133b2576133ad83612e24565b613459565b81600684815481106133ed577f4e487b7100000000000000000000000000000000000000000000000000000000600052603260045260246000fd5b9060005260206000209060050201600401546134099190615a2f565b60068481548110613443577f4e487b7100000000000000000000000000000000000000000000000000000000600052603260045260246000fd5b9060005260206000209060050201600401819055505b600081141561364a576006838154811061349c577f4e487b7100000000000000000000000000000000000000000000000000000000600052603260045260246000fd5b906000526020600020906005020160030160009054906101000a900473ffffffffffffffffffffffffffffffffffffffff1673ffffffffffffffffffffffffffffffffffffffff166108fc61353b60068681548110613524577f4e487b7100000000000000000000000000000000000000000000000000000000600052603260045260246000fd5b9060005260206000209060050201600101546121c8565b9081150290604051600060405180830381858888f19350505050158015613566573d6000803e3d6000fd5b50600960009054906101000a900473ffffffffffffffffffffffffffffffffffffffff1673ffffffffffffffffffffffffffffffffffffffff166135f4600685815481106135dd577f4e487b7100000000000000000000000000000000000000000000000000000000600052603260045260246000fd5b906000526020600020906005020160010154611a40565b604051613600906150bb565b60006040518083038185875af1925050503d806000811461363d576040519150601f19603f3d011682016040523d82523d6000602084013e613642565b606091505b5050506138e2565b600a60009054906101000a900473ffffffffffffffffffffffffffffffffffffffff1673ffffffffffffffffffffffffffffffffffffffff166323b872dd33600960009054906101000a900473ffffffffffffffffffffffffffffffffffffffff16613700600688815481106136e9577f4e487b7100000000000000000000000000000000000000000000000000000000600052603260045260246000fd5b906000526020600020906005020160020154611a40565b6040518463ffffffff1660e01b815260040161371e939291906150eb565b602060405180830381600087803b15801561373857600080fd5b505af115801561374c573d6000803e3d6000fd5b505050506040513d601f19601f82011682018060405250810190613770919061486e565b50600a60009054906101000a900473ffffffffffffffffffffffffffffffffffffffff1673ffffffffffffffffffffffffffffffffffffffff166323b872dd33600686815481106137ea577f4e487b7100000000000000000000000000000000000000000000000000000000600052603260045260246000fd5b906000526020600020906005020160030160009054906101000a900473ffffffffffffffffffffffffffffffffffffffff1661387060068881548110613859577f4e487b7100000000000000000000000000000000000000000000000000000000600052603260045260246000fd5b9060005260206000209060050201600201546121c8565b6040518463ffffffff1660e01b815260040161388e939291906150eb565b602060405180830381600087803b1580156138a857600080fd5b505af11580156138bc573d6000803e3d6000fd5b505050506040513d601f19601f820116820180604052508101906138e0919061486e565b505b505050565b600085511161392b576040517f08c379a000000000000000000000000000000000000000000000000000000000815260040161392290615525565b60405180910390fd5b6000831161396e576040517f08c379a000000000000000000000000000000000000000000000000000000000815260040161396590615485565b60405180910390fd5b61398e336004805490508560405180602001604052806000815250613f32565b60006040518060800160405280878152602001868152602001848152602001838152509050600481908060018154018082558091505060019003906000526020600020906004020160009091909190915060008201518160000190805190602001906139fb9291906140db565b506020820151816001015560408201518160020155606082015181600301555050505050505050565b60007f01ffc9a7000000000000000000000000000000000000000000000000000000007bffffffffffffffffffffffffffffffffffffffffffffffffffffffff1916827bffffffffffffffffffffffffffffffffffffffffffffffffffffffff1916149050919050565b600033905090565b505050505050565b613abd8473ffffffffffffffffffffffffffffffffffffffff166140c8565b15613c7d578373ffffffffffffffffffffffffffffffffffffffff1663bc197c8187878686866040518663ffffffff1660e01b8152600401613b03959493929190615122565b602060405180830381600087803b158015613b1d57600080fd5b505af1925050508015613b4e57506040513d601f19601f82011682018060405250810190613b4b91906148c0565b60015b613bf457613b5a615cdb565b806308c379a01415613bb75750613b6f616533565b80613b7a5750613bb9565b806040517f08c379a0000000000000000000000000000000000000000000000000000000008152600401613bae9190615295565b60405180910390fd5b505b6040517f08c379a0000000000000000000000000000000000000000000000000000000008152600401613beb90615325565b60405180910390fd5b63bc197c8160e01b7bffffffffffffffffffffffffffffffffffffffffffffffffffffffff1916817bffffffffffffffffffffffffffffffffffffffffffffffffffffffff191614613c7b576040517f08c379a0000000000000000000000000000000000000000000000000000000008152600401613c7290615345565b60405180910390fd5b505b505050505050565b60606000600167ffffffffffffffff811115613cca577f4e487b7100000000000000000000000000000000000000000000000000000000600052604160045260246000fd5b604051908082528060200260200182016040528015613cf85781602001602082028036833780820191505090505b5090508281600081518110613d36577f4e487b7100000000000000000000000000000000000000000000000000000000600052603260045260246000fd5b60200260200101818152505080915050919050565b613d6a8473ffffffffffffffffffffffffffffffffffffffff166140c8565b15613f2a578373ffffffffffffffffffffffffffffffffffffffff1663f23a6e6187878686866040518663ffffffff1660e01b8152600401613db095949392919061518a565b602060405180830381600087803b158015613dca57600080fd5b505af1925050508015613dfb57506040513d601f19601f82011682018060405250810190613df891906148c0565b60015b613ea157613e07615cdb565b806308c379a01415613e645750613e1c616533565b80613e275750613e66565b806040517f08c379a0000000000000000000000000000000000000000000000000000000008152600401613e5b9190615295565b60405180910390fd5b505b6040517f08c379a0000000000000000000000000000000000000000000000000000000008152600401613e9890615325565b60405180910390fd5b63f23a6e6160e01b7bffffffffffffffffffffffffffffffffffffffffffffffffffffffff1916817bffffffffffffffffffffffffffffffffffffffffffffffffffffffff191614613f28576040517f08c379a0000000000000000000000000000000000000000000000000000000008152600401613f1f90615345565b60405180910390fd5b505b505050505050565b600073ffffffffffffffffffffffffffffffffffffffff168473ffffffffffffffffffffffffffffffffffffffff161415613fa2576040517f08c379a0000000000000000000000000000000000000000000000000000000008152600401613f99906156e5565b60405180910390fd5b6000613fac613a8e565b9050613fcd81600087613fbe88613c85565b613fc788613c85565b87613a96565b8260008086815260200190815260200160002060008773ffffffffffffffffffffffffffffffffffffffff1673ffffffffffffffffffffffffffffffffffffffff168152602001908152602001600020600082825461402c919061594e565b925050819055508473ffffffffffffffffffffffffffffffffffffffff16600073ffffffffffffffffffffffffffffffffffffffff168273ffffffffffffffffffffffffffffffffffffffff167fc3d58168c5ae7397731d063d5bbf3d657854427343f4c083240f7aacaa2d0f6287876040516140aa929190615720565b60405180910390a46140c181600087878787613d4b565b5050505050565b600080823b905060008111915050919050565b8280546140e790615b73565b90600052602060002090601f0160209004810192826141095760008555614150565b82601f1061412257805160ff1916838001178555614150565b82800160010185558215614150579182015b8281111561414f578251825591602001919060010190614134565b5b50905061415d91906141a1565b5090565b50805461416d90615b73565b6000825580601f1061417f575061419e565b601f01602090049060005260206000209081019061419d91906141a1565b5b50565b5b808211156141ba5760008160009055506001016141a2565b5090565b60006141d16141cc846157b3565b61578e565b905080838252602082019050828560208602820111156141f057600080fd5b60005b8581101561422057816142068882614398565b8452602084019350602083019250506001810190506141f3565b5050509392505050565b600061423d614238846157df565b61578e565b9050808382526020820190508285602086028201111561425c57600080fd5b60005b858110156142a657813567ffffffffffffffff81111561427e57600080fd5b80860161428b89826144a9565b8552602085019450602084019350505060018101905061425f565b5050509392505050565b60006142c36142be8461580b565b61578e565b905080838252602082019050828560208602820111156142e257600080fd5b60005b8581101561431257816142f888826144d3565b8452602084019350602083019250506001810190506142e5565b5050509392505050565b600061432f61432a84615837565b61578e565b90508281526020810184848401111561434757600080fd5b614352848285615b31565b509392505050565b600061436d61436884615868565b61578e565b90508281526020810184848401111561438557600080fd5b614390848285615b31565b509392505050565b6000813590506143a7816165c9565b92915050565b600082601f8301126143be57600080fd5b81356143ce8482602086016141be565b91505092915050565b600082601f8301126143e857600080fd5b81356143f884826020860161422a565b91505092915050565b600082601f83011261441257600080fd5b81356144228482602086016142b0565b91505092915050565b60008135905061443a816165e0565b92915050565b60008151905061444f816165e0565b92915050565b600081359050614464816165f7565b92915050565b600081519050614479816165f7565b92915050565b600082601f83011261449057600080fd5b81356144a084826020860161431c565b91505092915050565b600082601f8301126144ba57600080fd5b81356144ca84826020860161435a565b91505092915050565b6000813590506144e28161660e565b92915050565b6000602082840312156144fa57600080fd5b600061450884828501614398565b91505092915050565b6000806040838503121561452457600080fd5b600061453285828601614398565b925050602061454385828601614398565b9150509250929050565b600080600080600060a0868803121561456557600080fd5b600061457388828901614398565b955050602061458488828901614398565b945050604086013567ffffffffffffffff8111156145a157600080fd5b6145ad88828901614401565b935050606086013567ffffffffffffffff8111156145ca57600080fd5b6145d688828901614401565b925050608086013567ffffffffffffffff8111156145f357600080fd5b6145ff8882890161447f565b9150509295509295909350565b600080600080600060a0868803121561462457600080fd5b600061463288828901614398565b955050602061464388828901614398565b9450506040614654888289016144d3565b9350506060614665888289016144d3565b925050608086013567ffffffffffffffff81111561468257600080fd5b61468e8882890161447f565b9150509295509295909350565b600080604083850312156146ae57600080fd5b60006146bc85828601614398565b92505060206146cd8582860161442b565b9150509250929050565b600080604083850312156146ea57600080fd5b60006146f885828601614398565b9250506020614709858286016144d3565b9150509250929050565b6000806040838503121561472657600080fd5b600083013567ffffffffffffffff81111561474057600080fd5b61474c858286016143ad565b925050602083013567ffffffffffffffff81111561476957600080fd5b61477585828601614401565b9150509250929050565b600080600080600060a0868803121561479757600080fd5b600086013567ffffffffffffffff8111156147b157600080fd5b6147bd888289016143d7565b955050602086013567ffffffffffffffff8111156147da57600080fd5b6147e688828901614401565b945050604086013567ffffffffffffffff81111561480357600080fd5b61480f88828901614401565b935050606086013567ffffffffffffffff81111561482c57600080fd5b61483888828901614401565b925050608086013567ffffffffffffffff81111561485557600080fd5b61486188828901614401565b9150509295509295909350565b60006020828403121561488057600080fd5b600061488e84828501614440565b91505092915050565b6000602082840312156148a957600080fd5b60006148b784828501614455565b91505092915050565b6000602082840312156148d257600080fd5b60006148e08482850161446a565b91505092915050565b6000602082840312156148fb57600080fd5b600082013567ffffffffffffffff81111561491557600080fd5b614921848285016144a9565b91505092915050565b600080600080600060a0868803121561494257600080fd5b600086013567ffffffffffffffff81111561495c57600080fd5b614968888289016144a9565b9550506020614979888289016144d3565b945050604061498a888289016144d3565b935050606061499b888289016144d3565b92505060806149ac888289016144d3565b9150509295509295909350565b6000602082840312156149cb57600080fd5b60006149d9848285016144d3565b91505092915050565b6000806000606084860312156149f757600080fd5b6000614a05868287016144d3565b9350506020614a16868287016144d3565b9250506040614a27868287016144d3565b9150509250925092565b60008060008060808587031215614a4757600080fd5b6000614a55878288016144d3565b9450506020614a66878288016144d3565b9350506040614a77878288016144d3565b9250506060614a88878288016144d3565b91505092959194509250565b6000614aa08383614ad3565b60208301905092915050565b6000614ab8838361509d565b60208301905092915050565b614acd81615ad7565b82525050565b614adc81615a63565b82525050565b614aeb81615a63565b82525050565b6000614afc826158b9565b614b0681856158ff565b9350614b1183615899565b8060005b83811015614b42578151614b298882614a94565b9750614b34836158e5565b925050600181019050614b15565b5085935050505092915050565b6000614b5a826158c4565b614b648185615910565b9350614b6f836158a9565b8060005b83811015614ba0578151614b878882614aac565b9750614b92836158f2565b925050600181019050614b73565b5085935050505092915050565b614bb681615a75565b82525050565b6000614bc7826158cf565b614bd18185615921565b9350614be1818560208601615b40565b614bea81615cfd565b840191505092915050565b614bfe81615ae9565b82525050565b6000614c0f826158da565b614c19818561593d565b9350614c29818560208601615b40565b614c3281615cfd565b840191505092915050565b6000614c4a60348361593d565b9150614c5582615d1b565b604082019050919050565b6000614c6d60288361593d565b9150614c7882615d6a565b604082019050919050565b6000614c90602b8361593d565b9150614c9b82615db9565b604082019050919050565b6000614cb360298361593d565b9150614cbe82615e08565b604082019050919050565b6000614cd660268361593d565b9150614ce182615e57565b604082019050919050565b6000614cf960298361593d565b9150614d0482615ea6565b604082019050919050565b6000614d1c601e8361593d565b9150614d2782615ef5565b602082019050919050565b6000614d3f60108361593d565b9150614d4a82615f1e565b602082019050919050565b6000614d6260068361593d565b9150614d6d82615f47565b602082019050919050565b6000614d8560258361593d565b9150614d9082615f70565b604082019050919050565b6000614da860328361593d565b9150614db382615fbf565b604082019050919050565b6000614dcb60288361593d565b9150614dd68261600e565b604082019050919050565b6000614dee60188361593d565b9150614df98261605d565b602082019050919050565b6000614e1160268361593d565b9150614e1c82616086565b604082019050919050565b6000614e34602a8361593d565b9150614e3f826160d5565b604082019050919050565b6000614e5760208361593d565b9150614e6282616124565b602082019050919050565b6000614e7a601d8361593d565b9150614e858261614d565b602082019050919050565b6000614e9d60268361593d565b9150614ea882616176565b604082019050919050565b6000614ec060228361593d565b9150614ecb826161c5565b604082019050919050565b6000614ee3601d8361593d565b9150614eee82616214565b602082019050919050565b6000614f06601a8361593d565b9150614f118261623d565b602082019050919050565b6000614f29600083615932565b9150614f3482616266565b600082019050919050565b6000614f4c602c8361593d565b9150614f5782616269565b604082019050919050565b6000614f6f60248361593d565b9150614f7a826162b8565b604082019050919050565b6000614f9260208361593d565b9150614f9d82616307565b602082019050919050565b6000614fb5601b8361593d565b9150614fc082616330565b602082019050919050565b6000614fd860278361593d565b9150614fe382616359565b604082019050919050565b6000614ffb60298361593d565b9150615006826163a8565b604082019050919050565b600061501e60298361593d565b9150615029826163f7565b604082019050919050565b600061504160288361593d565b915061504c82616446565b604082019050919050565b6000615064602d8361593d565b915061506f82616495565b604082019050919050565b600061508760218361593d565b9150615092826164e4565b604082019050919050565b6150a681615acd565b82525050565b6150b581615acd565b82525050565b60006150c682614f1c565b9150819050919050565b60006020820190506150e56000830184614ae2565b92915050565b60006060820190506151006000830186614ae2565b61510d6020830185614ac4565b61511a60408301846150ac565b949350505050565b600060a0820190506151376000830188614ae2565b6151446020830187614ae2565b81810360408301526151568186614b4f565b9050818103606083015261516a8185614b4f565b9050818103608083015261517e8184614bbc565b90509695505050505050565b600060a08201905061519f6000830188614ae2565b6151ac6020830187614ae2565b6151b960408301866150ac565b6151c660608301856150ac565b81810360808301526151d88184614bbc565b90509695505050505050565b600060208201905081810360008301526151fe8184614af1565b905092915050565b600060208201905081810360008301526152208184614b4f565b905092915050565b600060408201905081810360008301526152428185614b4f565b905081810360208301526152568184614b4f565b90509392505050565b60006020820190506152746000830184614bad565b92915050565b600060208201905061528f6000830184614bf5565b92915050565b600060208201905081810360008301526152af8184614c04565b905092915050565b600060408201905081810360008301526152d18185614c04565b90506152e06020830184614ae2565b9392505050565b600060608201905081810360008301526153018186614c04565b905061531060208301856150ac565b61531d60408301846150ac565b949350505050565b6000602082019050818103600083015261533e81614c3d565b9050919050565b6000602082019050818103600083015261535e81614c60565b9050919050565b6000602082019050818103600083015261537e81614c83565b9050919050565b6000602082019050818103600083015261539e81614ca6565b9050919050565b600060208201905081810360008301526153be81614cc9565b9050919050565b600060208201905081810360008301526153de81614cec565b9050919050565b600060208201905081810360008301526153fe81614d0f565b9050919050565b6000602082019050818103600083015261541e81614d32565b9050919050565b6000602082019050818103600083015261543e81614d55565b9050919050565b6000602082019050818103600083015261545e81614d78565b9050919050565b6000602082019050818103600083015261547e81614d9b565b9050919050565b6000602082019050818103600083015261549e81614dbe565b9050919050565b600060208201905081810360008301526154be81614de1565b9050919050565b600060208201905081810360008301526154de81614e04565b9050919050565b600060208201905081810360008301526154fe81614e27565b9050919050565b6000602082019050818103600083015261551e81614e4a565b9050919050565b6000602082019050818103600083015261553e81614e6d565b9050919050565b6000602082019050818103600083015261555e81614e90565b9050919050565b6000602082019050818103600083015261557e81614eb3565b9050919050565b6000602082019050818103600083015261559e81614ed6565b9050919050565b600060208201905081810360008301526155be81614ef9565b9050919050565b600060208201905081810360008301526155de81614f3f565b9050919050565b600060208201905081810360008301526155fe81614f62565b9050919050565b6000602082019050818103600083015261561e81614f85565b9050919050565b6000602082019050818103600083015261563e81614fa8565b9050919050565b6000602082019050818103600083015261565e81614fcb565b9050919050565b6000602082019050818103600083015261567e81614fee565b9050919050565b6000602082019050818103600083015261569e81615011565b9050919050565b600060208201905081810360008301526156be81615034565b9050919050565b600060208201905081810360008301526156de81615057565b9050919050565b600060208201905081810360008301526156fe8161507a565b9050919050565b600060208201905061571a60008301846150ac565b92915050565b600060408201905061573560008301856150ac565b61574260208301846150ac565b9392505050565b600060808201905061575e60008301876150ac565b61576b60208301866150ac565b6157786040830185614ae2565b61578560608301846150ac565b95945050505050565b60006157986157a9565b90506157a48282615ba5565b919050565b6000604051905090565b600067ffffffffffffffff8211156157ce576157cd615cac565b5b602082029050602081019050919050565b600067ffffffffffffffff8211156157fa576157f9615cac565b5b602082029050602081019050919050565b600067ffffffffffffffff82111561582657615825615cac565b5b602082029050602081019050919050565b600067ffffffffffffffff82111561585257615851615cac565b5b61585b82615cfd565b9050602081019050919050565b600067ffffffffffffffff82111561588357615882615cac565b5b61588c82615cfd565b9050602081019050919050565b6000819050602082019050919050565b6000819050602082019050919050565b600081519050919050565b600081519050919050565b600081519050919050565b600081519050919050565b6000602082019050919050565b6000602082019050919050565b600082825260208201905092915050565b600082825260208201905092915050565b600082825260208201905092915050565b600081905092915050565b600082825260208201905092915050565b600061595982615acd565b915061596483615acd565b9250827fffffffffffffffffffffffffffffffffffffffffffffffffffffffffffffffff0382111561599957615998615c1f565b5b828201905092915050565b60006159af82615acd565b91506159ba83615acd565b9250826159ca576159c9615c4e565b5b828204905092915050565b60006159e082615acd565b91506159eb83615acd565b9250817fffffffffffffffffffffffffffffffffffffffffffffffffffffffffffffffff0483118215151615615a2457615a23615c1f565b5b828202905092915050565b6000615a3a82615acd565b9150615a4583615acd565b925082821015615a5857615a57615c1f565b5b828203905092915050565b6000615a6e82615aad565b9050919050565b60008115159050919050565b60007fffffffff0000000000000000000000000000000000000000000000000000000082169050919050565b600073ffffffffffffffffffffffffffffffffffffffff82169050919050565b6000819050919050565b6000615ae282615b0d565b9050919050565b6000615af482615afb565b9050919050565b6000615b0682615aad565b9050919050565b6000615b1882615b1f565b9050919050565b6000615b2a82615aad565b9050919050565b82818337600083830152505050565b60005b83811015615b5e578082015181840152602081019050615b43565b83811115615b6d576000848401525b50505050565b60006002820490506001821680615b8b57607f821691505b60208210811415615b9f57615b9e615c7d565b5b50919050565b615bae82615cfd565b810181811067ffffffffffffffff82111715615bcd57615bcc615cac565b5b80604052505050565b6000615be182615acd565b91507fffffffffffffffffffffffffffffffffffffffffffffffffffffffffffffffff821415615c1457615c13615c1f565b5b600182019050919050565b7f4e487b7100000000000000000000000000000000000000000000000000000000600052601160045260246000fd5b7f4e487b7100000000000000000000000000000000000000000000000000000000600052601260045260246000fd5b7f4e487b7100000000000000000000000000000000000000000000000000000000600052602260045260246000fd5b7f4e487b7100000000000000000000000000000000000000000000000000000000600052604160045260246000fd5b600060033d1115615cfa5760046000803e615cf7600051615d0e565b90505b90565b6000601f19601f8301169050919050565b60008160e01c9050919050565b7f455243313135353a207472616e7366657220746f206e6f6e204552433131353560008201527f526563656976657220696d706c656d656e746572000000000000000000000000602082015250565b7f455243313135353a204552433131353552656365697665722072656a6563746560008201527f6420746f6b656e73000000000000000000000000000000000000000000000000602082015250565b7f455243313135353a2062616c616e636520717565727920666f7220746865207a60008201527f65726f2061646472657373000000000000000000000000000000000000000000602082015250565b7f69645f20686173206e6f7420616c72656164792073657420696e20746865206260008201527f6c61636b206c6973740000000000000000000000000000000000000000000000602082015250565b7f4f776e61626c653a206e6577206f776e657220697320746865207a65726f206160008201527f6464726573730000000000000000000000000000000000000000000000000000602082015250565b7f455243313135353a2063616c6c6572206973206e6f74206f776e6572206e6f7260008201527f20617070726f7665640000000000000000000000000000000000000000000000602082015250565b7f6d73672e73656e6465722068617320746f206265636f6d652061646d696e0000600082015250565b7f686176652073616d6520616d6f756e7400000000000000000000000000000000600082015250565b7f3125206665650000000000000000000000000000000000000000000000000000600082015250565b7f455243313135353a207472616e7366657220746f20746865207a65726f20616460008201527f6472657373000000000000000000000000000000000000000000000000000000602082015250565b7f455243313135353a207472616e736665722063616c6c6572206973206e6f742060008201527f6f776e6572206e6f7220617070726f7665640000000000000000000000000000602082015250565b7f616d6f756e742063616e206e6f74206265207a65726f206f72206c657373207460008201527f68616e207a65726f000000000000000000000000000000000000000000000000602082015250565b7f616464726573732063616e206e6f7420626520656d7074790000000000000000600082015250565b7f49442068617320746f206265206c657373207468616e206e6674206c6973742060008201527f6c656e6774680000000000000000000000000000000000000000000000000000602082015250565b7f455243313135353a20696e73756666696369656e742062616c616e636520666f60008201527f72207472616e7366657200000000000000000000000000000000000000000000602082015250565b7f4f776e61626c653a2063616c6c6572206973206e6f7420746865206f776e6572600082015250565b7f686173685f2063616e206e6f7420626520656d70747920737472696e67000000600082015250565b7f69645f2068617320746f206265206c657373207468616e20617272617920636160008201527f7061636974790000000000000000000000000000000000000000000000000000602082015250565b7f69645f2068617320746f206265206c657373207468616e206e6674206c656e6760008201527f7468000000000000000000000000000000000000000000000000000000000000602082015250565b7f736574206174206c65617374206f6e65206f662074776f20636f696e73000000600082015250565b7f70726963655f2068617320746f20626520617661696c61626c65000000000000600082015250565b50565b7f69642068617320746f206265206c657373207468616e2074686520636f6c6c6560008201527f6374696f6e20616d6f756e740000000000000000000000000000000000000000602082015250565b7f546f6b656e206f6620626c61636b206c6973742063616e206e6f74206265207360008201527f6f6c642e00000000000000000000000000000000000000000000000000000000602082015250565b7f616d6f756e742068617320746f206c657373207468616e206361706163697479600082015250565b7f616d6f756e745f2068617320746f20626520617661696c61626c650000000000600082015250565b7f49442068617320746f206265206c657373207468616e2073656c6c206c69737460008201527f206c656e67746800000000000000000000000000000000000000000000000000602082015250565b7f455243313135353a2073657474696e6720617070726f76616c2073746174757360008201527f20666f722073656c660000000000000000000000000000000000000000000000602082015250565b7f455243313135353a206163636f756e747320616e6420696473206c656e67746860008201527f206d69736d617463680000000000000000000000000000000000000000000000602082015250565b7f455243313135353a2069647320616e6420616d6f756e7473206c656e6774682060008201527f6d69736d61746368000000000000000000000000000000000000000000000000602082015250565b7f73656c6c5f69645f2068617320746f206265206c657373207468616e2073656c60008201527f6c206c697374206c656e67746800000000000000000000000000000000000000602082015250565b7f455243313135353a206d696e7420746f20746865207a65726f2061646472657360008201527f7300000000000000000000000000000000000000000000000000000000000000602082015250565b600060443d1015616543576165c6565b61654b6157a9565b60043d036004823e80513d602482011167ffffffffffffffff821117156165735750506165c6565b808201805167ffffffffffffffff81111561659157505050506165c6565b80602083010160043d0385018111156165ae5750505050506165c6565b6165bd82602001850186615ba5565b82955050505050505b90565b6165d281615a63565b81146165dd57600080fd5b50565b6165e981615a75565b81146165f457600080fd5b50565b61660081615a81565b811461660b57600080fd5b50565b61661781615acd565b811461662257600080fd5b5056fea26469706673582212208c757b37b35ee44aa559e7870f4434765a9739f3b27695438974c26a60f0860b64736f6c63430008040033",
  "immutableReferences": {},
  "source": "pragma solidity ^0.8.0;\n\nimport \"@openzeppelin/contracts/token/ERC1155/ERC1155.sol\";\nimport \"@openzeppelin/contracts/access/Ownable.sol\";\nimport \"@openzeppelin/contracts/token/ERC20/IERC20.sol\";\n\ncontract Meme is ERC1155, Ownable{\n    \n    struct NFT {\n        string hash_;\n        uint collection_id_;\n        uint e_price_;\n        uint d_price_;\n    }\n    NFT[] nft_list;\n    struct Collection {\n        string hash_;\n        address creator_;\n    }\n    Collection[] collection_list;\n    struct Sell {\n        uint nft_id_;\n        uint e_price_;\n        uint d_price_;\n        address payable owner_;\n        uint amount_;\n    }\n    Sell[] sell_list;\n\n    uint[] black_list;\n    mapping (uint => bool) isBlacklist;\n\n    address payable eth_receiver;\n\n    IERC20 public dankToken;\n\n    address[] public admin_list;\n\n    constructor(\n        address payable _ethReceiver,\n        IERC20 dankToken_\n    ) ERC1155(\"\") Ownable() {\n        require(_ethReceiver != address(0));\n        require(address(dankToken_) != address(0), \"Invalid token\");\n        eth_receiver = _ethReceiver;\n        dankToken = dankToken_;\n        admin_list.push(eth_receiver);\n    }\n\n    function Set_admin (address new_admin_) public onlyOwner returns (bool) {\n        require(new_admin_ != address(0), \"address can not be empty\");\n        // require(new_admin_ != eth_receiver, \"main administrator can not be pushed\");\n\n        admin_list.push(new_admin_);\n\n        return true;\n    }\n\n    function Get_admin () public view returns (address[] memory) {\n        return admin_list;\n    }\n\n    function Remove_admin (uint id_) public onlyOwner returns (bool) {\n        require(id_ < admin_list.length, \"id_ has to be less than array capacity\");\n\n        delete admin_list[id_];\n\n        return true;\n    }\n\n    function is_admin(address user_) public view returns (bool) {\n        for (uint i = 0 ; i < admin_list.length ; i++) {\n            if (admin_list[i] == user_)\n                return true;\n        }\n        return false;\n    }\n\n    function Set_nft (string memory hash_, uint collection_id_, uint amount_, uint e_price_, uint d_price_) public {\n        // require : hash_ can not be empty string\n        require(bytes(hash_).length > 0, \"hash_ can not be empty string\");\n        // require : amount can not be zero or less than zero\n        require(amount_ > 0, \"amount can not be zero or less than zero\");\n        _mint(msg.sender, nft_list.length, amount_, \"\");\n\n        NFT memory temp = NFT(hash_, collection_id_, e_price_, d_price_);\n        nft_list.push(temp);\n    }\n    //(bool platformTransferSuccess,) = platformFeeRecipient.call{value : platformFeeInETH}(\"\");\n    //require(platformTransferSuccess, \"NFTAuction.resultAuction: Failed to send platform fee\");\n    function Batch_set_nft (string[] memory hashes_, uint[] memory collection_ids_, uint[] memory amounts_, uint[] memory e_prices_, uint[] memory d_prices_) public {\n        require(hashes_.length == amounts_.length, \"have same amount\");\n        require(hashes_.length == e_prices_.length, \"have same amount\");\n        require(hashes_.length == d_prices_.length, \"have same amount\");\n\n        for (uint i = 0 ; i < hashes_.length ; i++) {\n            Set_nft(hashes_[i], collection_ids_[i], amounts_[i], e_prices_[i], d_prices_[i]);\n        }\n    }\n\n    function Set_collection(string memory hash_) public {\n        // require : hash_ can not be empty string\n        require(bytes(hash_).length > 0, \"hash_ can not be empty string\");\n        // require : msg.sender has to be admin list\n        require(is_admin(msg.sender), \"msg.sender has to become admin\");\n\n        Collection memory temp = Collection(hash_, msg.sender);\n        collection_list.push(temp);\n    }\n\n    function Get_collection(uint id_) public view returns (string memory, address) {\n        // require : id has to be less than the collection amount\n        require( id_ < collection_list.length, \"id has to be less than the collection amount\");\n\n        return (\n            collection_list[id_].hash_,\n            collection_list[id_].creator_\n        );\n    }\n\n    function Remove_collection(uint id_) public returns (bool) {\n        // require : id has to be less than the collection amount\n        require( id_ < collection_list.length, \"id has to be less than the collection amount\");\n        // require : msg.sender has to be admin list\n        require(is_admin(msg.sender), \"msg.sender has to become admin\");\n\n        delete collection_list[id_];\n\n        return true;\n    }\n\n    function Get_nft (uint id_) public view returns (string memory, uint, uint) {\n        return (\n            nft_list[id_].hash_,\n            nft_list[id_].e_price_,\n            nft_list[id_].d_price_\n        );\n    }\n\n    function Get_nft_amount () public view returns (uint) {\n        return nft_list.length;\n    }\n\n    function Get_list_fee (uint price_) public view returns (uint) {\n        return (price_/100);\n    }\n    function Set_sell (uint id_, uint e_price_, uint d_price_, uint amount_) public payable returns(uint){\n        // require : id_ is avaliable \n        require( id_ < nft_list.length, \"ID has to be less than nft list length\");\n        // require : set at least one of two coins\n        require ( (e_price_ > 0) || (d_price_ > 0), \"set at least one of two coins\");\n        // require : 1% fee\n        if ( e_price_ == 0 && d_price_ > 0) {\n            require(Get_list_fee(d_price_) * amount_ == msg.value, \"1% fee\");\n            dankToken.transferFrom(msg.sender, eth_receiver, Get_list_fee(d_price_));\n        } else if ( e_price_ > 0 && d_price_ == 0) {\n            require(Get_list_fee(e_price_) * amount_ == msg.value, \"1% fee\");\n            eth_receiver.call{value: Get_list_fee(e_price_)}(\"\");\n        } \n\n        // if ( e_price_ == 0 && d_price_ > 0) {\n        //     require(Get_list_fee(d_price_) * amount_ == msg.value, \"1% fee\");\n        //     dankToken.transferFrom(msg.sender, eth_receiver, Get_list_fee(d_price_));\n        // } else if ( e_price_ > 0 && d_price_ == 0) {\n        //     require(Get_list_fee(e_price_) * amount_ == msg.value, \"1% fee\");\n        //     eth_receiver.call{value: Get_list_fee(e_price_)}(\"\");\n        // } else if ( e_price_ > 0 && d_price_ > 0) {\n        //     require((Get_list_fee(e_price_) + Get_list_fee(d_price_)) * amount_ == msg.value, \"1% fee\");\n        //     dankToken.transferFrom(msg.sender, eth_receiver, Get_list_fee(d_price_));\n        //     eth_receiver.call{value: Get_list_fee(e_price_)}(\"\");\n        // }\n        // require : amount_ has to be available\n        require((amount_>0) && ( balanceOf(msg.sender, id_) >= amount_ ), \"amount_ has to be available\");\n        // require :  token is not in the black list\n        require(isBlacklist[id_] != true, \"Token of black list can not be sold.\");\n        \n        Sell memory sell_temp = Sell(id_, e_price_, d_price_, payable(msg.sender), amount_);\n        sell_list.push(sell_temp);\n\n        // if ( e_price_ == 0 && d_price_ > 0) {\n        //     dankToken.transferFrom(msg.sender, eth_receiver, Get_list_fee(d_price_));\n        // } else if ( e_price_ > 0 && d_price_ == 0) {\n        //     eth_receiver.call{value: Get_list_fee(e_price_)}(\"\");\n        // } else if ( e_price_ > 0 && d_price_ > 0) {\n        //     dankToken.transferFrom(msg.sender, eth_receiver, Get_list_fee(d_price_));\n        //     eth_receiver.call{value: Get_list_fee(e_price_)}(\"\");\n        // }\n\n        return (sell_list.length - 1);\n    }\n\n    function Update_sell (uint sell_id_, uint e_price_, uint d_price_, uint amount_) public {\n        // require : id_ is avaliable \n        require( sell_id_ < sell_list.length, \"ID has to be less than sell list length\");\n        // require : set at least one of two coins\n        require ( (e_price_ > 0) || (d_price_ > 0), \"set at least one of two coins\");\n        // require : amount_ has to be available\n        require((amount_>0) && ( balanceOf(msg.sender, sell_list[sell_id_].nft_id_) >= amount_ ), \"amount_ has to be available\");\n        sell_list[sell_id_].e_price_ = e_price_;\n        sell_list[sell_id_].d_price_ = d_price_;\n        sell_list[sell_id_].amount_ = amount_;\n    }\n\n    function Remove_selling (uint id_) public onlyOwner {\n        // require : id_ is avaliable \n        require( id_ < sell_list.length, \"ID has to be less than sell list length\");\n        delete sell_list[id_];\n    }\n\n    function Get_sell (uint id_) public view returns (uint, uint, address, uint) {\n        // require : id_ is avaliable \n        require( id_ < sell_list.length, \"ID has to be less than sell list length\");\n        return (\n            sell_list[id_].e_price_,\n            sell_list[id_].d_price_,\n            sell_list[id_].owner_,\n            sell_list[id_].amount_\n        );\n    }\n\n    function Get_sell_fee (uint price_) public view returns(uint) {\n        // require : price_ has to be available\n        require( price_ > 0, \"price_ has to be available\");\n        return price_ * 25 / 1000;\n    }\n    function Get_real_price (uint price_) public view returns (uint) {\n        // require : price_ has to be available\n        require( price_ > 0, \"price_ has to be available\");\n        return price_ * 975 / 1000;\n    }\n    function Buying (uint sell_id_, uint amount_, uint token_kind_) public payable {\n        // require : sell_id_ has to be less than sell list length\n        require( sell_id_ < sell_list.length,  \"sell_id_ has to be less than sell list length\");\n        // require : buying amount has to be avaliable\n        require( amount_ <= sell_list[sell_id_].amount_, \"amount has to less than capacity\" );\n        \n        safeTransferFrom( msg.sender, sell_list[sell_id_].owner_, sell_list[sell_id_].nft_id_, amount_, \"\" );\n        if (amount_ == sell_list[sell_id_].amount_) {\n            Remove_selling(sell_id_);\n        } else {\n            sell_list[sell_id_].amount_ = sell_list[sell_id_].amount_ - amount_;\n        }\n        \n        if( token_kind_ == 0 ){\n            sell_list[sell_id_].owner_.transfer(Get_real_price(sell_list[sell_id_].e_price_));\n            eth_receiver.call{value: Get_sell_fee(sell_list[sell_id_].e_price_)}(\"\");\n        } else {\n            dankToken.transferFrom(msg.sender, eth_receiver, Get_sell_fee(sell_list[sell_id_].d_price_));\n            dankToken.transferFrom(msg.sender, sell_list[sell_id_].owner_, Get_real_price(sell_list[sell_id_].d_price_));\n            // sell_list[sell_id_].owner_.transfer(Get_real_price(sell_list[sell_id_].d_price_));\n            // eth_receiver.call{value: Get_sell_fee(sell_list[sell_id_].d_price_)}(\"\");\n        }\n\n    }\n    \n    function Set_blacklist (uint id_) public onlyOwner {\n        // require : id_ has to be less than nft length\n        require(id_ < nft_list.length, \"id_ has to be less than nft length\");\n        // require : id_ has not already set in the black list\n        require(isBlacklist[id_] == false, \"id_ has not already set in the black list\");\n        black_list.push(id_);\n        isBlacklist[id_] = true;\n    }\n\n    function check_blacklist (uint id_) public view returns (bool) {\n        // require : id_ has to be less than nft length\n        require(id_ < nft_list.length, \"id_ has to be less than nft length\");\n        return isBlacklist[id_];\n    }\n    // receive() payable external {}\n    // function getETH() external onlyOwner {\n    //     payable(msg.sender).transfer(address(this).balance);\n    // }\n}",
  "sourcePath": "/home/oncemore/Blockchain Work/NFT_marketplace_smartcontract(MEME_20210511)/contracts/Meme.sol",
  "compiler": {
    "name": "solc",
    "version": "0.8.4+commit.c7e474f2.Emscripten.clang"
  },
  "schemaVersion": "3.3.4",
  "updatedAt": "2021-05-15T16:51:06.017Z",
  "devdoc": {
    "kind": "dev",
    "methods": {
      "balanceOf(address,uint256)": {
        "details": "See {IERC1155-balanceOf}. Requirements: - `account` cannot be the zero address."
      },
      "balanceOfBatch(address[],uint256[])": {
        "details": "See {IERC1155-balanceOfBatch}. Requirements: - `accounts` and `ids` must have the same length."
      },
      "isApprovedForAll(address,address)": {
        "details": "See {IERC1155-isApprovedForAll}."
      },
      "owner()": {
        "details": "Returns the address of the current owner."
      },
      "renounceOwnership()": {
        "details": "Leaves the contract without owner. It will not be possible to call `onlyOwner` functions anymore. Can only be called by the current owner. NOTE: Renouncing ownership will leave the contract without an owner, thereby removing any functionality that is only available to the owner."
      },
      "safeBatchTransferFrom(address,address,uint256[],uint256[],bytes)": {
        "details": "See {IERC1155-safeBatchTransferFrom}."
      },
      "safeTransferFrom(address,address,uint256,uint256,bytes)": {
        "details": "See {IERC1155-safeTransferFrom}."
      },
      "setApprovalForAll(address,bool)": {
        "details": "See {IERC1155-setApprovalForAll}."
      },
      "supportsInterface(bytes4)": {
        "details": "See {IERC165-supportsInterface}."
      },
      "transferOwnership(address)": {
        "details": "Transfers ownership of the contract to a new account (`newOwner`). Can only be called by the current owner."
      },
      "uri(uint256)": {
        "details": "See {IERC1155MetadataURI-uri}. This implementation returns the same URI for *all* token types. It relies on the token type ID substitution mechanism https://eips.ethereum.org/EIPS/eip-1155#metadata[defined in the EIP]. Clients calling this function must replace the `\\{id\\}` substring with the actual token type ID."
      }
    },
    "version": 1
  },
  "userdoc": {
    "kind": "user",
    "methods": {},
    "version": 1
  }
}