{
  "contractName": "Meme",
  "abi": [
    {
      "inputs": [
        {
          "internalType": "address payable",
          "name": "_ethReceiver",
          "type": "address"
        },
        {
          "internalType": "contract IERC20",
          "name": "dankToken_",
          "type": "address"
        }
      ],
      "stateMutability": "nonpayable",
      "type": "constructor"
    },
    {
      "anonymous": false,
      "inputs": [
        {
          "indexed": true,
          "internalType": "address",
          "name": "account",
          "type": "address"
        },
        {
          "indexed": true,
          "internalType": "address",
          "name": "operator",
          "type": "address"
        },
        {
          "indexed": false,
          "internalType": "bool",
          "name": "approved",
          "type": "bool"
        }
      ],
      "name": "ApprovalForAll",
      "type": "event"
    },
    {
      "anonymous": false,
      "inputs": [
        {
          "indexed": true,
          "internalType": "address",
          "name": "previousOwner",
          "type": "address"
        },
        {
          "indexed": true,
          "internalType": "address",
          "name": "newOwner",
          "type": "address"
        }
      ],
      "name": "OwnershipTransferred",
      "type": "event"
    },
    {
      "anonymous": false,
      "inputs": [
        {
          "indexed": true,
          "internalType": "address",
          "name": "operator",
          "type": "address"
        },
        {
          "indexed": true,
          "internalType": "address",
          "name": "from",
          "type": "address"
        },
        {
          "indexed": true,
          "internalType": "address",
          "name": "to",
          "type": "address"
        },
        {
          "indexed": false,
          "internalType": "uint256[]",
          "name": "ids",
          "type": "uint256[]"
        },
        {
          "indexed": false,
          "internalType": "uint256[]",
          "name": "values",
          "type": "uint256[]"
        }
      ],
      "name": "TransferBatch",
      "type": "event"
    },
    {
      "anonymous": false,
      "inputs": [
        {
          "indexed": true,
          "internalType": "address",
          "name": "operator",
          "type": "address"
        },
        {
          "indexed": true,
          "internalType": "address",
          "name": "from",
          "type": "address"
        },
        {
          "indexed": true,
          "internalType": "address",
          "name": "to",
          "type": "address"
        },
        {
          "indexed": false,
          "internalType": "uint256",
          "name": "id",
          "type": "uint256"
        },
        {
          "indexed": false,
          "internalType": "uint256",
          "name": "value",
          "type": "uint256"
        }
      ],
      "name": "TransferSingle",
      "type": "event"
    },
    {
      "anonymous": false,
      "inputs": [
        {
          "indexed": false,
          "internalType": "string",
          "name": "value",
          "type": "string"
        },
        {
          "indexed": true,
          "internalType": "uint256",
          "name": "id",
          "type": "uint256"
        }
      ],
      "name": "URI",
      "type": "event"
    },
    {
      "inputs": [
        {
          "internalType": "uint256",
          "name": "",
          "type": "uint256"
        }
      ],
      "name": "admin_list",
      "outputs": [
        {
          "internalType": "address",
          "name": "",
          "type": "address"
        }
      ],
      "stateMutability": "view",
      "type": "function"
    },
    {
      "inputs": [
        {
          "internalType": "address",
          "name": "account",
          "type": "address"
        },
        {
          "internalType": "uint256",
          "name": "id",
          "type": "uint256"
        }
      ],
      "name": "balanceOf",
      "outputs": [
        {
          "internalType": "uint256",
          "name": "",
          "type": "uint256"
        }
      ],
      "stateMutability": "view",
      "type": "function"
    },
    {
      "inputs": [
        {
          "internalType": "address[]",
          "name": "accounts",
          "type": "address[]"
        },
        {
          "internalType": "uint256[]",
          "name": "ids",
          "type": "uint256[]"
        }
      ],
      "name": "balanceOfBatch",
      "outputs": [
        {
          "internalType": "uint256[]",
          "name": "",
          "type": "uint256[]"
        }
      ],
      "stateMutability": "view",
      "type": "function"
    },
    {
      "inputs": [],
      "name": "dankToken",
      "outputs": [
        {
          "internalType": "contract IERC20",
          "name": "",
          "type": "address"
        }
      ],
      "stateMutability": "view",
      "type": "function"
    },
    {
      "inputs": [
        {
          "internalType": "address",
          "name": "account",
          "type": "address"
        },
        {
          "internalType": "address",
          "name": "operator",
          "type": "address"
        }
      ],
      "name": "isApprovedForAll",
      "outputs": [
        {
          "internalType": "bool",
          "name": "",
          "type": "bool"
        }
      ],
      "stateMutability": "view",
      "type": "function"
    },
    {
      "inputs": [],
      "name": "owner",
      "outputs": [
        {
          "internalType": "address",
          "name": "",
          "type": "address"
        }
      ],
      "stateMutability": "view",
      "type": "function"
    },
    {
      "inputs": [],
      "name": "renounceOwnership",
      "outputs": [],
      "stateMutability": "nonpayable",
      "type": "function"
    },
    {
      "inputs": [
        {
          "internalType": "address",
          "name": "from",
          "type": "address"
        },
        {
          "internalType": "address",
          "name": "to",
          "type": "address"
        },
        {
          "internalType": "uint256[]",
          "name": "ids",
          "type": "uint256[]"
        },
        {
          "internalType": "uint256[]",
          "name": "amounts",
          "type": "uint256[]"
        },
        {
          "internalType": "bytes",
          "name": "data",
          "type": "bytes"
        }
      ],
      "name": "safeBatchTransferFrom",
      "outputs": [],
      "stateMutability": "nonpayable",
      "type": "function"
    },
    {
      "inputs": [
        {
          "internalType": "address",
          "name": "from",
          "type": "address"
        },
        {
          "internalType": "address",
          "name": "to",
          "type": "address"
        },
        {
          "internalType": "uint256",
          "name": "id",
          "type": "uint256"
        },
        {
          "internalType": "uint256",
          "name": "amount",
          "type": "uint256"
        },
        {
          "internalType": "bytes",
          "name": "data",
          "type": "bytes"
        }
      ],
      "name": "safeTransferFrom",
      "outputs": [],
      "stateMutability": "nonpayable",
      "type": "function"
    },
    {
      "inputs": [
        {
          "internalType": "address",
          "name": "operator",
          "type": "address"
        },
        {
          "internalType": "bool",
          "name": "approved",
          "type": "bool"
        }
      ],
      "name": "setApprovalForAll",
      "outputs": [],
      "stateMutability": "nonpayable",
      "type": "function"
    },
    {
      "inputs": [
        {
          "internalType": "bytes4",
          "name": "interfaceId",
          "type": "bytes4"
        }
      ],
      "name": "supportsInterface",
      "outputs": [
        {
          "internalType": "bool",
          "name": "",
          "type": "bool"
        }
      ],
      "stateMutability": "view",
      "type": "function"
    },
    {
      "inputs": [
        {
          "internalType": "address",
          "name": "newOwner",
          "type": "address"
        }
      ],
      "name": "transferOwnership",
      "outputs": [],
      "stateMutability": "nonpayable",
      "type": "function"
    },
    {
      "inputs": [
        {
          "internalType": "uint256",
          "name": "",
          "type": "uint256"
        }
      ],
      "name": "uri",
      "outputs": [
        {
          "internalType": "string",
          "name": "",
          "type": "string"
        }
      ],
      "stateMutability": "view",
      "type": "function"
    },
    {
      "inputs": [
        {
          "internalType": "address",
          "name": "new_admin_",
          "type": "address"
        }
      ],
      "name": "Set_admin",
      "outputs": [
        {
          "internalType": "bool",
          "name": "",
          "type": "bool"
        }
      ],
      "stateMutability": "nonpayable",
      "type": "function"
    },
    {
      "inputs": [],
      "name": "Get_admin",
      "outputs": [
        {
          "internalType": "address[]",
          "name": "",
          "type": "address[]"
        }
      ],
      "stateMutability": "view",
      "type": "function"
    },
    {
      "inputs": [
        {
          "internalType": "uint256",
          "name": "id_",
          "type": "uint256"
        }
      ],
      "name": "Remove_admin",
      "outputs": [
        {
          "internalType": "bool",
          "name": "",
          "type": "bool"
        }
      ],
      "stateMutability": "nonpayable",
      "type": "function"
    },
    {
      "inputs": [
        {
          "internalType": "address",
          "name": "user_",
          "type": "address"
        }
      ],
      "name": "is_admin",
      "outputs": [
        {
          "internalType": "bool",
          "name": "",
          "type": "bool"
        }
      ],
      "stateMutability": "view",
      "type": "function"
    },
    {
      "inputs": [
        {
          "internalType": "string",
          "name": "hash_",
          "type": "string"
        },
        {
          "internalType": "uint256",
          "name": "amount_",
          "type": "uint256"
        },
        {
          "internalType": "uint256",
          "name": "e_price_",
          "type": "uint256"
        },
        {
          "internalType": "uint256",
          "name": "d_price_",
          "type": "uint256"
        }
      ],
      "name": "Set_nft",
      "outputs": [],
      "stateMutability": "nonpayable",
      "type": "function"
    },
    {
      "inputs": [
        {
          "internalType": "string[]",
          "name": "hashes_",
          "type": "string[]"
        },
        {
          "internalType": "uint256[]",
          "name": "amounts_",
          "type": "uint256[]"
        },
        {
          "internalType": "uint256[]",
          "name": "e_prices_",
          "type": "uint256[]"
        },
        {
          "internalType": "uint256[]",
          "name": "d_prices_",
          "type": "uint256[]"
        }
      ],
      "name": "Batch_set_nft",
      "outputs": [],
      "stateMutability": "nonpayable",
      "type": "function"
    },
    {
      "inputs": [
        {
          "internalType": "string",
          "name": "hash_",
          "type": "string"
        }
      ],
      "name": "Set_collection",
      "outputs": [],
      "stateMutability": "nonpayable",
      "type": "function"
    },
    {
      "inputs": [
        {
          "internalType": "uint256",
          "name": "id_",
          "type": "uint256"
        }
      ],
      "name": "Get_collection",
      "outputs": [
        {
          "internalType": "string",
          "name": "",
          "type": "string"
        },
        {
          "internalType": "address",
          "name": "",
          "type": "address"
        }
      ],
      "stateMutability": "view",
      "type": "function"
    },
    {
      "inputs": [
        {
          "internalType": "uint256",
          "name": "id_",
          "type": "uint256"
        }
      ],
      "name": "Remove_collection",
      "outputs": [
        {
          "internalType": "bool",
          "name": "",
          "type": "bool"
        }
      ],
      "stateMutability": "nonpayable",
      "type": "function"
    },
    {
      "inputs": [
        {
          "internalType": "uint256",
          "name": "id_",
          "type": "uint256"
        }
      ],
      "name": "Get_nft",
      "outputs": [
        {
          "internalType": "string",
          "name": "",
          "type": "string"
        },
        {
          "internalType": "uint256",
          "name": "",
          "type": "uint256"
        },
        {
          "internalType": "uint256",
          "name": "",
          "type": "uint256"
        }
      ],
      "stateMutability": "view",
      "type": "function"
    },
    {
      "inputs": [],
      "name": "Get_nft_amount",
      "outputs": [
        {
          "internalType": "uint256",
          "name": "",
          "type": "uint256"
        }
      ],
      "stateMutability": "view",
      "type": "function"
    },
    {
      "inputs": [
        {
          "internalType": "uint256",
          "name": "price_",
          "type": "uint256"
        }
      ],
      "name": "Get_list_fee",
      "outputs": [
        {
          "internalType": "uint256",
          "name": "",
          "type": "uint256"
        }
      ],
      "stateMutability": "view",
      "type": "function"
    },
    {
      "inputs": [
        {
          "internalType": "uint256",
          "name": "id_",
          "type": "uint256"
        },
        {
          "internalType": "uint256",
          "name": "e_price_",
          "type": "uint256"
        },
        {
          "internalType": "uint256",
          "name": "d_price_",
          "type": "uint256"
        },
        {
          "internalType": "uint256",
          "name": "amount_",
          "type": "uint256"
        }
      ],
      "name": "Set_sell",
      "outputs": [
        {
          "internalType": "uint256",
          "name": "",
          "type": "uint256"
        }
      ],
      "stateMutability": "payable",
      "type": "function"
    },
    {
      "inputs": [
        {
          "internalType": "uint256",
          "name": "sell_id_",
          "type": "uint256"
        },
        {
          "internalType": "uint256",
          "name": "e_price_",
          "type": "uint256"
        },
        {
          "internalType": "uint256",
          "name": "d_price_",
          "type": "uint256"
        },
        {
          "internalType": "uint256",
          "name": "amount_",
          "type": "uint256"
        }
      ],
      "name": "Update_sell",
      "outputs": [],
      "stateMutability": "nonpayable",
      "type": "function"
    },
    {
      "inputs": [
        {
          "internalType": "uint256",
          "name": "id_",
          "type": "uint256"
        }
      ],
      "name": "Remove_selling",
      "outputs": [],
      "stateMutability": "nonpayable",
      "type": "function"
    },
    {
      "inputs": [
        {
          "internalType": "uint256",
          "name": "id_",
          "type": "uint256"
        }
      ],
      "name": "Get_sell",
      "outputs": [
        {
          "internalType": "uint256",
          "name": "",
          "type": "uint256"
        },
        {
          "internalType": "uint256",
          "name": "",
          "type": "uint256"
        },
        {
          "internalType": "address",
          "name": "",
          "type": "address"
        },
        {
          "internalType": "uint256",
          "name": "",
          "type": "uint256"
        }
      ],
      "stateMutability": "view",
      "type": "function"
    },
    {
      "inputs": [
        {
          "internalType": "uint256",
          "name": "price_",
          "type": "uint256"
        }
      ],
      "name": "Get_sell_fee",
      "outputs": [
        {
          "internalType": "uint256",
          "name": "",
          "type": "uint256"
        }
      ],
      "stateMutability": "view",
      "type": "function"
    },
    {
      "inputs": [
        {
          "internalType": "uint256",
          "name": "price_",
          "type": "uint256"
        }
      ],
      "name": "Get_real_price",
      "outputs": [
        {
          "internalType": "uint256",
          "name": "",
          "type": "uint256"
        }
      ],
      "stateMutability": "view",
      "type": "function"
    },
    {
      "inputs": [
        {
          "internalType": "uint256",
          "name": "sell_id_",
          "type": "uint256"
        },
        {
          "internalType": "uint256",
          "name": "amount_",
          "type": "uint256"
        },
        {
          "internalType": "uint256",
          "name": "token_kind_",
          "type": "uint256"
        }
      ],
      "name": "Buying",
      "outputs": [],
      "stateMutability": "payable",
      "type": "function"
    },
    {
      "inputs": [
        {
          "internalType": "uint256",
          "name": "id_",
          "type": "uint256"
        }
      ],
      "name": "Set_blacklist",
      "outputs": [],
      "stateMutability": "nonpayable",
      "type": "function"
    },
    {
      "inputs": [
        {
          "internalType": "uint256",
          "name": "id_",
          "type": "uint256"
        }
      ],
      "name": "check_blacklist",
      "outputs": [
        {
          "internalType": "bool",
          "name": "",
          "type": "bool"
        }
      ],
      "stateMutability": "view",
      "type": "function"
    }
  ],
  "bytecode": "0x60806040523480156200001157600080fd5b5060405162006b5a38038062006b5a8339818101604052810190620000379190620003c9565b604051806020016040528060008152506200005881620002c760201b60201c565b5060006200006b620002e360201b60201c565b905080600360006101000a81548173ffffffffffffffffffffffffffffffffffffffff021916908373ffffffffffffffffffffffffffffffffffffffff1602179055508073ffffffffffffffffffffffffffffffffffffffff16600073ffffffffffffffffffffffffffffffffffffffff167f8be0079c531659141344cd1fd0a4f28419497f9722a3daafe3b4186f6b6457e060405160405180910390a350600073ffffffffffffffffffffffffffffffffffffffff168273ffffffffffffffffffffffffffffffffffffffff1614156200014557600080fd5b600073ffffffffffffffffffffffffffffffffffffffff168173ffffffffffffffffffffffffffffffffffffffff161415620001b8576040517f08c379a0000000000000000000000000000000000000000000000000000000008152600401620001af9062000431565b60405180910390fd5b81600960006101000a81548173ffffffffffffffffffffffffffffffffffffffff021916908373ffffffffffffffffffffffffffffffffffffffff16021790555080600a60006101000a81548173ffffffffffffffffffffffffffffffffffffffff021916908373ffffffffffffffffffffffffffffffffffffffff160217905550600b600960009054906101000a900473ffffffffffffffffffffffffffffffffffffffff169080600181540180825580915050600190039060005260206000200160009091909190916101000a81548173ffffffffffffffffffffffffffffffffffffffff021916908373ffffffffffffffffffffffffffffffffffffffff160217905550505062000582565b8060029080519060200190620002df929190620002eb565b5050565b600033905090565b828054620002f990620004c0565b90600052602060002090601f0160209004810192826200031d576000855562000369565b82601f106200033857805160ff191683800117855562000369565b8280016001018555821562000369579182015b82811115620003685782518255916020019190600101906200034b565b5b5090506200037891906200037c565b5090565b5b80821115620003975760008160009055506001016200037d565b5090565b600081519050620003ac816200054e565b92915050565b600081519050620003c38162000568565b92915050565b60008060408385031215620003dd57600080fd5b6000620003ed858286016200039b565b92505060206200040085828601620003b2565b9150509250929050565b600062000419600d8362000453565b9150620004268262000525565b602082019050919050565b600060208201905081810360008301526200044c816200040a565b9050919050565b600082825260208201905092915050565b60006200047182620004a0565b9050919050565b60006200048582620004a0565b9050919050565b6000620004998262000464565b9050919050565b600073ffffffffffffffffffffffffffffffffffffffff82169050919050565b60006002820490506001821680620004d957607f821691505b60208210811415620004f057620004ef620004f6565b5b50919050565b7f4e487b7100000000000000000000000000000000000000000000000000000000600052602260045260246000fd5b7f496e76616c696420746f6b656e00000000000000000000000000000000000000600082015250565b620005598162000478565b81146200056557600080fd5b50565b62000573816200048c565b81146200057f57600080fd5b50565b6165c880620005926000396000f3fe6080604052600436106101f85760003560e01c80638da5cb5b1161010d578063cf58f0a5116100a0578063f242432a1161006f578063f242432a146107f9578063f2fde38b14610822578063f41f3c671461084b578063f42d88b414610874578063fd2b35161461089d576101f8565b8063cf58f0a514610714578063d6e903f414610751578063d816bcf81461077c578063e985e9c5146107bc576101f8565b8063aac132de116100dc578063aac132de14610620578063b94de42b1461065d578063beb3d6541461069a578063cc75c4fb146106d7576101f8565b80638da5cb5b14610565578063912e6d6d1461059057806396b0eb0f146105b9578063a22cb465146105f7576101f8565b80634645ffcd116101905780635b8746d31161015f5780635b8746d314610480578063715018a6146104bd57806375feae25146104d4578063842dbcde146104ff578063886cd0cf14610528576101f8565b80634645ffcd146103a05780634e1273f4146103c95780634e7e90851461040657806351f21a7814610443576101f8565b806325061dae116101cc57806325061dae146102dd5780632eb2c2d61461031c57806335f08d0c146103455780633734530e14610375576101f8565b8062fdd58e146101fd57806301ffc9a71461023a5780630e89341c1461027757806319258533146102b4575b600080fd5b34801561020957600080fd5b50610224600480360381019061021f9190614684565b6108b9565b6040516102319190615672565b60405180910390f35b34801561024657600080fd5b50610261600480360381019061025c9190614818565b610982565b60405161026e91906151cc565b60405180910390f35b34801561028357600080fd5b5061029e60048036038101906102999190614926565b610a64565b6040516102ab9190615202565b60405180910390f35b3480156102c057600080fd5b506102db60048036038101906102d69190614926565b610af8565b005b3480156102e957600080fd5b5061030460048036038101906102ff9190614926565b610c7a565b60405161031393929190615254565b60405180910390f35b34801561032857600080fd5b50610343600480360381019061033e91906144fa565b610dfb565b005b61035f600480360381019061035a919061499e565b6111f1565b60405161036c9190615672565b60405180910390f35b34801561038157600080fd5b5061038a61168d565b6040516103979190615151565b60405180910390f35b3480156103ac57600080fd5b506103c760048036038101906103c291906148ab565b61171b565b005b3480156103d557600080fd5b506103f060048036038101906103eb91906146c0565b611847565b6040516103fd9190615173565b60405180910390f35b34801561041257600080fd5b5061042d60048036038101906104289190614926565b6119f8565b60405161043a919061503d565b60405180910390f35b34801561044f57600080fd5b5061046a60048036038101906104659190614926565b611a37565b60405161047791906151cc565b60405180910390f35b34801561048c57600080fd5b506104a760048036038101906104a29190614926565b611b6c565b6040516104b49190615672565b60405180910390f35b3480156104c957600080fd5b506104d2611bd1565b005b3480156104e057600080fd5b506104e9611d0e565b6040516104f69190615672565b60405180910390f35b34801561050b57600080fd5b506105266004803603810190610521919061472c565b611d1b565b005b34801561053457600080fd5b5061054f600480360381019061054a9190614926565b611f19565b60405161055c91906151cc565b60405180910390f35b34801561057157600080fd5b5061057a611f8a565b604051610587919061503d565b60405180910390f35b34801561059c57600080fd5b506105b760048036038101906105b2919061486a565b611fb4565b005b3480156105c557600080fd5b506105e060048036038101906105db9190614926565b612105565b6040516105ee929190615224565b60405180910390f35b34801561060357600080fd5b5061061e60048036038101906106199190614648565b61229c565b005b34801561062c57600080fd5b5061064760048036038101906106429190614495565b61241d565b60405161065491906151cc565b60405180910390f35b34801561066957600080fd5b50610684600480360381019061067f9190614926565b6124f2565b6040516106919190615672565b60405180910390f35b3480156106a657600080fd5b506106c160048036038101906106bc9190614926565b612558565b6040516106ce91906151cc565b60405180910390f35b3480156106e357600080fd5b506106fe60048036038101906106f99190614495565b612674565b60405161070b91906151cc565b60405180910390f35b34801561072057600080fd5b5061073b60048036038101906107369190614926565b6127ce565b6040516107489190615672565b60405180910390f35b34801561075d57600080fd5b506107666127e4565b60405161077391906151e7565b60405180910390f35b34801561078857600080fd5b506107a3600480360381019061079e9190614926565b61280a565b6040516107b394939291906156b6565b60405180910390f35b3480156107c857600080fd5b506107e360048036038101906107de91906144be565b6129b6565b6040516107f091906151cc565b60405180910390f35b34801561080557600080fd5b50610820600480360381019061081b91906145b9565b612a4a565b005b34801561082e57600080fd5b5061084960048036038101906108449190614495565b612d62565b005b34801561085757600080fd5b50610872600480360381019061086d9190614926565b612f0e565b005b34801561088057600080fd5b5061089b6004803603810190610896919061499e565b613066565b005b6108b760048036038101906108b2919061494f565b613294565b005b60008073ffffffffffffffffffffffffffffffffffffffff168373ffffffffffffffffffffffffffffffffffffffff16141561092a576040517f08c379a0000000000000000000000000000000000000000000000000000000008152600401610921906152d2565b60405180910390fd5b60008083815260200190815260200160002060008473ffffffffffffffffffffffffffffffffffffffff1673ffffffffffffffffffffffffffffffffffffffff16815260200190815260200160002054905092915050565b60007fd9b67a26000000000000000000000000000000000000000000000000000000007bffffffffffffffffffffffffffffffffffffffffffffffffffffffff1916827bffffffffffffffffffffffffffffffffffffffffffffffffffffffff19161480610a4d57507f0e89341c000000000000000000000000000000000000000000000000000000007bffffffffffffffffffffffffffffffffffffffffffffffffffffffff1916827bffffffffffffffffffffffffffffffffffffffffffffffffffffffff1916145b80610a5d5750610a5c826139d1565b5b9050919050565b606060028054610a7390615ae0565b80601f0160208091040260200160405190810160405280929190818152602001828054610a9f90615ae0565b8015610aec5780601f10610ac157610100808354040283529160200191610aec565b820191906000526020600020905b815481529060010190602001808311610acf57829003601f168201915b50505050509050919050565b610b00613a3b565b73ffffffffffffffffffffffffffffffffffffffff16610b1e611f8a565b73ffffffffffffffffffffffffffffffffffffffff1614610b74576040517f08c379a0000000000000000000000000000000000000000000000000000000008152600401610b6b90615472565b60405180910390fd5b6004805490508110610bbb576040517f08c379a0000000000000000000000000000000000000000000000000000000008152600401610bb2906154d2565b60405180910390fd5b600015156008600083815260200190815260200160002060009054906101000a900460ff16151514610c22576040517f08c379a0000000000000000000000000000000000000000000000000000000008152600401610c19906152f2565b60405180910390fd5b600781908060018154018082558091505060019003906000526020600020016000909190919091505560016008600083815260200190815260200160002060006101000a81548160ff02191690831515021790555050565b606060008060048481548110610cb9577f4e487b7100000000000000000000000000000000000000000000000000000000600052603260045260246000fd5b906000526020600020906003020160000160048581548110610d04577f4e487b7100000000000000000000000000000000000000000000000000000000600052603260045260246000fd5b90600052602060002090600302016001015460048681548110610d50577f4e487b7100000000000000000000000000000000000000000000000000000000600052603260045260246000fd5b906000526020600020906003020160020154828054610d6e90615ae0565b80601f0160208091040260200160405190810160405280929190818152602001828054610d9a90615ae0565b8015610de75780601f10610dbc57610100808354040283529160200191610de7565b820191906000526020600020905b815481529060010190602001808311610dca57829003601f168201915b505050505092509250925092509193909250565b8151835114610e3f576040517f08c379a0000000000000000000000000000000000000000000000000000000008152600401610e3690615612565b60405180910390fd5b600073ffffffffffffffffffffffffffffffffffffffff168473ffffffffffffffffffffffffffffffffffffffff161415610eaf576040517f08c379a0000000000000000000000000000000000000000000000000000000008152600401610ea6906153b2565b60405180910390fd5b610eb7613a3b565b73ffffffffffffffffffffffffffffffffffffffff168573ffffffffffffffffffffffffffffffffffffffff161480610efd5750610efc85610ef7613a3b565b6129b6565b5b610f3c576040517f08c379a0000000000000000000000000000000000000000000000000000000008152600401610f33906153d2565b60405180910390fd5b6000610f46613a3b565b9050610f56818787878787613a43565b60005b845181101561115c576000858281518110610f9d577f4e487b7100000000000000000000000000000000000000000000000000000000600052603260045260246000fd5b602002602001015190506000858381518110610fe2577f4e487b7100000000000000000000000000000000000000000000000000000000600052603260045260246000fd5b60200260200101519050600080600084815260200190815260200160002060008b73ffffffffffffffffffffffffffffffffffffffff1673ffffffffffffffffffffffffffffffffffffffff16815260200190815260200160002054905081811015611083576040517f08c379a000000000000000000000000000000000000000000000000000000000815260040161107a90615452565b60405180910390fd5b818161108f919061599c565b60008085815260200190815260200160002060008c73ffffffffffffffffffffffffffffffffffffffff1673ffffffffffffffffffffffffffffffffffffffff168152602001908152602001600020819055508160008085815260200190815260200160002060008b73ffffffffffffffffffffffffffffffffffffffff1673ffffffffffffffffffffffffffffffffffffffff168152602001908152602001600020600082825461114191906158bb565b925050819055505050508061115590615b43565b9050610f59565b508473ffffffffffffffffffffffffffffffffffffffff168673ffffffffffffffffffffffffffffffffffffffff168273ffffffffffffffffffffffffffffffffffffffff167f4a39dc06d4c0dbc64b70af90fd698a233a518aa5d07e595d983b8c0526c8f7fb87876040516111d3929190615195565b60405180910390a46111e9818787878787613a4b565b505050505050565b6000600480549050851061123a576040517f08c379a000000000000000000000000000000000000000000000000000000000815260040161123190615432565b60405180910390fd5b60008411806112495750600083115b611288576040517f08c379a000000000000000000000000000000000000000000000000000000000815260040161127f906154f2565b60405180910390fd5b6000841480156112985750600083115b156113d35734826112a8856127ce565b6112b29190615942565b146112f2576040517f08c379a00000000000000000000000000000000000000000000000000000000081526004016112e990615392565b60405180910390fd5b600a60009054906101000a900473ffffffffffffffffffffffffffffffffffffffff1673ffffffffffffffffffffffffffffffffffffffff166323b872dd33600960009054906101000a900473ffffffffffffffffffffffffffffffffffffffff1661135d876127ce565b6040518463ffffffff1660e01b815260040161137b93929190615058565b602060405180830381600087803b15801561139557600080fd5b505af11580156113a9573d6000803e3d6000fd5b505050506040513d601f19601f820116820180604052508101906113cd91906147ef565b506114d2565b6000841180156113e35750600083145b156114d15734826113f3866127ce565b6113fd9190615942565b1461143d576040517f08c379a000000000000000000000000000000000000000000000000000000000815260040161143490615392565b60405180910390fd5b600960009054906101000a900473ffffffffffffffffffffffffffffffffffffffff1673ffffffffffffffffffffffffffffffffffffffff1661147f856127ce565b60405161148b90615028565b60006040518083038185875af1925050503d80600081146114c8576040519150601f19603f3d011682016040523d82523d6000602084013e6114cd565b606091505b5050505b5b6000821180156114eb5750816114e833876108b9565b10155b61152a576040517f08c379a000000000000000000000000000000000000000000000000000000000815260040161152190615592565b60405180910390fd5b600115156008600087815260200190815260200160002060009054906101000a900460ff1615151415611592576040517f08c379a000000000000000000000000000000000000000000000000000000000815260040161158990615552565b60405180910390fd5b60006040518060a001604052808781526020018681526020018581526020013373ffffffffffffffffffffffffffffffffffffffff168152602001848152509050600681908060018154018082558091505060019003906000526020600020906005020160009091909190915060008201518160000155602082015181600101556040820151816002015560608201518160030160006101000a81548173ffffffffffffffffffffffffffffffffffffffff021916908373ffffffffffffffffffffffffffffffffffffffff1602179055506080820151816004015550506001600680549050611682919061599c565b915050949350505050565b6060600b80548060200260200160405190810160405280929190818152602001828054801561171157602002820191906000526020600020905b8160009054906101000a900473ffffffffffffffffffffffffffffffffffffffff1673ffffffffffffffffffffffffffffffffffffffff16815260200190600101908083116116c7575b5050505050905090565b600084511161175f576040517f08c379a000000000000000000000000000000000000000000000000000000000815260040161175690615492565b60405180910390fd5b600083116117a2576040517f08c379a0000000000000000000000000000000000000000000000000000000008152600401611799906153f2565b60405180910390fd5b6117c2336004805490508560405180602001604052806000815250613c32565b6000604051806060016040528086815260200184815260200183815250905060048190806001815401808255809150506001900390600052602060002090600302016000909190919091506000820151816000019080519060200190611829929190614088565b50602082015181600101556040820151816002015550505050505050565b6060815183511461188d576040517f08c379a0000000000000000000000000000000000000000000000000000000008152600401611884906155f2565b60405180910390fd5b6000835167ffffffffffffffff8111156118d0577f4e487b7100000000000000000000000000000000000000000000000000000000600052604160045260246000fd5b6040519080825280602002602001820160405280156118fe5781602001602082028036833780820191505090505b50905060005b84518110156119ed57611997858281518110611949577f4e487b7100000000000000000000000000000000000000000000000000000000600052603260045260246000fd5b602002602001015185838151811061198a577f4e487b7100000000000000000000000000000000000000000000000000000000600052603260045260246000fd5b60200260200101516108b9565b8282815181106119d0577f4e487b7100000000000000000000000000000000000000000000000000000000600052603260045260246000fd5b602002602001018181525050806119e690615b43565b9050611904565b508091505092915050565b600b8181548110611a0857600080fd5b906000526020600020016000915054906101000a900473ffffffffffffffffffffffffffffffffffffffff1681565b6000611a41613a3b565b73ffffffffffffffffffffffffffffffffffffffff16611a5f611f8a565b73ffffffffffffffffffffffffffffffffffffffff1614611ab5576040517f08c379a0000000000000000000000000000000000000000000000000000000008152600401611aac90615472565b60405180910390fd5b600b805490508210611afc576040517f08c379a0000000000000000000000000000000000000000000000000000000008152600401611af3906154b2565b60405180910390fd5b600b8281548110611b36577f4e487b7100000000000000000000000000000000000000000000000000000000600052603260045260246000fd5b9060005260206000200160006101000a81549073ffffffffffffffffffffffffffffffffffffffff021916905560019050919050565b6000808211611bb0576040517f08c379a0000000000000000000000000000000000000000000000000000000008152600401611ba790615512565b60405180910390fd5b6103e8601983611bc09190615942565b611bca9190615911565b9050919050565b611bd9613a3b565b73ffffffffffffffffffffffffffffffffffffffff16611bf7611f8a565b73ffffffffffffffffffffffffffffffffffffffff1614611c4d576040517f08c379a0000000000000000000000000000000000000000000000000000000008152600401611c4490615472565b60405180910390fd5b600073ffffffffffffffffffffffffffffffffffffffff16600360009054906101000a900473ffffffffffffffffffffffffffffffffffffffff1673ffffffffffffffffffffffffffffffffffffffff167f8be0079c531659141344cd1fd0a4f28419497f9722a3daafe3b4186f6b6457e060405160405180910390a36000600360006101000a81548173ffffffffffffffffffffffffffffffffffffffff021916908373ffffffffffffffffffffffffffffffffffffffff160217905550565b6000600480549050905090565b8251845114611d5f576040517f08c379a0000000000000000000000000000000000000000000000000000000008152600401611d5690615372565b60405180910390fd5b8151845114611da3576040517f08c379a0000000000000000000000000000000000000000000000000000000008152600401611d9a90615372565b60405180910390fd5b8051845114611de7576040517f08c379a0000000000000000000000000000000000000000000000000000000008152600401611dde90615372565b60405180910390fd5b60005b8451811015611f1257611eff858281518110611e2f577f4e487b7100000000000000000000000000000000000000000000000000000000600052603260045260246000fd5b6020026020010151858381518110611e70577f4e487b7100000000000000000000000000000000000000000000000000000000600052603260045260246000fd5b6020026020010151858481518110611eb1577f4e487b7100000000000000000000000000000000000000000000000000000000600052603260045260246000fd5b6020026020010151858581518110611ef2577f4e487b7100000000000000000000000000000000000000000000000000000000600052603260045260246000fd5b602002602001015161171b565b8080611f0a90615b43565b915050611dea565b5050505050565b60006004805490508210611f62576040517f08c379a0000000000000000000000000000000000000000000000000000000008152600401611f59906154d2565b60405180910390fd5b6008600083815260200190815260200160002060009054906101000a900460ff169050919050565b6000600360009054906101000a900473ffffffffffffffffffffffffffffffffffffffff16905090565b6000815111611ff8576040517f08c379a0000000000000000000000000000000000000000000000000000000008152600401611fef90615492565b60405180910390fd5b6120013361241d565b612040576040517f08c379a000000000000000000000000000000000000000000000000000000000815260040161203790615352565b60405180910390fd5b600060405180604001604052808381526020013373ffffffffffffffffffffffffffffffffffffffff168152509050600581908060018154018082558091505060019003906000526020600020906002020160009091909190915060008201518160000190805190602001906120b7929190614088565b5060208201518160010160006101000a81548173ffffffffffffffffffffffffffffffffffffffff021916908373ffffffffffffffffffffffffffffffffffffffff16021790555050505050565b606060006005805490508310612150576040517f08c379a000000000000000000000000000000000000000000000000000000000815260040161214790615532565b60405180910390fd5b6005838154811061218a577f4e487b7100000000000000000000000000000000000000000000000000000000600052603260045260246000fd5b9060005260206000209060020201600001600584815481106121d5577f4e487b7100000000000000000000000000000000000000000000000000000000600052603260045260246000fd5b906000526020600020906002020160010160009054906101000a900473ffffffffffffffffffffffffffffffffffffffff1681805461221390615ae0565b80601f016020809104026020016040519081016040528092919081815260200182805461223f90615ae0565b801561228c5780601f106122615761010080835404028352916020019161228c565b820191906000526020600020905b81548152906001019060200180831161226f57829003601f168201915b5050505050915091509150915091565b8173ffffffffffffffffffffffffffffffffffffffff166122bb613a3b565b73ffffffffffffffffffffffffffffffffffffffff161415612312576040517f08c379a0000000000000000000000000000000000000000000000000000000008152600401612309906155d2565b60405180910390fd5b806001600061231f613a3b565b73ffffffffffffffffffffffffffffffffffffffff1673ffffffffffffffffffffffffffffffffffffffff16815260200190815260200160002060008473ffffffffffffffffffffffffffffffffffffffff1673ffffffffffffffffffffffffffffffffffffffff16815260200190815260200160002060006101000a81548160ff0219169083151502179055508173ffffffffffffffffffffffffffffffffffffffff166123cc613a3b565b73ffffffffffffffffffffffffffffffffffffffff167f17307eab39ab6107e8899845ad3d59bd9653f200f220920489ca2b5937696c318360405161241191906151cc565b60405180910390a35050565b600080600090505b600b805490508110156124e7578273ffffffffffffffffffffffffffffffffffffffff16600b8281548110612483577f4e487b7100000000000000000000000000000000000000000000000000000000600052603260045260246000fd5b9060005260206000200160009054906101000a900473ffffffffffffffffffffffffffffffffffffffff1673ffffffffffffffffffffffffffffffffffffffff1614156124d45760019150506124ed565b80806124df90615b43565b915050612425565b50600090505b919050565b6000808211612536576040517f08c379a000000000000000000000000000000000000000000000000000000000815260040161252d90615512565b60405180910390fd5b6103e86103cf836125479190615942565b6125519190615911565b9050919050565b600060058054905082106125a1576040517f08c379a000000000000000000000000000000000000000000000000000000000815260040161259890615532565b60405180910390fd5b6125aa3361241d565b6125e9576040517f08c379a00000000000000000000000000000000000000000000000000000000081526004016125e090615352565b60405180910390fd5b60058281548110612623577f4e487b7100000000000000000000000000000000000000000000000000000000600052603260045260246000fd5b906000526020600020906002020160008082016000612642919061410e565b6001820160006101000a81549073ffffffffffffffffffffffffffffffffffffffff0219169055505060019050919050565b600061267e613a3b565b73ffffffffffffffffffffffffffffffffffffffff1661269c611f8a565b73ffffffffffffffffffffffffffffffffffffffff16146126f2576040517f08c379a00000000000000000000000000000000000000000000000000000000081526004016126e990615472565b60405180910390fd5b600073ffffffffffffffffffffffffffffffffffffffff168273ffffffffffffffffffffffffffffffffffffffff161415612762576040517f08c379a000000000000000000000000000000000000000000000000000000000815260040161275990615412565b60405180910390fd5b600b829080600181540180825580915050600190039060005260206000200160009091909190916101000a81548173ffffffffffffffffffffffffffffffffffffffff021916908373ffffffffffffffffffffffffffffffffffffffff16021790555060019050919050565b60006064826127dd9190615911565b9050919050565b600a60009054906101000a900473ffffffffffffffffffffffffffffffffffffffff1681565b6000806000806006805490508510612857576040517f08c379a000000000000000000000000000000000000000000000000000000000815260040161284e906155b2565b60405180910390fd5b60068581548110612891577f4e487b7100000000000000000000000000000000000000000000000000000000600052603260045260246000fd5b906000526020600020906005020160010154600686815481106128dd577f4e487b7100000000000000000000000000000000000000000000000000000000600052603260045260246000fd5b90600052602060002090600502016002015460068781548110612929577f4e487b7100000000000000000000000000000000000000000000000000000000600052603260045260246000fd5b906000526020600020906005020160030160009054906101000a900473ffffffffffffffffffffffffffffffffffffffff1660068881548110612995577f4e487b7100000000000000000000000000000000000000000000000000000000600052603260045260246000fd5b90600052602060002090600502016004015493509350935093509193509193565b6000600160008473ffffffffffffffffffffffffffffffffffffffff1673ffffffffffffffffffffffffffffffffffffffff16815260200190815260200160002060008373ffffffffffffffffffffffffffffffffffffffff1673ffffffffffffffffffffffffffffffffffffffff16815260200190815260200160002060009054906101000a900460ff16905092915050565b600073ffffffffffffffffffffffffffffffffffffffff168473ffffffffffffffffffffffffffffffffffffffff161415612aba576040517f08c379a0000000000000000000000000000000000000000000000000000000008152600401612ab1906153b2565b60405180910390fd5b612ac2613a3b565b73ffffffffffffffffffffffffffffffffffffffff168573ffffffffffffffffffffffffffffffffffffffff161480612b085750612b0785612b02613a3b565b6129b6565b5b612b47576040517f08c379a0000000000000000000000000000000000000000000000000000000008152600401612b3e90615332565b60405180910390fd5b6000612b51613a3b565b9050612b71818787612b6288613dc8565b612b6b88613dc8565b87613a43565b600080600086815260200190815260200160002060008873ffffffffffffffffffffffffffffffffffffffff1673ffffffffffffffffffffffffffffffffffffffff16815260200190815260200160002054905083811015612c08576040517f08c379a0000000000000000000000000000000000000000000000000000000008152600401612bff90615452565b60405180910390fd5b8381612c14919061599c565b60008087815260200190815260200160002060008973ffffffffffffffffffffffffffffffffffffffff1673ffffffffffffffffffffffffffffffffffffffff168152602001908152602001600020819055508360008087815260200190815260200160002060008873ffffffffffffffffffffffffffffffffffffffff1673ffffffffffffffffffffffffffffffffffffffff1681526020019081526020016000206000828254612cc691906158bb565b925050819055508573ffffffffffffffffffffffffffffffffffffffff168773ffffffffffffffffffffffffffffffffffffffff168373ffffffffffffffffffffffffffffffffffffffff167fc3d58168c5ae7397731d063d5bbf3d657854427343f4c083240f7aacaa2d0f628888604051612d4392919061568d565b60405180910390a4612d59828888888888613e8e565b50505050505050565b612d6a613a3b565b73ffffffffffffffffffffffffffffffffffffffff16612d88611f8a565b73ffffffffffffffffffffffffffffffffffffffff1614612dde576040517f08c379a0000000000000000000000000000000000000000000000000000000008152600401612dd590615472565b60405180910390fd5b600073ffffffffffffffffffffffffffffffffffffffff168173ffffffffffffffffffffffffffffffffffffffff161415612e4e576040517f08c379a0000000000000000000000000000000000000000000000000000000008152600401612e4590615312565b60405180910390fd5b8073ffffffffffffffffffffffffffffffffffffffff16600360009054906101000a900473ffffffffffffffffffffffffffffffffffffffff1673ffffffffffffffffffffffffffffffffffffffff167f8be0079c531659141344cd1fd0a4f28419497f9722a3daafe3b4186f6b6457e060405160405180910390a380600360006101000a81548173ffffffffffffffffffffffffffffffffffffffff021916908373ffffffffffffffffffffffffffffffffffffffff16021790555050565b612f16613a3b565b73ffffffffffffffffffffffffffffffffffffffff16612f34611f8a565b73ffffffffffffffffffffffffffffffffffffffff1614612f8a576040517f08c379a0000000000000000000000000000000000000000000000000000000008152600401612f8190615472565b60405180910390fd5b6006805490508110612fd1576040517f08c379a0000000000000000000000000000000000000000000000000000000008152600401612fc8906155b2565b60405180910390fd5b6006818154811061300b577f4e487b7100000000000000000000000000000000000000000000000000000000600052603260045260246000fd5b9060005260206000209060050201600080820160009055600182016000905560028201600090556003820160006101000a81549073ffffffffffffffffffffffffffffffffffffffff02191690556004820160009055505050565b60068054905084106130ad576040517f08c379a00000000000000000000000000000000000000000000000000000000081526004016130a4906155b2565b60405180910390fd5b60008311806130bc5750600082115b6130fb576040517f08c379a00000000000000000000000000000000000000000000000000000000081526004016130f2906154f2565b60405180910390fd5b60008111801561315f57508061315c3360068781548110613145577f4e487b7100000000000000000000000000000000000000000000000000000000600052603260045260246000fd5b9060005260206000209060050201600001546108b9565b10155b61319e576040517f08c379a000000000000000000000000000000000000000000000000000000000815260040161319590615592565b60405180910390fd5b82600685815481106131d9577f4e487b7100000000000000000000000000000000000000000000000000000000600052603260045260246000fd5b9060005260206000209060050201600101819055508160068581548110613229577f4e487b7100000000000000000000000000000000000000000000000000000000600052603260045260246000fd5b9060005260206000209060050201600201819055508060068581548110613279577f4e487b7100000000000000000000000000000000000000000000000000000000600052603260045260246000fd5b90600052602060002090600502016004018190555050505050565b60068054905083106132db576040517f08c379a00000000000000000000000000000000000000000000000000000000081526004016132d290615632565b60405180910390fd5b60068381548110613315577f4e487b7100000000000000000000000000000000000000000000000000000000600052603260045260246000fd5b906000526020600020906005020160040154821115613369576040517f08c379a000000000000000000000000000000000000000000000000000000000815260040161336090615572565b60405180910390fd5b61343b33600685815481106133a7577f4e487b7100000000000000000000000000000000000000000000000000000000600052603260045260246000fd5b906000526020600020906005020160030160009054906101000a900473ffffffffffffffffffffffffffffffffffffffff1660068681548110613413577f4e487b7100000000000000000000000000000000000000000000000000000000600052603260045260246000fd5b9060005260206000209060050201600001548560405180602001604052806000815250612a4a565b60068381548110613475577f4e487b7100000000000000000000000000000000000000000000000000000000600052603260045260246000fd5b90600052602060002090600502016004015482141561349c5761349783612f0e565b613543565b81600684815481106134d7577f4e487b7100000000000000000000000000000000000000000000000000000000600052603260045260246000fd5b9060005260206000209060050201600401546134f3919061599c565b6006848154811061352d577f4e487b7100000000000000000000000000000000000000000000000000000000600052603260045260246000fd5b9060005260206000209060050201600401819055505b60008114156137345760068381548110613586577f4e487b7100000000000000000000000000000000000000000000000000000000600052603260045260246000fd5b906000526020600020906005020160030160009054906101000a900473ffffffffffffffffffffffffffffffffffffffff1673ffffffffffffffffffffffffffffffffffffffff166108fc6136256006868154811061360e577f4e487b7100000000000000000000000000000000000000000000000000000000600052603260045260246000fd5b9060005260206000209060050201600101546124f2565b9081150290604051600060405180830381858888f19350505050158015613650573d6000803e3d6000fd5b50600960009054906101000a900473ffffffffffffffffffffffffffffffffffffffff1673ffffffffffffffffffffffffffffffffffffffff166136de600685815481106136c7577f4e487b7100000000000000000000000000000000000000000000000000000000600052603260045260246000fd5b906000526020600020906005020160010154611b6c565b6040516136ea90615028565b60006040518083038185875af1925050503d8060008114613727576040519150601f19603f3d011682016040523d82523d6000602084013e61372c565b606091505b5050506139cc565b600a60009054906101000a900473ffffffffffffffffffffffffffffffffffffffff1673ffffffffffffffffffffffffffffffffffffffff166323b872dd33600960009054906101000a900473ffffffffffffffffffffffffffffffffffffffff166137ea600688815481106137d3577f4e487b7100000000000000000000000000000000000000000000000000000000600052603260045260246000fd5b906000526020600020906005020160020154611b6c565b6040518463ffffffff1660e01b815260040161380893929190615058565b602060405180830381600087803b15801561382257600080fd5b505af1158015613836573d6000803e3d6000fd5b505050506040513d601f19601f8201168201806040525081019061385a91906147ef565b50600a60009054906101000a900473ffffffffffffffffffffffffffffffffffffffff1673ffffffffffffffffffffffffffffffffffffffff166323b872dd33600686815481106138d4577f4e487b7100000000000000000000000000000000000000000000000000000000600052603260045260246000fd5b906000526020600020906005020160030160009054906101000a900473ffffffffffffffffffffffffffffffffffffffff1661395a60068881548110613943577f4e487b7100000000000000000000000000000000000000000000000000000000600052603260045260246000fd5b9060005260206000209060050201600201546124f2565b6040518463ffffffff1660e01b815260040161397893929190615058565b602060405180830381600087803b15801561399257600080fd5b505af11580156139a6573d6000803e3d6000fd5b505050506040513d601f19601f820116820180604052508101906139ca91906147ef565b505b505050565b60007f01ffc9a7000000000000000000000000000000000000000000000000000000007bffffffffffffffffffffffffffffffffffffffffffffffffffffffff1916827bffffffffffffffffffffffffffffffffffffffffffffffffffffffff1916149050919050565b600033905090565b505050505050565b613a6a8473ffffffffffffffffffffffffffffffffffffffff16614075565b15613c2a578373ffffffffffffffffffffffffffffffffffffffff1663bc197c8187878686866040518663ffffffff1660e01b8152600401613ab095949392919061508f565b602060405180830381600087803b158015613aca57600080fd5b505af1925050508015613afb57506040513d601f19601f82011682018060405250810190613af89190614841565b60015b613ba157613b07615c48565b806308c379a01415613b645750613b1c6164a0565b80613b275750613b66565b806040517f08c379a0000000000000000000000000000000000000000000000000000000008152600401613b5b9190615202565b60405180910390fd5b505b6040517f08c379a0000000000000000000000000000000000000000000000000000000008152600401613b9890615292565b60405180910390fd5b63bc197c8160e01b7bffffffffffffffffffffffffffffffffffffffffffffffffffffffff1916817bffffffffffffffffffffffffffffffffffffffffffffffffffffffff191614613c28576040517f08c379a0000000000000000000000000000000000000000000000000000000008152600401613c1f906152b2565b60405180910390fd5b505b505050505050565b600073ffffffffffffffffffffffffffffffffffffffff168473ffffffffffffffffffffffffffffffffffffffff161415613ca2576040517f08c379a0000000000000000000000000000000000000000000000000000000008152600401613c9990615652565b60405180910390fd5b6000613cac613a3b565b9050613ccd81600087613cbe88613dc8565b613cc788613dc8565b87613a43565b8260008086815260200190815260200160002060008773ffffffffffffffffffffffffffffffffffffffff1673ffffffffffffffffffffffffffffffffffffffff1681526020019081526020016000206000828254613d2c91906158bb565b925050819055508473ffffffffffffffffffffffffffffffffffffffff16600073ffffffffffffffffffffffffffffffffffffffff168273ffffffffffffffffffffffffffffffffffffffff167fc3d58168c5ae7397731d063d5bbf3d657854427343f4c083240f7aacaa2d0f628787604051613daa92919061568d565b60405180910390a4613dc181600087878787613e8e565b5050505050565b60606000600167ffffffffffffffff811115613e0d577f4e487b7100000000000000000000000000000000000000000000000000000000600052604160045260246000fd5b604051908082528060200260200182016040528015613e3b5781602001602082028036833780820191505090505b5090508281600081518110613e79577f4e487b7100000000000000000000000000000000000000000000000000000000600052603260045260246000fd5b60200260200101818152505080915050919050565b613ead8473ffffffffffffffffffffffffffffffffffffffff16614075565b1561406d578373ffffffffffffffffffffffffffffffffffffffff1663f23a6e6187878686866040518663ffffffff1660e01b8152600401613ef39594939291906150f7565b602060405180830381600087803b158015613f0d57600080fd5b505af1925050508015613f3e57506040513d601f19601f82011682018060405250810190613f3b9190614841565b60015b613fe457613f4a615c48565b806308c379a01415613fa75750613f5f6164a0565b80613f6a5750613fa9565b806040517f08c379a0000000000000000000000000000000000000000000000000000000008152600401613f9e9190615202565b60405180910390fd5b505b6040517f08c379a0000000000000000000000000000000000000000000000000000000008152600401613fdb90615292565b60405180910390fd5b63f23a6e6160e01b7bffffffffffffffffffffffffffffffffffffffffffffffffffffffff1916817bffffffffffffffffffffffffffffffffffffffffffffffffffffffff19161461406b576040517f08c379a0000000000000000000000000000000000000000000000000000000008152600401614062906152b2565b60405180910390fd5b505b505050505050565b600080823b905060008111915050919050565b82805461409490615ae0565b90600052602060002090601f0160209004810192826140b657600085556140fd565b82601f106140cf57805160ff19168380011785556140fd565b828001600101855582156140fd579182015b828111156140fc5782518255916020019190600101906140e1565b5b50905061410a919061414e565b5090565b50805461411a90615ae0565b6000825580601f1061412c575061414b565b601f01602090049060005260206000209081019061414a919061414e565b5b50565b5b8082111561416757600081600090555060010161414f565b5090565b600061417e61417984615720565b6156fb565b9050808382526020820190508285602086028201111561419d57600080fd5b60005b858110156141cd57816141b38882614345565b8452602084019350602083019250506001810190506141a0565b5050509392505050565b60006141ea6141e58461574c565b6156fb565b9050808382526020820190508285602086028201111561420957600080fd5b60005b8581101561425357813567ffffffffffffffff81111561422b57600080fd5b8086016142388982614456565b8552602085019450602084019350505060018101905061420c565b5050509392505050565b600061427061426b84615778565b6156fb565b9050808382526020820190508285602086028201111561428f57600080fd5b60005b858110156142bf57816142a58882614480565b845260208401935060208301925050600181019050614292565b5050509392505050565b60006142dc6142d7846157a4565b6156fb565b9050828152602081018484840111156142f457600080fd5b6142ff848285615a9e565b509392505050565b600061431a614315846157d5565b6156fb565b90508281526020810184848401111561433257600080fd5b61433d848285615a9e565b509392505050565b60008135905061435481616536565b92915050565b600082601f83011261436b57600080fd5b813561437b84826020860161416b565b91505092915050565b600082601f83011261439557600080fd5b81356143a58482602086016141d7565b91505092915050565b600082601f8301126143bf57600080fd5b81356143cf84826020860161425d565b91505092915050565b6000813590506143e78161654d565b92915050565b6000815190506143fc8161654d565b92915050565b60008135905061441181616564565b92915050565b60008151905061442681616564565b92915050565b600082601f83011261443d57600080fd5b813561444d8482602086016142c9565b91505092915050565b600082601f83011261446757600080fd5b8135614477848260208601614307565b91505092915050565b60008135905061448f8161657b565b92915050565b6000602082840312156144a757600080fd5b60006144b584828501614345565b91505092915050565b600080604083850312156144d157600080fd5b60006144df85828601614345565b92505060206144f085828601614345565b9150509250929050565b600080600080600060a0868803121561451257600080fd5b600061452088828901614345565b955050602061453188828901614345565b945050604086013567ffffffffffffffff81111561454e57600080fd5b61455a888289016143ae565b935050606086013567ffffffffffffffff81111561457757600080fd5b614583888289016143ae565b925050608086013567ffffffffffffffff8111156145a057600080fd5b6145ac8882890161442c565b9150509295509295909350565b600080600080600060a086880312156145d157600080fd5b60006145df88828901614345565b95505060206145f088828901614345565b945050604061460188828901614480565b935050606061461288828901614480565b925050608086013567ffffffffffffffff81111561462f57600080fd5b61463b8882890161442c565b9150509295509295909350565b6000806040838503121561465b57600080fd5b600061466985828601614345565b925050602061467a858286016143d8565b9150509250929050565b6000806040838503121561469757600080fd5b60006146a585828601614345565b92505060206146b685828601614480565b9150509250929050565b600080604083850312156146d357600080fd5b600083013567ffffffffffffffff8111156146ed57600080fd5b6146f98582860161435a565b925050602083013567ffffffffffffffff81111561471657600080fd5b614722858286016143ae565b9150509250929050565b6000806000806080858703121561474257600080fd5b600085013567ffffffffffffffff81111561475c57600080fd5b61476887828801614384565b945050602085013567ffffffffffffffff81111561478557600080fd5b614791878288016143ae565b935050604085013567ffffffffffffffff8111156147ae57600080fd5b6147ba878288016143ae565b925050606085013567ffffffffffffffff8111156147d757600080fd5b6147e3878288016143ae565b91505092959194509250565b60006020828403121561480157600080fd5b600061480f848285016143ed565b91505092915050565b60006020828403121561482a57600080fd5b600061483884828501614402565b91505092915050565b60006020828403121561485357600080fd5b600061486184828501614417565b91505092915050565b60006020828403121561487c57600080fd5b600082013567ffffffffffffffff81111561489657600080fd5b6148a284828501614456565b91505092915050565b600080600080608085870312156148c157600080fd5b600085013567ffffffffffffffff8111156148db57600080fd5b6148e787828801614456565b94505060206148f887828801614480565b935050604061490987828801614480565b925050606061491a87828801614480565b91505092959194509250565b60006020828403121561493857600080fd5b600061494684828501614480565b91505092915050565b60008060006060848603121561496457600080fd5b600061497286828701614480565b935050602061498386828701614480565b925050604061499486828701614480565b9150509250925092565b600080600080608085870312156149b457600080fd5b60006149c287828801614480565b94505060206149d387828801614480565b93505060406149e487828801614480565b92505060606149f587828801614480565b91505092959194509250565b6000614a0d8383614a40565b60208301905092915050565b6000614a25838361500a565b60208301905092915050565b614a3a81615a44565b82525050565b614a49816159d0565b82525050565b614a58816159d0565b82525050565b6000614a6982615826565b614a73818561586c565b9350614a7e83615806565b8060005b83811015614aaf578151614a968882614a01565b9750614aa183615852565b925050600181019050614a82565b5085935050505092915050565b6000614ac782615831565b614ad1818561587d565b9350614adc83615816565b8060005b83811015614b0d578151614af48882614a19565b9750614aff8361585f565b925050600181019050614ae0565b5085935050505092915050565b614b23816159e2565b82525050565b6000614b348261583c565b614b3e818561588e565b9350614b4e818560208601615aad565b614b5781615c6a565b840191505092915050565b614b6b81615a56565b82525050565b6000614b7c82615847565b614b8681856158aa565b9350614b96818560208601615aad565b614b9f81615c6a565b840191505092915050565b6000614bb76034836158aa565b9150614bc282615c88565b604082019050919050565b6000614bda6028836158aa565b9150614be582615cd7565b604082019050919050565b6000614bfd602b836158aa565b9150614c0882615d26565b604082019050919050565b6000614c206029836158aa565b9150614c2b82615d75565b604082019050919050565b6000614c436026836158aa565b9150614c4e82615dc4565b604082019050919050565b6000614c666029836158aa565b9150614c7182615e13565b604082019050919050565b6000614c89601e836158aa565b9150614c9482615e62565b602082019050919050565b6000614cac6010836158aa565b9150614cb782615e8b565b602082019050919050565b6000614ccf6006836158aa565b9150614cda82615eb4565b602082019050919050565b6000614cf26025836158aa565b9150614cfd82615edd565b604082019050919050565b6000614d156032836158aa565b9150614d2082615f2c565b604082019050919050565b6000614d386028836158aa565b9150614d4382615f7b565b604082019050919050565b6000614d5b6018836158aa565b9150614d6682615fca565b602082019050919050565b6000614d7e6026836158aa565b9150614d8982615ff3565b604082019050919050565b6000614da1602a836158aa565b9150614dac82616042565b604082019050919050565b6000614dc46020836158aa565b9150614dcf82616091565b602082019050919050565b6000614de7601d836158aa565b9150614df2826160ba565b602082019050919050565b6000614e0a6026836158aa565b9150614e15826160e3565b604082019050919050565b6000614e2d6022836158aa565b9150614e3882616132565b604082019050919050565b6000614e50601d836158aa565b9150614e5b82616181565b602082019050919050565b6000614e73601a836158aa565b9150614e7e826161aa565b602082019050919050565b6000614e9660008361589f565b9150614ea1826161d3565b600082019050919050565b6000614eb9602c836158aa565b9150614ec4826161d6565b604082019050919050565b6000614edc6024836158aa565b9150614ee782616225565b604082019050919050565b6000614eff6020836158aa565b9150614f0a82616274565b602082019050919050565b6000614f22601b836158aa565b9150614f2d8261629d565b602082019050919050565b6000614f456027836158aa565b9150614f50826162c6565b604082019050919050565b6000614f686029836158aa565b9150614f7382616315565b604082019050919050565b6000614f8b6029836158aa565b9150614f9682616364565b604082019050919050565b6000614fae6028836158aa565b9150614fb9826163b3565b604082019050919050565b6000614fd1602d836158aa565b9150614fdc82616402565b604082019050919050565b6000614ff46021836158aa565b9150614fff82616451565b604082019050919050565b61501381615a3a565b82525050565b61502281615a3a565b82525050565b600061503382614e89565b9150819050919050565b60006020820190506150526000830184614a4f565b92915050565b600060608201905061506d6000830186614a4f565b61507a6020830185614a31565b6150876040830184615019565b949350505050565b600060a0820190506150a46000830188614a4f565b6150b16020830187614a4f565b81810360408301526150c38186614abc565b905081810360608301526150d78185614abc565b905081810360808301526150eb8184614b29565b90509695505050505050565b600060a08201905061510c6000830188614a4f565b6151196020830187614a4f565b6151266040830186615019565b6151336060830185615019565b81810360808301526151458184614b29565b90509695505050505050565b6000602082019050818103600083015261516b8184614a5e565b905092915050565b6000602082019050818103600083015261518d8184614abc565b905092915050565b600060408201905081810360008301526151af8185614abc565b905081810360208301526151c38184614abc565b90509392505050565b60006020820190506151e16000830184614b1a565b92915050565b60006020820190506151fc6000830184614b62565b92915050565b6000602082019050818103600083015261521c8184614b71565b905092915050565b6000604082019050818103600083015261523e8185614b71565b905061524d6020830184614a4f565b9392505050565b6000606082019050818103600083015261526e8186614b71565b905061527d6020830185615019565b61528a6040830184615019565b949350505050565b600060208201905081810360008301526152ab81614baa565b9050919050565b600060208201905081810360008301526152cb81614bcd565b9050919050565b600060208201905081810360008301526152eb81614bf0565b9050919050565b6000602082019050818103600083015261530b81614c13565b9050919050565b6000602082019050818103600083015261532b81614c36565b9050919050565b6000602082019050818103600083015261534b81614c59565b9050919050565b6000602082019050818103600083015261536b81614c7c565b9050919050565b6000602082019050818103600083015261538b81614c9f565b9050919050565b600060208201905081810360008301526153ab81614cc2565b9050919050565b600060208201905081810360008301526153cb81614ce5565b9050919050565b600060208201905081810360008301526153eb81614d08565b9050919050565b6000602082019050818103600083015261540b81614d2b565b9050919050565b6000602082019050818103600083015261542b81614d4e565b9050919050565b6000602082019050818103600083015261544b81614d71565b9050919050565b6000602082019050818103600083015261546b81614d94565b9050919050565b6000602082019050818103600083015261548b81614db7565b9050919050565b600060208201905081810360008301526154ab81614dda565b9050919050565b600060208201905081810360008301526154cb81614dfd565b9050919050565b600060208201905081810360008301526154eb81614e20565b9050919050565b6000602082019050818103600083015261550b81614e43565b9050919050565b6000602082019050818103600083015261552b81614e66565b9050919050565b6000602082019050818103600083015261554b81614eac565b9050919050565b6000602082019050818103600083015261556b81614ecf565b9050919050565b6000602082019050818103600083015261558b81614ef2565b9050919050565b600060208201905081810360008301526155ab81614f15565b9050919050565b600060208201905081810360008301526155cb81614f38565b9050919050565b600060208201905081810360008301526155eb81614f5b565b9050919050565b6000602082019050818103600083015261560b81614f7e565b9050919050565b6000602082019050818103600083015261562b81614fa1565b9050919050565b6000602082019050818103600083015261564b81614fc4565b9050919050565b6000602082019050818103600083015261566b81614fe7565b9050919050565b60006020820190506156876000830184615019565b92915050565b60006040820190506156a26000830185615019565b6156af6020830184615019565b9392505050565b60006080820190506156cb6000830187615019565b6156d86020830186615019565b6156e56040830185614a4f565b6156f26060830184615019565b95945050505050565b6000615705615716565b90506157118282615b12565b919050565b6000604051905090565b600067ffffffffffffffff82111561573b5761573a615c19565b5b602082029050602081019050919050565b600067ffffffffffffffff82111561576757615766615c19565b5b602082029050602081019050919050565b600067ffffffffffffffff82111561579357615792615c19565b5b602082029050602081019050919050565b600067ffffffffffffffff8211156157bf576157be615c19565b5b6157c882615c6a565b9050602081019050919050565b600067ffffffffffffffff8211156157f0576157ef615c19565b5b6157f982615c6a565b9050602081019050919050565b6000819050602082019050919050565b6000819050602082019050919050565b600081519050919050565b600081519050919050565b600081519050919050565b600081519050919050565b6000602082019050919050565b6000602082019050919050565b600082825260208201905092915050565b600082825260208201905092915050565b600082825260208201905092915050565b600081905092915050565b600082825260208201905092915050565b60006158c682615a3a565b91506158d183615a3a565b9250827fffffffffffffffffffffffffffffffffffffffffffffffffffffffffffffffff0382111561590657615905615b8c565b5b828201905092915050565b600061591c82615a3a565b915061592783615a3a565b92508261593757615936615bbb565b5b828204905092915050565b600061594d82615a3a565b915061595883615a3a565b9250817fffffffffffffffffffffffffffffffffffffffffffffffffffffffffffffffff048311821515161561599157615990615b8c565b5b828202905092915050565b60006159a782615a3a565b91506159b283615a3a565b9250828210156159c5576159c4615b8c565b5b828203905092915050565b60006159db82615a1a565b9050919050565b60008115159050919050565b60007fffffffff0000000000000000000000000000000000000000000000000000000082169050919050565b600073ffffffffffffffffffffffffffffffffffffffff82169050919050565b6000819050919050565b6000615a4f82615a7a565b9050919050565b6000615a6182615a68565b9050919050565b6000615a7382615a1a565b9050919050565b6000615a8582615a8c565b9050919050565b6000615a9782615a1a565b9050919050565b82818337600083830152505050565b60005b83811015615acb578082015181840152602081019050615ab0565b83811115615ada576000848401525b50505050565b60006002820490506001821680615af857607f821691505b60208210811415615b0c57615b0b615bea565b5b50919050565b615b1b82615c6a565b810181811067ffffffffffffffff82111715615b3a57615b39615c19565b5b80604052505050565b6000615b4e82615a3a565b91507fffffffffffffffffffffffffffffffffffffffffffffffffffffffffffffffff821415615b8157615b80615b8c565b5b600182019050919050565b7f4e487b7100000000000000000000000000000000000000000000000000000000600052601160045260246000fd5b7f4e487b7100000000000000000000000000000000000000000000000000000000600052601260045260246000fd5b7f4e487b7100000000000000000000000000000000000000000000000000000000600052602260045260246000fd5b7f4e487b7100000000000000000000000000000000000000000000000000000000600052604160045260246000fd5b600060033d1115615c675760046000803e615c64600051615c7b565b90505b90565b6000601f19601f8301169050919050565b60008160e01c9050919050565b7f455243313135353a207472616e7366657220746f206e6f6e204552433131353560008201527f526563656976657220696d706c656d656e746572000000000000000000000000602082015250565b7f455243313135353a204552433131353552656365697665722072656a6563746560008201527f6420746f6b656e73000000000000000000000000000000000000000000000000602082015250565b7f455243313135353a2062616c616e636520717565727920666f7220746865207a60008201527f65726f2061646472657373000000000000000000000000000000000000000000602082015250565b7f69645f20686173206e6f7420616c72656164792073657420696e20746865206260008201527f6c61636b206c6973740000000000000000000000000000000000000000000000602082015250565b7f4f776e61626c653a206e6577206f776e657220697320746865207a65726f206160008201527f6464726573730000000000000000000000000000000000000000000000000000602082015250565b7f455243313135353a2063616c6c6572206973206e6f74206f776e6572206e6f7260008201527f20617070726f7665640000000000000000000000000000000000000000000000602082015250565b7f6d73672e73656e6465722068617320746f206265636f6d652061646d696e0000600082015250565b7f686176652073616d6520616d6f756e7400000000000000000000000000000000600082015250565b7f3125206665650000000000000000000000000000000000000000000000000000600082015250565b7f455243313135353a207472616e7366657220746f20746865207a65726f20616460008201527f6472657373000000000000000000000000000000000000000000000000000000602082015250565b7f455243313135353a207472616e736665722063616c6c6572206973206e6f742060008201527f6f776e6572206e6f7220617070726f7665640000000000000000000000000000602082015250565b7f616d6f756e742063616e206e6f74206265207a65726f206f72206c657373207460008201527f68616e207a65726f000000000000000000000000000000000000000000000000602082015250565b7f616464726573732063616e206e6f7420626520656d7074790000000000000000600082015250565b7f49442068617320746f206265206c657373207468616e206e6674206c6973742060008201527f6c656e6774680000000000000000000000000000000000000000000000000000602082015250565b7f455243313135353a20696e73756666696369656e742062616c616e636520666f60008201527f72207472616e7366657200000000000000000000000000000000000000000000602082015250565b7f4f776e61626c653a2063616c6c6572206973206e6f7420746865206f776e6572600082015250565b7f686173685f2063616e206e6f7420626520656d70747920737472696e67000000600082015250565b7f69645f2068617320746f206265206c657373207468616e20617272617920636160008201527f7061636974790000000000000000000000000000000000000000000000000000602082015250565b7f69645f2068617320746f206265206c657373207468616e206e6674206c656e6760008201527f7468000000000000000000000000000000000000000000000000000000000000602082015250565b7f736574206174206c65617374206f6e65206f662074776f20636f696e73000000600082015250565b7f70726963655f2068617320746f20626520617661696c61626c65000000000000600082015250565b50565b7f69642068617320746f206265206c657373207468616e2074686520636f6c6c6560008201527f6374696f6e20616d6f756e740000000000000000000000000000000000000000602082015250565b7f546f6b656e206f6620626c61636b206c6973742063616e206e6f74206265207360008201527f6f6c642e00000000000000000000000000000000000000000000000000000000602082015250565b7f616d6f756e742068617320746f206c657373207468616e206361706163697479600082015250565b7f616d6f756e745f2068617320746f20626520617661696c61626c650000000000600082015250565b7f49442068617320746f206265206c657373207468616e2073656c6c206c69737460008201527f206c656e67746800000000000000000000000000000000000000000000000000602082015250565b7f455243313135353a2073657474696e6720617070726f76616c2073746174757360008201527f20666f722073656c660000000000000000000000000000000000000000000000602082015250565b7f455243313135353a206163636f756e747320616e6420696473206c656e67746860008201527f206d69736d617463680000000000000000000000000000000000000000000000602082015250565b7f455243313135353a2069647320616e6420616d6f756e7473206c656e6774682060008201527f6d69736d61746368000000000000000000000000000000000000000000000000602082015250565b7f73656c6c5f69645f2068617320746f206265206c657373207468616e2073656c60008201527f6c206c697374206c656e67746800000000000000000000000000000000000000602082015250565b7f455243313135353a206d696e7420746f20746865207a65726f2061646472657360008201527f7300000000000000000000000000000000000000000000000000000000000000602082015250565b600060443d10156164b057616533565b6164b8615716565b60043d036004823e80513d602482011167ffffffffffffffff821117156164e0575050616533565b808201805167ffffffffffffffff8111156164fe5750505050616533565b80602083010160043d03850181111561651b575050505050616533565b61652a82602001850186615b12565b82955050505050505b90565b61653f816159d0565b811461654a57600080fd5b50565b616556816159e2565b811461656157600080fd5b50565b61656d816159ee565b811461657857600080fd5b50565b61658481615a3a565b811461658f57600080fd5b5056fea2646970667358221220226cdc9b61045e1618ed7a7b0559fe0524eed4e3c4268f2564880e37da477e7364736f6c63430008040033",
  "immutableReferences": {},
  "source": "pragma solidity ^0.8.0;\n\nimport \"@openzeppelin/contracts/token/ERC1155/ERC1155.sol\";\nimport \"@openzeppelin/contracts/access/Ownable.sol\";\nimport \"@openzeppelin/contracts/token/ERC20/IERC20.sol\";\n\ncontract Meme is ERC1155, Ownable{\n    \n    struct NFT {\n        string hash_;\n        uint e_price_;\n        uint d_price_;\n    }\n    NFT[] nft_list;\n    struct Collection {\n        string hash_;\n        address creator_;\n    }\n    Collection[] collection_list;\n    struct Sell {\n        uint nft_id_;\n        uint e_price_;\n        uint d_price_;\n        address payable owner_;\n        uint amount_;\n    }\n    Sell[] sell_list;\n\n    uint[] black_list;\n    mapping (uint => bool) isBlacklist;\n\n    address payable eth_receiver;\n\n    IERC20 public dankToken;\n\n    address[] public admin_list;\n\n    constructor(\n        address payable _ethReceiver,\n        IERC20 dankToken_\n    ) ERC1155(\"\") Ownable() {\n        require(_ethReceiver != address(0));\n        require(address(dankToken_) != address(0), \"Invalid token\");\n        eth_receiver = _ethReceiver;\n        dankToken = dankToken_;\n        admin_list.push(eth_receiver);\n    }\n\n    function Set_admin (address new_admin_) public onlyOwner returns (bool) {\n        require(new_admin_ != address(0), \"address can not be empty\");\n        // require(new_admin_ != eth_receiver, \"main administrator can not be pushed\");\n\n        admin_list.push(new_admin_);\n\n        return true;\n    }\n\n    function Get_admin () public view returns (address[] memory) {\n        return admin_list;\n    }\n\n    function Remove_admin (uint id_) public onlyOwner returns (bool) {\n        require(id_ < admin_list.length, \"id_ has to be less than array capacity\");\n\n        delete admin_list[id_];\n\n        return true;\n    }\n\n    function is_admin(address user_) public view returns (bool) {\n        for (uint i = 0 ; i < admin_list.length ; i++) {\n            if (admin_list[i] == user_)\n                return true;\n        }\n        return false;\n    }\n\n    function Set_nft (string memory hash_, uint amount_, uint e_price_, uint d_price_) public {\n        // require : hash_ can not be empty string\n        require(bytes(hash_).length > 0, \"hash_ can not be empty string\");\n        // require : amount can not be zero or less than zero\n        require(amount_ > 0, \"amount can not be zero or less than zero\");\n        _mint(msg.sender, nft_list.length, amount_, \"\");\n\n        NFT memory temp = NFT(hash_, e_price_, d_price_);\n        nft_list.push(temp);\n    }\n    //(bool platformTransferSuccess,) = platformFeeRecipient.call{value : platformFeeInETH}(\"\");\n    //require(platformTransferSuccess, \"NFTAuction.resultAuction: Failed to send platform fee\");\n    function Batch_set_nft (string[] memory hashes_, uint[] memory amounts_, uint[] memory e_prices_, uint[] memory d_prices_) public {\n        require(hashes_.length == amounts_.length, \"have same amount\");\n        require(hashes_.length == e_prices_.length, \"have same amount\");\n        require(hashes_.length == d_prices_.length, \"have same amount\");\n\n        for (uint i = 0 ; i < hashes_.length ; i++) {\n            Set_nft(hashes_[i], amounts_[i], e_prices_[i], d_prices_[i]);\n        }\n    }\n\n    function Set_collection(string memory hash_) public {\n        // require : hash_ can not be empty string\n        require(bytes(hash_).length > 0, \"hash_ can not be empty string\");\n        // require : msg.sender has to be admin list\n        require(is_admin(msg.sender), \"msg.sender has to become admin\");\n\n        Collection memory temp = Collection(hash_, msg.sender);\n        collection_list.push(temp);\n    }\n\n    function Get_collection(uint id_) public view returns (string memory, address) {\n        // require : id has to be less than the collection amount\n        require( id_ < collection_list.length, \"id has to be less than the collection amount\");\n\n        return (\n            collection_list[id_].hash_,\n            collection_list[id_].creator_\n        );\n    }\n\n    function Remove_collection(uint id_) public returns (bool) {\n        // require : id has to be less than the collection amount\n        require( id_ < collection_list.length, \"id has to be less than the collection amount\");\n        // require : msg.sender has to be admin list\n        require(is_admin(msg.sender), \"msg.sender has to become admin\");\n\n        delete collection_list[id_];\n\n        return true;\n    }\n\n    function Get_nft (uint id_) public view returns (string memory, uint, uint) {\n        return (\n            nft_list[id_].hash_,\n            nft_list[id_].e_price_,\n            nft_list[id_].d_price_\n        );\n    }\n\n    function Get_nft_amount () public view returns (uint) {\n        return nft_list.length;\n    }\n\n    function Get_list_fee (uint price_) public view returns (uint) {\n        return (price_/100);\n    }\n    function Set_sell (uint id_, uint e_price_, uint d_price_, uint amount_) public payable returns(uint){\n        // require : id_ is avaliable \n        require( id_ < nft_list.length, \"ID has to be less than nft list length\");\n        // require : set at least one of two coins\n        require ( (e_price_ > 0) || (d_price_ > 0), \"set at least one of two coins\");\n        // require : 1% fee\n        if ( e_price_ == 0 && d_price_ > 0) {\n            require(Get_list_fee(d_price_) * amount_ == msg.value, \"1% fee\");\n            dankToken.transferFrom(msg.sender, eth_receiver, Get_list_fee(d_price_));\n        } else if ( e_price_ > 0 && d_price_ == 0) {\n            require(Get_list_fee(e_price_) * amount_ == msg.value, \"1% fee\");\n            eth_receiver.call{value: Get_list_fee(e_price_)}(\"\");\n        } \n\n        // if ( e_price_ == 0 && d_price_ > 0) {\n        //     require(Get_list_fee(d_price_) * amount_ == msg.value, \"1% fee\");\n        //     dankToken.transferFrom(msg.sender, eth_receiver, Get_list_fee(d_price_));\n        // } else if ( e_price_ > 0 && d_price_ == 0) {\n        //     require(Get_list_fee(e_price_) * amount_ == msg.value, \"1% fee\");\n        //     eth_receiver.call{value: Get_list_fee(e_price_)}(\"\");\n        // } else if ( e_price_ > 0 && d_price_ > 0) {\n        //     require((Get_list_fee(e_price_) + Get_list_fee(d_price_)) * amount_ == msg.value, \"1% fee\");\n        //     dankToken.transferFrom(msg.sender, eth_receiver, Get_list_fee(d_price_));\n        //     eth_receiver.call{value: Get_list_fee(e_price_)}(\"\");\n        // }\n        // require : amount_ has to be available\n        require((amount_>0) && ( balanceOf(msg.sender, id_) >= amount_ ), \"amount_ has to be available\");\n        // require :  token is not in the black list\n        require(isBlacklist[id_] != true, \"Token of black list can not be sold.\");\n        \n        Sell memory sell_temp = Sell(id_, e_price_, d_price_, payable(msg.sender), amount_);\n        sell_list.push(sell_temp);\n\n        // if ( e_price_ == 0 && d_price_ > 0) {\n        //     dankToken.transferFrom(msg.sender, eth_receiver, Get_list_fee(d_price_));\n        // } else if ( e_price_ > 0 && d_price_ == 0) {\n        //     eth_receiver.call{value: Get_list_fee(e_price_)}(\"\");\n        // } else if ( e_price_ > 0 && d_price_ > 0) {\n        //     dankToken.transferFrom(msg.sender, eth_receiver, Get_list_fee(d_price_));\n        //     eth_receiver.call{value: Get_list_fee(e_price_)}(\"\");\n        // }\n\n        return (sell_list.length - 1);\n    }\n\n    function Update_sell (uint sell_id_, uint e_price_, uint d_price_, uint amount_) public {\n        // require : id_ is avaliable \n        require( sell_id_ < sell_list.length, \"ID has to be less than sell list length\");\n        // require : set at least one of two coins\n        require ( (e_price_ > 0) || (d_price_ > 0), \"set at least one of two coins\");\n        // require : amount_ has to be available\n        require((amount_>0) && ( balanceOf(msg.sender, sell_list[sell_id_].nft_id_) >= amount_ ), \"amount_ has to be available\");\n        sell_list[sell_id_].e_price_ = e_price_;\n        sell_list[sell_id_].d_price_ = d_price_;\n        sell_list[sell_id_].amount_ = amount_;\n    }\n\n    function Remove_selling (uint id_) public onlyOwner {\n        // require : id_ is avaliable \n        require( id_ < sell_list.length, \"ID has to be less than sell list length\");\n        delete sell_list[id_];\n    }\n\n    function Get_sell (uint id_) public view returns (uint, uint, address, uint) {\n        // require : id_ is avaliable \n        require( id_ < sell_list.length, \"ID has to be less than sell list length\");\n        return (\n            sell_list[id_].e_price_,\n            sell_list[id_].d_price_,\n            sell_list[id_].owner_,\n            sell_list[id_].amount_\n        );\n    }\n\n    function Get_sell_fee (uint price_) public view returns(uint) {\n        // require : price_ has to be available\n        require( price_ > 0, \"price_ has to be available\");\n        return price_ * 25 / 1000;\n    }\n    function Get_real_price (uint price_) public view returns (uint) {\n        // require : price_ has to be available\n        require( price_ > 0, \"price_ has to be available\");\n        return price_ * 975 / 1000;\n    }\n    function Buying (uint sell_id_, uint amount_, uint token_kind_) public payable {\n        // require : sell_id_ has to be less than sell list length\n        require( sell_id_ < sell_list.length,  \"sell_id_ has to be less than sell list length\");\n        // require : buying amount has to be avaliable\n        require( amount_ <= sell_list[sell_id_].amount_, \"amount has to less than capacity\" );\n        \n        safeTransferFrom( msg.sender, sell_list[sell_id_].owner_, sell_list[sell_id_].nft_id_, amount_, \"\" );\n        if (amount_ == sell_list[sell_id_].amount_) {\n            Remove_selling(sell_id_);\n        } else {\n            sell_list[sell_id_].amount_ = sell_list[sell_id_].amount_ - amount_;\n        }\n        \n        if( token_kind_ == 0 ){\n            sell_list[sell_id_].owner_.transfer(Get_real_price(sell_list[sell_id_].e_price_));\n            eth_receiver.call{value: Get_sell_fee(sell_list[sell_id_].e_price_)}(\"\");\n        } else {\n            dankToken.transferFrom(msg.sender, eth_receiver, Get_sell_fee(sell_list[sell_id_].d_price_));\n            dankToken.transferFrom(msg.sender, sell_list[sell_id_].owner_, Get_real_price(sell_list[sell_id_].d_price_));\n            // sell_list[sell_id_].owner_.transfer(Get_real_price(sell_list[sell_id_].d_price_));\n            // eth_receiver.call{value: Get_sell_fee(sell_list[sell_id_].d_price_)}(\"\");\n        }\n\n    }\n    \n    function Set_blacklist (uint id_) public onlyOwner {\n        // require : id_ has to be less than nft length\n        require(id_ < nft_list.length, \"id_ has to be less than nft length\");\n        // require : id_ has not already set in the black list\n        require(isBlacklist[id_] == false, \"id_ has not already set in the black list\");\n        black_list.push(id_);\n        isBlacklist[id_] = true;\n    }\n\n    function check_blacklist (uint id_) public view returns (bool) {\n        // require : id_ has to be less than nft length\n        require(id_ < nft_list.length, \"id_ has to be less than nft length\");\n        return isBlacklist[id_];\n    }\n    // receive() payable external {}\n    // function getETH() external onlyOwner {\n    //     payable(msg.sender).transfer(address(this).balance);\n    // }\n}",
  "sourcePath": "/home/oncemore/Blockchain Work/NFT_marketplace_smartcontract(MEME_20210511)/contracts/Meme.sol",
  "compiler": {
    "name": "solc",
    "version": "0.8.4+commit.c7e474f2.Emscripten.clang"
  },
  "schemaVersion": "3.3.4",
  "updatedAt": "2021-05-15T15:46:42.472Z",
  "devdoc": {
    "kind": "dev",
    "methods": {
      "balanceOf(address,uint256)": {
        "details": "See {IERC1155-balanceOf}. Requirements: - `account` cannot be the zero address."
      },
      "balanceOfBatch(address[],uint256[])": {
        "details": "See {IERC1155-balanceOfBatch}. Requirements: - `accounts` and `ids` must have the same length."
      },
      "isApprovedForAll(address,address)": {
        "details": "See {IERC1155-isApprovedForAll}."
      },
      "owner()": {
        "details": "Returns the address of the current owner."
      },
      "renounceOwnership()": {
        "details": "Leaves the contract without owner. It will not be possible to call `onlyOwner` functions anymore. Can only be called by the current owner. NOTE: Renouncing ownership will leave the contract without an owner, thereby removing any functionality that is only available to the owner."
      },
      "safeBatchTransferFrom(address,address,uint256[],uint256[],bytes)": {
        "details": "See {IERC1155-safeBatchTransferFrom}."
      },
      "safeTransferFrom(address,address,uint256,uint256,bytes)": {
        "details": "See {IERC1155-safeTransferFrom}."
      },
      "setApprovalForAll(address,bool)": {
        "details": "See {IERC1155-setApprovalForAll}."
      },
      "supportsInterface(bytes4)": {
        "details": "See {IERC165-supportsInterface}."
      },
      "transferOwnership(address)": {
        "details": "Transfers ownership of the contract to a new account (`newOwner`). Can only be called by the current owner."
      },
      "uri(uint256)": {
        "details": "See {IERC1155MetadataURI-uri}. This implementation returns the same URI for *all* token types. It relies on the token type ID substitution mechanism https://eips.ethereum.org/EIPS/eip-1155#metadata[defined in the EIP]. Clients calling this function must replace the `\\{id\\}` substring with the actual token type ID."
      }
    },
    "version": 1
  },
  "userdoc": {
    "kind": "user",
    "methods": {},
    "version": 1
  }
}