{
  "contractName": "Meme",
  "abi": [
    {
      "inputs": [
        {
          "internalType": "address payable",
          "name": "_ethReceiver",
          "type": "address"
        }
      ],
      "stateMutability": "nonpayable",
      "type": "constructor"
    },
    {
      "anonymous": false,
      "inputs": [
        {
          "indexed": true,
          "internalType": "address",
          "name": "account",
          "type": "address"
        },
        {
          "indexed": true,
          "internalType": "address",
          "name": "operator",
          "type": "address"
        },
        {
          "indexed": false,
          "internalType": "bool",
          "name": "approved",
          "type": "bool"
        }
      ],
      "name": "ApprovalForAll",
      "type": "event"
    },
    {
      "anonymous": false,
      "inputs": [
        {
          "indexed": true,
          "internalType": "address",
          "name": "previousOwner",
          "type": "address"
        },
        {
          "indexed": true,
          "internalType": "address",
          "name": "newOwner",
          "type": "address"
        }
      ],
      "name": "OwnershipTransferred",
      "type": "event"
    },
    {
      "anonymous": false,
      "inputs": [
        {
          "indexed": true,
          "internalType": "address",
          "name": "operator",
          "type": "address"
        },
        {
          "indexed": true,
          "internalType": "address",
          "name": "from",
          "type": "address"
        },
        {
          "indexed": true,
          "internalType": "address",
          "name": "to",
          "type": "address"
        },
        {
          "indexed": false,
          "internalType": "uint256[]",
          "name": "ids",
          "type": "uint256[]"
        },
        {
          "indexed": false,
          "internalType": "uint256[]",
          "name": "values",
          "type": "uint256[]"
        }
      ],
      "name": "TransferBatch",
      "type": "event"
    },
    {
      "anonymous": false,
      "inputs": [
        {
          "indexed": true,
          "internalType": "address",
          "name": "operator",
          "type": "address"
        },
        {
          "indexed": true,
          "internalType": "address",
          "name": "from",
          "type": "address"
        },
        {
          "indexed": true,
          "internalType": "address",
          "name": "to",
          "type": "address"
        },
        {
          "indexed": false,
          "internalType": "uint256",
          "name": "id",
          "type": "uint256"
        },
        {
          "indexed": false,
          "internalType": "uint256",
          "name": "value",
          "type": "uint256"
        }
      ],
      "name": "TransferSingle",
      "type": "event"
    },
    {
      "anonymous": false,
      "inputs": [
        {
          "indexed": false,
          "internalType": "string",
          "name": "value",
          "type": "string"
        },
        {
          "indexed": true,
          "internalType": "uint256",
          "name": "id",
          "type": "uint256"
        }
      ],
      "name": "URI",
      "type": "event"
    },
    {
      "inputs": [
        {
          "internalType": "address",
          "name": "account",
          "type": "address"
        },
        {
          "internalType": "uint256",
          "name": "id",
          "type": "uint256"
        }
      ],
      "name": "balanceOf",
      "outputs": [
        {
          "internalType": "uint256",
          "name": "",
          "type": "uint256"
        }
      ],
      "stateMutability": "view",
      "type": "function"
    },
    {
      "inputs": [
        {
          "internalType": "address[]",
          "name": "accounts",
          "type": "address[]"
        },
        {
          "internalType": "uint256[]",
          "name": "ids",
          "type": "uint256[]"
        }
      ],
      "name": "balanceOfBatch",
      "outputs": [
        {
          "internalType": "uint256[]",
          "name": "",
          "type": "uint256[]"
        }
      ],
      "stateMutability": "view",
      "type": "function"
    },
    {
      "inputs": [
        {
          "internalType": "address",
          "name": "account",
          "type": "address"
        },
        {
          "internalType": "address",
          "name": "operator",
          "type": "address"
        }
      ],
      "name": "isApprovedForAll",
      "outputs": [
        {
          "internalType": "bool",
          "name": "",
          "type": "bool"
        }
      ],
      "stateMutability": "view",
      "type": "function"
    },
    {
      "inputs": [],
      "name": "owner",
      "outputs": [
        {
          "internalType": "address",
          "name": "",
          "type": "address"
        }
      ],
      "stateMutability": "view",
      "type": "function"
    },
    {
      "inputs": [],
      "name": "renounceOwnership",
      "outputs": [],
      "stateMutability": "nonpayable",
      "type": "function"
    },
    {
      "inputs": [
        {
          "internalType": "address",
          "name": "from",
          "type": "address"
        },
        {
          "internalType": "address",
          "name": "to",
          "type": "address"
        },
        {
          "internalType": "uint256[]",
          "name": "ids",
          "type": "uint256[]"
        },
        {
          "internalType": "uint256[]",
          "name": "amounts",
          "type": "uint256[]"
        },
        {
          "internalType": "bytes",
          "name": "data",
          "type": "bytes"
        }
      ],
      "name": "safeBatchTransferFrom",
      "outputs": [],
      "stateMutability": "nonpayable",
      "type": "function"
    },
    {
      "inputs": [
        {
          "internalType": "address",
          "name": "from",
          "type": "address"
        },
        {
          "internalType": "address",
          "name": "to",
          "type": "address"
        },
        {
          "internalType": "uint256",
          "name": "id",
          "type": "uint256"
        },
        {
          "internalType": "uint256",
          "name": "amount",
          "type": "uint256"
        },
        {
          "internalType": "bytes",
          "name": "data",
          "type": "bytes"
        }
      ],
      "name": "safeTransferFrom",
      "outputs": [],
      "stateMutability": "nonpayable",
      "type": "function"
    },
    {
      "inputs": [
        {
          "internalType": "address",
          "name": "operator",
          "type": "address"
        },
        {
          "internalType": "bool",
          "name": "approved",
          "type": "bool"
        }
      ],
      "name": "setApprovalForAll",
      "outputs": [],
      "stateMutability": "nonpayable",
      "type": "function"
    },
    {
      "inputs": [
        {
          "internalType": "bytes4",
          "name": "interfaceId",
          "type": "bytes4"
        }
      ],
      "name": "supportsInterface",
      "outputs": [
        {
          "internalType": "bool",
          "name": "",
          "type": "bool"
        }
      ],
      "stateMutability": "view",
      "type": "function"
    },
    {
      "inputs": [
        {
          "internalType": "address",
          "name": "newOwner",
          "type": "address"
        }
      ],
      "name": "transferOwnership",
      "outputs": [],
      "stateMutability": "nonpayable",
      "type": "function"
    },
    {
      "inputs": [
        {
          "internalType": "uint256",
          "name": "",
          "type": "uint256"
        }
      ],
      "name": "uri",
      "outputs": [
        {
          "internalType": "string",
          "name": "",
          "type": "string"
        }
      ],
      "stateMutability": "view",
      "type": "function"
    },
    {
      "stateMutability": "payable",
      "type": "receive"
    },
    {
      "inputs": [
        {
          "internalType": "string",
          "name": "hash_",
          "type": "string"
        },
        {
          "internalType": "uint256",
          "name": "amount_",
          "type": "uint256"
        },
        {
          "internalType": "uint256",
          "name": "e_price_",
          "type": "uint256"
        },
        {
          "internalType": "uint256",
          "name": "d_price_",
          "type": "uint256"
        }
      ],
      "name": "Set_nft",
      "outputs": [],
      "stateMutability": "nonpayable",
      "type": "function"
    },
    {
      "inputs": [
        {
          "internalType": "string[]",
          "name": "hashes_",
          "type": "string[]"
        },
        {
          "internalType": "uint256[]",
          "name": "amounts_",
          "type": "uint256[]"
        },
        {
          "internalType": "uint256[]",
          "name": "e_prices_",
          "type": "uint256[]"
        },
        {
          "internalType": "uint256[]",
          "name": "d_prices_",
          "type": "uint256[]"
        }
      ],
      "name": "Batch_set_nft",
      "outputs": [],
      "stateMutability": "nonpayable",
      "type": "function"
    },
    {
      "inputs": [
        {
          "internalType": "uint256",
          "name": "id_",
          "type": "uint256"
        }
      ],
      "name": "Get_nft",
      "outputs": [
        {
          "internalType": "string",
          "name": "",
          "type": "string"
        },
        {
          "internalType": "uint256",
          "name": "",
          "type": "uint256"
        },
        {
          "internalType": "uint256",
          "name": "",
          "type": "uint256"
        }
      ],
      "stateMutability": "view",
      "type": "function"
    },
    {
      "inputs": [],
      "name": "Get_nft_amount",
      "outputs": [
        {
          "internalType": "uint256",
          "name": "",
          "type": "uint256"
        }
      ],
      "stateMutability": "view",
      "type": "function"
    },
    {
      "inputs": [
        {
          "internalType": "uint256",
          "name": "price_",
          "type": "uint256"
        }
      ],
      "name": "Get_list_fee",
      "outputs": [
        {
          "internalType": "uint256",
          "name": "",
          "type": "uint256"
        }
      ],
      "stateMutability": "view",
      "type": "function"
    },
    {
      "inputs": [
        {
          "internalType": "uint256",
          "name": "id_",
          "type": "uint256"
        },
        {
          "internalType": "uint256",
          "name": "e_price_",
          "type": "uint256"
        },
        {
          "internalType": "uint256",
          "name": "d_price_",
          "type": "uint256"
        },
        {
          "internalType": "uint256",
          "name": "amount_",
          "type": "uint256"
        }
      ],
      "name": "Set_sell",
      "outputs": [
        {
          "internalType": "uint256",
          "name": "",
          "type": "uint256"
        }
      ],
      "stateMutability": "payable",
      "type": "function"
    },
    {
      "inputs": [
        {
          "internalType": "uint256",
          "name": "sell_id_",
          "type": "uint256"
        },
        {
          "internalType": "uint256",
          "name": "e_price_",
          "type": "uint256"
        },
        {
          "internalType": "uint256",
          "name": "d_price_",
          "type": "uint256"
        },
        {
          "internalType": "uint256",
          "name": "amount_",
          "type": "uint256"
        }
      ],
      "name": "Update_sell",
      "outputs": [],
      "stateMutability": "nonpayable",
      "type": "function"
    },
    {
      "inputs": [
        {
          "internalType": "uint256",
          "name": "id_",
          "type": "uint256"
        }
      ],
      "name": "Remove_selling",
      "outputs": [],
      "stateMutability": "nonpayable",
      "type": "function"
    },
    {
      "inputs": [
        {
          "internalType": "uint256",
          "name": "id_",
          "type": "uint256"
        }
      ],
      "name": "Get_sell",
      "outputs": [
        {
          "internalType": "uint256",
          "name": "",
          "type": "uint256"
        },
        {
          "internalType": "uint256",
          "name": "",
          "type": "uint256"
        },
        {
          "internalType": "address",
          "name": "",
          "type": "address"
        },
        {
          "internalType": "uint256",
          "name": "",
          "type": "uint256"
        }
      ],
      "stateMutability": "view",
      "type": "function"
    },
    {
      "inputs": [
        {
          "internalType": "uint256",
          "name": "price_",
          "type": "uint256"
        }
      ],
      "name": "Get_sell_fee",
      "outputs": [
        {
          "internalType": "uint256",
          "name": "",
          "type": "uint256"
        }
      ],
      "stateMutability": "view",
      "type": "function"
    },
    {
      "inputs": [
        {
          "internalType": "uint256",
          "name": "price_",
          "type": "uint256"
        }
      ],
      "name": "Get_real_price",
      "outputs": [
        {
          "internalType": "uint256",
          "name": "",
          "type": "uint256"
        }
      ],
      "stateMutability": "view",
      "type": "function"
    },
    {
      "inputs": [
        {
          "internalType": "uint256",
          "name": "sell_id_",
          "type": "uint256"
        },
        {
          "internalType": "uint256",
          "name": "amount_",
          "type": "uint256"
        },
        {
          "internalType": "uint256",
          "name": "token_kind_",
          "type": "uint256"
        }
      ],
      "name": "Buying",
      "outputs": [],
      "stateMutability": "payable",
      "type": "function"
    },
    {
      "inputs": [
        {
          "internalType": "uint256",
          "name": "id_",
          "type": "uint256"
        }
      ],
      "name": "Set_blacklist",
      "outputs": [],
      "stateMutability": "nonpayable",
      "type": "function"
    },
    {
      "inputs": [
        {
          "internalType": "uint256",
          "name": "id_",
          "type": "uint256"
        }
      ],
      "name": "check_blacklist",
      "outputs": [
        {
          "internalType": "bool",
          "name": "",
          "type": "bool"
        }
      ],
      "stateMutability": "view",
      "type": "function"
    },
    {
      "inputs": [],
      "name": "getETH",
      "outputs": [],
      "stateMutability": "nonpayable",
      "type": "function"
    }
  ],
  "bytecode": "0x60806040523480156200001157600080fd5b506040516200582c3803806200582c833981810160405281019062000037919062000278565b6040518060200160405280600081525062000058816200018d60201b60201c565b5060006200006b620001a960201b60201c565b905080600360006101000a81548173ffffffffffffffffffffffffffffffffffffffff021916908373ffffffffffffffffffffffffffffffffffffffff1602179055508073ffffffffffffffffffffffffffffffffffffffff16600073ffffffffffffffffffffffffffffffffffffffff167f8be0079c531659141344cd1fd0a4f28419497f9722a3daafe3b4186f6b6457e060405160405180910390a350600073ffffffffffffffffffffffffffffffffffffffff168173ffffffffffffffffffffffffffffffffffffffff1614156200014557600080fd5b80600860006101000a81548173ffffffffffffffffffffffffffffffffffffffff021916908373ffffffffffffffffffffffffffffffffffffffff1602179055505062000357565b8060029080519060200190620001a5929190620001b1565b5050565b600033905090565b828054620001bf90620002d8565b90600052602060002090601f016020900481019282620001e357600085556200022f565b82601f10620001fe57805160ff19168380011785556200022f565b828001600101855582156200022f579182015b828111156200022e57825182559160200191906001019062000211565b5b5090506200023e919062000242565b5090565b5b808211156200025d57600081600090555060010162000243565b5090565b60008151905062000272816200033d565b92915050565b6000602082840312156200028b57600080fd5b60006200029b8482850162000261565b91505092915050565b6000620002b182620002b8565b9050919050565b600073ffffffffffffffffffffffffffffffffffffffff82169050919050565b60006002820490506001821680620002f157607f821691505b602082108114156200030857620003076200030e565b5b50919050565b7f4e487b7100000000000000000000000000000000000000000000000000000000600052602260045260246000fd5b6200034881620002a4565b81146200035457600080fd5b50565b6154c580620003676000396000f3fe6080604052600436106101845760003560e01c8063842dbcde116100d1578063d816bcf81161008a578063f2fde38b11610064578063f2fde38b146105de578063f41f3c6714610607578063f42d88b414610630578063fd2b3516146106595761018b565b8063d816bcf814610538578063e985e9c514610578578063f242432a146105b55761018b565b8063842dbcde14610404578063886cd0cf1461042d5780638da5cb5b1461046a578063a22cb46514610495578063b94de42b146104be578063cf58f0a5146104fb5761018b565b80632eb2c2d61161013e5780634e1273f4116101185780634e1273f4146103485780635b8746d314610385578063715018a6146103c257806375feae25146103d95761018b565b80632eb2c2d6146102c657806335f08d0c146102ef5780634645ffcd1461031f5761018b565b8062fdd58e1461019057806301ffc9a7146101cd5780630e89341c1461020a57806314f6c3be14610247578063192585331461025e57806325061dae146102875761018b565b3661018b57005b600080fd5b34801561019c57600080fd5b506101b760048036038101906101b29190613a53565b610675565b6040516101c49190614741565b60405180910390f35b3480156101d957600080fd5b506101f460048036038101906101ef9190613bbe565b61073e565b6040516102019190614386565b60405180910390f35b34801561021657600080fd5b50610231600480360381019061022c9190613c8b565b610820565b60405161023e91906143a1565b60405180910390f35b34801561025357600080fd5b5061025c6108b4565b005b34801561026a57600080fd5b5061028560048036038101906102809190613c8b565b610979565b005b34801561029357600080fd5b506102ae60048036038101906102a99190613c8b565b610afb565b6040516102bd939291906143c3565b60405180910390f35b3480156102d257600080fd5b506102ed60048036038101906102e891906138c9565b610c7c565b005b61030960048036038101906103049190613d03565b611072565b6040516103169190614741565b60405180910390f35b34801561032b57600080fd5b5061034660048036038101906103419190613c10565b6113ba565b005b34801561035457600080fd5b5061036f600480360381019061036a9190613a8f565b6114e6565b60405161037c919061432d565b60405180910390f35b34801561039157600080fd5b506103ac60048036038101906103a79190613c8b565b611697565b6040516103b99190614741565b60405180910390f35b3480156103ce57600080fd5b506103d76116fc565b005b3480156103e557600080fd5b506103ee611839565b6040516103fb9190614741565b60405180910390f35b34801561041057600080fd5b5061042b60048036038101906104269190613afb565b611846565b005b34801561043957600080fd5b50610454600480360381019061044f9190613c8b565b611a44565b6040516104619190614386565b60405180910390f35b34801561047657600080fd5b5061047f611ab5565b60405161048c9190614250565b60405180910390f35b3480156104a157600080fd5b506104bc60048036038101906104b79190613a17565b611adf565b005b3480156104ca57600080fd5b506104e560048036038101906104e09190613c8b565b611c60565b6040516104f29190614741565b60405180910390f35b34801561050757600080fd5b50610522600480360381019061051d9190613c8b565b611cc6565b60405161052f9190614741565b60405180910390f35b34801561054457600080fd5b5061055f600480360381019061055a9190613c8b565b611cdc565b60405161056f9493929190614785565b60405180910390f35b34801561058457600080fd5b5061059f600480360381019061059a919061388d565b611e88565b6040516105ac9190614386565b60405180910390f35b3480156105c157600080fd5b506105dc60048036038101906105d79190613988565b611f1c565b005b3480156105ea57600080fd5b5061060560048036038101906106009190613864565b612234565b005b34801561061357600080fd5b5061062e60048036038101906106299190613c8b565b6123e0565b005b34801561063c57600080fd5b5061065760048036038101906106529190613d03565b612538565b005b610673600480360381019061066e9190613cb4565b612766565b005b60008073ffffffffffffffffffffffffffffffffffffffff168373ffffffffffffffffffffffffffffffffffffffff1614156106e6576040517f08c379a00000000000000000000000000000000000000000000000000000000081526004016106dd90614441565b60405180910390fd5b60008083815260200190815260200160002060008473ffffffffffffffffffffffffffffffffffffffff1673ffffffffffffffffffffffffffffffffffffffff16815260200190815260200160002054905092915050565b60007fd9b67a26000000000000000000000000000000000000000000000000000000007bffffffffffffffffffffffffffffffffffffffffffffffffffffffff1916827bffffffffffffffffffffffffffffffffffffffffffffffffffffffff1916148061080957507f0e89341c000000000000000000000000000000000000000000000000000000007bffffffffffffffffffffffffffffffffffffffffffffffffffffffff1916827bffffffffffffffffffffffffffffffffffffffffffffffffffffffff1916145b80610819575061081882612df5565b5b9050919050565b60606002805461082f90614b1c565b80601f016020809104026020016040519081016040528092919081815260200182805461085b90614b1c565b80156108a85780601f1061087d576101008083540402835291602001916108a8565b820191906000526020600020905b81548152906001019060200180831161088b57829003601f168201915b50505050509050919050565b6108bc612e5f565b73ffffffffffffffffffffffffffffffffffffffff166108da611ab5565b73ffffffffffffffffffffffffffffffffffffffff1614610930576040517f08c379a0000000000000000000000000000000000000000000000000000000008152600401610927906145a1565b60405180910390fd5b3373ffffffffffffffffffffffffffffffffffffffff166108fc479081150290604051600060405180830381858888f19350505050158015610976573d6000803e3d6000fd5b50565b610981612e5f565b73ffffffffffffffffffffffffffffffffffffffff1661099f611ab5565b73ffffffffffffffffffffffffffffffffffffffff16146109f5576040517f08c379a00000000000000000000000000000000000000000000000000000000081526004016109ec906145a1565b60405180910390fd5b6004805490508110610a3c576040517f08c379a0000000000000000000000000000000000000000000000000000000008152600401610a33906145e1565b60405180910390fd5b600015156007600083815260200190815260200160002060009054906101000a900460ff16151514610aa3576040517f08c379a0000000000000000000000000000000000000000000000000000000008152600401610a9a90614461565b60405180910390fd5b600681908060018154018082558091505060019003906000526020600020016000909190919091505560016007600083815260200190815260200160002060006101000a81548160ff02191690831515021790555050565b606060008060048481548110610b3a577f4e487b7100000000000000000000000000000000000000000000000000000000600052603260045260246000fd5b906000526020600020906003020160000160048581548110610b85577f4e487b7100000000000000000000000000000000000000000000000000000000600052603260045260246000fd5b90600052602060002090600302016001015460048681548110610bd1577f4e487b7100000000000000000000000000000000000000000000000000000000600052603260045260246000fd5b906000526020600020906003020160020154828054610bef90614b1c565b80601f0160208091040260200160405190810160405280929190818152602001828054610c1b90614b1c565b8015610c685780601f10610c3d57610100808354040283529160200191610c68565b820191906000526020600020905b815481529060010190602001808311610c4b57829003601f168201915b505050505092509250925092509193909250565b8151835114610cc0576040517f08c379a0000000000000000000000000000000000000000000000000000000008152600401610cb7906146e1565b60405180910390fd5b600073ffffffffffffffffffffffffffffffffffffffff168473ffffffffffffffffffffffffffffffffffffffff161415610d30576040517f08c379a0000000000000000000000000000000000000000000000000000000008152600401610d2790614501565b60405180910390fd5b610d38612e5f565b73ffffffffffffffffffffffffffffffffffffffff168573ffffffffffffffffffffffffffffffffffffffff161480610d7e5750610d7d85610d78612e5f565b611e88565b5b610dbd576040517f08c379a0000000000000000000000000000000000000000000000000000000008152600401610db490614521565b60405180910390fd5b6000610dc7612e5f565b9050610dd7818787878787612e67565b60005b8451811015610fdd576000858281518110610e1e577f4e487b7100000000000000000000000000000000000000000000000000000000600052603260045260246000fd5b602002602001015190506000858381518110610e63577f4e487b7100000000000000000000000000000000000000000000000000000000600052603260045260246000fd5b60200260200101519050600080600084815260200190815260200160002060008b73ffffffffffffffffffffffffffffffffffffffff1673ffffffffffffffffffffffffffffffffffffffff16815260200190815260200160002054905081811015610f04576040517f08c379a0000000000000000000000000000000000000000000000000000000008152600401610efb90614581565b60405180910390fd5b8181610f109190614a32565b60008085815260200190815260200160002060008c73ffffffffffffffffffffffffffffffffffffffff1673ffffffffffffffffffffffffffffffffffffffff168152602001908152602001600020819055508160008085815260200190815260200160002060008b73ffffffffffffffffffffffffffffffffffffffff1673ffffffffffffffffffffffffffffffffffffffff1681526020019081526020016000206000828254610fc29190614951565b9250508190555050505080610fd690614b7f565b9050610dda565b508473ffffffffffffffffffffffffffffffffffffffff168673ffffffffffffffffffffffffffffffffffffffff168273ffffffffffffffffffffffffffffffffffffffff167f4a39dc06d4c0dbc64b70af90fd698a233a518aa5d07e595d983b8c0526c8f7fb878760405161105492919061434f565b60405180910390a461106a818787878787612e6f565b505050505050565b600060048054905085106110bb576040517f08c379a00000000000000000000000000000000000000000000000000000000081526004016110b290614561565b60405180910390fd5b60008411806110ca5750600083115b611109576040517f08c379a000000000000000000000000000000000000000000000000000000000815260040161110090614601565b60405180910390fd5b6000841480156111195750600083115b1561117857348261112985611cc6565b61113391906149d8565b14611173576040517f08c379a000000000000000000000000000000000000000000000000000000000815260040161116a906144e1565b60405180910390fd5b611267565b6000841180156111885750600083145b156111e757348261119886611cc6565b6111a291906149d8565b146111e2576040517f08c379a00000000000000000000000000000000000000000000000000000000081526004016111d9906144e1565b60405180910390fd5b611266565b6000841180156111f75750600083115b1561126557348261120785611cc6565b61121087611cc6565b61121a9190614951565b61122491906149d8565b14611264576040517f08c379a000000000000000000000000000000000000000000000000000000000815260040161125b906144e1565b60405180910390fd5b5b5b5b60008211801561128057508161127d3387610675565b10155b6112bf576040517f08c379a00000000000000000000000000000000000000000000000000000000081526004016112b690614661565b60405180910390fd5b60006040518060a001604052808781526020018681526020018581526020013373ffffffffffffffffffffffffffffffffffffffff168152602001848152509050600581908060018154018082558091505060019003906000526020600020906005020160009091909190915060008201518160000155602082015181600101556040820151816002015560608201518160030160006101000a81548173ffffffffffffffffffffffffffffffffffffffff021916908373ffffffffffffffffffffffffffffffffffffffff16021790555060808201518160040155505060016005805490506113af9190614a32565b915050949350505050565b60008451116113fe576040517f08c379a00000000000000000000000000000000000000000000000000000000081526004016113f5906145c1565b60405180910390fd5b60008311611441576040517f08c379a000000000000000000000000000000000000000000000000000000000815260040161143890614541565b60405180910390fd5b611461336004805490508560405180602001604052806000815250613056565b60006040518060600160405280868152602001848152602001838152509050600481908060018154018082558091505060019003906000526020600020906003020160009091909190915060008201518160000190805190602001906114c89291906134ac565b50602082015181600101556040820151816002015550505050505050565b6060815183511461152c576040517f08c379a0000000000000000000000000000000000000000000000000000000008152600401611523906146c1565b60405180910390fd5b6000835167ffffffffffffffff81111561156f577f4e487b7100000000000000000000000000000000000000000000000000000000600052604160045260246000fd5b60405190808252806020026020018201604052801561159d5781602001602082028036833780820191505090505b50905060005b845181101561168c576116368582815181106115e8577f4e487b7100000000000000000000000000000000000000000000000000000000600052603260045260246000fd5b6020026020010151858381518110611629577f4e487b7100000000000000000000000000000000000000000000000000000000600052603260045260246000fd5b6020026020010151610675565b82828151811061166f577f4e487b7100000000000000000000000000000000000000000000000000000000600052603260045260246000fd5b6020026020010181815250508061168590614b7f565b90506115a3565b508091505092915050565b60008082116116db576040517f08c379a00000000000000000000000000000000000000000000000000000000081526004016116d290614621565b60405180910390fd5b6103e86019836116eb91906149d8565b6116f591906149a7565b9050919050565b611704612e5f565b73ffffffffffffffffffffffffffffffffffffffff16611722611ab5565b73ffffffffffffffffffffffffffffffffffffffff1614611778576040517f08c379a000000000000000000000000000000000000000000000000000000000815260040161176f906145a1565b60405180910390fd5b600073ffffffffffffffffffffffffffffffffffffffff16600360009054906101000a900473ffffffffffffffffffffffffffffffffffffffff1673ffffffffffffffffffffffffffffffffffffffff167f8be0079c531659141344cd1fd0a4f28419497f9722a3daafe3b4186f6b6457e060405160405180910390a36000600360006101000a81548173ffffffffffffffffffffffffffffffffffffffff021916908373ffffffffffffffffffffffffffffffffffffffff160217905550565b6000600480549050905090565b825184511461188a576040517f08c379a0000000000000000000000000000000000000000000000000000000008152600401611881906144c1565b60405180910390fd5b81518451146118ce576040517f08c379a00000000000000000000000000000000000000000000000000000000081526004016118c5906144c1565b60405180910390fd5b8051845114611912576040517f08c379a0000000000000000000000000000000000000000000000000000000008152600401611909906144c1565b60405180910390fd5b60005b8451811015611a3d57611a2a85828151811061195a577f4e487b7100000000000000000000000000000000000000000000000000000000600052603260045260246000fd5b602002602001015185838151811061199b577f4e487b7100000000000000000000000000000000000000000000000000000000600052603260045260246000fd5b60200260200101518584815181106119dc577f4e487b7100000000000000000000000000000000000000000000000000000000600052603260045260246000fd5b6020026020010151858581518110611a1d577f4e487b7100000000000000000000000000000000000000000000000000000000600052603260045260246000fd5b60200260200101516113ba565b8080611a3590614b7f565b915050611915565b5050505050565b60006004805490508210611a8d576040517f08c379a0000000000000000000000000000000000000000000000000000000008152600401611a84906145e1565b60405180910390fd5b6007600083815260200190815260200160002060009054906101000a900460ff169050919050565b6000600360009054906101000a900473ffffffffffffffffffffffffffffffffffffffff16905090565b8173ffffffffffffffffffffffffffffffffffffffff16611afe612e5f565b73ffffffffffffffffffffffffffffffffffffffff161415611b55576040517f08c379a0000000000000000000000000000000000000000000000000000000008152600401611b4c906146a1565b60405180910390fd5b8060016000611b62612e5f565b73ffffffffffffffffffffffffffffffffffffffff1673ffffffffffffffffffffffffffffffffffffffff16815260200190815260200160002060008473ffffffffffffffffffffffffffffffffffffffff1673ffffffffffffffffffffffffffffffffffffffff16815260200190815260200160002060006101000a81548160ff0219169083151502179055508173ffffffffffffffffffffffffffffffffffffffff16611c0f612e5f565b73ffffffffffffffffffffffffffffffffffffffff167f17307eab39ab6107e8899845ad3d59bd9653f200f220920489ca2b5937696c3183604051611c549190614386565b60405180910390a35050565b6000808211611ca4576040517f08c379a0000000000000000000000000000000000000000000000000000000008152600401611c9b90614621565b60405180910390fd5b6103e86103cf83611cb591906149d8565b611cbf91906149a7565b9050919050565b6000606482611cd591906149a7565b9050919050565b6000806000806005805490508510611d29576040517f08c379a0000000000000000000000000000000000000000000000000000000008152600401611d2090614681565b60405180910390fd5b60058581548110611d63577f4e487b7100000000000000000000000000000000000000000000000000000000600052603260045260246000fd5b90600052602060002090600502016001015460058681548110611daf577f4e487b7100000000000000000000000000000000000000000000000000000000600052603260045260246000fd5b90600052602060002090600502016002015460058781548110611dfb577f4e487b7100000000000000000000000000000000000000000000000000000000600052603260045260246000fd5b906000526020600020906005020160030160009054906101000a900473ffffffffffffffffffffffffffffffffffffffff1660058881548110611e67577f4e487b7100000000000000000000000000000000000000000000000000000000600052603260045260246000fd5b90600052602060002090600502016004015493509350935093509193509193565b6000600160008473ffffffffffffffffffffffffffffffffffffffff1673ffffffffffffffffffffffffffffffffffffffff16815260200190815260200160002060008373ffffffffffffffffffffffffffffffffffffffff1673ffffffffffffffffffffffffffffffffffffffff16815260200190815260200160002060009054906101000a900460ff16905092915050565b600073ffffffffffffffffffffffffffffffffffffffff168473ffffffffffffffffffffffffffffffffffffffff161415611f8c576040517f08c379a0000000000000000000000000000000000000000000000000000000008152600401611f8390614501565b60405180910390fd5b611f94612e5f565b73ffffffffffffffffffffffffffffffffffffffff168573ffffffffffffffffffffffffffffffffffffffff161480611fda5750611fd985611fd4612e5f565b611e88565b5b612019576040517f08c379a0000000000000000000000000000000000000000000000000000000008152600401612010906144a1565b60405180910390fd5b6000612023612e5f565b9050612043818787612034886131ec565b61203d886131ec565b87612e67565b600080600086815260200190815260200160002060008873ffffffffffffffffffffffffffffffffffffffff1673ffffffffffffffffffffffffffffffffffffffff168152602001908152602001600020549050838110156120da576040517f08c379a00000000000000000000000000000000000000000000000000000000081526004016120d190614581565b60405180910390fd5b83816120e69190614a32565b60008087815260200190815260200160002060008973ffffffffffffffffffffffffffffffffffffffff1673ffffffffffffffffffffffffffffffffffffffff168152602001908152602001600020819055508360008087815260200190815260200160002060008873ffffffffffffffffffffffffffffffffffffffff1673ffffffffffffffffffffffffffffffffffffffff16815260200190815260200160002060008282546121989190614951565b925050819055508573ffffffffffffffffffffffffffffffffffffffff168773ffffffffffffffffffffffffffffffffffffffff168373ffffffffffffffffffffffffffffffffffffffff167fc3d58168c5ae7397731d063d5bbf3d657854427343f4c083240f7aacaa2d0f62888860405161221592919061475c565b60405180910390a461222b8288888888886132b2565b50505050505050565b61223c612e5f565b73ffffffffffffffffffffffffffffffffffffffff1661225a611ab5565b73ffffffffffffffffffffffffffffffffffffffff16146122b0576040517f08c379a00000000000000000000000000000000000000000000000000000000081526004016122a7906145a1565b60405180910390fd5b600073ffffffffffffffffffffffffffffffffffffffff168173ffffffffffffffffffffffffffffffffffffffff161415612320576040517f08c379a000000000000000000000000000000000000000000000000000000000815260040161231790614481565b60405180910390fd5b8073ffffffffffffffffffffffffffffffffffffffff16600360009054906101000a900473ffffffffffffffffffffffffffffffffffffffff1673ffffffffffffffffffffffffffffffffffffffff167f8be0079c531659141344cd1fd0a4f28419497f9722a3daafe3b4186f6b6457e060405160405180910390a380600360006101000a81548173ffffffffffffffffffffffffffffffffffffffff021916908373ffffffffffffffffffffffffffffffffffffffff16021790555050565b6123e8612e5f565b73ffffffffffffffffffffffffffffffffffffffff16612406611ab5565b73ffffffffffffffffffffffffffffffffffffffff161461245c576040517f08c379a0000000000000000000000000000000000000000000000000000000008152600401612453906145a1565b60405180910390fd5b60058054905081106124a3576040517f08c379a000000000000000000000000000000000000000000000000000000000815260040161249a90614681565b60405180910390fd5b600581815481106124dd577f4e487b7100000000000000000000000000000000000000000000000000000000600052603260045260246000fd5b9060005260206000209060050201600080820160009055600182016000905560028201600090556003820160006101000a81549073ffffffffffffffffffffffffffffffffffffffff02191690556004820160009055505050565b600580549050841061257f576040517f08c379a000000000000000000000000000000000000000000000000000000000815260040161257690614681565b60405180910390fd5b600083118061258e5750600082115b6125cd576040517f08c379a00000000000000000000000000000000000000000000000000000000081526004016125c490614601565b60405180910390fd5b60008111801561263157508061262e3360058781548110612617577f4e487b7100000000000000000000000000000000000000000000000000000000600052603260045260246000fd5b906000526020600020906005020160000154610675565b10155b612670576040517f08c379a000000000000000000000000000000000000000000000000000000000815260040161266790614661565b60405180910390fd5b82600585815481106126ab577f4e487b7100000000000000000000000000000000000000000000000000000000600052603260045260246000fd5b90600052602060002090600502016001018190555081600585815481106126fb577f4e487b7100000000000000000000000000000000000000000000000000000000600052603260045260246000fd5b906000526020600020906005020160020181905550806005858154811061274b577f4e487b7100000000000000000000000000000000000000000000000000000000600052603260045260246000fd5b90600052602060002090600502016004018190555050505050565b60058054905083106127ad576040517f08c379a00000000000000000000000000000000000000000000000000000000081526004016127a490614701565b60405180910390fd5b600583815481106127e7577f4e487b7100000000000000000000000000000000000000000000000000000000600052603260045260246000fd5b90600052602060002090600502016004015482111561283b576040517f08c379a000000000000000000000000000000000000000000000000000000000815260040161283290614641565b60405180910390fd5b61290d3360058581548110612879577f4e487b7100000000000000000000000000000000000000000000000000000000600052603260045260246000fd5b906000526020600020906005020160030160009054906101000a900473ffffffffffffffffffffffffffffffffffffffff16600586815481106128e5577f4e487b7100000000000000000000000000000000000000000000000000000000600052603260045260246000fd5b9060005260206000209060050201600001548560405180602001604052806000815250611f1c565b60058381548110612947577f4e487b7100000000000000000000000000000000000000000000000000000000600052603260045260246000fd5b90600052602060002090600502016004015482141561296e57612969836123e0565b612a15565b81600584815481106129a9577f4e487b7100000000000000000000000000000000000000000000000000000000600052603260045260246000fd5b9060005260206000209060050201600401546129c59190614a32565b600584815481106129ff577f4e487b7100000000000000000000000000000000000000000000000000000000600052603260045260246000fd5b9060005260206000209060050201600401819055505b6000811415612c0c5760058381548110612a58577f4e487b7100000000000000000000000000000000000000000000000000000000600052603260045260246000fd5b906000526020600020906005020160030160009054906101000a900473ffffffffffffffffffffffffffffffffffffffff1673ffffffffffffffffffffffffffffffffffffffff166108fc612af760058681548110612ae0577f4e487b7100000000000000000000000000000000000000000000000000000000600052603260045260246000fd5b906000526020600020906005020160010154611c60565b9081150290604051600060405180830381858888f19350505050158015612b22573d6000803e3d6000fd5b506000612b7960058581548110612b62577f4e487b7100000000000000000000000000000000000000000000000000000000600052603260045260246000fd5b906000526020600020906005020160010154611697565b9050600860009054906101000a900473ffffffffffffffffffffffffffffffffffffffff1673ffffffffffffffffffffffffffffffffffffffff1681604051612bc19061423b565b60006040518083038185875af1925050503d8060008114612bfe576040519150601f19603f3d011682016040523d82523d6000602084013e612c03565b606091505b50505050612df0565b60058381548110612c46577f4e487b7100000000000000000000000000000000000000000000000000000000600052603260045260246000fd5b906000526020600020906005020160030160009054906101000a900473ffffffffffffffffffffffffffffffffffffffff1673ffffffffffffffffffffffffffffffffffffffff166108fc612ce560058681548110612cce577f4e487b7100000000000000000000000000000000000000000000000000000000600052603260045260246000fd5b906000526020600020906005020160020154611c60565b9081150290604051600060405180830381858888f19350505050158015612d10573d6000803e3d6000fd5b50600860009054906101000a900473ffffffffffffffffffffffffffffffffffffffff1673ffffffffffffffffffffffffffffffffffffffff16612d9e60058581548110612d87577f4e487b7100000000000000000000000000000000000000000000000000000000600052603260045260246000fd5b906000526020600020906005020160020154611697565b604051612daa9061423b565b60006040518083038185875af1925050503d8060008114612de7576040519150601f19603f3d011682016040523d82523d6000602084013e612dec565b606091505b5050505b505050565b60007f01ffc9a7000000000000000000000000000000000000000000000000000000007bffffffffffffffffffffffffffffffffffffffffffffffffffffffff1916827bffffffffffffffffffffffffffffffffffffffffffffffffffffffff1916149050919050565b600033905090565b505050505050565b612e8e8473ffffffffffffffffffffffffffffffffffffffff16613499565b1561304e578373ffffffffffffffffffffffffffffffffffffffff1663bc197c8187878686866040518663ffffffff1660e01b8152600401612ed495949392919061426b565b602060405180830381600087803b158015612eee57600080fd5b505af1925050508015612f1f57506040513d601f19601f82011682018060405250810190612f1c9190613be7565b60015b612fc557612f2b614c84565b806308c379a01415612f885750612f4061539d565b80612f4b5750612f8a565b806040517f08c379a0000000000000000000000000000000000000000000000000000000008152600401612f7f91906143a1565b60405180910390fd5b505b6040517f08c379a0000000000000000000000000000000000000000000000000000000008152600401612fbc90614401565b60405180910390fd5b63bc197c8160e01b7bffffffffffffffffffffffffffffffffffffffffffffffffffffffff1916817bffffffffffffffffffffffffffffffffffffffffffffffffffffffff19161461304c576040517f08c379a000000000000000000000000000000000000000000000000000000000815260040161304390614421565b60405180910390fd5b505b505050505050565b600073ffffffffffffffffffffffffffffffffffffffff168473ffffffffffffffffffffffffffffffffffffffff1614156130c6576040517f08c379a00000000000000000000000000000000000000000000000000000000081526004016130bd90614721565b60405180910390fd5b60006130d0612e5f565b90506130f1816000876130e2886131ec565b6130eb886131ec565b87612e67565b8260008086815260200190815260200160002060008773ffffffffffffffffffffffffffffffffffffffff1673ffffffffffffffffffffffffffffffffffffffff16815260200190815260200160002060008282546131509190614951565b925050819055508473ffffffffffffffffffffffffffffffffffffffff16600073ffffffffffffffffffffffffffffffffffffffff168273ffffffffffffffffffffffffffffffffffffffff167fc3d58168c5ae7397731d063d5bbf3d657854427343f4c083240f7aacaa2d0f6287876040516131ce92919061475c565b60405180910390a46131e5816000878787876132b2565b5050505050565b60606000600167ffffffffffffffff811115613231577f4e487b7100000000000000000000000000000000000000000000000000000000600052604160045260246000fd5b60405190808252806020026020018201604052801561325f5781602001602082028036833780820191505090505b509050828160008151811061329d577f4e487b7100000000000000000000000000000000000000000000000000000000600052603260045260246000fd5b60200260200101818152505080915050919050565b6132d18473ffffffffffffffffffffffffffffffffffffffff16613499565b15613491578373ffffffffffffffffffffffffffffffffffffffff1663f23a6e6187878686866040518663ffffffff1660e01b81526004016133179594939291906142d3565b602060405180830381600087803b15801561333157600080fd5b505af192505050801561336257506040513d601f19601f8201168201806040525081019061335f9190613be7565b60015b6134085761336e614c84565b806308c379a014156133cb575061338361539d565b8061338e57506133cd565b806040517f08c379a00000000000000000000000000000000000000000000000000000000081526004016133c291906143a1565b60405180910390fd5b505b6040517f08c379a00000000000000000000000000000000000000000000000000000000081526004016133ff90614401565b60405180910390fd5b63f23a6e6160e01b7bffffffffffffffffffffffffffffffffffffffffffffffffffffffff1916817bffffffffffffffffffffffffffffffffffffffffffffffffffffffff19161461348f576040517f08c379a000000000000000000000000000000000000000000000000000000000815260040161348690614421565b60405180910390fd5b505b505050505050565b600080823b905060008111915050919050565b8280546134b890614b1c565b90600052602060002090601f0160209004810192826134da5760008555613521565b82601f106134f357805160ff1916838001178555613521565b82800160010185558215613521579182015b82811115613520578251825591602001919060010190613505565b5b50905061352e9190613532565b5090565b5b8082111561354b576000816000905550600101613533565b5090565b600061356261355d846147ef565b6147ca565b9050808382526020820190508285602086028201111561358157600080fd5b60005b858110156135b157816135978882613729565b845260208401935060208301925050600181019050613584565b5050509392505050565b60006135ce6135c98461481b565b6147ca565b905080838252602082019050828560208602820111156135ed57600080fd5b60005b8581101561363757813567ffffffffffffffff81111561360f57600080fd5b80860161361c8982613825565b855260208501945060208401935050506001810190506135f0565b5050509392505050565b600061365461364f84614847565b6147ca565b9050808382526020820190508285602086028201111561367357600080fd5b60005b858110156136a35781613689888261384f565b845260208401935060208301925050600181019050613676565b5050509392505050565b60006136c06136bb84614873565b6147ca565b9050828152602081018484840111156136d857600080fd5b6136e3848285614ada565b509392505050565b60006136fe6136f9846148a4565b6147ca565b90508281526020810184848401111561371657600080fd5b613721848285614ada565b509392505050565b60008135905061373881615433565b92915050565b600082601f83011261374f57600080fd5b813561375f84826020860161354f565b91505092915050565b600082601f83011261377957600080fd5b81356137898482602086016135bb565b91505092915050565b600082601f8301126137a357600080fd5b81356137b3848260208601613641565b91505092915050565b6000813590506137cb8161544a565b92915050565b6000813590506137e081615461565b92915050565b6000815190506137f581615461565b92915050565b600082601f83011261380c57600080fd5b813561381c8482602086016136ad565b91505092915050565b600082601f83011261383657600080fd5b81356138468482602086016136eb565b91505092915050565b60008135905061385e81615478565b92915050565b60006020828403121561387657600080fd5b600061388484828501613729565b91505092915050565b600080604083850312156138a057600080fd5b60006138ae85828601613729565b92505060206138bf85828601613729565b9150509250929050565b600080600080600060a086880312156138e157600080fd5b60006138ef88828901613729565b955050602061390088828901613729565b945050604086013567ffffffffffffffff81111561391d57600080fd5b61392988828901613792565b935050606086013567ffffffffffffffff81111561394657600080fd5b61395288828901613792565b925050608086013567ffffffffffffffff81111561396f57600080fd5b61397b888289016137fb565b9150509295509295909350565b600080600080600060a086880312156139a057600080fd5b60006139ae88828901613729565b95505060206139bf88828901613729565b94505060406139d08882890161384f565b93505060606139e18882890161384f565b925050608086013567ffffffffffffffff8111156139fe57600080fd5b613a0a888289016137fb565b9150509295509295909350565b60008060408385031215613a2a57600080fd5b6000613a3885828601613729565b9250506020613a49858286016137bc565b9150509250929050565b60008060408385031215613a6657600080fd5b6000613a7485828601613729565b9250506020613a858582860161384f565b9150509250929050565b60008060408385031215613aa257600080fd5b600083013567ffffffffffffffff811115613abc57600080fd5b613ac88582860161373e565b925050602083013567ffffffffffffffff811115613ae557600080fd5b613af185828601613792565b9150509250929050565b60008060008060808587031215613b1157600080fd5b600085013567ffffffffffffffff811115613b2b57600080fd5b613b3787828801613768565b945050602085013567ffffffffffffffff811115613b5457600080fd5b613b6087828801613792565b935050604085013567ffffffffffffffff811115613b7d57600080fd5b613b8987828801613792565b925050606085013567ffffffffffffffff811115613ba657600080fd5b613bb287828801613792565b91505092959194509250565b600060208284031215613bd057600080fd5b6000613bde848285016137d1565b91505092915050565b600060208284031215613bf957600080fd5b6000613c07848285016137e6565b91505092915050565b60008060008060808587031215613c2657600080fd5b600085013567ffffffffffffffff811115613c4057600080fd5b613c4c87828801613825565b9450506020613c5d8782880161384f565b9350506040613c6e8782880161384f565b9250506060613c7f8782880161384f565b91505092959194509250565b600060208284031215613c9d57600080fd5b6000613cab8482850161384f565b91505092915050565b600080600060608486031215613cc957600080fd5b6000613cd78682870161384f565b9350506020613ce88682870161384f565b9250506040613cf98682870161384f565b9150509250925092565b60008060008060808587031215613d1957600080fd5b6000613d278782880161384f565b9450506020613d388782880161384f565b9350506040613d498782880161384f565b9250506060613d5a8782880161384f565b91505092959194509250565b6000613d72838361421d565b60208301905092915050565b613d8781614a66565b82525050565b6000613d98826148e5565b613da28185614913565b9350613dad836148d5565b8060005b83811015613dde578151613dc58882613d66565b9750613dd083614906565b925050600181019050613db1565b5085935050505092915050565b613df481614a78565b82525050565b6000613e05826148f0565b613e0f8185614924565b9350613e1f818560208601614ae9565b613e2881614ca6565b840191505092915050565b6000613e3e826148fb565b613e488185614940565b9350613e58818560208601614ae9565b613e6181614ca6565b840191505092915050565b6000613e79603483614940565b9150613e8482614cc4565b604082019050919050565b6000613e9c602883614940565b9150613ea782614d13565b604082019050919050565b6000613ebf602b83614940565b9150613eca82614d62565b604082019050919050565b6000613ee2602983614940565b9150613eed82614db1565b604082019050919050565b6000613f05602683614940565b9150613f1082614e00565b604082019050919050565b6000613f28602983614940565b9150613f3382614e4f565b604082019050919050565b6000613f4b601083614940565b9150613f5682614e9e565b602082019050919050565b6000613f6e600683614940565b9150613f7982614ec7565b602082019050919050565b6000613f91602583614940565b9150613f9c82614ef0565b604082019050919050565b6000613fb4603283614940565b9150613fbf82614f3f565b604082019050919050565b6000613fd7602883614940565b9150613fe282614f8e565b604082019050919050565b6000613ffa602683614940565b915061400582614fdd565b604082019050919050565b600061401d602a83614940565b91506140288261502c565b604082019050919050565b6000614040602083614940565b915061404b8261507b565b602082019050919050565b6000614063601d83614940565b915061406e826150a4565b602082019050919050565b6000614086602283614940565b9150614091826150cd565b604082019050919050565b60006140a9601d83614940565b91506140b48261511c565b602082019050919050565b60006140cc601a83614940565b91506140d782615145565b602082019050919050565b60006140ef600083614935565b91506140fa8261516e565b600082019050919050565b6000614112602083614940565b915061411d82615171565b602082019050919050565b6000614135601b83614940565b91506141408261519a565b602082019050919050565b6000614158602783614940565b9150614163826151c3565b604082019050919050565b600061417b602983614940565b915061418682615212565b604082019050919050565b600061419e602983614940565b91506141a982615261565b604082019050919050565b60006141c1602883614940565b91506141cc826152b0565b604082019050919050565b60006141e4602d83614940565b91506141ef826152ff565b604082019050919050565b6000614207602183614940565b91506142128261534e565b604082019050919050565b61422681614ad0565b82525050565b61423581614ad0565b82525050565b6000614246826140e2565b9150819050919050565b60006020820190506142656000830184613d7e565b92915050565b600060a0820190506142806000830188613d7e565b61428d6020830187613d7e565b818103604083015261429f8186613d8d565b905081810360608301526142b38185613d8d565b905081810360808301526142c78184613dfa565b90509695505050505050565b600060a0820190506142e86000830188613d7e565b6142f56020830187613d7e565b614302604083018661422c565b61430f606083018561422c565b81810360808301526143218184613dfa565b90509695505050505050565b600060208201905081810360008301526143478184613d8d565b905092915050565b600060408201905081810360008301526143698185613d8d565b9050818103602083015261437d8184613d8d565b90509392505050565b600060208201905061439b6000830184613deb565b92915050565b600060208201905081810360008301526143bb8184613e33565b905092915050565b600060608201905081810360008301526143dd8186613e33565b90506143ec602083018561422c565b6143f9604083018461422c565b949350505050565b6000602082019050818103600083015261441a81613e6c565b9050919050565b6000602082019050818103600083015261443a81613e8f565b9050919050565b6000602082019050818103600083015261445a81613eb2565b9050919050565b6000602082019050818103600083015261447a81613ed5565b9050919050565b6000602082019050818103600083015261449a81613ef8565b9050919050565b600060208201905081810360008301526144ba81613f1b565b9050919050565b600060208201905081810360008301526144da81613f3e565b9050919050565b600060208201905081810360008301526144fa81613f61565b9050919050565b6000602082019050818103600083015261451a81613f84565b9050919050565b6000602082019050818103600083015261453a81613fa7565b9050919050565b6000602082019050818103600083015261455a81613fca565b9050919050565b6000602082019050818103600083015261457a81613fed565b9050919050565b6000602082019050818103600083015261459a81614010565b9050919050565b600060208201905081810360008301526145ba81614033565b9050919050565b600060208201905081810360008301526145da81614056565b9050919050565b600060208201905081810360008301526145fa81614079565b9050919050565b6000602082019050818103600083015261461a8161409c565b9050919050565b6000602082019050818103600083015261463a816140bf565b9050919050565b6000602082019050818103600083015261465a81614105565b9050919050565b6000602082019050818103600083015261467a81614128565b9050919050565b6000602082019050818103600083015261469a8161414b565b9050919050565b600060208201905081810360008301526146ba8161416e565b9050919050565b600060208201905081810360008301526146da81614191565b9050919050565b600060208201905081810360008301526146fa816141b4565b9050919050565b6000602082019050818103600083015261471a816141d7565b9050919050565b6000602082019050818103600083015261473a816141fa565b9050919050565b6000602082019050614756600083018461422c565b92915050565b6000604082019050614771600083018561422c565b61477e602083018461422c565b9392505050565b600060808201905061479a600083018761422c565b6147a7602083018661422c565b6147b46040830185613d7e565b6147c1606083018461422c565b95945050505050565b60006147d46147e5565b90506147e08282614b4e565b919050565b6000604051905090565b600067ffffffffffffffff82111561480a57614809614c55565b5b602082029050602081019050919050565b600067ffffffffffffffff82111561483657614835614c55565b5b602082029050602081019050919050565b600067ffffffffffffffff82111561486257614861614c55565b5b602082029050602081019050919050565b600067ffffffffffffffff82111561488e5761488d614c55565b5b61489782614ca6565b9050602081019050919050565b600067ffffffffffffffff8211156148bf576148be614c55565b5b6148c882614ca6565b9050602081019050919050565b6000819050602082019050919050565b600081519050919050565b600081519050919050565b600081519050919050565b6000602082019050919050565b600082825260208201905092915050565b600082825260208201905092915050565b600081905092915050565b600082825260208201905092915050565b600061495c82614ad0565b915061496783614ad0565b9250827fffffffffffffffffffffffffffffffffffffffffffffffffffffffffffffffff0382111561499c5761499b614bc8565b5b828201905092915050565b60006149b282614ad0565b91506149bd83614ad0565b9250826149cd576149cc614bf7565b5b828204905092915050565b60006149e382614ad0565b91506149ee83614ad0565b9250817fffffffffffffffffffffffffffffffffffffffffffffffffffffffffffffffff0483118215151615614a2757614a26614bc8565b5b828202905092915050565b6000614a3d82614ad0565b9150614a4883614ad0565b925082821015614a5b57614a5a614bc8565b5b828203905092915050565b6000614a7182614ab0565b9050919050565b60008115159050919050565b60007fffffffff0000000000000000000000000000000000000000000000000000000082169050919050565b600073ffffffffffffffffffffffffffffffffffffffff82169050919050565b6000819050919050565b82818337600083830152505050565b60005b83811015614b07578082015181840152602081019050614aec565b83811115614b16576000848401525b50505050565b60006002820490506001821680614b3457607f821691505b60208210811415614b4857614b47614c26565b5b50919050565b614b5782614ca6565b810181811067ffffffffffffffff82111715614b7657614b75614c55565b5b80604052505050565b6000614b8a82614ad0565b91507fffffffffffffffffffffffffffffffffffffffffffffffffffffffffffffffff821415614bbd57614bbc614bc8565b5b600182019050919050565b7f4e487b7100000000000000000000000000000000000000000000000000000000600052601160045260246000fd5b7f4e487b7100000000000000000000000000000000000000000000000000000000600052601260045260246000fd5b7f4e487b7100000000000000000000000000000000000000000000000000000000600052602260045260246000fd5b7f4e487b7100000000000000000000000000000000000000000000000000000000600052604160045260246000fd5b600060033d1115614ca35760046000803e614ca0600051614cb7565b90505b90565b6000601f19601f8301169050919050565b60008160e01c9050919050565b7f455243313135353a207472616e7366657220746f206e6f6e204552433131353560008201527f526563656976657220696d706c656d656e746572000000000000000000000000602082015250565b7f455243313135353a204552433131353552656365697665722072656a6563746560008201527f6420746f6b656e73000000000000000000000000000000000000000000000000602082015250565b7f455243313135353a2062616c616e636520717565727920666f7220746865207a60008201527f65726f2061646472657373000000000000000000000000000000000000000000602082015250565b7f69645f20686173206e6f7420616c72656164792073657420696e20746865206260008201527f6c61636b206c6973740000000000000000000000000000000000000000000000602082015250565b7f4f776e61626c653a206e6577206f776e657220697320746865207a65726f206160008201527f6464726573730000000000000000000000000000000000000000000000000000602082015250565b7f455243313135353a2063616c6c6572206973206e6f74206f776e6572206e6f7260008201527f20617070726f7665640000000000000000000000000000000000000000000000602082015250565b7f686176652073616d6520616d6f756e7400000000000000000000000000000000600082015250565b7f3125206665650000000000000000000000000000000000000000000000000000600082015250565b7f455243313135353a207472616e7366657220746f20746865207a65726f20616460008201527f6472657373000000000000000000000000000000000000000000000000000000602082015250565b7f455243313135353a207472616e736665722063616c6c6572206973206e6f742060008201527f6f776e6572206e6f7220617070726f7665640000000000000000000000000000602082015250565b7f616d6f756e742063616e206e6f74206265207a65726f206f72206c657373207460008201527f68616e207a65726f000000000000000000000000000000000000000000000000602082015250565b7f49442068617320746f206265206c657373207468616e206e6674206c6973742060008201527f6c656e6774680000000000000000000000000000000000000000000000000000602082015250565b7f455243313135353a20696e73756666696369656e742062616c616e636520666f60008201527f72207472616e7366657200000000000000000000000000000000000000000000602082015250565b7f4f776e61626c653a2063616c6c6572206973206e6f7420746865206f776e6572600082015250565b7f686173685f2063616e206e6f7420626520656d70747920737472696e67000000600082015250565b7f69645f2068617320746f206265206c657373207468616e206e6674206c656e6760008201527f7468000000000000000000000000000000000000000000000000000000000000602082015250565b7f736574206174206c65617374206f6e65206f662074776f20636f696e73000000600082015250565b7f70726963655f2068617320746f20626520617661696c61626c65000000000000600082015250565b50565b7f616d6f756e742068617320746f206c657373207468616e206361706163697479600082015250565b7f616d6f756e745f2068617320746f20626520617661696c61626c650000000000600082015250565b7f49442068617320746f206265206c657373207468616e2073656c6c206c69737460008201527f206c656e67746800000000000000000000000000000000000000000000000000602082015250565b7f455243313135353a2073657474696e6720617070726f76616c2073746174757360008201527f20666f722073656c660000000000000000000000000000000000000000000000602082015250565b7f455243313135353a206163636f756e747320616e6420696473206c656e67746860008201527f206d69736d617463680000000000000000000000000000000000000000000000602082015250565b7f455243313135353a2069647320616e6420616d6f756e7473206c656e6774682060008201527f6d69736d61746368000000000000000000000000000000000000000000000000602082015250565b7f73656c6c5f69645f2068617320746f206265206c657373207468616e2073656c60008201527f6c206c697374206c656e67746800000000000000000000000000000000000000602082015250565b7f455243313135353a206d696e7420746f20746865207a65726f2061646472657360008201527f7300000000000000000000000000000000000000000000000000000000000000602082015250565b600060443d10156153ad57615430565b6153b56147e5565b60043d036004823e80513d602482011167ffffffffffffffff821117156153dd575050615430565b808201805167ffffffffffffffff8111156153fb5750505050615430565b80602083010160043d038501811115615418575050505050615430565b61542782602001850186614b4e565b82955050505050505b90565b61543c81614a66565b811461544757600080fd5b50565b61545381614a78565b811461545e57600080fd5b50565b61546a81614a84565b811461547557600080fd5b50565b61548181614ad0565b811461548c57600080fd5b5056fea2646970667358221220a2cee1b8f065aea91139860cb1b492660c8a04251ada324e55d0f44ce3f7fa3f64736f6c63430008040033",
  "immutableReferences": {},
  "source": "pragma solidity ^0.8.0;\n\nimport \"@openzeppelin/contracts/token/ERC1155/ERC1155.sol\";\nimport \"@openzeppelin/contracts/access/Ownable.sol\";\n\ncontract Meme is ERC1155, Ownable{\n    \n    struct NFT {\n        string hash_;\n        uint e_price_;\n        uint d_price_;\n    }\n    NFT[] nft_list;\n\n    struct Sell {\n        uint nft_id_;\n        uint e_price_;\n        uint d_price_;\n        address payable owner_;\n        uint amount_;\n    }\n    Sell[] sell_list;\n\n    uint[] black_list;\n    mapping (uint => bool) isBlacklist;\n\n    address payable eth_receiver;\n\n    constructor(\n        address payable _ethReceiver\n    ) ERC1155(\"\") Ownable() {\n        require(_ethReceiver != address(0));\n        eth_receiver = _ethReceiver;\n    }\n    function Set_nft (string memory hash_, uint amount_, uint e_price_, uint d_price_) public {\n        // require : hash_ can not be empty string\n        require(bytes(hash_).length > 0, \"hash_ can not be empty string\");\n        // require : amount can not be zero or less than zero\n        require(amount_ > 0, \"amount can not be zero or less than zero\");\n        _mint(msg.sender, nft_list.length, amount_, \"\");\n\n        NFT memory temp = NFT(hash_, e_price_, d_price_);\n        nft_list.push(temp);\n    }\n    //(bool platformTransferSuccess,) = platformFeeRecipient.call{value : platformFeeInETH}(\"\");\n    //require(platformTransferSuccess, \"NFTAuction.resultAuction: Failed to send platform fee\");\n    function Batch_set_nft (string[] memory hashes_, uint[] memory amounts_, uint[] memory e_prices_, uint[] memory d_prices_) public {\n        require(hashes_.length == amounts_.length, \"have same amount\");\n        require(hashes_.length == e_prices_.length, \"have same amount\");\n        require(hashes_.length == d_prices_.length, \"have same amount\");\n\n        for (uint i = 0 ; i < hashes_.length ; i++) {\n            Set_nft(hashes_[i], amounts_[i], e_prices_[i], d_prices_[i]);\n        }\n    }\n\n    function Get_nft (uint id_) public view returns (string memory, uint, uint) {\n        return (\n            nft_list[id_].hash_,\n            nft_list[id_].e_price_,\n            nft_list[id_].d_price_\n        );\n    }\n\n    function Get_nft_amount () public view returns (uint) {\n        return nft_list.length;\n    }\n\n    function Get_list_fee (uint price_) public view returns (uint) {\n        return (price_/100);\n    }\n    function Set_sell (uint id_, uint e_price_, uint d_price_, uint amount_) public payable returns(uint){\n        // require : id_ is avaliable \n        require( id_ < nft_list.length, \"ID has to be less than nft list length\");\n        // require : set at least one of two coins\n        require ( (e_price_ > 0) || (d_price_ > 0), \"set at least one of two coins\");\n        // require : 1% fee\n        if ( e_price_ == 0 && d_price_ > 0) {\n            require(Get_list_fee(d_price_) * amount_ == msg.value, \"1% fee\");\n        } else if ( e_price_ > 0 && d_price_ == 0) {\n            require(Get_list_fee(e_price_) * amount_ == msg.value, \"1% fee\");\n        } else if ( e_price_ > 0 && d_price_ > 0) {\n            require((Get_list_fee(e_price_) + Get_list_fee(d_price_)) * amount_ == msg.value, \"1% fee\");\n        }\n        // require : amount_ has to be available\n        require((amount_>0) && ( balanceOf(msg.sender, id_) >= amount_ ), \"amount_ has to be available\");\n        \n        Sell memory sell_temp = Sell(id_, e_price_, d_price_, payable(msg.sender), amount_);\n        sell_list.push(sell_temp);\n        return (sell_list.length - 1);\n    }\n\n    function Update_sell (uint sell_id_, uint e_price_, uint d_price_, uint amount_) public {\n        // require : id_ is avaliable \n        require( sell_id_ < sell_list.length, \"ID has to be less than sell list length\");\n        // require : set at least one of two coins\n        require ( (e_price_ > 0) || (d_price_ > 0), \"set at least one of two coins\");\n        // require : amount_ has to be available\n        require((amount_>0) && ( balanceOf(msg.sender, sell_list[sell_id_].nft_id_) >= amount_ ), \"amount_ has to be available\");\n        sell_list[sell_id_].e_price_ = e_price_;\n        sell_list[sell_id_].d_price_ = d_price_;\n        sell_list[sell_id_].amount_ = amount_;\n    }\n\n    function Remove_selling (uint id_) public onlyOwner {\n        // require : id_ is avaliable \n        require( id_ < sell_list.length, \"ID has to be less than sell list length\");\n        delete sell_list[id_];\n    }\n\n    function Get_sell (uint id_) public view returns (uint, uint, address, uint) {\n        // require : id_ is avaliable \n        require( id_ < sell_list.length, \"ID has to be less than sell list length\");\n        return (\n            sell_list[id_].e_price_,\n            sell_list[id_].d_price_,\n            sell_list[id_].owner_,\n            sell_list[id_].amount_\n        );\n    }\n\n    function Get_sell_fee (uint price_) public view returns(uint) {\n        // require : price_ has to be available\n        require( price_ > 0, \"price_ has to be available\");\n        return price_ * 25 / 1000;\n    }\n    function Get_real_price (uint price_) public view returns (uint) {\n        // require : price_ has to be available\n        require( price_ > 0, \"price_ has to be available\");\n        return price_ * 975 / 1000;\n    }\n    function Buying (uint sell_id_, uint amount_, uint token_kind_) public payable {\n        // require : sell_id_ has to be less than sell list length\n        require( sell_id_ < sell_list.length,  \"sell_id_ has to be less than sell list length\");\n        // require : buying amount has to be avaliable\n        require( amount_ <= sell_list[sell_id_].amount_, \"amount has to less than capacity\" );\n        \n        safeTransferFrom( msg.sender, sell_list[sell_id_].owner_, sell_list[sell_id_].nft_id_, amount_, \"\" );\n        if (amount_ == sell_list[sell_id_].amount_) {\n            Remove_selling(sell_id_);\n        } else {\n            sell_list[sell_id_].amount_ = sell_list[sell_id_].amount_ - amount_;\n        }\n        \n        if( token_kind_ == 0 ){\n            sell_list[sell_id_].owner_.transfer(Get_real_price(sell_list[sell_id_].e_price_));\n            uint temp = Get_sell_fee(sell_list[sell_id_].e_price_);\n            eth_receiver.call{value: temp}(\"\");\n        } else {\n            sell_list[sell_id_].owner_.transfer(Get_real_price(sell_list[sell_id_].d_price_));\n            eth_receiver.call{value: Get_sell_fee(sell_list[sell_id_].d_price_)}(\"\");\n        }\n\n    }\n    \n    function Set_blacklist (uint id_) public onlyOwner {\n        // require : id_ has to be less than nft length\n        require(id_ < nft_list.length, \"id_ has to be less than nft length\");\n        // require : id_ has not already set in the black list\n        require(isBlacklist[id_] == false, \"id_ has not already set in the black list\");\n        black_list.push(id_);\n        isBlacklist[id_] = true;\n    }\n\n    function check_blacklist (uint id_) public view returns (bool) {\n        // require : id_ has to be less than nft length\n        require(id_ < nft_list.length, \"id_ has to be less than nft length\");\n        return isBlacklist[id_];\n    }\n    receive() payable external {}\n    function getETH() external onlyOwner {\n        payable(msg.sender).transfer(address(this).balance);\n    }\n}",
  "sourcePath": "/home/oncemore/Blockchain Work/NFT_marketplace_smartcontract(MEME_20210511)/contracts/Meme.sol",
  "compiler": {
    "name": "solc",
    "version": "0.8.4+commit.c7e474f2.Emscripten.clang"
  },
  "schemaVersion": "3.3.4",
  "updatedAt": "2021-05-13T09:27:00.133Z",
  "devdoc": {
    "kind": "dev",
    "methods": {
      "balanceOf(address,uint256)": {
        "details": "See {IERC1155-balanceOf}. Requirements: - `account` cannot be the zero address."
      },
      "balanceOfBatch(address[],uint256[])": {
        "details": "See {IERC1155-balanceOfBatch}. Requirements: - `accounts` and `ids` must have the same length."
      },
      "isApprovedForAll(address,address)": {
        "details": "See {IERC1155-isApprovedForAll}."
      },
      "owner()": {
        "details": "Returns the address of the current owner."
      },
      "renounceOwnership()": {
        "details": "Leaves the contract without owner. It will not be possible to call `onlyOwner` functions anymore. Can only be called by the current owner. NOTE: Renouncing ownership will leave the contract without an owner, thereby removing any functionality that is only available to the owner."
      },
      "safeBatchTransferFrom(address,address,uint256[],uint256[],bytes)": {
        "details": "See {IERC1155-safeBatchTransferFrom}."
      },
      "safeTransferFrom(address,address,uint256,uint256,bytes)": {
        "details": "See {IERC1155-safeTransferFrom}."
      },
      "setApprovalForAll(address,bool)": {
        "details": "See {IERC1155-setApprovalForAll}."
      },
      "supportsInterface(bytes4)": {
        "details": "See {IERC165-supportsInterface}."
      },
      "transferOwnership(address)": {
        "details": "Transfers ownership of the contract to a new account (`newOwner`). Can only be called by the current owner."
      },
      "uri(uint256)": {
        "details": "See {IERC1155MetadataURI-uri}. This implementation returns the same URI for *all* token types. It relies on the token type ID substitution mechanism https://eips.ethereum.org/EIPS/eip-1155#metadata[defined in the EIP]. Clients calling this function must replace the `\\{id\\}` substring with the actual token type ID."
      }
    },
    "version": 1
  },
  "userdoc": {
    "kind": "user",
    "methods": {},
    "version": 1
  }
}