{
  "contractName": "Mint",
  "abi": [
    {
      "inputs": [],
      "stateMutability": "nonpayable",
      "type": "constructor"
    },
    {
      "anonymous": false,
      "inputs": [
        {
          "indexed": true,
          "internalType": "address",
          "name": "account",
          "type": "address"
        },
        {
          "indexed": true,
          "internalType": "address",
          "name": "operator",
          "type": "address"
        },
        {
          "indexed": false,
          "internalType": "bool",
          "name": "approved",
          "type": "bool"
        }
      ],
      "name": "ApprovalForAll",
      "type": "event"
    },
    {
      "anonymous": false,
      "inputs": [
        {
          "indexed": true,
          "internalType": "address",
          "name": "previousOwner",
          "type": "address"
        },
        {
          "indexed": true,
          "internalType": "address",
          "name": "newOwner",
          "type": "address"
        }
      ],
      "name": "OwnershipTransferred",
      "type": "event"
    },
    {
      "anonymous": false,
      "inputs": [
        {
          "indexed": true,
          "internalType": "address",
          "name": "operator",
          "type": "address"
        },
        {
          "indexed": true,
          "internalType": "address",
          "name": "from",
          "type": "address"
        },
        {
          "indexed": true,
          "internalType": "address",
          "name": "to",
          "type": "address"
        },
        {
          "indexed": false,
          "internalType": "uint256[]",
          "name": "ids",
          "type": "uint256[]"
        },
        {
          "indexed": false,
          "internalType": "uint256[]",
          "name": "values",
          "type": "uint256[]"
        }
      ],
      "name": "TransferBatch",
      "type": "event"
    },
    {
      "anonymous": false,
      "inputs": [
        {
          "indexed": true,
          "internalType": "address",
          "name": "operator",
          "type": "address"
        },
        {
          "indexed": true,
          "internalType": "address",
          "name": "from",
          "type": "address"
        },
        {
          "indexed": true,
          "internalType": "address",
          "name": "to",
          "type": "address"
        },
        {
          "indexed": false,
          "internalType": "uint256",
          "name": "id",
          "type": "uint256"
        },
        {
          "indexed": false,
          "internalType": "uint256",
          "name": "value",
          "type": "uint256"
        }
      ],
      "name": "TransferSingle",
      "type": "event"
    },
    {
      "anonymous": false,
      "inputs": [
        {
          "indexed": false,
          "internalType": "string",
          "name": "value",
          "type": "string"
        },
        {
          "indexed": true,
          "internalType": "uint256",
          "name": "id",
          "type": "uint256"
        }
      ],
      "name": "URI",
      "type": "event"
    },
    {
      "inputs": [
        {
          "internalType": "address",
          "name": "account",
          "type": "address"
        },
        {
          "internalType": "uint256",
          "name": "id",
          "type": "uint256"
        }
      ],
      "name": "balanceOf",
      "outputs": [
        {
          "internalType": "uint256",
          "name": "",
          "type": "uint256"
        }
      ],
      "stateMutability": "view",
      "type": "function"
    },
    {
      "inputs": [
        {
          "internalType": "address[]",
          "name": "accounts",
          "type": "address[]"
        },
        {
          "internalType": "uint256[]",
          "name": "ids",
          "type": "uint256[]"
        }
      ],
      "name": "balanceOfBatch",
      "outputs": [
        {
          "internalType": "uint256[]",
          "name": "",
          "type": "uint256[]"
        }
      ],
      "stateMutability": "view",
      "type": "function"
    },
    {
      "inputs": [
        {
          "internalType": "address",
          "name": "account",
          "type": "address"
        },
        {
          "internalType": "address",
          "name": "operator",
          "type": "address"
        }
      ],
      "name": "isApprovedForAll",
      "outputs": [
        {
          "internalType": "bool",
          "name": "",
          "type": "bool"
        }
      ],
      "stateMutability": "view",
      "type": "function"
    },
    {
      "inputs": [],
      "name": "owner",
      "outputs": [
        {
          "internalType": "address",
          "name": "",
          "type": "address"
        }
      ],
      "stateMutability": "view",
      "type": "function"
    },
    {
      "inputs": [],
      "name": "renounceOwnership",
      "outputs": [],
      "stateMutability": "nonpayable",
      "type": "function"
    },
    {
      "inputs": [
        {
          "internalType": "address",
          "name": "from",
          "type": "address"
        },
        {
          "internalType": "address",
          "name": "to",
          "type": "address"
        },
        {
          "internalType": "uint256[]",
          "name": "ids",
          "type": "uint256[]"
        },
        {
          "internalType": "uint256[]",
          "name": "amounts",
          "type": "uint256[]"
        },
        {
          "internalType": "bytes",
          "name": "data",
          "type": "bytes"
        }
      ],
      "name": "safeBatchTransferFrom",
      "outputs": [],
      "stateMutability": "nonpayable",
      "type": "function"
    },
    {
      "inputs": [
        {
          "internalType": "address",
          "name": "from",
          "type": "address"
        },
        {
          "internalType": "address",
          "name": "to",
          "type": "address"
        },
        {
          "internalType": "uint256",
          "name": "id",
          "type": "uint256"
        },
        {
          "internalType": "uint256",
          "name": "amount",
          "type": "uint256"
        },
        {
          "internalType": "bytes",
          "name": "data",
          "type": "bytes"
        }
      ],
      "name": "safeTransferFrom",
      "outputs": [],
      "stateMutability": "nonpayable",
      "type": "function"
    },
    {
      "inputs": [
        {
          "internalType": "address",
          "name": "operator",
          "type": "address"
        },
        {
          "internalType": "bool",
          "name": "approved",
          "type": "bool"
        }
      ],
      "name": "setApprovalForAll",
      "outputs": [],
      "stateMutability": "nonpayable",
      "type": "function"
    },
    {
      "inputs": [
        {
          "internalType": "bytes4",
          "name": "interfaceId",
          "type": "bytes4"
        }
      ],
      "name": "supportsInterface",
      "outputs": [
        {
          "internalType": "bool",
          "name": "",
          "type": "bool"
        }
      ],
      "stateMutability": "view",
      "type": "function"
    },
    {
      "inputs": [
        {
          "internalType": "address",
          "name": "newOwner",
          "type": "address"
        }
      ],
      "name": "transferOwnership",
      "outputs": [],
      "stateMutability": "nonpayable",
      "type": "function"
    },
    {
      "inputs": [
        {
          "internalType": "uint256",
          "name": "",
          "type": "uint256"
        }
      ],
      "name": "uri",
      "outputs": [
        {
          "internalType": "string",
          "name": "",
          "type": "string"
        }
      ],
      "stateMutability": "view",
      "type": "function"
    },
    {
      "inputs": [
        {
          "internalType": "string",
          "name": "_hash",
          "type": "string"
        }
      ],
      "name": "create_collection",
      "outputs": [
        {
          "internalType": "bool",
          "name": "",
          "type": "bool"
        }
      ],
      "stateMutability": "nonpayable",
      "type": "function"
    },
    {
      "inputs": [],
      "name": "get_collection_count",
      "outputs": [
        {
          "internalType": "uint256",
          "name": "",
          "type": "uint256"
        }
      ],
      "stateMutability": "view",
      "type": "function"
    },
    {
      "inputs": [
        {
          "internalType": "uint256",
          "name": "_id",
          "type": "uint256"
        }
      ],
      "name": "get_collection_hash",
      "outputs": [
        {
          "internalType": "string",
          "name": "",
          "type": "string"
        }
      ],
      "stateMutability": "view",
      "type": "function"
    },
    {
      "inputs": [
        {
          "internalType": "bytes32",
          "name": "_hash",
          "type": "bytes32"
        },
        {
          "internalType": "uint256",
          "name": "_collection_id",
          "type": "uint256"
        },
        {
          "internalType": "uint256",
          "name": "_amount",
          "type": "uint256"
        }
      ],
      "name": "single_mint",
      "outputs": [
        {
          "internalType": "uint256",
          "name": "",
          "type": "uint256"
        }
      ],
      "stateMutability": "nonpayable",
      "type": "function"
    },
    {
      "inputs": [
        {
          "internalType": "bytes32[]",
          "name": "_hashes",
          "type": "bytes32[]"
        },
        {
          "internalType": "uint256[]",
          "name": "_collection_ids",
          "type": "uint256[]"
        },
        {
          "internalType": "uint256[]",
          "name": "_amounts",
          "type": "uint256[]"
        }
      ],
      "name": "batch_mint",
      "outputs": [],
      "stateMutability": "nonpayable",
      "type": "function"
    },
    {
      "inputs": [
        {
          "internalType": "uint256",
          "name": "_nft_id",
          "type": "uint256"
        }
      ],
      "name": "get_nft_hash",
      "outputs": [
        {
          "internalType": "bytes32",
          "name": "",
          "type": "bytes32"
        }
      ],
      "stateMutability": "view",
      "type": "function"
    },
    {
      "inputs": [],
      "name": "get_nft_counter",
      "outputs": [
        {
          "internalType": "uint256",
          "name": "",
          "type": "uint256"
        }
      ],
      "stateMutability": "view",
      "type": "function"
    },
    {
      "inputs": [
        {
          "internalType": "uint256",
          "name": "_collection_id",
          "type": "uint256"
        }
      ],
      "name": "get_nft_counter_per_collection",
      "outputs": [
        {
          "internalType": "uint256",
          "name": "",
          "type": "uint256"
        }
      ],
      "stateMutability": "view",
      "type": "function"
    },
    {
      "inputs": [
        {
          "internalType": "uint256",
          "name": "nft_global_id",
          "type": "uint256"
        }
      ],
      "name": "set_selling_list",
      "outputs": [
        {
          "internalType": "uint256",
          "name": "",
          "type": "uint256"
        }
      ],
      "stateMutability": "nonpayable",
      "type": "function"
    },
    {
      "inputs": [
        {
          "internalType": "uint256",
          "name": "nft_global_id",
          "type": "uint256"
        }
      ],
      "name": "remove_selling_item",
      "outputs": [
        {
          "internalType": "uint256",
          "name": "",
          "type": "uint256"
        }
      ],
      "stateMutability": "nonpayable",
      "type": "function"
    }
  ],
  "bytecode": "0x60806040523480156200001157600080fd5b50604051806020016040528060008152506200003381620000eb60201b60201c565b506000620000466200010760201b60201c565b905080600360006101000a81548173ffffffffffffffffffffffffffffffffffffffff021916908373ffffffffffffffffffffffffffffffffffffffff1602179055508073ffffffffffffffffffffffffffffffffffffffff16600073ffffffffffffffffffffffffffffffffffffffff167f8be0079c531659141344cd1fd0a4f28419497f9722a3daafe3b4186f6b6457e060405160405180910390a35062000224565b8060029080519060200190620001039291906200010f565b5050565b600033905090565b8280546200011d90620001bf565b90600052602060002090601f0160209004810192826200014157600085556200018d565b82601f106200015c57805160ff19168380011785556200018d565b828001600101855582156200018d579182015b828111156200018c5782518255916020019190600101906200016f565b5b5090506200019c9190620001a0565b5090565b5b80821115620001bb576000816000905550600101620001a1565b5090565b60006002820490506001821680620001d857607f821691505b60208210811415620001ef57620001ee620001f5565b5b50919050565b7f4e487b7100000000000000000000000000000000000000000000000000000000600052602260045260246000fd5b613d7480620002346000396000f3fe608060405234801561001057600080fd5b50600436106101365760003560e01c8063829ec16a116100b8578063a24e46f41161007c578063a24e46f414610373578063b943afda146103a3578063df482b3c146103d3578063e985e9c514610403578063f242432a14610433578063f2fde38b1461044f57610136565b8063829ec16a146102cf5780638da5cb5b146102eb57806395de1627146103095780639f31320e14610327578063a22cb4651461035757610136565b80632eb2c2d6116100ff5780632eb2c2d61461021957806333efb7fd146102355780634e1273f41461026557806369709f9914610295578063715018a6146102c557610136565b8062fdd58e1461013b57806301ffc9a71461016b5780630e89341c1461019b5780630f985315146101cb5780632b497ebb146101e9575b600080fd5b610155600480360381019061015091906126ec565b61046b565b604051610162919061317b565b60405180910390f35b6101856004803603810190610180919061287a565b610534565b6040516101929190612ea3565b60405180910390f35b6101b560048036038101906101b0919061290d565b610616565b6040516101c29190612ed9565b60405180910390f35b6101d36106aa565b6040516101e0919061317b565b60405180910390f35b61020360048036038101906101fe919061290d565b6106b4565b604051610210919061317b565b60405180910390f35b610233600480360381019061022e9190612562565b610737565b005b61024f600480360381019061024a919061290d565b610b2d565b60405161025c919061317b565b60405180910390f35b61027f600480360381019061027a9190612728565b610b8e565b60405161028c9190612e4a565b60405180910390f35b6102af60048036038101906102aa919061290d565b610d3f565b6040516102bc9190612ebe565b60405180910390f35b6102cd610da0565b005b6102e960048036038101906102e49190612794565b610edd565b005b6102f3611018565b6040516103009190612d6d565b60405180910390f35b610311611042565b60405161031e919061317b565b60405180910390f35b610341600480360381019061033c919061282b565b61104c565b60405161034e919061317b565b60405180910390f35b610371600480360381019061036c91906126b0565b611116565b005b61038d6004803603810190610388919061290d565b611297565b60405161039a919061317b565b60405180910390f35b6103bd60048036038101906103b8919061290d565b611319565b6040516103ca9190612ed9565b60405180910390f35b6103ed60048036038101906103e891906128cc565b611402565b6040516103fa9190612ea3565b60405180910390f35b61041d60048036038101906104189190612526565b61153b565b60405161042a9190612ea3565b60405180910390f35b61044d60048036038101906104489190612621565b6115cf565b005b610469600480360381019061046491906124fd565b6118e7565b005b60008073ffffffffffffffffffffffffffffffffffffffff168373ffffffffffffffffffffffffffffffffffffffff1614156104dc576040517f08c379a00000000000000000000000000000000000000000000000000000000081526004016104d390612f3b565b60405180910390fd5b60008083815260200190815260200160002060008473ffffffffffffffffffffffffffffffffffffffff1673ffffffffffffffffffffffffffffffffffffffff16815260200190815260200160002054905092915050565b60007fd9b67a26000000000000000000000000000000000000000000000000000000007bffffffffffffffffffffffffffffffffffffffffffffffffffffffff1916827bffffffffffffffffffffffffffffffffffffffffffffffffffffffff191614806105ff57507f0e89341c000000000000000000000000000000000000000000000000000000007bffffffffffffffffffffffffffffffffffffffffffffffffffffffff1916827bffffffffffffffffffffffffffffffffffffffffffffffffffffffff1916145b8061060f575061060e82611a93565b5b9050919050565b60606002805461062590613490565b80601f016020809104026020016040519081016040528092919081815260200182805461065190613490565b801561069e5780601f106106735761010080835404028352916020019161069e565b820191906000526020600020905b81548152906001019060200180831161068157829003601f168201915b50505050509050919050565b6000600954905090565b60006106be611afd565b73ffffffffffffffffffffffffffffffffffffffff166106dc611018565b73ffffffffffffffffffffffffffffffffffffffff1614610732576040517f08c379a00000000000000000000000000000000000000000000000000000000081526004016107299061305b565b60405180910390fd5b919050565b815183511461077b576040517f08c379a00000000000000000000000000000000000000000000000000000000081526004016107729061311b565b60405180910390fd5b600073ffffffffffffffffffffffffffffffffffffffff168473ffffffffffffffffffffffffffffffffffffffff1614156107eb576040517f08c379a00000000000000000000000000000000000000000000000000000000081526004016107e290612ffb565b60405180910390fd5b6107f3611afd565b73ffffffffffffffffffffffffffffffffffffffff168573ffffffffffffffffffffffffffffffffffffffff161480610839575061083885610833611afd565b61153b565b5b610878576040517f08c379a000000000000000000000000000000000000000000000000000000000815260040161086f9061301b565b60405180910390fd5b6000610882611afd565b9050610892818787878787611b05565b60005b8451811015610a985760008582815181106108d9577f4e487b7100000000000000000000000000000000000000000000000000000000600052603260045260246000fd5b60200260200101519050600085838151811061091e577f4e487b7100000000000000000000000000000000000000000000000000000000600052603260045260246000fd5b60200260200101519050600080600084815260200190815260200160002060008b73ffffffffffffffffffffffffffffffffffffffff1673ffffffffffffffffffffffffffffffffffffffff168152602001908152602001600020549050818110156109bf576040517f08c379a00000000000000000000000000000000000000000000000000000000081526004016109b69061303b565b60405180910390fd5b81816109cb919061339c565b60008085815260200190815260200160002060008c73ffffffffffffffffffffffffffffffffffffffff1673ffffffffffffffffffffffffffffffffffffffff168152602001908152602001600020819055508160008085815260200190815260200160002060008b73ffffffffffffffffffffffffffffffffffffffff1673ffffffffffffffffffffffffffffffffffffffff1681526020019081526020016000206000828254610a7d9190613346565b9250508190555050505080610a91906134f3565b9050610895565b508473ffffffffffffffffffffffffffffffffffffffff168673ffffffffffffffffffffffffffffffffffffffff168273ffffffffffffffffffffffffffffffffffffffff167f4a39dc06d4c0dbc64b70af90fd698a233a518aa5d07e595d983b8c0526c8f7fb8787604051610b0f929190612e6c565b60405180910390a4610b25818787878787611b0d565b505050505050565b60006006548210610b73576040517f08c379a0000000000000000000000000000000000000000000000000000000008152600401610b6a90612f7b565b60405180910390fd5b600a6000838152602001908152602001600020549050919050565b60608151835114610bd4576040517f08c379a0000000000000000000000000000000000000000000000000000000008152600401610bcb906130fb565b60405180910390fd5b6000835167ffffffffffffffff811115610c17577f4e487b7100000000000000000000000000000000000000000000000000000000600052604160045260246000fd5b604051908082528060200260200182016040528015610c455781602001602082028036833780820191505090505b50905060005b8451811015610d3457610cde858281518110610c90577f4e487b7100000000000000000000000000000000000000000000000000000000600052603260045260246000fd5b6020026020010151858381518110610cd1577f4e487b7100000000000000000000000000000000000000000000000000000000600052603260045260246000fd5b602002602001015161046b565b828281518110610d17577f4e487b7100000000000000000000000000000000000000000000000000000000600052603260045260246000fd5b60200260200101818152505080610d2d906134f3565b9050610c4b565b508091505092915050565b60006009548210610d85576040517f08c379a0000000000000000000000000000000000000000000000000000000008152600401610d7c906130bb565b60405180910390fd5b60076000838152602001908152602001600020549050919050565b610da8611afd565b73ffffffffffffffffffffffffffffffffffffffff16610dc6611018565b73ffffffffffffffffffffffffffffffffffffffff1614610e1c576040517f08c379a0000000000000000000000000000000000000000000000000000000008152600401610e139061305b565b60405180910390fd5b600073ffffffffffffffffffffffffffffffffffffffff16600360009054906101000a900473ffffffffffffffffffffffffffffffffffffffff1673ffffffffffffffffffffffffffffffffffffffff167f8be0079c531659141344cd1fd0a4f28419497f9722a3daafe3b4186f6b6457e060405160405180910390a36000600360006101000a81548173ffffffffffffffffffffffffffffffffffffffff021916908373ffffffffffffffffffffffffffffffffffffffff160217905550565b8151835114610f21576040517f08c379a0000000000000000000000000000000000000000000000000000000008152600401610f189061307b565b60405180910390fd5b60008351905060005b8181101561101157610ffd858281518110610f6e577f4e487b7100000000000000000000000000000000000000000000000000000000600052603260045260246000fd5b6020026020010151858381518110610faf577f4e487b7100000000000000000000000000000000000000000000000000000000600052603260045260246000fd5b6020026020010151858481518110610ff0577f4e487b7100000000000000000000000000000000000000000000000000000000600052603260045260246000fd5b602002602001015161104c565b508080611009906134f3565b915050610f2a565b5050505050565b6000600360009054906101000a900473ffffffffffffffffffffffffffffffffffffffff16905090565b6000600654905090565b600083600760006009548152602001908152602001600020819055506000600a600085815260200190815260200160002054905060095460086000868152602001908152602001600020600083815260200190815260200160002081905550600a600085815260200190815260200160002060008154809291906110cf906134f3565b91905055506110f1336009548560405180602001604052806000815250611cf4565b60096000815480929190611104906134f3565b91905055506009549150509392505050565b8173ffffffffffffffffffffffffffffffffffffffff16611135611afd565b73ffffffffffffffffffffffffffffffffffffffff16141561118c576040517f08c379a0000000000000000000000000000000000000000000000000000000008152600401611183906130db565b60405180910390fd5b8060016000611199611afd565b73ffffffffffffffffffffffffffffffffffffffff1673ffffffffffffffffffffffffffffffffffffffff16815260200190815260200160002060008473ffffffffffffffffffffffffffffffffffffffff1673ffffffffffffffffffffffffffffffffffffffff16815260200190815260200160002060006101000a81548160ff0219169083151502179055508173ffffffffffffffffffffffffffffffffffffffff16611246611afd565b73ffffffffffffffffffffffffffffffffffffffff167f17307eab39ab6107e8899845ad3d59bd9653f200f220920489ca2b5937696c318360405161128b9190612ea3565b60405180910390a35050565b600060095482106112dd576040517f08c379a00000000000000000000000000000000000000000000000000000000081526004016112d49061309b565b60405180910390fd5b81600b6000600c54815260200190815260200160002081905550600c600081548092919061130a906134f3565b9190505550600c549050919050565b6060600654821061135f576040517f08c379a000000000000000000000000000000000000000000000000000000000815260040161135690612fdb565b60405180910390fd5b60046000838152602001908152602001600020805461137d90613490565b80601f01602080910402602001604051908101604052809291908181526020018280546113a990613490565b80156113f65780601f106113cb576101008083540402835291602001916113f6565b820191906000526020600020905b8154815290600101906020018083116113d957829003601f168201915b50505050509050919050565b600080825111611447576040517f08c379a000000000000000000000000000000000000000000000000000000000815260040161143e90612fbb565b60405180910390fd5b6000151560058360405161145b9190612d56565b908152602001604051809103902060009054906101000a900460ff161515146114b9576040517f08c379a00000000000000000000000000000000000000000000000000000000081526004016114b09061315b565b60405180910390fd5b8160046000600654815260200190815260200160002090805190602001906114e292919061214a565b5060016005836040516114f59190612d56565b908152602001604051809103902060006101000a81548160ff0219169083151502179055506006600081548092919061152d906134f3565b919050555060019050919050565b6000600160008473ffffffffffffffffffffffffffffffffffffffff1673ffffffffffffffffffffffffffffffffffffffff16815260200190815260200160002060008373ffffffffffffffffffffffffffffffffffffffff1673ffffffffffffffffffffffffffffffffffffffff16815260200190815260200160002060009054906101000a900460ff16905092915050565b600073ffffffffffffffffffffffffffffffffffffffff168473ffffffffffffffffffffffffffffffffffffffff16141561163f576040517f08c379a000000000000000000000000000000000000000000000000000000000815260040161163690612ffb565b60405180910390fd5b611647611afd565b73ffffffffffffffffffffffffffffffffffffffff168573ffffffffffffffffffffffffffffffffffffffff16148061168d575061168c85611687611afd565b61153b565b5b6116cc576040517f08c379a00000000000000000000000000000000000000000000000000000000081526004016116c390612f9b565b60405180910390fd5b60006116d6611afd565b90506116f68187876116e788611e8a565b6116f088611e8a565b87611b05565b600080600086815260200190815260200160002060008873ffffffffffffffffffffffffffffffffffffffff1673ffffffffffffffffffffffffffffffffffffffff1681526020019081526020016000205490508381101561178d576040517f08c379a00000000000000000000000000000000000000000000000000000000081526004016117849061303b565b60405180910390fd5b8381611799919061339c565b60008087815260200190815260200160002060008973ffffffffffffffffffffffffffffffffffffffff1673ffffffffffffffffffffffffffffffffffffffff168152602001908152602001600020819055508360008087815260200190815260200160002060008873ffffffffffffffffffffffffffffffffffffffff1673ffffffffffffffffffffffffffffffffffffffff168152602001908152602001600020600082825461184b9190613346565b925050819055508573ffffffffffffffffffffffffffffffffffffffff168773ffffffffffffffffffffffffffffffffffffffff168373ffffffffffffffffffffffffffffffffffffffff167fc3d58168c5ae7397731d063d5bbf3d657854427343f4c083240f7aacaa2d0f6288886040516118c8929190613196565b60405180910390a46118de828888888888611f50565b50505050505050565b6118ef611afd565b73ffffffffffffffffffffffffffffffffffffffff1661190d611018565b73ffffffffffffffffffffffffffffffffffffffff1614611963576040517f08c379a000000000000000000000000000000000000000000000000000000000815260040161195a9061305b565b60405180910390fd5b600073ffffffffffffffffffffffffffffffffffffffff168173ffffffffffffffffffffffffffffffffffffffff1614156119d3576040517f08c379a00000000000000000000000000000000000000000000000000000000081526004016119ca90612f5b565b60405180910390fd5b8073ffffffffffffffffffffffffffffffffffffffff16600360009054906101000a900473ffffffffffffffffffffffffffffffffffffffff1673ffffffffffffffffffffffffffffffffffffffff167f8be0079c531659141344cd1fd0a4f28419497f9722a3daafe3b4186f6b6457e060405160405180910390a380600360006101000a81548173ffffffffffffffffffffffffffffffffffffffff021916908373ffffffffffffffffffffffffffffffffffffffff16021790555050565b60007f01ffc9a7000000000000000000000000000000000000000000000000000000007bffffffffffffffffffffffffffffffffffffffffffffffffffffffff1916827bffffffffffffffffffffffffffffffffffffffffffffffffffffffff1916149050919050565b600033905090565b505050505050565b611b2c8473ffffffffffffffffffffffffffffffffffffffff16612137565b15611cec578373ffffffffffffffffffffffffffffffffffffffff1663bc197c8187878686866040518663ffffffff1660e01b8152600401611b72959493929190612d88565b602060405180830381600087803b158015611b8c57600080fd5b505af1925050508015611bbd57506040513d601f19601f82011682018060405250810190611bba91906128a3565b60015b611c6357611bc96135c9565b806308c379a01415611c265750611bde613c35565b80611be95750611c28565b806040517f08c379a0000000000000000000000000000000000000000000000000000000008152600401611c1d9190612ed9565b60405180910390fd5b505b6040517f08c379a0000000000000000000000000000000000000000000000000000000008152600401611c5a90612efb565b60405180910390fd5b63bc197c8160e01b7bffffffffffffffffffffffffffffffffffffffffffffffffffffffff1916817bffffffffffffffffffffffffffffffffffffffffffffffffffffffff191614611cea576040517f08c379a0000000000000000000000000000000000000000000000000000000008152600401611ce190612f1b565b60405180910390fd5b505b505050505050565b600073ffffffffffffffffffffffffffffffffffffffff168473ffffffffffffffffffffffffffffffffffffffff161415611d64576040517f08c379a0000000000000000000000000000000000000000000000000000000008152600401611d5b9061313b565b60405180910390fd5b6000611d6e611afd565b9050611d8f81600087611d8088611e8a565b611d8988611e8a565b87611b05565b8260008086815260200190815260200160002060008773ffffffffffffffffffffffffffffffffffffffff1673ffffffffffffffffffffffffffffffffffffffff1681526020019081526020016000206000828254611dee9190613346565b925050819055508473ffffffffffffffffffffffffffffffffffffffff16600073ffffffffffffffffffffffffffffffffffffffff168273ffffffffffffffffffffffffffffffffffffffff167fc3d58168c5ae7397731d063d5bbf3d657854427343f4c083240f7aacaa2d0f628787604051611e6c929190613196565b60405180910390a4611e8381600087878787611f50565b5050505050565b60606000600167ffffffffffffffff811115611ecf577f4e487b7100000000000000000000000000000000000000000000000000000000600052604160045260246000fd5b604051908082528060200260200182016040528015611efd5781602001602082028036833780820191505090505b5090508281600081518110611f3b577f4e487b7100000000000000000000000000000000000000000000000000000000600052603260045260246000fd5b60200260200101818152505080915050919050565b611f6f8473ffffffffffffffffffffffffffffffffffffffff16612137565b1561212f578373ffffffffffffffffffffffffffffffffffffffff1663f23a6e6187878686866040518663ffffffff1660e01b8152600401611fb5959493929190612df0565b602060405180830381600087803b158015611fcf57600080fd5b505af192505050801561200057506040513d601f19601f82011682018060405250810190611ffd91906128a3565b60015b6120a65761200c6135c9565b806308c379a014156120695750612021613c35565b8061202c575061206b565b806040517f08c379a00000000000000000000000000000000000000000000000000000000081526004016120609190612ed9565b60405180910390fd5b505b6040517f08c379a000000000000000000000000000000000000000000000000000000000815260040161209d90612efb565b60405180910390fd5b63f23a6e6160e01b7bffffffffffffffffffffffffffffffffffffffffffffffffffffffff1916817bffffffffffffffffffffffffffffffffffffffffffffffffffffffff19161461212d576040517f08c379a000000000000000000000000000000000000000000000000000000000815260040161212490612f1b565b60405180910390fd5b505b505050505050565b600080823b905060008111915050919050565b82805461215690613490565b90600052602060002090601f01602090048101928261217857600085556121bf565b82601f1061219157805160ff19168380011785556121bf565b828001600101855582156121bf579182015b828111156121be5782518255916020019190600101906121a3565b5b5090506121cc91906121d0565b5090565b5b808211156121e95760008160009055506001016121d1565b5090565b60006122006121fb846131e4565b6131bf565b9050808382526020820190508285602086028201111561221f57600080fd5b60005b8581101561224f578161223588826123ad565b845260208401935060208301925050600181019050612222565b5050509392505050565b600061226c61226784613210565b6131bf565b9050808382526020820190508285602086028201111561228b57600080fd5b60005b858110156122bb57816122a18882612455565b84526020840193506020830192505060018101905061228e565b5050509392505050565b60006122d86122d38461323c565b6131bf565b905080838252602082019050828560208602820111156122f757600080fd5b60005b85811015612327578161230d88826124e8565b8452602084019350602083019250506001810190506122fa565b5050509392505050565b600061234461233f84613268565b6131bf565b90508281526020810184848401111561235c57600080fd5b61236784828561344e565b509392505050565b600061238261237d84613299565b6131bf565b90508281526020810184848401111561239a57600080fd5b6123a584828561344e565b509392505050565b6000813590506123bc81613ccb565b92915050565b600082601f8301126123d357600080fd5b81356123e38482602086016121ed565b91505092915050565b600082601f8301126123fd57600080fd5b813561240d848260208601612259565b91505092915050565b600082601f83011261242757600080fd5b81356124378482602086016122c5565b91505092915050565b60008135905061244f81613ce2565b92915050565b60008135905061246481613cf9565b92915050565b60008135905061247981613d10565b92915050565b60008151905061248e81613d10565b92915050565b600082601f8301126124a557600080fd5b81356124b5848260208601612331565b91505092915050565b600082601f8301126124cf57600080fd5b81356124df84826020860161236f565b91505092915050565b6000813590506124f781613d27565b92915050565b60006020828403121561250f57600080fd5b600061251d848285016123ad565b91505092915050565b6000806040838503121561253957600080fd5b6000612547858286016123ad565b9250506020612558858286016123ad565b9150509250929050565b600080600080600060a0868803121561257a57600080fd5b6000612588888289016123ad565b9550506020612599888289016123ad565b945050604086013567ffffffffffffffff8111156125b657600080fd5b6125c288828901612416565b935050606086013567ffffffffffffffff8111156125df57600080fd5b6125eb88828901612416565b925050608086013567ffffffffffffffff81111561260857600080fd5b61261488828901612494565b9150509295509295909350565b600080600080600060a0868803121561263957600080fd5b6000612647888289016123ad565b9550506020612658888289016123ad565b9450506040612669888289016124e8565b935050606061267a888289016124e8565b925050608086013567ffffffffffffffff81111561269757600080fd5b6126a388828901612494565b9150509295509295909350565b600080604083850312156126c357600080fd5b60006126d1858286016123ad565b92505060206126e285828601612440565b9150509250929050565b600080604083850312156126ff57600080fd5b600061270d858286016123ad565b925050602061271e858286016124e8565b9150509250929050565b6000806040838503121561273b57600080fd5b600083013567ffffffffffffffff81111561275557600080fd5b612761858286016123c2565b925050602083013567ffffffffffffffff81111561277e57600080fd5b61278a85828601612416565b9150509250929050565b6000806000606084860312156127a957600080fd5b600084013567ffffffffffffffff8111156127c357600080fd5b6127cf868287016123ec565b935050602084013567ffffffffffffffff8111156127ec57600080fd5b6127f886828701612416565b925050604084013567ffffffffffffffff81111561281557600080fd5b61282186828701612416565b9150509250925092565b60008060006060848603121561284057600080fd5b600061284e86828701612455565b935050602061285f868287016124e8565b9250506040612870868287016124e8565b9150509250925092565b60006020828403121561288c57600080fd5b600061289a8482850161246a565b91505092915050565b6000602082840312156128b557600080fd5b60006128c38482850161247f565b91505092915050565b6000602082840312156128de57600080fd5b600082013567ffffffffffffffff8111156128f857600080fd5b612904848285016124be565b91505092915050565b60006020828403121561291f57600080fd5b600061292d848285016124e8565b91505092915050565b60006129428383612d38565b60208301905092915050565b612957816133d0565b82525050565b6000612968826132da565b6129728185613308565b935061297d836132ca565b8060005b838110156129ae5781516129958882612936565b97506129a0836132fb565b925050600181019050612981565b5085935050505092915050565b6129c4816133e2565b82525050565b6129d3816133ee565b82525050565b60006129e4826132e5565b6129ee8185613319565b93506129fe81856020860161345d565b612a07816135eb565b840191505092915050565b6000612a1d826132f0565b612a27818561332a565b9350612a3781856020860161345d565b612a40816135eb565b840191505092915050565b6000612a56826132f0565b612a60818561333b565b9350612a7081856020860161345d565b80840191505092915050565b6000612a8960348361332a565b9150612a9482613609565b604082019050919050565b6000612aac60288361332a565b9150612ab782613658565b604082019050919050565b6000612acf602b8361332a565b9150612ada826136a7565b604082019050919050565b6000612af260268361332a565b9150612afd826136f6565b604082019050919050565b6000612b1560398361332a565b9150612b2082613745565b604082019050919050565b6000612b3860298361332a565b9150612b4382613794565b604082019050919050565b6000612b5b60268361332a565b9150612b66826137e3565b604082019050919050565b6000612b7e60438361332a565b9150612b8982613832565b606082019050919050565b6000612ba160258361332a565b9150612bac826138a7565b604082019050919050565b6000612bc460328361332a565b9150612bcf826138f6565b604082019050919050565b6000612be7602a8361332a565b9150612bf282613945565b604082019050919050565b6000612c0a60208361332a565b9150612c1582613994565b602082019050919050565b6000612c2d60388361332a565b9150612c38826139bd565b604082019050919050565b6000612c50602d8361332a565b9150612c5b82613a0c565b604082019050919050565b6000612c7360318361332a565b9150612c7e82613a5b565b604082019050919050565b6000612c9660298361332a565b9150612ca182613aaa565b604082019050919050565b6000612cb960298361332a565b9150612cc482613af9565b604082019050919050565b6000612cdc60288361332a565b9150612ce782613b48565b604082019050919050565b6000612cff60218361332a565b9150612d0a82613b97565b604082019050919050565b6000612d2260258361332a565b9150612d2d82613be6565b604082019050919050565b612d4181613444565b82525050565b612d5081613444565b82525050565b6000612d628284612a4b565b915081905092915050565b6000602082019050612d82600083018461294e565b92915050565b600060a082019050612d9d600083018861294e565b612daa602083018761294e565b8181036040830152612dbc818661295d565b90508181036060830152612dd0818561295d565b90508181036080830152612de481846129d9565b90509695505050505050565b600060a082019050612e05600083018861294e565b612e12602083018761294e565b612e1f6040830186612d47565b612e2c6060830185612d47565b8181036080830152612e3e81846129d9565b90509695505050505050565b60006020820190508181036000830152612e64818461295d565b905092915050565b60006040820190508181036000830152612e86818561295d565b90508181036020830152612e9a818461295d565b90509392505050565b6000602082019050612eb860008301846129bb565b92915050565b6000602082019050612ed360008301846129ca565b92915050565b60006020820190508181036000830152612ef38184612a12565b905092915050565b60006020820190508181036000830152612f1481612a7c565b9050919050565b60006020820190508181036000830152612f3481612a9f565b9050919050565b60006020820190508181036000830152612f5481612ac2565b9050919050565b60006020820190508181036000830152612f7481612ae5565b9050919050565b60006020820190508181036000830152612f9481612b08565b9050919050565b60006020820190508181036000830152612fb481612b2b565b9050919050565b60006020820190508181036000830152612fd481612b4e565b9050919050565b60006020820190508181036000830152612ff481612b71565b9050919050565b6000602082019050818103600083015261301481612b94565b9050919050565b6000602082019050818103600083015261303481612bb7565b9050919050565b6000602082019050818103600083015261305481612bda565b9050919050565b6000602082019050818103600083015261307481612bfd565b9050919050565b6000602082019050818103600083015261309481612c20565b9050919050565b600060208201905081810360008301526130b481612c43565b9050919050565b600060208201905081810360008301526130d481612c66565b9050919050565b600060208201905081810360008301526130f481612c89565b9050919050565b6000602082019050818103600083015261311481612cac565b9050919050565b6000602082019050818103600083015261313481612ccf565b9050919050565b6000602082019050818103600083015261315481612cf2565b9050919050565b6000602082019050818103600083015261317481612d15565b9050919050565b60006020820190506131906000830184612d47565b92915050565b60006040820190506131ab6000830185612d47565b6131b86020830184612d47565b9392505050565b60006131c96131da565b90506131d582826134c2565b919050565b6000604051905090565b600067ffffffffffffffff8211156131ff576131fe61359a565b5b602082029050602081019050919050565b600067ffffffffffffffff82111561322b5761322a61359a565b5b602082029050602081019050919050565b600067ffffffffffffffff8211156132575761325661359a565b5b602082029050602081019050919050565b600067ffffffffffffffff8211156132835761328261359a565b5b61328c826135eb565b9050602081019050919050565b600067ffffffffffffffff8211156132b4576132b361359a565b5b6132bd826135eb565b9050602081019050919050565b6000819050602082019050919050565b600081519050919050565b600081519050919050565b600081519050919050565b6000602082019050919050565b600082825260208201905092915050565b600082825260208201905092915050565b600082825260208201905092915050565b600081905092915050565b600061335182613444565b915061335c83613444565b9250827fffffffffffffffffffffffffffffffffffffffffffffffffffffffffffffffff038211156133915761339061353c565b5b828201905092915050565b60006133a782613444565b91506133b283613444565b9250828210156133c5576133c461353c565b5b828203905092915050565b60006133db82613424565b9050919050565b60008115159050919050565b6000819050919050565b60007fffffffff0000000000000000000000000000000000000000000000000000000082169050919050565b600073ffffffffffffffffffffffffffffffffffffffff82169050919050565b6000819050919050565b82818337600083830152505050565b60005b8381101561347b578082015181840152602081019050613460565b8381111561348a576000848401525b50505050565b600060028204905060018216806134a857607f821691505b602082108114156134bc576134bb61356b565b5b50919050565b6134cb826135eb565b810181811067ffffffffffffffff821117156134ea576134e961359a565b5b80604052505050565b60006134fe82613444565b91507fffffffffffffffffffffffffffffffffffffffffffffffffffffffffffffffff8214156135315761353061353c565b5b600182019050919050565b7f4e487b7100000000000000000000000000000000000000000000000000000000600052601160045260246000fd5b7f4e487b7100000000000000000000000000000000000000000000000000000000600052602260045260246000fd5b7f4e487b7100000000000000000000000000000000000000000000000000000000600052604160045260246000fd5b600060033d11156135e85760046000803e6135e56000516135fc565b90505b90565b6000601f19601f8301169050919050565b60008160e01c9050919050565b7f455243313135353a207472616e7366657220746f206e6f6e204552433131353560008201527f526563656976657220696d706c656d656e746572000000000000000000000000602082015250565b7f455243313135353a204552433131353552656365697665722072656a6563746560008201527f6420746f6b656e73000000000000000000000000000000000000000000000000602082015250565b7f455243313135353a2062616c616e636520717565727920666f7220746865207a60008201527f65726f2061646472657373000000000000000000000000000000000000000000602082015250565b7f4f776e61626c653a206e6577206f776e657220697320746865207a65726f206160008201527f6464726573730000000000000000000000000000000000000000000000000000602082015250565b7f5f636f6c6c656374696f6e5f69642063616e206e6f742062652065786365656460008201527f20746f2074686520636f6c6c656374696f6e20616d6f756e7400000000000000602082015250565b7f455243313135353a2063616c6c6572206973206e6f74206f776e6572206e6f7260008201527f20617070726f7665640000000000000000000000000000000000000000000000602082015250565b7f636f6c6c656374696f6e206e616d652063616e6e6f7420626520656d7074792060008201527f737472696e670000000000000000000000000000000000000000000000000000602082015250565b7f636f6c6c656374696f6e204944205f6964206973206e6f742065787465726e6160008201527f6c20746f2074686520746f74616c20616d6f756e74206f6620636f6c6c65637460208201527f696f6e0000000000000000000000000000000000000000000000000000000000604082015250565b7f455243313135353a207472616e7366657220746f20746865207a65726f20616460008201527f6472657373000000000000000000000000000000000000000000000000000000602082015250565b7f455243313135353a207472616e736665722063616c6c6572206973206e6f742060008201527f6f776e6572206e6f7220617070726f7665640000000000000000000000000000602082015250565b7f455243313135353a20696e73756666696369656e742062616c616e636520666f60008201527f72207472616e7366657200000000000000000000000000000000000000000000602082015250565b7f4f776e61626c653a2063616c6c6572206973206e6f7420746865206f776e6572600082015250565b7f605f686173686573602073697a652068617320746f20626520657175616c207460008201527f6f20605f636f6c6c656374696f6e5f696473602073697a650000000000000000602082015250565b7f6e66742069642068617320746f20626520756e64657220746865206e6674206760008201527f6c6f62616c20636f756e74657200000000000000000000000000000000000000602082015250565b7f6e66742069642063616e206e6f742062652065786365656420746f207468652060008201527f746f74616c206e667420636f756e746572000000000000000000000000000000602082015250565b7f455243313135353a2073657474696e6720617070726f76616c2073746174757360008201527f20666f722073656c660000000000000000000000000000000000000000000000602082015250565b7f455243313135353a206163636f756e747320616e6420696473206c656e67746860008201527f206d69736d617463680000000000000000000000000000000000000000000000602082015250565b7f455243313135353a2069647320616e6420616d6f756e7473206c656e6774682060008201527f6d69736d61746368000000000000000000000000000000000000000000000000602082015250565b7f455243313135353a206d696e7420746f20746865207a65726f2061646472657360008201527f7300000000000000000000000000000000000000000000000000000000000000602082015250565b7f636f6c6c656374696f6e2063616e206e6f7420626520616c726561647920637260008201527f6561746564000000000000000000000000000000000000000000000000000000602082015250565b600060443d1015613c4557613cc8565b613c4d6131da565b60043d036004823e80513d602482011167ffffffffffffffff82111715613c75575050613cc8565b808201805167ffffffffffffffff811115613c935750505050613cc8565b80602083010160043d038501811115613cb0575050505050613cc8565b613cbf826020018501866134c2565b82955050505050505b90565b613cd4816133d0565b8114613cdf57600080fd5b50565b613ceb816133e2565b8114613cf657600080fd5b50565b613d02816133ee565b8114613d0d57600080fd5b50565b613d19816133f8565b8114613d2457600080fd5b50565b613d3081613444565b8114613d3b57600080fd5b5056fea264697066735822122055a9895dd6d237d6ebee26a4236b02ba5ceb92cf414ad15d5403188c068dda0064736f6c63430008040033",
  "immutableReferences": {},
  "source": "// SPDX-License-Identifier: MIT\npragma solidity ^0.8.0;\n\nimport \"@openzeppelin/contracts/token/ERC1155/ERC1155.sol\";\nimport \"@openzeppelin/contracts/access/Ownable.sol\";\n\ncontract Mint is ERC1155, Ownable {\n    // collection list uint(id) => string(hash)\n    mapping (uint => string) collection_list;\n    // collection already created string(hash) => bool()\n    mapping (string => bool) collection_check;\n    // collection counter\n    uint collection_counter;\n\n    // NFT card list uint (id) => string (hash) \n    // this list is according to cards, not collection\n    mapping (uint => bytes32) nft_hash_list;\n    // NFT card list every collection\n    // uint (collection_id) => uint (nft_collection_id) => uint (nft_global_id)\n    mapping (uint => mapping(uint => uint)) nft_per_collection;\n    // nft global counter\n    uint nft_counter;\n    // NFT card counter every collection\n    // uint (collection_id) => uint (collection_capacity)\n    mapping (uint => uint) nft_counter_per_collection;\n\n    // list of saling nft uint(saling_id) => uint (nft_global_id)\n    mapping(uint => uint) selling_list;\n    // selling list counter\n    uint selling_list_counter;\n    // constructor\n    constructor() public ERC1155(\"\") Ownable() {}\n\n    // Create Collection\n    function create_collection (string memory _hash) public returns (bool) {\n        // require : collection name cannot be empty string\n        require(bytes(_hash).length > 0, \"collection name cannot be empty string\");\n        // require : collection can not be already created\n        require(collection_check[_hash] == false, \"collection can not be already created\");\n\n        collection_list[collection_counter] = _hash;\n        collection_check[_hash] = true;\n        collection_counter++;\n\n        return true;\n    }\n    // return total amount of collection  \n    function get_collection_count() public view returns (uint) {\n        return collection_counter;\n    }\n    // get collection hash by collection id\n    function get_collection_hash(uint _id) public view returns (string memory) {\n        // require : collection ID _id is not external to the total amount of collection\n        require(_id < collection_counter, \"collection ID _id is not external to the total amount of collection\");\n\n        return collection_list[_id];\n    }\n\n    // mint single NFT \n    // params: NFT hash, collection ID, amount\n    function single_mint (bytes32 _hash, uint _collection_id, uint _amount) public returns (uint) {\n        // store hash value of the new nft\n        nft_hash_list[nft_counter] = _hash;\n\n        uint collection_capacity = nft_counter_per_collection[_collection_id];\n        // store the nft global id with collection id and nft_collection_id\n        nft_per_collection[_collection_id][collection_capacity] = nft_counter;\n        nft_counter_per_collection[_collection_id]++;\n\n        // _balances[id][account] = amount (@openzeppelin/contracts/ERC1155.sol)\n        _mint(msg.sender, nft_counter, _amount, \"\");    \n        nft_counter ++;\n\n        return nft_counter;\n    }\n\n    // mint multiple nft\n    // function one(bytes1[] memory names) public view returns (uint){\n    //     uint len = names.length;\n    //     bytes32[2] memory others = [bytes32(\"one\"), bytes32(\"two\")];\n    //     return len;\n    // }\n    function batch_mint (bytes32[] memory _hashes, uint[] memory _collection_ids, uint[] memory _amounts) public{\n        // require : length of _hashes and _collection_ids and _amounts have to equal\n        require(_hashes.length == _collection_ids.length, \"`_hashes` size has to be equal to `_collection_ids` size\");\n        // the size of nfts which has to be minted\n        uint length = _hashes.length;\n        for (uint i = 0 ; i < length ; i++) {\n            single_mint(_hashes[i], _collection_ids[i], _amounts[i]);\n        }\n\n    }\n\n    // Get nft hash by nft id\n    function get_nft_hash (uint _nft_id) public view returns (bytes32) {\n        // require : _nft_id is available, so can not be exceed to total nft counter\n        require(_nft_id < nft_counter, \"nft id can not be exceed to the total nft counter\");\n\n        return nft_hash_list[_nft_id];\n    }\n\n    // Get total nft counter\n    function get_nft_counter () public view returns (uint) {\n        return nft_counter;\n    }\n\n    // Get total nft counter every collection by collection_id\n    function get_nft_counter_per_collection (uint _collection_id) public view returns (uint) {\n        // require : _collection_id can not be exceed to the collection amount\n        require(_collection_id < collection_counter, \"_collection_id can not be exceed to the collection amount\");\n\n        return nft_counter_per_collection[_collection_id];\n    }\n    /////////////////////////////////////////\n    //             Trading                 //\n    /////////////////////////////////////////\n    // add new nft on the selling list\n    function set_selling_list (uint nft_global_id) public returns(uint) {\n        // require : nft_global_id has to be available under the nft global counter\n        require(nft_global_id < nft_counter, \"nft id has to be under the nft global counter\");\n\n        selling_list[selling_list_counter] = nft_global_id;\n        selling_list_counter++;\n        return selling_list_counter;\n    }\n    // remove nft from selling list\n    function remove_selling_item (uint nft_global_id) public onlyOwner returns(uint) {\n\n    }\n}",
  "sourcePath": "/home/oncemore/Blockchain Work/NFT_marketplace_smartcontract(MEME_20210511)/contracts/Mint.sol",
  "compiler": {
    "name": "solc",
    "version": "0.8.4+commit.c7e474f2.Emscripten.clang"
  },
  "schemaVersion": "3.3.4",
  "updatedAt": "2021-05-12T05:01:04.102Z",
  "devdoc": {
    "kind": "dev",
    "methods": {
      "balanceOf(address,uint256)": {
        "details": "See {IERC1155-balanceOf}. Requirements: - `account` cannot be the zero address."
      },
      "balanceOfBatch(address[],uint256[])": {
        "details": "See {IERC1155-balanceOfBatch}. Requirements: - `accounts` and `ids` must have the same length."
      },
      "isApprovedForAll(address,address)": {
        "details": "See {IERC1155-isApprovedForAll}."
      },
      "owner()": {
        "details": "Returns the address of the current owner."
      },
      "renounceOwnership()": {
        "details": "Leaves the contract without owner. It will not be possible to call `onlyOwner` functions anymore. Can only be called by the current owner. NOTE: Renouncing ownership will leave the contract without an owner, thereby removing any functionality that is only available to the owner."
      },
      "safeBatchTransferFrom(address,address,uint256[],uint256[],bytes)": {
        "details": "See {IERC1155-safeBatchTransferFrom}."
      },
      "safeTransferFrom(address,address,uint256,uint256,bytes)": {
        "details": "See {IERC1155-safeTransferFrom}."
      },
      "setApprovalForAll(address,bool)": {
        "details": "See {IERC1155-setApprovalForAll}."
      },
      "supportsInterface(bytes4)": {
        "details": "See {IERC165-supportsInterface}."
      },
      "transferOwnership(address)": {
        "details": "Transfers ownership of the contract to a new account (`newOwner`). Can only be called by the current owner."
      },
      "uri(uint256)": {
        "details": "See {IERC1155MetadataURI-uri}. This implementation returns the same URI for *all* token types. It relies on the token type ID substitution mechanism https://eips.ethereum.org/EIPS/eip-1155#metadata[defined in the EIP]. Clients calling this function must replace the `\\{id\\}` substring with the actual token type ID."
      }
    },
    "version": 1
  },
  "userdoc": {
    "kind": "user",
    "methods": {},
    "version": 1
  }
}