{
  "contractName": "Mint",
  "abi": [
    {
      "inputs": [],
      "stateMutability": "nonpayable",
      "type": "constructor"
    },
    {
      "anonymous": false,
      "inputs": [
        {
          "indexed": true,
          "internalType": "address",
          "name": "account",
          "type": "address"
        },
        {
          "indexed": true,
          "internalType": "address",
          "name": "operator",
          "type": "address"
        },
        {
          "indexed": false,
          "internalType": "bool",
          "name": "approved",
          "type": "bool"
        }
      ],
      "name": "ApprovalForAll",
      "type": "event"
    },
    {
      "anonymous": false,
      "inputs": [
        {
          "indexed": true,
          "internalType": "address",
          "name": "operator",
          "type": "address"
        },
        {
          "indexed": true,
          "internalType": "address",
          "name": "from",
          "type": "address"
        },
        {
          "indexed": true,
          "internalType": "address",
          "name": "to",
          "type": "address"
        },
        {
          "indexed": false,
          "internalType": "uint256[]",
          "name": "ids",
          "type": "uint256[]"
        },
        {
          "indexed": false,
          "internalType": "uint256[]",
          "name": "values",
          "type": "uint256[]"
        }
      ],
      "name": "TransferBatch",
      "type": "event"
    },
    {
      "anonymous": false,
      "inputs": [
        {
          "indexed": true,
          "internalType": "address",
          "name": "operator",
          "type": "address"
        },
        {
          "indexed": true,
          "internalType": "address",
          "name": "from",
          "type": "address"
        },
        {
          "indexed": true,
          "internalType": "address",
          "name": "to",
          "type": "address"
        },
        {
          "indexed": false,
          "internalType": "uint256",
          "name": "id",
          "type": "uint256"
        },
        {
          "indexed": false,
          "internalType": "uint256",
          "name": "value",
          "type": "uint256"
        }
      ],
      "name": "TransferSingle",
      "type": "event"
    },
    {
      "anonymous": false,
      "inputs": [
        {
          "indexed": false,
          "internalType": "string",
          "name": "value",
          "type": "string"
        },
        {
          "indexed": true,
          "internalType": "uint256",
          "name": "id",
          "type": "uint256"
        }
      ],
      "name": "URI",
      "type": "event"
    },
    {
      "inputs": [
        {
          "internalType": "address",
          "name": "account",
          "type": "address"
        },
        {
          "internalType": "uint256",
          "name": "id",
          "type": "uint256"
        }
      ],
      "name": "balanceOf",
      "outputs": [
        {
          "internalType": "uint256",
          "name": "",
          "type": "uint256"
        }
      ],
      "stateMutability": "view",
      "type": "function"
    },
    {
      "inputs": [
        {
          "internalType": "address[]",
          "name": "accounts",
          "type": "address[]"
        },
        {
          "internalType": "uint256[]",
          "name": "ids",
          "type": "uint256[]"
        }
      ],
      "name": "balanceOfBatch",
      "outputs": [
        {
          "internalType": "uint256[]",
          "name": "",
          "type": "uint256[]"
        }
      ],
      "stateMutability": "view",
      "type": "function"
    },
    {
      "inputs": [
        {
          "internalType": "address",
          "name": "account",
          "type": "address"
        },
        {
          "internalType": "address",
          "name": "operator",
          "type": "address"
        }
      ],
      "name": "isApprovedForAll",
      "outputs": [
        {
          "internalType": "bool",
          "name": "",
          "type": "bool"
        }
      ],
      "stateMutability": "view",
      "type": "function"
    },
    {
      "inputs": [
        {
          "internalType": "address",
          "name": "from",
          "type": "address"
        },
        {
          "internalType": "address",
          "name": "to",
          "type": "address"
        },
        {
          "internalType": "uint256[]",
          "name": "ids",
          "type": "uint256[]"
        },
        {
          "internalType": "uint256[]",
          "name": "amounts",
          "type": "uint256[]"
        },
        {
          "internalType": "bytes",
          "name": "data",
          "type": "bytes"
        }
      ],
      "name": "safeBatchTransferFrom",
      "outputs": [],
      "stateMutability": "nonpayable",
      "type": "function"
    },
    {
      "inputs": [
        {
          "internalType": "address",
          "name": "from",
          "type": "address"
        },
        {
          "internalType": "address",
          "name": "to",
          "type": "address"
        },
        {
          "internalType": "uint256",
          "name": "id",
          "type": "uint256"
        },
        {
          "internalType": "uint256",
          "name": "amount",
          "type": "uint256"
        },
        {
          "internalType": "bytes",
          "name": "data",
          "type": "bytes"
        }
      ],
      "name": "safeTransferFrom",
      "outputs": [],
      "stateMutability": "nonpayable",
      "type": "function"
    },
    {
      "inputs": [
        {
          "internalType": "address",
          "name": "operator",
          "type": "address"
        },
        {
          "internalType": "bool",
          "name": "approved",
          "type": "bool"
        }
      ],
      "name": "setApprovalForAll",
      "outputs": [],
      "stateMutability": "nonpayable",
      "type": "function"
    },
    {
      "inputs": [
        {
          "internalType": "bytes4",
          "name": "interfaceId",
          "type": "bytes4"
        }
      ],
      "name": "supportsInterface",
      "outputs": [
        {
          "internalType": "bool",
          "name": "",
          "type": "bool"
        }
      ],
      "stateMutability": "view",
      "type": "function"
    },
    {
      "inputs": [
        {
          "internalType": "uint256",
          "name": "",
          "type": "uint256"
        }
      ],
      "name": "uri",
      "outputs": [
        {
          "internalType": "string",
          "name": "",
          "type": "string"
        }
      ],
      "stateMutability": "view",
      "type": "function"
    },
    {
      "inputs": [
        {
          "internalType": "string",
          "name": "_hash",
          "type": "string"
        }
      ],
      "name": "create_collection",
      "outputs": [
        {
          "internalType": "bool",
          "name": "",
          "type": "bool"
        }
      ],
      "stateMutability": "nonpayable",
      "type": "function"
    },
    {
      "inputs": [],
      "name": "get_collection_count",
      "outputs": [
        {
          "internalType": "uint256",
          "name": "",
          "type": "uint256"
        }
      ],
      "stateMutability": "view",
      "type": "function"
    },
    {
      "inputs": [
        {
          "internalType": "uint256",
          "name": "_id",
          "type": "uint256"
        }
      ],
      "name": "get_collection_hash",
      "outputs": [
        {
          "internalType": "string",
          "name": "",
          "type": "string"
        }
      ],
      "stateMutability": "view",
      "type": "function"
    },
    {
      "inputs": [
        {
          "internalType": "string",
          "name": "_hash",
          "type": "string"
        },
        {
          "internalType": "uint256",
          "name": "_collection_id",
          "type": "uint256"
        },
        {
          "internalType": "uint256",
          "name": "_amount",
          "type": "uint256"
        }
      ],
      "name": "single_mint",
      "outputs": [
        {
          "internalType": "uint256",
          "name": "",
          "type": "uint256"
        }
      ],
      "stateMutability": "nonpayable",
      "type": "function"
    },
    {
      "inputs": [
        {
          "internalType": "uint256",
          "name": "_nft_id",
          "type": "uint256"
        }
      ],
      "name": "get_nft_hash",
      "outputs": [
        {
          "internalType": "string",
          "name": "",
          "type": "string"
        }
      ],
      "stateMutability": "view",
      "type": "function"
    },
    {
      "inputs": [],
      "name": "get_nft_counter",
      "outputs": [
        {
          "internalType": "uint256",
          "name": "",
          "type": "uint256"
        }
      ],
      "stateMutability": "view",
      "type": "function"
    },
    {
      "inputs": [
        {
          "internalType": "uint256",
          "name": "_collection_id",
          "type": "uint256"
        }
      ],
      "name": "get_nft_counter_per_collection",
      "outputs": [
        {
          "internalType": "uint256",
          "name": "",
          "type": "uint256"
        }
      ],
      "stateMutability": "view",
      "type": "function"
    }
  ],
  "bytecode": "0x60806040523480156200001157600080fd5b506040518060200160405280600081525062000033816200003a60201b60201c565b506200016b565b80600290805190602001906200005292919062000056565b5050565b828054620000649062000106565b90600052602060002090601f016020900481019282620000885760008555620000d4565b82601f10620000a357805160ff1916838001178555620000d4565b82800160010185558215620000d4579182015b82811115620000d3578251825591602001919060010190620000b6565b5b509050620000e39190620000e7565b5090565b5b8082111562000102576000816000905550600101620000e8565b5090565b600060028204905060018216806200011f57607f821691505b602082108114156200013657620001356200013c565b5b50919050565b7f4e487b7100000000000000000000000000000000000000000000000000000000600052602260045260246000fd5b6133be806200017b6000396000f3fe608060405234801561001057600080fd5b50600436106100f45760003560e01c806369709f9911610097578063b943afda11610066578063b943afda146102bd578063df482b3c146102ed578063e985e9c51461031d578063f242432a1461034d576100f4565b806369709f991461022357806395de16271461025357806398e8f49b14610271578063a22cb465146102a1576100f4565b80630f985315116100d35780630f985315146101895780632eb2c2d6146101a757806333efb7fd146101c35780634e1273f4146101f3576100f4565b8062fdd58e146100f957806301ffc9a7146101295780630e89341c14610159575b600080fd5b610113600480360381019061010e9190612069565b610369565b6040516101209190612928565b60405180910390f35b610143600480360381019061013e9190612111565b610432565b60405161015091906126eb565b60405180910390f35b610173600480360381019061016e919061220b565b610514565b6040516101809190612706565b60405180910390f35b6101916105a8565b60405161019e9190612928565b60405180910390f35b6101c160048036038101906101bc9190611edf565b6105b2565b005b6101dd60048036038101906101d8919061220b565b6109a8565b6040516101ea9190612928565b60405180910390f35b61020d600480360381019061020891906120a5565b610a09565b60405161021a9190612692565b60405180910390f35b61023d6004803603810190610238919061220b565b610bba565b60405161024a9190612706565b60405180910390f35b61025b610ca3565b6040516102689190612928565b60405180910390f35b61028b600480360381019061028691906121a4565b610cad565b6040516102989190612928565b60405180910390f35b6102bb60048036038101906102b6919061202d565b610d95565b005b6102d760048036038101906102d2919061220b565b610f16565b6040516102e49190612706565b60405180910390f35b61030760048036038101906103029190612163565b610fff565b60405161031491906126eb565b60405180910390f35b61033760048036038101906103329190611ea3565b611138565b60405161034491906126eb565b60405180910390f35b61036760048036038101906103629190611f9e565b6111cc565b005b60008073ffffffffffffffffffffffffffffffffffffffff168373ffffffffffffffffffffffffffffffffffffffff1614156103da576040517f08c379a00000000000000000000000000000000000000000000000000000000081526004016103d190612768565b60405180910390fd5b60008083815260200190815260200160002060008473ffffffffffffffffffffffffffffffffffffffff1673ffffffffffffffffffffffffffffffffffffffff16815260200190815260200160002054905092915050565b60007fd9b67a26000000000000000000000000000000000000000000000000000000007bffffffffffffffffffffffffffffffffffffffffffffffffffffffff1916827bffffffffffffffffffffffffffffffffffffffffffffffffffffffff191614806104fd57507f0e89341c000000000000000000000000000000000000000000000000000000007bffffffffffffffffffffffffffffffffffffffffffffffffffffffff1916827bffffffffffffffffffffffffffffffffffffffffffffffffffffffff1916145b8061050d575061050c826114e4565b5b9050919050565b60606002805461052390612c07565b80601f016020809104026020016040519081016040528092919081815260200182805461054f90612c07565b801561059c5780601f106105715761010080835404028352916020019161059c565b820191906000526020600020905b81548152906001019060200180831161057f57829003601f168201915b50505050509050919050565b6000600854905090565b81518351146105f6576040517f08c379a00000000000000000000000000000000000000000000000000000000081526004016105ed906128c8565b60405180910390fd5b600073ffffffffffffffffffffffffffffffffffffffff168473ffffffffffffffffffffffffffffffffffffffff161415610666576040517f08c379a000000000000000000000000000000000000000000000000000000000815260040161065d90612808565b60405180910390fd5b61066e61154e565b73ffffffffffffffffffffffffffffffffffffffff168573ffffffffffffffffffffffffffffffffffffffff1614806106b457506106b3856106ae61154e565b611138565b5b6106f3576040517f08c379a00000000000000000000000000000000000000000000000000000000081526004016106ea90612828565b60405180910390fd5b60006106fd61154e565b905061070d818787878787611556565b60005b8451811015610913576000858281518110610754577f4e487b7100000000000000000000000000000000000000000000000000000000600052603260045260246000fd5b602002602001015190506000858381518110610799577f4e487b7100000000000000000000000000000000000000000000000000000000600052603260045260246000fd5b60200260200101519050600080600084815260200190815260200160002060008b73ffffffffffffffffffffffffffffffffffffffff1673ffffffffffffffffffffffffffffffffffffffff1681526020019081526020016000205490508181101561083a576040517f08c379a000000000000000000000000000000000000000000000000000000000815260040161083190612848565b60405180910390fd5b81816108469190612b1d565b60008085815260200190815260200160002060008c73ffffffffffffffffffffffffffffffffffffffff1673ffffffffffffffffffffffffffffffffffffffff168152602001908152602001600020819055508160008085815260200190815260200160002060008b73ffffffffffffffffffffffffffffffffffffffff1673ffffffffffffffffffffffffffffffffffffffff16815260200190815260200160002060008282546108f89190612ac7565b925050819055505050508061090c90612c6a565b9050610710565b508473ffffffffffffffffffffffffffffffffffffffff168673ffffffffffffffffffffffffffffffffffffffff168273ffffffffffffffffffffffffffffffffffffffff167f4a39dc06d4c0dbc64b70af90fd698a233a518aa5d07e595d983b8c0526c8f7fb878760405161098a9291906126b4565b60405180910390a46109a081878787878761155e565b505050505050565b600060055482106109ee576040517f08c379a00000000000000000000000000000000000000000000000000000000081526004016109e590612788565b60405180910390fd5b60096000838152602001908152602001600020549050919050565b60608151835114610a4f576040517f08c379a0000000000000000000000000000000000000000000000000000000008152600401610a46906128a8565b60405180910390fd5b6000835167ffffffffffffffff811115610a92577f4e487b7100000000000000000000000000000000000000000000000000000000600052604160045260246000fd5b604051908082528060200260200182016040528015610ac05781602001602082028036833780820191505090505b50905060005b8451811015610baf57610b59858281518110610b0b577f4e487b7100000000000000000000000000000000000000000000000000000000600052603260045260246000fd5b6020026020010151858381518110610b4c577f4e487b7100000000000000000000000000000000000000000000000000000000600052603260045260246000fd5b6020026020010151610369565b828281518110610b92577f4e487b7100000000000000000000000000000000000000000000000000000000600052603260045260246000fd5b60200260200101818152505080610ba890612c6a565b9050610ac6565b508091505092915050565b60606008548210610c00576040517f08c379a0000000000000000000000000000000000000000000000000000000008152600401610bf790612868565b60405180910390fd5b600660008381526020019081526020016000208054610c1e90612c07565b80601f0160208091040260200160405190810160405280929190818152602001828054610c4a90612c07565b8015610c975780601f10610c6c57610100808354040283529160200191610c97565b820191906000526020600020905b815481529060010190602001808311610c7a57829003601f168201915b50505050509050919050565b6000600554905090565b6000836006600060085481526020019081526020016000209080519060200190610cd8929190611b9b565b50600060096000858152602001908152602001600020549050846007600086815260200190815260200160002060008381526020019081526020016000209080519060200190610d29929190611b9b565b50600960008581526020019081526020016000206000815480929190610d4e90612c6a565b9190505550610d70336008548560405180602001604052806000815250611745565b60086000815480929190610d8390612c6a565b91905055506008549150509392505050565b8173ffffffffffffffffffffffffffffffffffffffff16610db461154e565b73ffffffffffffffffffffffffffffffffffffffff161415610e0b576040517f08c379a0000000000000000000000000000000000000000000000000000000008152600401610e0290612888565b60405180910390fd5b8060016000610e1861154e565b73ffffffffffffffffffffffffffffffffffffffff1673ffffffffffffffffffffffffffffffffffffffff16815260200190815260200160002060008473ffffffffffffffffffffffffffffffffffffffff1673ffffffffffffffffffffffffffffffffffffffff16815260200190815260200160002060006101000a81548160ff0219169083151502179055508173ffffffffffffffffffffffffffffffffffffffff16610ec561154e565b73ffffffffffffffffffffffffffffffffffffffff167f17307eab39ab6107e8899845ad3d59bd9653f200f220920489ca2b5937696c3183604051610f0a91906126eb565b60405180910390a35050565b60606005548210610f5c576040517f08c379a0000000000000000000000000000000000000000000000000000000008152600401610f53906127e8565b60405180910390fd5b600360008381526020019081526020016000208054610f7a90612c07565b80601f0160208091040260200160405190810160405280929190818152602001828054610fa690612c07565b8015610ff35780601f10610fc857610100808354040283529160200191610ff3565b820191906000526020600020905b815481529060010190602001808311610fd657829003601f168201915b50505050509050919050565b600080825111611044576040517f08c379a000000000000000000000000000000000000000000000000000000000815260040161103b906127c8565b60405180910390fd5b6000151560048360405161105891906125b9565b908152602001604051809103902060009054906101000a900460ff161515146110b6576040517f08c379a00000000000000000000000000000000000000000000000000000000081526004016110ad90612908565b60405180910390fd5b8160036000600554815260200190815260200160002090805190602001906110df929190611b9b565b5060016004836040516110f291906125b9565b908152602001604051809103902060006101000a81548160ff0219169083151502179055506005600081548092919061112a90612c6a565b919050555060019050919050565b6000600160008473ffffffffffffffffffffffffffffffffffffffff1673ffffffffffffffffffffffffffffffffffffffff16815260200190815260200160002060008373ffffffffffffffffffffffffffffffffffffffff1673ffffffffffffffffffffffffffffffffffffffff16815260200190815260200160002060009054906101000a900460ff16905092915050565b600073ffffffffffffffffffffffffffffffffffffffff168473ffffffffffffffffffffffffffffffffffffffff16141561123c576040517f08c379a000000000000000000000000000000000000000000000000000000000815260040161123390612808565b60405180910390fd5b61124461154e565b73ffffffffffffffffffffffffffffffffffffffff168573ffffffffffffffffffffffffffffffffffffffff16148061128a57506112898561128461154e565b611138565b5b6112c9576040517f08c379a00000000000000000000000000000000000000000000000000000000081526004016112c0906127a8565b60405180910390fd5b60006112d361154e565b90506112f38187876112e4886118db565b6112ed886118db565b87611556565b600080600086815260200190815260200160002060008873ffffffffffffffffffffffffffffffffffffffff1673ffffffffffffffffffffffffffffffffffffffff1681526020019081526020016000205490508381101561138a576040517f08c379a000000000000000000000000000000000000000000000000000000000815260040161138190612848565b60405180910390fd5b83816113969190612b1d565b60008087815260200190815260200160002060008973ffffffffffffffffffffffffffffffffffffffff1673ffffffffffffffffffffffffffffffffffffffff168152602001908152602001600020819055508360008087815260200190815260200160002060008873ffffffffffffffffffffffffffffffffffffffff1673ffffffffffffffffffffffffffffffffffffffff16815260200190815260200160002060008282546114489190612ac7565b925050819055508573ffffffffffffffffffffffffffffffffffffffff168773ffffffffffffffffffffffffffffffffffffffff168373ffffffffffffffffffffffffffffffffffffffff167fc3d58168c5ae7397731d063d5bbf3d657854427343f4c083240f7aacaa2d0f6288886040516114c5929190612943565b60405180910390a46114db8288888888886119a1565b50505050505050565b60007f01ffc9a7000000000000000000000000000000000000000000000000000000007bffffffffffffffffffffffffffffffffffffffffffffffffffffffff1916827bffffffffffffffffffffffffffffffffffffffffffffffffffffffff1916149050919050565b600033905090565b505050505050565b61157d8473ffffffffffffffffffffffffffffffffffffffff16611b88565b1561173d578373ffffffffffffffffffffffffffffffffffffffff1663bc197c8187878686866040518663ffffffff1660e01b81526004016115c39594939291906125d0565b602060405180830381600087803b1580156115dd57600080fd5b505af192505050801561160e57506040513d601f19601f8201168201806040525081019061160b919061213a565b60015b6116b45761161a612d40565b806308c379a01415611677575061162f613296565b8061163a5750611679565b806040517f08c379a000000000000000000000000000000000000000000000000000000000815260040161166e9190612706565b60405180910390fd5b505b6040517f08c379a00000000000000000000000000000000000000000000000000000000081526004016116ab90612728565b60405180910390fd5b63bc197c8160e01b7bffffffffffffffffffffffffffffffffffffffffffffffffffffffff1916817bffffffffffffffffffffffffffffffffffffffffffffffffffffffff19161461173b576040517f08c379a000000000000000000000000000000000000000000000000000000000815260040161173290612748565b60405180910390fd5b505b505050505050565b600073ffffffffffffffffffffffffffffffffffffffff168473ffffffffffffffffffffffffffffffffffffffff1614156117b5576040517f08c379a00000000000000000000000000000000000000000000000000000000081526004016117ac906128e8565b60405180910390fd5b60006117bf61154e565b90506117e0816000876117d1886118db565b6117da886118db565b87611556565b8260008086815260200190815260200160002060008773ffffffffffffffffffffffffffffffffffffffff1673ffffffffffffffffffffffffffffffffffffffff168152602001908152602001600020600082825461183f9190612ac7565b925050819055508473ffffffffffffffffffffffffffffffffffffffff16600073ffffffffffffffffffffffffffffffffffffffff168273ffffffffffffffffffffffffffffffffffffffff167fc3d58168c5ae7397731d063d5bbf3d657854427343f4c083240f7aacaa2d0f6287876040516118bd929190612943565b60405180910390a46118d4816000878787876119a1565b5050505050565b60606000600167ffffffffffffffff811115611920577f4e487b7100000000000000000000000000000000000000000000000000000000600052604160045260246000fd5b60405190808252806020026020018201604052801561194e5781602001602082028036833780820191505090505b509050828160008151811061198c577f4e487b7100000000000000000000000000000000000000000000000000000000600052603260045260246000fd5b60200260200101818152505080915050919050565b6119c08473ffffffffffffffffffffffffffffffffffffffff16611b88565b15611b80578373ffffffffffffffffffffffffffffffffffffffff1663f23a6e6187878686866040518663ffffffff1660e01b8152600401611a06959493929190612638565b602060405180830381600087803b158015611a2057600080fd5b505af1925050508015611a5157506040513d601f19601f82011682018060405250810190611a4e919061213a565b60015b611af757611a5d612d40565b806308c379a01415611aba5750611a72613296565b80611a7d5750611abc565b806040517f08c379a0000000000000000000000000000000000000000000000000000000008152600401611ab19190612706565b60405180910390fd5b505b6040517f08c379a0000000000000000000000000000000000000000000000000000000008152600401611aee90612728565b60405180910390fd5b63f23a6e6160e01b7bffffffffffffffffffffffffffffffffffffffffffffffffffffffff1916817bffffffffffffffffffffffffffffffffffffffffffffffffffffffff191614611b7e576040517f08c379a0000000000000000000000000000000000000000000000000000000008152600401611b7590612748565b60405180910390fd5b505b505050505050565b600080823b905060008111915050919050565b828054611ba790612c07565b90600052602060002090601f016020900481019282611bc95760008555611c10565b82601f10611be257805160ff1916838001178555611c10565b82800160010185558215611c10579182015b82811115611c0f578251825591602001919060010190611bf4565b5b509050611c1d9190611c21565b5090565b5b80821115611c3a576000816000905550600101611c22565b5090565b6000611c51611c4c84612991565b61296c565b90508083825260208201905082856020860282011115611c7057600080fd5b60005b85811015611ca05781611c868882611d92565b845260208401935060208301925050600181019050611c73565b5050509392505050565b6000611cbd611cb8846129bd565b61296c565b90508083825260208201905082856020860282011115611cdc57600080fd5b60005b85811015611d0c5781611cf28882611e8e565b845260208401935060208301925050600181019050611cdf565b5050509392505050565b6000611d29611d24846129e9565b61296c565b905082815260208101848484011115611d4157600080fd5b611d4c848285612bc5565b509392505050565b6000611d67611d6284612a1a565b61296c565b905082815260208101848484011115611d7f57600080fd5b611d8a848285612bc5565b509392505050565b600081359050611da18161332c565b92915050565b600082601f830112611db857600080fd5b8135611dc8848260208601611c3e565b91505092915050565b600082601f830112611de257600080fd5b8135611df2848260208601611caa565b91505092915050565b600081359050611e0a81613343565b92915050565b600081359050611e1f8161335a565b92915050565b600081519050611e348161335a565b92915050565b600082601f830112611e4b57600080fd5b8135611e5b848260208601611d16565b91505092915050565b600082601f830112611e7557600080fd5b8135611e85848260208601611d54565b91505092915050565b600081359050611e9d81613371565b92915050565b60008060408385031215611eb657600080fd5b6000611ec485828601611d92565b9250506020611ed585828601611d92565b9150509250929050565b600080600080600060a08688031215611ef757600080fd5b6000611f0588828901611d92565b9550506020611f1688828901611d92565b945050604086013567ffffffffffffffff811115611f3357600080fd5b611f3f88828901611dd1565b935050606086013567ffffffffffffffff811115611f5c57600080fd5b611f6888828901611dd1565b925050608086013567ffffffffffffffff811115611f8557600080fd5b611f9188828901611e3a565b9150509295509295909350565b600080600080600060a08688031215611fb657600080fd5b6000611fc488828901611d92565b9550506020611fd588828901611d92565b9450506040611fe688828901611e8e565b9350506060611ff788828901611e8e565b925050608086013567ffffffffffffffff81111561201457600080fd5b61202088828901611e3a565b9150509295509295909350565b6000806040838503121561204057600080fd5b600061204e85828601611d92565b925050602061205f85828601611dfb565b9150509250929050565b6000806040838503121561207c57600080fd5b600061208a85828601611d92565b925050602061209b85828601611e8e565b9150509250929050565b600080604083850312156120b857600080fd5b600083013567ffffffffffffffff8111156120d257600080fd5b6120de85828601611da7565b925050602083013567ffffffffffffffff8111156120fb57600080fd5b61210785828601611dd1565b9150509250929050565b60006020828403121561212357600080fd5b600061213184828501611e10565b91505092915050565b60006020828403121561214c57600080fd5b600061215a84828501611e25565b91505092915050565b60006020828403121561217557600080fd5b600082013567ffffffffffffffff81111561218f57600080fd5b61219b84828501611e64565b91505092915050565b6000806000606084860312156121b957600080fd5b600084013567ffffffffffffffff8111156121d357600080fd5b6121df86828701611e64565b93505060206121f086828701611e8e565b925050604061220186828701611e8e565b9150509250925092565b60006020828403121561221d57600080fd5b600061222b84828501611e8e565b91505092915050565b6000612240838361259b565b60208301905092915050565b61225581612b51565b82525050565b600061226682612a5b565b6122708185612a89565b935061227b83612a4b565b8060005b838110156122ac5781516122938882612234565b975061229e83612a7c565b92505060018101905061227f565b5085935050505092915050565b6122c281612b63565b82525050565b60006122d382612a66565b6122dd8185612a9a565b93506122ed818560208601612bd4565b6122f681612d62565b840191505092915050565b600061230c82612a71565b6123168185612aab565b9350612326818560208601612bd4565b61232f81612d62565b840191505092915050565b600061234582612a71565b61234f8185612abc565b935061235f818560208601612bd4565b80840191505092915050565b6000612378603483612aab565b915061238382612d80565b604082019050919050565b600061239b602883612aab565b91506123a682612dcf565b604082019050919050565b60006123be602b83612aab565b91506123c982612e1e565b604082019050919050565b60006123e1603983612aab565b91506123ec82612e6d565b604082019050919050565b6000612404602983612aab565b915061240f82612ebc565b604082019050919050565b6000612427602683612aab565b915061243282612f0b565b604082019050919050565b600061244a604383612aab565b915061245582612f5a565b606082019050919050565b600061246d602583612aab565b915061247882612fcf565b604082019050919050565b6000612490603283612aab565b915061249b8261301e565b604082019050919050565b60006124b3602a83612aab565b91506124be8261306d565b604082019050919050565b60006124d6603183612aab565b91506124e1826130bc565b604082019050919050565b60006124f9602983612aab565b91506125048261310b565b604082019050919050565b600061251c602983612aab565b91506125278261315a565b604082019050919050565b600061253f602883612aab565b915061254a826131a9565b604082019050919050565b6000612562602183612aab565b915061256d826131f8565b604082019050919050565b6000612585602583612aab565b915061259082613247565b604082019050919050565b6125a481612bbb565b82525050565b6125b381612bbb565b82525050565b60006125c5828461233a565b915081905092915050565b600060a0820190506125e5600083018861224c565b6125f2602083018761224c565b8181036040830152612604818661225b565b90508181036060830152612618818561225b565b9050818103608083015261262c81846122c8565b90509695505050505050565b600060a08201905061264d600083018861224c565b61265a602083018761224c565b61266760408301866125aa565b61267460608301856125aa565b818103608083015261268681846122c8565b90509695505050505050565b600060208201905081810360008301526126ac818461225b565b905092915050565b600060408201905081810360008301526126ce818561225b565b905081810360208301526126e2818461225b565b90509392505050565b600060208201905061270060008301846122b9565b92915050565b600060208201905081810360008301526127208184612301565b905092915050565b600060208201905081810360008301526127418161236b565b9050919050565b600060208201905081810360008301526127618161238e565b9050919050565b60006020820190508181036000830152612781816123b1565b9050919050565b600060208201905081810360008301526127a1816123d4565b9050919050565b600060208201905081810360008301526127c1816123f7565b9050919050565b600060208201905081810360008301526127e18161241a565b9050919050565b600060208201905081810360008301526128018161243d565b9050919050565b6000602082019050818103600083015261282181612460565b9050919050565b6000602082019050818103600083015261284181612483565b9050919050565b60006020820190508181036000830152612861816124a6565b9050919050565b60006020820190508181036000830152612881816124c9565b9050919050565b600060208201905081810360008301526128a1816124ec565b9050919050565b600060208201905081810360008301526128c18161250f565b9050919050565b600060208201905081810360008301526128e181612532565b9050919050565b6000602082019050818103600083015261290181612555565b9050919050565b6000602082019050818103600083015261292181612578565b9050919050565b600060208201905061293d60008301846125aa565b92915050565b600060408201905061295860008301856125aa565b61296560208301846125aa565b9392505050565b6000612976612987565b90506129828282612c39565b919050565b6000604051905090565b600067ffffffffffffffff8211156129ac576129ab612d11565b5b602082029050602081019050919050565b600067ffffffffffffffff8211156129d8576129d7612d11565b5b602082029050602081019050919050565b600067ffffffffffffffff821115612a0457612a03612d11565b5b612a0d82612d62565b9050602081019050919050565b600067ffffffffffffffff821115612a3557612a34612d11565b5b612a3e82612d62565b9050602081019050919050565b6000819050602082019050919050565b600081519050919050565b600081519050919050565b600081519050919050565b6000602082019050919050565b600082825260208201905092915050565b600082825260208201905092915050565b600082825260208201905092915050565b600081905092915050565b6000612ad282612bbb565b9150612add83612bbb565b9250827fffffffffffffffffffffffffffffffffffffffffffffffffffffffffffffffff03821115612b1257612b11612cb3565b5b828201905092915050565b6000612b2882612bbb565b9150612b3383612bbb565b925082821015612b4657612b45612cb3565b5b828203905092915050565b6000612b5c82612b9b565b9050919050565b60008115159050919050565b60007fffffffff0000000000000000000000000000000000000000000000000000000082169050919050565b600073ffffffffffffffffffffffffffffffffffffffff82169050919050565b6000819050919050565b82818337600083830152505050565b60005b83811015612bf2578082015181840152602081019050612bd7565b83811115612c01576000848401525b50505050565b60006002820490506001821680612c1f57607f821691505b60208210811415612c3357612c32612ce2565b5b50919050565b612c4282612d62565b810181811067ffffffffffffffff82111715612c6157612c60612d11565b5b80604052505050565b6000612c7582612bbb565b91507fffffffffffffffffffffffffffffffffffffffffffffffffffffffffffffffff821415612ca857612ca7612cb3565b5b600182019050919050565b7f4e487b7100000000000000000000000000000000000000000000000000000000600052601160045260246000fd5b7f4e487b7100000000000000000000000000000000000000000000000000000000600052602260045260246000fd5b7f4e487b7100000000000000000000000000000000000000000000000000000000600052604160045260246000fd5b600060033d1115612d5f5760046000803e612d5c600051612d73565b90505b90565b6000601f19601f8301169050919050565b60008160e01c9050919050565b7f455243313135353a207472616e7366657220746f206e6f6e204552433131353560008201527f526563656976657220696d706c656d656e746572000000000000000000000000602082015250565b7f455243313135353a204552433131353552656365697665722072656a6563746560008201527f6420746f6b656e73000000000000000000000000000000000000000000000000602082015250565b7f455243313135353a2062616c616e636520717565727920666f7220746865207a60008201527f65726f2061646472657373000000000000000000000000000000000000000000602082015250565b7f5f636f6c6c656374696f6e5f69642063616e206e6f742062652065786365656460008201527f20746f2074686520636f6c6c656374696f6e20616d6f756e7400000000000000602082015250565b7f455243313135353a2063616c6c6572206973206e6f74206f776e6572206e6f7260008201527f20617070726f7665640000000000000000000000000000000000000000000000602082015250565b7f636f6c6c656374696f6e206e616d652063616e6e6f7420626520656d7074792060008201527f737472696e670000000000000000000000000000000000000000000000000000602082015250565b7f636f6c6c656374696f6e204944205f6964206973206e6f742065787465726e6160008201527f6c20746f2074686520746f74616c20616d6f756e74206f6620636f6c6c65637460208201527f696f6e0000000000000000000000000000000000000000000000000000000000604082015250565b7f455243313135353a207472616e7366657220746f20746865207a65726f20616460008201527f6472657373000000000000000000000000000000000000000000000000000000602082015250565b7f455243313135353a207472616e736665722063616c6c6572206973206e6f742060008201527f6f776e6572206e6f7220617070726f7665640000000000000000000000000000602082015250565b7f455243313135353a20696e73756666696369656e742062616c616e636520666f60008201527f72207472616e7366657200000000000000000000000000000000000000000000602082015250565b7f6e66742069642063616e206e6f742062652065786365656420746f207468652060008201527f746f74616c206e667420636f756e746572000000000000000000000000000000602082015250565b7f455243313135353a2073657474696e6720617070726f76616c2073746174757360008201527f20666f722073656c660000000000000000000000000000000000000000000000602082015250565b7f455243313135353a206163636f756e747320616e6420696473206c656e67746860008201527f206d69736d617463680000000000000000000000000000000000000000000000602082015250565b7f455243313135353a2069647320616e6420616d6f756e7473206c656e6774682060008201527f6d69736d61746368000000000000000000000000000000000000000000000000602082015250565b7f455243313135353a206d696e7420746f20746865207a65726f2061646472657360008201527f7300000000000000000000000000000000000000000000000000000000000000602082015250565b7f636f6c6c656374696f6e2063616e206e6f7420626520616c726561647920637260008201527f6561746564000000000000000000000000000000000000000000000000000000602082015250565b600060443d10156132a657613329565b6132ae612987565b60043d036004823e80513d602482011167ffffffffffffffff821117156132d6575050613329565b808201805167ffffffffffffffff8111156132f45750505050613329565b80602083010160043d038501811115613311575050505050613329565b61332082602001850186612c39565b82955050505050505b90565b61333581612b51565b811461334057600080fd5b50565b61334c81612b63565b811461335757600080fd5b50565b61336381612b6f565b811461336e57600080fd5b50565b61337a81612bbb565b811461338557600080fd5b5056fea26469706673582212204c067eb7b9b67bd98b603c1e9cedaf6fdecbd6aed040cb6a3251e3a796f96e0c64736f6c63430008040033",
  "immutableReferences": {},
  "source": "// SPDX-License-Identifier: MIT\npragma solidity ^0.8.0;\n\nimport \"@openzeppelin/contracts/token/ERC1155/ERC1155.sol\";\n\ncontract Mint is ERC1155 {\n    // collection list uint(id) => string(hash)\n    mapping (uint => string) collection_list;\n    // collection already created string(hash) => bool()\n    mapping (string => bool) collection_check;\n    // collection counter\n    uint collection_counter;\n\n    // NFT card list uint (id) => string (hash) \n    // this list is according to cards, not collection\n    mapping (uint => string) nft_hash_list;\n    // NFT card list every collection\n    // uint (collection_id) => uint (nft_id) => string (hash)\n    mapping (uint => mapping(uint => string)) nft_per_collection;\n    // NFT card counters in total\n    uint nft_counter;\n    // NFT card counter every collection\n    // uint (collection_id) => uint (collection_capacity)\n    mapping (uint => uint) nft_counter_per_collection;\n\n    // constructor\n    constructor() public ERC1155(\"\"){}\n\n    // Create Collection\n    function create_collection (string memory _hash) public returns (bool) {\n        // require : collection name cannot be empty string\n        require(bytes(_hash).length > 0, \"collection name cannot be empty string\");\n        // require : collection can not be already created\n        require(collection_check[_hash] == false, \"collection can not be already created\");\n\n        collection_list[collection_counter] = _hash;\n        collection_check[_hash] = true;\n        collection_counter++;\n\n        return true;\n    }\n    // return total amount of collection  \n    function get_collection_count() public view returns (uint) {\n        return collection_counter;\n    }\n    // get collection hash by collection id\n    function get_collection_hash(uint _id) public view returns (string memory) {\n        // require : collection ID _id is not external to the total amount of collection\n        require(_id < collection_counter, \"collection ID _id is not external to the total amount of collection\");\n\n        return collection_list[_id];\n    }\n\n    // mint single NFT \n    // params: NFT hash, collection ID, amount\n    function single_mint (string memory _hash, uint _collection_id, uint _amount) public returns (uint) {\n        nft_hash_list[nft_counter] = _hash;\n\n        uint collection_capacity = nft_counter_per_collection[_collection_id];\n        nft_per_collection[_collection_id][collection_capacity] = _hash;\n        nft_counter_per_collection[_collection_id]++;\n\n        _mint(msg.sender, nft_counter, _amount, \"\");    \n        nft_counter ++;\n\n        return nft_counter;\n    }\n\n    // Get nft hash by nft id\n    function get_nft_hash (uint _nft_id) public view returns (string memory) {\n        // require : _nft_id is available, so can not be exceed to total nft counter\n        require(_nft_id < nft_counter, \"nft id can not be exceed to the total nft counter\");\n\n        return nft_hash_list[_nft_id];\n    }\n\n    // Get total nft counter\n    function get_nft_counter () public view returns (uint) {\n        return nft_counter;\n    }\n\n    // Get total nft counter every collection by collection_id\n    function get_nft_counter_per_collection (uint _collection_id) public view returns (uint) {\n        // require : _collection_id can not be exceed to the collection amount\n        require(_collection_id < collection_counter, \"_collection_id can not be exceed to the collection amount\");\n\n        return nft_counter_per_collection[_collection_id];\n    }\n}",
  "sourcePath": "/home/oncemore/Blockchain Work/NFT_marketplace_smartcontract(MEME_20210511)/contracts/Mint.sol",
  "compiler": {
    "name": "solc",
    "version": "0.8.4+commit.c7e474f2.Emscripten.clang"
  },
  "schemaVersion": "3.3.4",
  "updatedAt": "2021-05-11T20:47:03.611Z",
  "devdoc": {
    "kind": "dev",
    "methods": {
      "balanceOf(address,uint256)": {
        "details": "See {IERC1155-balanceOf}. Requirements: - `account` cannot be the zero address."
      },
      "balanceOfBatch(address[],uint256[])": {
        "details": "See {IERC1155-balanceOfBatch}. Requirements: - `accounts` and `ids` must have the same length."
      },
      "isApprovedForAll(address,address)": {
        "details": "See {IERC1155-isApprovedForAll}."
      },
      "safeBatchTransferFrom(address,address,uint256[],uint256[],bytes)": {
        "details": "See {IERC1155-safeBatchTransferFrom}."
      },
      "safeTransferFrom(address,address,uint256,uint256,bytes)": {
        "details": "See {IERC1155-safeTransferFrom}."
      },
      "setApprovalForAll(address,bool)": {
        "details": "See {IERC1155-setApprovalForAll}."
      },
      "supportsInterface(bytes4)": {
        "details": "See {IERC165-supportsInterface}."
      },
      "uri(uint256)": {
        "details": "See {IERC1155MetadataURI-uri}. This implementation returns the same URI for *all* token types. It relies on the token type ID substitution mechanism https://eips.ethereum.org/EIPS/eip-1155#metadata[defined in the EIP]. Clients calling this function must replace the `\\{id\\}` substring with the actual token type ID."
      }
    },
    "version": 1
  },
  "userdoc": {
    "kind": "user",
    "methods": {},
    "version": 1
  }
}