{
  "contractName": "Whitelist",
  "abi": [
    {
      "inputs": [],
      "stateMutability": "nonpayable",
      "type": "constructor"
    },
    {
      "anonymous": false,
      "inputs": [
        {
          "indexed": false,
          "internalType": "address",
          "name": "member",
          "type": "address"
        }
      ],
      "name": "MemberAdded",
      "type": "event"
    },
    {
      "anonymous": false,
      "inputs": [
        {
          "indexed": false,
          "internalType": "address",
          "name": "member",
          "type": "address"
        }
      ],
      "name": "MemberRemoved",
      "type": "event"
    },
    {
      "anonymous": false,
      "inputs": [
        {
          "indexed": true,
          "internalType": "address",
          "name": "previousOwner",
          "type": "address"
        },
        {
          "indexed": true,
          "internalType": "address",
          "name": "newOwner",
          "type": "address"
        }
      ],
      "name": "OwnershipTransferred",
      "type": "event"
    },
    {
      "inputs": [],
      "name": "owner",
      "outputs": [
        {
          "internalType": "address",
          "name": "",
          "type": "address"
        }
      ],
      "stateMutability": "view",
      "type": "function"
    },
    {
      "inputs": [],
      "name": "renounceOwnership",
      "outputs": [],
      "stateMutability": "nonpayable",
      "type": "function"
    },
    {
      "inputs": [
        {
          "internalType": "address",
          "name": "newOwner",
          "type": "address"
        }
      ],
      "name": "transferOwnership",
      "outputs": [],
      "stateMutability": "nonpayable",
      "type": "function"
    },
    {
      "inputs": [
        {
          "internalType": "address",
          "name": "_member",
          "type": "address"
        }
      ],
      "name": "isMember",
      "outputs": [
        {
          "internalType": "bool",
          "name": "",
          "type": "bool"
        }
      ],
      "stateMutability": "view",
      "type": "function"
    },
    {
      "inputs": [
        {
          "internalType": "address",
          "name": "_member",
          "type": "address"
        }
      ],
      "name": "addMember",
      "outputs": [],
      "stateMutability": "nonpayable",
      "type": "function"
    },
    {
      "inputs": [
        {
          "internalType": "address",
          "name": "_member",
          "type": "address"
        }
      ],
      "name": "removeMember",
      "outputs": [],
      "stateMutability": "nonpayable",
      "type": "function"
    }
  ],
  "bytecode": "0x608060405234801561001057600080fd5b5060006100216100c460201b60201c565b9050806000806101000a81548173ffffffffffffffffffffffffffffffffffffffff021916908373ffffffffffffffffffffffffffffffffffffffff1602179055508073ffffffffffffffffffffffffffffffffffffffff16600073ffffffffffffffffffffffffffffffffffffffff167f8be0079c531659141344cd1fd0a4f28419497f9722a3daafe3b4186f6b6457e060405160405180910390a3506100cc565b600033905090565b610a24806100db6000396000f3fe608060405234801561001057600080fd5b50600436106100625760003560e01c80630b1ca49a14610067578063715018a6146100835780638da5cb5b1461008d578063a230c524146100ab578063ca6d56dc146100db578063f2fde38b146100f7575b600080fd5b610081600480360381019061007c9190610735565b610113565b005b61008b610260565b005b61009561039a565b6040516100a29190610808565b60405180910390f35b6100c560048036038101906100c09190610735565b6103c3565b6040516100d29190610823565b60405180910390f35b6100f560048036038101906100f09190610735565b610419565b005b610111600480360381019061010c9190610735565b61056f565b005b61011b610718565b73ffffffffffffffffffffffffffffffffffffffff1661013961039a565b73ffffffffffffffffffffffffffffffffffffffff161461018f576040517f08c379a00000000000000000000000000000000000000000000000000000000081526004016101869061085e565b60405180910390fd5b610198816103c3565b6101d7576040517f08c379a00000000000000000000000000000000000000000000000000000000081526004016101ce9061087e565b60405180910390fd5b600160008273ffffffffffffffffffffffffffffffffffffffff1673ffffffffffffffffffffffffffffffffffffffff16815260200190815260200160002060006101000a81549060ff02191690557f6e76fb4c77256006d9c38ec7d82b45a8c8f3c27b1d6766fffc42dfb8de684492816040516102559190610808565b60405180910390a150565b610268610718565b73ffffffffffffffffffffffffffffffffffffffff1661028661039a565b73ffffffffffffffffffffffffffffffffffffffff16146102dc576040517f08c379a00000000000000000000000000000000000000000000000000000000081526004016102d39061085e565b60405180910390fd5b600073ffffffffffffffffffffffffffffffffffffffff1660008054906101000a900473ffffffffffffffffffffffffffffffffffffffff1673ffffffffffffffffffffffffffffffffffffffff167f8be0079c531659141344cd1fd0a4f28419497f9722a3daafe3b4186f6b6457e060405160405180910390a360008060006101000a81548173ffffffffffffffffffffffffffffffffffffffff021916908373ffffffffffffffffffffffffffffffffffffffff160217905550565b60008060009054906101000a900473ffffffffffffffffffffffffffffffffffffffff16905090565b6000600160008373ffffffffffffffffffffffffffffffffffffffff1673ffffffffffffffffffffffffffffffffffffffff16815260200190815260200160002060009054906101000a900460ff169050919050565b610421610718565b73ffffffffffffffffffffffffffffffffffffffff1661043f61039a565b73ffffffffffffffffffffffffffffffffffffffff1614610495576040517f08c379a000000000000000000000000000000000000000000000000000000000815260040161048c9061085e565b60405180910390fd5b61049e816103c3565b156104de576040517f08c379a00000000000000000000000000000000000000000000000000000000081526004016104d59061089e565b60405180910390fd5b60018060008373ffffffffffffffffffffffffffffffffffffffff1673ffffffffffffffffffffffffffffffffffffffff16815260200190815260200160002060006101000a81548160ff0219169083151502179055507fb251eb052afc73ffd02ffe85ad79990a8b3fed60d76dbc2fa2fdd7123dffd914816040516105649190610808565b60405180910390a150565b610577610718565b73ffffffffffffffffffffffffffffffffffffffff1661059561039a565b73ffffffffffffffffffffffffffffffffffffffff16146105eb576040517f08c379a00000000000000000000000000000000000000000000000000000000081526004016105e29061085e565b60405180910390fd5b600073ffffffffffffffffffffffffffffffffffffffff168173ffffffffffffffffffffffffffffffffffffffff16141561065b576040517f08c379a00000000000000000000000000000000000000000000000000000000081526004016106529061083e565b60405180910390fd5b8073ffffffffffffffffffffffffffffffffffffffff1660008054906101000a900473ffffffffffffffffffffffffffffffffffffffff1673ffffffffffffffffffffffffffffffffffffffff167f8be0079c531659141344cd1fd0a4f28419497f9722a3daafe3b4186f6b6457e060405160405180910390a3806000806101000a81548173ffffffffffffffffffffffffffffffffffffffff021916908373ffffffffffffffffffffffffffffffffffffffff16021790555050565b600033905090565b60008135905061072f816109d7565b92915050565b60006020828403121561074757600080fd5b600061075584828501610720565b91505092915050565b610767816108cf565b82525050565b610776816108e1565b82525050565b60006107896026836108be565b91506107948261090d565b604082019050919050565b60006107ac6020836108be565b91506107b78261095c565b602082019050919050565b60006107cf6017836108be565b91506107da82610985565b602082019050919050565b60006107f2601a836108be565b91506107fd826109ae565b602082019050919050565b600060208201905061081d600083018461075e565b92915050565b6000602082019050610838600083018461076d565b92915050565b600060208201905081810360008301526108578161077c565b9050919050565b600060208201905081810360008301526108778161079f565b9050919050565b60006020820190508181036000830152610897816107c2565b9050919050565b600060208201905081810360008301526108b7816107e5565b9050919050565b600082825260208201905092915050565b60006108da826108ed565b9050919050565b60008115159050919050565b600073ffffffffffffffffffffffffffffffffffffffff82169050919050565b7f4f776e61626c653a206e6577206f776e657220697320746865207a65726f206160008201527f6464726573730000000000000000000000000000000000000000000000000000602082015250565b7f4f776e61626c653a2063616c6c6572206973206e6f7420746865206f776e6572600082015250565b7f4e6f74206d656d626572206f662077686974656c697374000000000000000000600082015250565b7f41646472657373206973206d656d62657220616c72656164792e000000000000600082015250565b6109e0816108cf565b81146109eb57600080fd5b5056fea2646970667358221220e1dc43f3264fa9e536c5ea80bb9339a1aa5beafbf892293aa105d78df482bec564736f6c63430008040033",
  "immutableReferences": {},
  "source": "// SPDX-License-Identifier: MIT\npragma solidity ^0.8.0;\n\nimport \"@openzeppelin/contracts/access/Ownable.sol\";\n\ncontract Whitelist is Ownable{\n    event MemberAdded (address member);\n    event MemberRemoved (address member);\n\n    mapping (address => bool) members;\n\n    /**\n    * @dev The contract constructor\n     */\n    constructor() public Ownable() {}\n\n    function isMember(address _member) public view returns(bool) {\n        return members[_member];\n    }\n\n    function addMember (address _member) public onlyOwner {\n        require(!isMember(_member), \"Address is member already.\");\n        members[_member] = true;\n        emit MemberAdded(_member);\n    }\n\n    function removeMember(address _member) public onlyOwner {\n        require(isMember(_member), \"Not member of whitelist\");\n        delete members[_member];\n        emit MemberRemoved(_member);\n    }\n}",
  "sourcePath": "/home/oncemore/Blockchain Work/NFT_marketplace_smartcontract(MEME_20210511)/contracts/Whitelist.sol",
  "compiler": {
    "name": "solc",
    "version": "0.8.4+commit.c7e474f2.Emscripten.clang"
  },
  "schemaVersion": "3.3.4",
  "updatedAt": "2021-05-12T05:01:04.116Z",
  "devdoc": {
    "kind": "dev",
    "methods": {
      "constructor": {
        "details": "The contract constructor"
      },
      "owner()": {
        "details": "Returns the address of the current owner."
      },
      "renounceOwnership()": {
        "details": "Leaves the contract without owner. It will not be possible to call `onlyOwner` functions anymore. Can only be called by the current owner. NOTE: Renouncing ownership will leave the contract without an owner, thereby removing any functionality that is only available to the owner."
      },
      "transferOwnership(address)": {
        "details": "Transfers ownership of the contract to a new account (`newOwner`). Can only be called by the current owner."
      }
    },
    "version": 1
  },
  "userdoc": {
    "kind": "user",
    "methods": {},
    "version": 1
  }
}